{"abi":[{"inputs":[{"internalType":"string[]","name":"candList","type":"string[]"},{"internalType":"string","name":"description","type":"string"}],"name":"createElection","outputs":[],"stateMutability":"nonpayable","type":"function"},{"inputs":[{"internalType":"uint256","name":"","type":"uint256"}],"name":"deployedElections","outputs":[{"internalType":"address","name":"","type":"address"}],"stateMutability":"view","type":"function"},{"inputs":[],"name":"getAllElections","outputs":[{"internalType":"address[]","name":"","type":"address[]"}],"stateMutability":"view","type":"function"}],"devdoc":{"kind":"dev","methods":{},"version":1},"evm":{"assembly":"    /* \"fileName\":61:459  contract Factory{... */\n  mstore(0x40, 0x80)\n  callvalue\n  dup1\n  iszero\n  tag_1\n  jumpi\n  0x00\n  dup1\n  revert\ntag_1:\n  pop\n  dataSize(sub_0)\n  dup1\n  dataOffset(sub_0)\n  0x00\n  codecopy\n  0x00\n  return\nstop\n\nsub_0: assembly {\n        /* \"fileName\":61:459  contract Factory{... */\n      mstore(0x40, 0x80)\n      callvalue\n      dup1\n      iszero\n      tag_1\n      jumpi\n      0x00\n      dup1\n      revert\n    tag_1:\n      pop\n      jumpi(tag_2, lt(calldatasize, 0x04))\n      shr(0xe0, calldataload(0x00))\n      dup1\n      0x67dc64c5\n      eq\n      tag_3\n      jumpi\n      dup1\n      0x7fd5f268\n      eq\n      tag_4\n      jumpi\n      dup1\n      0xf18b4f8e\n      eq\n      tag_5\n      jumpi\n    tag_2:\n      0x00\n      dup1\n      revert\n        /* \"fileName\":124:344  function createElection(string[] memory candList, string memory description) public { ... */\n    tag_3:\n      tag_6\n      0x04\n      dup1\n      calldatasize\n      sub\n      dup2\n      add\n      swap1\n      tag_7\n      swap2\n      swap1\n      tag_8\n      jump\t// in\n    tag_7:\n      tag_9\n      jump\t// in\n    tag_6:\n      stop\n        /* \"fileName\":350:457  function getAllElections() public view returns (address[] memory) {... */\n    tag_4:\n      tag_10\n      tag_11\n      jump\t// in\n    tag_10:\n      mload(0x40)\n      tag_12\n      swap2\n      swap1\n      tag_13\n      jump\t// in\n    tag_12:\n      mload(0x40)\n      dup1\n      swap2\n      sub\n      swap1\n      return\n        /* \"fileName\":83:117  address[] public deployedElections */\n    tag_5:\n      tag_14\n      0x04\n      dup1\n      calldatasize\n      sub\n      dup2\n      add\n      swap1\n      tag_15\n      swap2\n      swap1\n      tag_16\n      jump\t// in\n    tag_15:\n      tag_17\n      jump\t// in\n    tag_14:\n      mload(0x40)\n      tag_18\n      swap2\n      swap1\n      tag_19\n      jump\t// in\n    tag_18:\n      mload(0x40)\n      dup1\n      swap2\n      sub\n      swap1\n      return\n        /* \"fileName\":124:344  function createElection(string[] memory candList, string memory description) public { ... */\n    tag_9:\n        /* \"fileName\":219:231  address cont */\n      0x00\n        /* \"fileName\":255:265  msg.sender */\n      caller\n        /* \"fileName\":267:275  candList */\n      dup4\n        /* \"fileName\":277:288  description */\n      dup4\n        /* \"fileName\":242:289  new Election(msg.sender, candList, description) */\n      mload(0x40)\n      tag_21\n      swap1\n      tag_22\n      jump\t// in\n    tag_21:\n      tag_23\n      swap4\n      swap3\n      swap2\n      swap1\n      tag_24\n      jump\t// in\n    tag_23:\n      mload(0x40)\n      dup1\n      swap2\n      sub\n      swap1\n      0x00\n      create\n      dup1\n      iszero\n      dup1\n      iszero\n      tag_25\n      jumpi\n      returndatasize\n      0x00\n      dup1\n      returndatacopy\n      revert(0x00, returndatasize)\n    tag_25:\n      pop\n        /* \"fileName\":219:290  address cont = address(new Election(msg.sender, candList, description)) */\n      swap1\n      pop\n        /* \"fileName\":309:326  deployedElections */\n      0x00\n        /* \"fileName\":332:336  cont */\n      dup2\n        /* \"fileName\":309:337  deployedElections.push(cont) */\n      swap1\n      dup1\n      0x01\n      dup2\n      sload\n      add\n      dup1\n      dup3\n      sstore\n      dup1\n      swap2\n      pop\n      pop\n      0x01\n      swap1\n      sub\n      swap1\n      0x00\n      mstore\n      keccak256(0x00, 0x20)\n      add\n      0x00\n      swap1\n      swap2\n      swap1\n      swap2\n      swap1\n      swap2\n      0x0100\n      exp\n      dup2\n      sload\n      dup2\n      0xffffffffffffffffffffffffffffffffffffffff\n      mul\n      not\n      and\n      swap1\n      dup4\n      0xffffffffffffffffffffffffffffffffffffffff\n      and\n      mul\n      or\n      swap1\n      sstore\n      pop\n        /* \"fileName\":124:344  function createElection(string[] memory candList, string memory description) public { ... */\n      pop\n      pop\n      pop\n      jump\t// out\n        /* \"fileName\":350:457  function getAllElections() public view returns (address[] memory) {... */\n    tag_11:\n        /* \"fileName\":398:414  address[] memory */\n      0x60\n        /* \"fileName\":433:450  deployedElections */\n      0x00\n        /* \"fileName\":426:450  return deployedElections */\n      dup1\n      sload\n      dup1\n      0x20\n      mul\n      0x20\n      add\n      mload(0x40)\n      swap1\n      dup2\n      add\n      0x40\n      mstore\n      dup1\n      swap3\n      swap2\n      swap1\n      dup2\n      dup2\n      mstore\n      0x20\n      add\n      dup3\n      dup1\n      sload\n      dup1\n      iszero\n      tag_28\n      jumpi\n      0x20\n      mul\n      dup3\n      add\n      swap2\n      swap1\n      0x00\n      mstore\n      keccak256(0x00, 0x20)\n      swap1\n    tag_29:\n      dup2\n      0x00\n      swap1\n      sload\n      swap1\n      0x0100\n      exp\n      swap1\n      div\n      0xffffffffffffffffffffffffffffffffffffffff\n      and\n      0xffffffffffffffffffffffffffffffffffffffff\n      and\n      dup2\n      mstore\n      0x20\n      add\n      swap1\n      0x01\n      add\n      swap1\n      dup1\n      dup4\n      gt\n      tag_29\n      jumpi\n    tag_28:\n      pop\n      pop\n      pop\n      pop\n      pop\n      swap1\n      pop\n        /* \"fileName\":350:457  function getAllElections() public view returns (address[] memory) {... */\n      swap1\n      jump\t// out\n        /* \"fileName\":83:117  address[] public deployedElections */\n    tag_17:\n      0x00\n      dup2\n      dup2\n      sload\n      dup2\n      lt\n      tag_30\n      jumpi\n      0x00\n      dup1\n      revert\n    tag_30:\n      swap1\n      0x00\n      mstore\n      keccak256(0x00, 0x20)\n      add\n      0x00\n      swap2\n      pop\n      sload\n      swap1\n      0x0100\n      exp\n      swap1\n      div\n      0xffffffffffffffffffffffffffffffffffffffff\n      and\n      dup2\n      jump\t// out\n    tag_22:\n      dataSize(sub_0)\n      dup1\n      dataOffset(sub_0)\n      dup4\n      codecopy\n      add\n      swap1\n      jump\t// out\n        /* \"#utility.yul\":23:638   */\n    tag_33:\n      0x00\n        /* \"#utility.yul\":154:244   */\n      tag_35\n        /* \"#utility.yul\":169:243   */\n      tag_36\n        /* \"#utility.yul\":236:242   */\n      dup5\n        /* \"#utility.yul\":169:243   */\n      tag_37\n      jump\t// in\n    tag_36:\n        /* \"#utility.yul\":154:244   */\n      tag_38\n      jump\t// in\n    tag_35:\n        /* \"#utility.yul\":145:244   */\n      swap1\n      pop\n        /* \"#utility.yul\":264:269   */\n      dup1\n        /* \"#utility.yul\":292:298   */\n      dup4\n        /* \"#utility.yul\":285:290   */\n      dup3\n        /* \"#utility.yul\":278:299   */\n      mstore\n        /* \"#utility.yul\":318:322   */\n      0x20\n        /* \"#utility.yul\":311:316   */\n      dup3\n        /* \"#utility.yul\":307:323   */\n      add\n        /* \"#utility.yul\":300:323   */\n      swap1\n      pop\n        /* \"#utility.yul\":343:349   */\n      dup3\n        /* \"#utility.yul\":374:375   */\n      0x00\n        /* \"#utility.yul\":359:632   */\n    tag_39:\n        /* \"#utility.yul\":384:390   */\n      dup6\n        /* \"#utility.yul\":381:382   */\n      dup2\n        /* \"#utility.yul\":378:391   */\n      lt\n        /* \"#utility.yul\":359:632   */\n      iszero\n      tag_41\n      jumpi\n        /* \"#utility.yul\":476:479   */\n      dup2\n        /* \"#utility.yul\":463:480   */\n      calldataload\n        /* \"#utility.yul\":455:461   */\n      dup6\n        /* \"#utility.yul\":451:481   */\n      add\n        /* \"#utility.yul\":506:553   */\n      tag_42\n        /* \"#utility.yul\":549:552   */\n      dup9\n        /* \"#utility.yul\":537:547   */\n      dup3\n        /* \"#utility.yul\":506:553   */\n      tag_43\n      jump\t// in\n    tag_42:\n        /* \"#utility.yul\":501:504   */\n      dup5\n        /* \"#utility.yul\":494:554   */\n      mstore\n        /* \"#utility.yul\":583:587   */\n      0x20\n        /* \"#utility.yul\":578:581   */\n      dup5\n        /* \"#utility.yul\":574:588   */\n      add\n        /* \"#utility.yul\":567:588   */\n      swap4\n      pop\n        /* \"#utility.yul\":617:621   */\n      0x20\n        /* \"#utility.yul\":612:615   */\n      dup4\n        /* \"#utility.yul\":608:622   */\n      add\n        /* \"#utility.yul\":601:622   */\n      swap3\n      pop\n        /* \"#utility.yul\":419:632   */\n      pop\n        /* \"#utility.yul\":406:407   */\n      0x01\n        /* \"#utility.yul\":403:404   */\n      dup2\n        /* \"#utility.yul\":399:408   */\n      add\n        /* \"#utility.yul\":394:408   */\n      swap1\n      pop\n        /* \"#utility.yul\":359:632   */\n      jump(tag_39)\n    tag_41:\n        /* \"#utility.yul\":363:377   */\n      pop\n        /* \"#utility.yul\":135:638   */\n      pop\n      pop\n      swap4\n      swap3\n      pop\n      pop\n      pop\n      jump\t// out\n        /* \"#utility.yul\":644:988   */\n    tag_44:\n      0x00\n        /* \"#utility.yul\":747:812   */\n      tag_46\n        /* \"#utility.yul\":762:811   */\n      tag_47\n        /* \"#utility.yul\":804:810   */\n      dup5\n        /* \"#utility.yul\":762:811   */\n      tag_48\n      jump\t// in\n    tag_47:\n        /* \"#utility.yul\":747:812   */\n      tag_38\n      jump\t// in\n    tag_46:\n        /* \"#utility.yul\":738:812   */\n      swap1\n      pop\n        /* \"#utility.yul\":835:841   */\n      dup3\n        /* \"#utility.yul\":828:833   */\n      dup2\n        /* \"#utility.yul\":821:842   */\n      mstore\n        /* \"#utility.yul\":873:877   */\n      0x20\n        /* \"#utility.yul\":866:871   */\n      dup2\n        /* \"#utility.yul\":862:878   */\n      add\n        /* \"#utility.yul\":911:914   */\n      dup5\n        /* \"#utility.yul\":902:908   */\n      dup5\n        /* \"#utility.yul\":897:900   */\n      dup5\n        /* \"#utility.yul\":893:909   */\n      add\n        /* \"#utility.yul\":890:915   */\n      gt\n        /* \"#utility.yul\":887:889   */\n      iszero\n      tag_49\n      jumpi\n        /* \"#utility.yul\":928:929   */\n      0x00\n        /* \"#utility.yul\":925:926   */\n      dup1\n        /* \"#utility.yul\":918:930   */\n      revert\n        /* \"#utility.yul\":887:889   */\n    tag_49:\n        /* \"#utility.yul\":941:982   */\n      tag_50\n        /* \"#utility.yul\":975:981   */\n      dup5\n        /* \"#utility.yul\":970:973   */\n      dup3\n        /* \"#utility.yul\":965:968   */\n      dup6\n        /* \"#utility.yul\":941:982   */\n      tag_51\n      jump\t// in\n    tag_50:\n        /* \"#utility.yul\":728:988   */\n      pop\n      swap4\n      swap3\n      pop\n      pop\n      pop\n      jump\t// out\n        /* \"#utility.yul\":1010:1333   */\n    tag_52:\n      0x00\n        /* \"#utility.yul\":1140:1143   */\n      dup3\n        /* \"#utility.yul\":1133:1137   */\n      0x1f\n        /* \"#utility.yul\":1125:1131   */\n      dup4\n        /* \"#utility.yul\":1121:1138   */\n      add\n        /* \"#utility.yul\":1117:1144   */\n      slt\n        /* \"#utility.yul\":1107:1109   */\n      tag_54\n      jumpi\n        /* \"#utility.yul\":1158:1159   */\n      0x00\n        /* \"#utility.yul\":1155:1156   */\n      dup1\n        /* \"#utility.yul\":1148:1160   */\n      revert\n        /* \"#utility.yul\":1107:1109   */\n    tag_54:\n        /* \"#utility.yul\":1198:1204   */\n      dup2\n        /* \"#utility.yul\":1185:1205   */\n      calldataload\n        /* \"#utility.yul\":1223:1327   */\n      tag_55\n        /* \"#utility.yul\":1323:1326   */\n      dup5\n        /* \"#utility.yul\":1315:1321   */\n      dup3\n        /* \"#utility.yul\":1308:1312   */\n      0x20\n        /* \"#utility.yul\":1300:1306   */\n      dup7\n        /* \"#utility.yul\":1296:1313   */\n      add\n        /* \"#utility.yul\":1223:1327   */\n      tag_33\n      jump\t// in\n    tag_55:\n        /* \"#utility.yul\":1214:1327   */\n      swap2\n      pop\n        /* \"#utility.yul\":1097:1333   */\n      pop\n      swap3\n      swap2\n      pop\n      pop\n      jump\t// out\n        /* \"#utility.yul\":1353:1626   */\n    tag_43:\n      0x00\n        /* \"#utility.yul\":1458:1461   */\n      dup3\n        /* \"#utility.yul\":1451:1455   */\n      0x1f\n        /* \"#utility.yul\":1443:1449   */\n      dup4\n        /* \"#utility.yul\":1439:1456   */\n      add\n        /* \"#utility.yul\":1435:1462   */\n      slt\n        /* \"#utility.yul\":1425:1427   */\n      tag_57\n      jumpi\n        /* \"#utility.yul\":1476:1477   */\n      0x00\n        /* \"#utility.yul\":1473:1474   */\n      dup1\n        /* \"#utility.yul\":1466:1478   */\n      revert\n        /* \"#utility.yul\":1425:1427   */\n    tag_57:\n        /* \"#utility.yul\":1516:1522   */\n      dup2\n        /* \"#utility.yul\":1503:1523   */\n      calldataload\n        /* \"#utility.yul\":1541:1620   */\n      tag_58\n        /* \"#utility.yul\":1616:1619   */\n      dup5\n        /* \"#utility.yul\":1608:1614   */\n      dup3\n        /* \"#utility.yul\":1601:1605   */\n      0x20\n        /* \"#utility.yul\":1593:1599   */\n      dup7\n        /* \"#utility.yul\":1589:1606   */\n      add\n        /* \"#utility.yul\":1541:1620   */\n      tag_44\n      jump\t// in\n    tag_58:\n        /* \"#utility.yul\":1532:1620   */\n      swap2\n      pop\n        /* \"#utility.yul\":1415:1626   */\n      pop\n      swap3\n      swap2\n      pop\n      pop\n      jump\t// out\n        /* \"#utility.yul\":1632:1771   */\n    tag_59:\n      0x00\n        /* \"#utility.yul\":1716:1722   */\n      dup2\n        /* \"#utility.yul\":1703:1723   */\n      calldataload\n        /* \"#utility.yul\":1694:1723   */\n      swap1\n      pop\n        /* \"#utility.yul\":1732:1765   */\n      tag_61\n        /* \"#utility.yul\":1759:1764   */\n      dup2\n        /* \"#utility.yul\":1732:1765   */\n      tag_62\n      jump\t// in\n    tag_61:\n        /* \"#utility.yul\":1684:1771   */\n      swap3\n      swap2\n      pop\n      pop\n      jump\t// out\n        /* \"#utility.yul\":1777:2460   */\n    tag_8:\n      0x00\n      dup1\n        /* \"#utility.yul\":1947:1949   */\n      0x40\n        /* \"#utility.yul\":1935:1944   */\n      dup4\n        /* \"#utility.yul\":1926:1933   */\n      dup6\n        /* \"#utility.yul\":1922:1945   */\n      sub\n        /* \"#utility.yul\":1918:1950   */\n      slt\n        /* \"#utility.yul\":1915:1917   */\n      iszero\n      tag_64\n      jumpi\n        /* \"#utility.yul\":1963:1964   */\n      0x00\n        /* \"#utility.yul\":1960:1961   */\n      dup1\n        /* \"#utility.yul\":1953:1965   */\n      revert\n        /* \"#utility.yul\":1915:1917   */\n    tag_64:\n        /* \"#utility.yul\":2034:2035   */\n      0x00\n        /* \"#utility.yul\":2023:2032   */\n      dup4\n        /* \"#utility.yul\":2019:2036   */\n      add\n        /* \"#utility.yul\":2006:2037   */\n      calldataload\n        /* \"#utility.yul\":2064:2082   */\n      0xffffffffffffffff\n        /* \"#utility.yul\":2056:2062   */\n      dup2\n        /* \"#utility.yul\":2053:2083   */\n      gt\n        /* \"#utility.yul\":2050:2052   */\n      iszero\n      tag_65\n      jumpi\n        /* \"#utility.yul\":2096:2097   */\n      0x00\n        /* \"#utility.yul\":2093:2094   */\n      dup1\n        /* \"#utility.yul\":2086:2098   */\n      revert\n        /* \"#utility.yul\":2050:2052   */\n    tag_65:\n        /* \"#utility.yul\":2124:2212   */\n      tag_66\n        /* \"#utility.yul\":2204:2211   */\n      dup6\n        /* \"#utility.yul\":2195:2201   */\n      dup3\n        /* \"#utility.yul\":2184:2193   */\n      dup7\n        /* \"#utility.yul\":2180:2202   */\n      add\n        /* \"#utility.yul\":2124:2212   */\n      tag_52\n      jump\t// in\n    tag_66:\n        /* \"#utility.yul\":2114:2212   */\n      swap3\n      pop\n        /* \"#utility.yul\":1977:2222   */\n      pop\n        /* \"#utility.yul\":2289:2291   */\n      0x20\n        /* \"#utility.yul\":2278:2287   */\n      dup4\n        /* \"#utility.yul\":2274:2292   */\n      add\n        /* \"#utility.yul\":2261:2293   */\n      calldataload\n        /* \"#utility.yul\":2320:2338   */\n      0xffffffffffffffff\n        /* \"#utility.yul\":2312:2318   */\n      dup2\n        /* \"#utility.yul\":2309:2339   */\n      gt\n        /* \"#utility.yul\":2306:2308   */\n      iszero\n      tag_67\n      jumpi\n        /* \"#utility.yul\":2352:2353   */\n      0x00\n        /* \"#utility.yul\":2349:2350   */\n      dup1\n        /* \"#utility.yul\":2342:2354   */\n      revert\n        /* \"#utility.yul\":2306:2308   */\n    tag_67:\n        /* \"#utility.yul\":2380:2443   */\n      tag_68\n        /* \"#utility.yul\":2435:2442   */\n      dup6\n        /* \"#utility.yul\":2426:2432   */\n      dup3\n        /* \"#utility.yul\":2415:2424   */\n      dup7\n        /* \"#utility.yul\":2411:2433   */\n      add\n        /* \"#utility.yul\":2380:2443   */\n      tag_43\n      jump\t// in\n    tag_68:\n        /* \"#utility.yul\":2370:2443   */\n      swap2\n      pop\n        /* \"#utility.yul\":2232:2453   */\n      pop\n        /* \"#utility.yul\":1905:2460   */\n      swap3\n      pop\n      swap3\n      swap1\n      pop\n      jump\t// out\n        /* \"#utility.yul\":2466:2728   */\n    tag_16:\n      0x00\n        /* \"#utility.yul\":2574:2576   */\n      0x20\n        /* \"#utility.yul\":2562:2571   */\n      dup3\n        /* \"#utility.yul\":2553:2560   */\n      dup5\n        /* \"#utility.yul\":2549:2572   */\n      sub\n        /* \"#utility.yul\":2545:2577   */\n      slt\n        /* \"#utility.yul\":2542:2544   */\n      iszero\n      tag_70\n      jumpi\n        /* \"#utility.yul\":2590:2591   */\n      0x00\n        /* \"#utility.yul\":2587:2588   */\n      dup1\n        /* \"#utility.yul\":2580:2592   */\n      revert\n        /* \"#utility.yul\":2542:2544   */\n    tag_70:\n        /* \"#utility.yul\":2633:2634   */\n      0x00\n        /* \"#utility.yul\":2658:2711   */\n      tag_71\n        /* \"#utility.yul\":2703:2710   */\n      dup5\n        /* \"#utility.yul\":2694:2700   */\n      dup3\n        /* \"#utility.yul\":2683:2692   */\n      dup6\n        /* \"#utility.yul\":2679:2701   */\n      add\n        /* \"#utility.yul\":2658:2711   */\n      tag_59\n      jump\t// in\n    tag_71:\n        /* \"#utility.yul\":2648:2711   */\n      swap2\n      pop\n        /* \"#utility.yul\":2604:2721   */\n      pop\n        /* \"#utility.yul\":2532:2728   */\n      swap3\n      swap2\n      pop\n      pop\n      jump\t// out\n        /* \"#utility.yul\":2734:2913   */\n    tag_72:\n      0x00\n        /* \"#utility.yul\":2824:2870   */\n      tag_74\n        /* \"#utility.yul\":2866:2869   */\n      dup4\n        /* \"#utility.yul\":2858:2864   */\n      dup4\n        /* \"#utility.yul\":2824:2870   */\n      tag_75\n      jump\t// in\n    tag_74:\n        /* \"#utility.yul\":2902:2906   */\n      0x20\n        /* \"#utility.yul\":2897:2900   */\n      dup4\n        /* \"#utility.yul\":2893:2907   */\n      add\n        /* \"#utility.yul\":2879:2907   */\n      swap1\n      pop\n        /* \"#utility.yul\":2814:2913   */\n      swap3\n      swap2\n      pop\n      pop\n      jump\t// out\n        /* \"#utility.yul\":2919:3115   */\n    tag_76:\n      0x00\n        /* \"#utility.yul\":3043:3109   */\n      tag_78\n        /* \"#utility.yul\":3105:3108   */\n      dup4\n        /* \"#utility.yul\":3097:3103   */\n      dup4\n        /* \"#utility.yul\":3043:3109   */\n      tag_79\n      jump\t// in\n    tag_78:\n        /* \"#utility.yul\":3029:3109   */\n      swap1\n      pop\n        /* \"#utility.yul\":3019:3115   */\n      swap3\n      swap2\n      pop\n      pop\n      jump\t// out\n        /* \"#utility.yul\":3121:3229   */\n    tag_75:\n        /* \"#utility.yul\":3198:3222   */\n      tag_81\n        /* \"#utility.yul\":3216:3221   */\n      dup2\n        /* \"#utility.yul\":3198:3222   */\n      tag_82\n      jump\t// in\n    tag_81:\n        /* \"#utility.yul\":3193:3196   */\n      dup3\n        /* \"#utility.yul\":3186:3223   */\n      mstore\n        /* \"#utility.yul\":3176:3229   */\n      pop\n      pop\n      jump\t// out\n        /* \"#utility.yul\":3235:3353   */\n    tag_83:\n        /* \"#utility.yul\":3322:3346   */\n      tag_85\n        /* \"#utility.yul\":3340:3345   */\n      dup2\n        /* \"#utility.yul\":3322:3346   */\n      tag_82\n      jump\t// in\n    tag_85:\n        /* \"#utility.yul\":3317:3320   */\n      dup3\n        /* \"#utility.yul\":3310:3347   */\n      mstore\n        /* \"#utility.yul\":3300:3353   */\n      pop\n      pop\n      jump\t// out\n        /* \"#utility.yul\":3389:4121   */\n    tag_86:\n      0x00\n        /* \"#utility.yul\":3537:3591   */\n      tag_88\n        /* \"#utility.yul\":3585:3590   */\n      dup3\n        /* \"#utility.yul\":3537:3591   */\n      tag_89\n      jump\t// in\n    tag_88:\n        /* \"#utility.yul\":3607:3693   */\n      tag_90\n        /* \"#utility.yul\":3686:3692   */\n      dup2\n        /* \"#utility.yul\":3681:3684   */\n      dup6\n        /* \"#utility.yul\":3607:3693   */\n      tag_91\n      jump\t// in\n    tag_90:\n        /* \"#utility.yul\":3600:3693   */\n      swap4\n      pop\n        /* \"#utility.yul\":3717:3773   */\n      tag_92\n        /* \"#utility.yul\":3767:3772   */\n      dup4\n        /* \"#utility.yul\":3717:3773   */\n      tag_93\n      jump\t// in\n    tag_92:\n        /* \"#utility.yul\":3796:3803   */\n      dup1\n        /* \"#utility.yul\":3827:3828   */\n      0x00\n        /* \"#utility.yul\":3812:4096   */\n    tag_94:\n        /* \"#utility.yul\":3837:3843   */\n      dup4\n        /* \"#utility.yul\":3834:3835   */\n      dup2\n        /* \"#utility.yul\":3831:3844   */\n      lt\n        /* \"#utility.yul\":3812:4096   */\n      iszero\n      tag_96\n      jumpi\n        /* \"#utility.yul\":3913:3919   */\n      dup2\n        /* \"#utility.yul\":3907:3920   */\n      mload\n        /* \"#utility.yul\":3940:4003   */\n      tag_97\n        /* \"#utility.yul\":3999:4002   */\n      dup9\n        /* \"#utility.yul\":3984:3997   */\n      dup3\n        /* \"#utility.yul\":3940:4003   */\n      tag_72\n      jump\t// in\n    tag_97:\n        /* \"#utility.yul\":3933:4003   */\n      swap8\n      pop\n        /* \"#utility.yul\":4026:4086   */\n      tag_98\n        /* \"#utility.yul\":4079:4085   */\n      dup4\n        /* \"#utility.yul\":4026:4086   */\n      tag_99\n      jump\t// in\n    tag_98:\n        /* \"#utility.yul\":4016:4086   */\n      swap3\n      pop\n        /* \"#utility.yul\":3872:4096   */\n      pop\n        /* \"#utility.yul\":3859:3860   */\n      0x01\n        /* \"#utility.yul\":3856:3857   */\n      dup2\n        /* \"#utility.yul\":3852:3861   */\n      add\n        /* \"#utility.yul\":3847:3861   */\n      swap1\n      pop\n        /* \"#utility.yul\":3812:4096   */\n      jump(tag_94)\n    tag_96:\n        /* \"#utility.yul\":3816:3830   */\n      pop\n        /* \"#utility.yul\":4112:4115   */\n      dup6\n        /* \"#utility.yul\":4105:4115   */\n      swap4\n      pop\n        /* \"#utility.yul\":3513:4121   */\n      pop\n      pop\n      pop\n      swap3\n      swap2\n      pop\n      pop\n      jump\t// out\n        /* \"#utility.yul\":4155:5146   */\n    tag_100:\n      0x00\n        /* \"#utility.yul\":4323:4387   */\n      tag_102\n        /* \"#utility.yul\":4381:4386   */\n      dup3\n        /* \"#utility.yul\":4323:4387   */\n      tag_103\n      jump\t// in\n    tag_102:\n        /* \"#utility.yul\":4403:4499   */\n      tag_104\n        /* \"#utility.yul\":4492:4498   */\n      dup2\n        /* \"#utility.yul\":4487:4490   */\n      dup6\n        /* \"#utility.yul\":4403:4499   */\n      tag_105\n      jump\t// in\n    tag_104:\n        /* \"#utility.yul\":4396:4499   */\n      swap4\n      pop\n        /* \"#utility.yul\":4525:4528   */\n      dup4\n        /* \"#utility.yul\":4570:4574   */\n      0x20\n        /* \"#utility.yul\":4562:4568   */\n      dup3\n        /* \"#utility.yul\":4558:4575   */\n      mul\n        /* \"#utility.yul\":4553:4556   */\n      dup6\n        /* \"#utility.yul\":4549:4576   */\n      add\n        /* \"#utility.yul\":4600:4666   */\n      tag_106\n        /* \"#utility.yul\":4660:4665   */\n      dup6\n        /* \"#utility.yul\":4600:4666   */\n      tag_107\n      jump\t// in\n    tag_106:\n        /* \"#utility.yul\":4689:4696   */\n      dup1\n        /* \"#utility.yul\":4720:4721   */\n      0x00\n        /* \"#utility.yul\":4705:5101   */\n    tag_108:\n        /* \"#utility.yul\":4730:4736   */\n      dup6\n        /* \"#utility.yul\":4727:4728   */\n      dup2\n        /* \"#utility.yul\":4724:4737   */\n      lt\n        /* \"#utility.yul\":4705:5101   */\n      iszero\n      tag_110\n      jumpi\n        /* \"#utility.yul\":4801:4810   */\n      dup5\n        /* \"#utility.yul\":4795:4799   */\n      dup5\n        /* \"#utility.yul\":4791:4811   */\n      sub\n        /* \"#utility.yul\":4786:4789   */\n      dup10\n        /* \"#utility.yul\":4779:4812   */\n      mstore\n        /* \"#utility.yul\":4852:4858   */\n      dup2\n        /* \"#utility.yul\":4846:4859   */\n      mload\n        /* \"#utility.yul\":4880:4964   */\n      tag_111\n        /* \"#utility.yul\":4959:4963   */\n      dup6\n        /* \"#utility.yul\":4944:4957   */\n      dup3\n        /* \"#utility.yul\":4880:4964   */\n      tag_76\n      jump\t// in\n    tag_111:\n        /* \"#utility.yul\":4872:4964   */\n      swap5\n      pop\n        /* \"#utility.yul\":4987:5057   */\n      tag_112\n        /* \"#utility.yul\":5050:5056   */\n      dup4\n        /* \"#utility.yul\":4987:5057   */\n      tag_113\n      jump\t// in\n    tag_112:\n        /* \"#utility.yul\":4977:5057   */\n      swap3\n      pop\n        /* \"#utility.yul\":5086:5090   */\n      0x20\n        /* \"#utility.yul\":5081:5084   */\n      dup11\n        /* \"#utility.yul\":5077:5091   */\n      add\n        /* \"#utility.yul\":5070:5091   */\n      swap10\n      pop\n        /* \"#utility.yul\":4765:5101   */\n      pop\n        /* \"#utility.yul\":4752:4753   */\n      0x01\n        /* \"#utility.yul\":4749:4750   */\n      dup2\n        /* \"#utility.yul\":4745:4754   */\n      add\n        /* \"#utility.yul\":4740:4754   */\n      swap1\n      pop\n        /* \"#utility.yul\":4705:5101   */\n      jump(tag_108)\n    tag_110:\n        /* \"#utility.yul\":4709:4723   */\n      pop\n        /* \"#utility.yul\":5117:5121   */\n      dup3\n        /* \"#utility.yul\":5110:5121   */\n      swap8\n      pop\n        /* \"#utility.yul\":5137:5140   */\n      dup8\n        /* \"#utility.yul\":5130:5140   */\n      swap6\n      pop\n        /* \"#utility.yul\":4299:5146   */\n      pop\n      pop\n      pop\n      pop\n      pop\n      swap3\n      swap2\n      pop\n      pop\n      jump\t// out\n        /* \"#utility.yul\":5152:5496   */\n    tag_79:\n      0x00\n        /* \"#utility.yul\":5258:5297   */\n      tag_115\n        /* \"#utility.yul\":5291:5296   */\n      dup3\n        /* \"#utility.yul\":5258:5297   */\n      tag_116\n      jump\t// in\n    tag_115:\n        /* \"#utility.yul\":5313:5374   */\n      tag_117\n        /* \"#utility.yul\":5367:5373   */\n      dup2\n        /* \"#utility.yul\":5362:5365   */\n      dup6\n        /* \"#utility.yul\":5313:5374   */\n      tag_118\n      jump\t// in\n    tag_117:\n        /* \"#utility.yul\":5306:5374   */\n      swap4\n      pop\n        /* \"#utility.yul\":5383:5435   */\n      tag_119\n        /* \"#utility.yul\":5428:5434   */\n      dup2\n        /* \"#utility.yul\":5423:5426   */\n      dup6\n        /* \"#utility.yul\":5416:5420   */\n      0x20\n        /* \"#utility.yul\":5409:5414   */\n      dup7\n        /* \"#utility.yul\":5405:5421   */\n      add\n        /* \"#utility.yul\":5383:5435   */\n      tag_120\n      jump\t// in\n    tag_119:\n        /* \"#utility.yul\":5460:5489   */\n      tag_121\n        /* \"#utility.yul\":5482:5488   */\n      dup2\n        /* \"#utility.yul\":5460:5489   */\n      tag_122\n      jump\t// in\n    tag_121:\n        /* \"#utility.yul\":5455:5458   */\n      dup5\n        /* \"#utility.yul\":5451:5490   */\n      add\n        /* \"#utility.yul\":5444:5490   */\n      swap2\n      pop\n        /* \"#utility.yul\":5234:5496   */\n      pop\n      swap3\n      swap2\n      pop\n      pop\n      jump\t// out\n        /* \"#utility.yul\":5502:5866   */\n    tag_123:\n      0x00\n        /* \"#utility.yul\":5618:5657   */\n      tag_125\n        /* \"#utility.yul\":5651:5656   */\n      dup3\n        /* \"#utility.yul\":5618:5657   */\n      tag_116\n      jump\t// in\n    tag_125:\n        /* \"#utility.yul\":5673:5744   */\n      tag_126\n        /* \"#utility.yul\":5737:5743   */\n      dup2\n        /* \"#utility.yul\":5732:5735   */\n      dup6\n        /* \"#utility.yul\":5673:5744   */\n      tag_127\n      jump\t// in\n    tag_126:\n        /* \"#utility.yul\":5666:5744   */\n      swap4\n      pop\n        /* \"#utility.yul\":5753:5805   */\n      tag_128\n        /* \"#utility.yul\":5798:5804   */\n      dup2\n        /* \"#utility.yul\":5793:5796   */\n      dup6\n        /* \"#utility.yul\":5786:5790   */\n      0x20\n        /* \"#utility.yul\":5779:5784   */\n      dup7\n        /* \"#utility.yul\":5775:5791   */\n      add\n        /* \"#utility.yul\":5753:5805   */\n      tag_120\n      jump\t// in\n    tag_128:\n        /* \"#utility.yul\":5830:5859   */\n      tag_129\n        /* \"#utility.yul\":5852:5858   */\n      dup2\n        /* \"#utility.yul\":5830:5859   */\n      tag_122\n      jump\t// in\n    tag_129:\n        /* \"#utility.yul\":5825:5828   */\n      dup5\n        /* \"#utility.yul\":5821:5860   */\n      add\n        /* \"#utility.yul\":5814:5860   */\n      swap2\n      pop\n        /* \"#utility.yul\":5594:5866   */\n      pop\n      swap3\n      swap2\n      pop\n      pop\n      jump\t// out\n        /* \"#utility.yul\":5872:6094   */\n    tag_19:\n      0x00\n        /* \"#utility.yul\":6003:6005   */\n      0x20\n        /* \"#utility.yul\":5992:6001   */\n      dup3\n        /* \"#utility.yul\":5988:6006   */\n      add\n        /* \"#utility.yul\":5980:6006   */\n      swap1\n      pop\n        /* \"#utility.yul\":6016:6087   */\n      tag_131\n        /* \"#utility.yul\":6084:6085   */\n      0x00\n        /* \"#utility.yul\":6073:6082   */\n      dup4\n        /* \"#utility.yul\":6069:6086   */\n      add\n        /* \"#utility.yul\":6060:6066   */\n      dup5\n        /* \"#utility.yul\":6016:6087   */\n      tag_83\n      jump\t// in\n    tag_131:\n        /* \"#utility.yul\":5970:6094   */\n      swap3\n      swap2\n      pop\n      pop\n      jump\t// out\n        /* \"#utility.yul\":6100:6824   */\n    tag_24:\n      0x00\n        /* \"#utility.yul\":6377:6379   */\n      0x60\n        /* \"#utility.yul\":6366:6375   */\n      dup3\n        /* \"#utility.yul\":6362:6380   */\n      add\n        /* \"#utility.yul\":6354:6380   */\n      swap1\n      pop\n        /* \"#utility.yul\":6390:6461   */\n      tag_133\n        /* \"#utility.yul\":6458:6459   */\n      0x00\n        /* \"#utility.yul\":6447:6456   */\n      dup4\n        /* \"#utility.yul\":6443:6460   */\n      add\n        /* \"#utility.yul\":6434:6440   */\n      dup7\n        /* \"#utility.yul\":6390:6461   */\n      tag_83\n      jump\t// in\n    tag_133:\n        /* \"#utility.yul\":6508:6517   */\n      dup2\n        /* \"#utility.yul\":6502:6506   */\n      dup2\n        /* \"#utility.yul\":6498:6518   */\n      sub\n        /* \"#utility.yul\":6493:6495   */\n      0x20\n        /* \"#utility.yul\":6482:6491   */\n      dup4\n        /* \"#utility.yul\":6478:6496   */\n      add\n        /* \"#utility.yul\":6471:6519   */\n      mstore\n        /* \"#utility.yul\":6536:6664   */\n      tag_134\n        /* \"#utility.yul\":6659:6663   */\n      dup2\n        /* \"#utility.yul\":6650:6656   */\n      dup6\n        /* \"#utility.yul\":6536:6664   */\n      tag_100\n      jump\t// in\n    tag_134:\n        /* \"#utility.yul\":6528:6664   */\n      swap1\n      pop\n        /* \"#utility.yul\":6711:6720   */\n      dup2\n        /* \"#utility.yul\":6705:6709   */\n      dup2\n        /* \"#utility.yul\":6701:6721   */\n      sub\n        /* \"#utility.yul\":6696:6698   */\n      0x40\n        /* \"#utility.yul\":6685:6694   */\n      dup4\n        /* \"#utility.yul\":6681:6699   */\n      add\n        /* \"#utility.yul\":6674:6722   */\n      mstore\n        /* \"#utility.yul\":6739:6817   */\n      tag_135\n        /* \"#utility.yul\":6812:6816   */\n      dup2\n        /* \"#utility.yul\":6803:6809   */\n      dup5\n        /* \"#utility.yul\":6739:6817   */\n      tag_123\n      jump\t// in\n    tag_135:\n        /* \"#utility.yul\":6731:6817   */\n      swap1\n      pop\n        /* \"#utility.yul\":6344:6824   */\n      swap5\n      swap4\n      pop\n      pop\n      pop\n      pop\n      jump\t// out\n        /* \"#utility.yul\":6830:7203   */\n    tag_13:\n      0x00\n        /* \"#utility.yul\":7011:7013   */\n      0x20\n        /* \"#utility.yul\":7000:7009   */\n      dup3\n        /* \"#utility.yul\":6996:7014   */\n      add\n        /* \"#utility.yul\":6988:7014   */\n      swap1\n      pop\n        /* \"#utility.yul\":7060:7069   */\n      dup2\n        /* \"#utility.yul\":7054:7058   */\n      dup2\n        /* \"#utility.yul\":7050:7070   */\n      sub\n        /* \"#utility.yul\":7046:7047   */\n      0x00\n        /* \"#utility.yul\":7035:7044   */\n      dup4\n        /* \"#utility.yul\":7031:7048   */\n      add\n        /* \"#utility.yul\":7024:7071   */\n      mstore\n        /* \"#utility.yul\":7088:7196   */\n      tag_137\n        /* \"#utility.yul\":7191:7195   */\n      dup2\n        /* \"#utility.yul\":7182:7188   */\n      dup5\n        /* \"#utility.yul\":7088:7196   */\n      tag_86\n      jump\t// in\n    tag_137:\n        /* \"#utility.yul\":7080:7196   */\n      swap1\n      pop\n        /* \"#utility.yul\":6978:7203   */\n      swap3\n      swap2\n      pop\n      pop\n      jump\t// out\n        /* \"#utility.yul\":7209:7492   */\n    tag_38:\n      0x00\n        /* \"#utility.yul\":7275:7277   */\n      0x40\n        /* \"#utility.yul\":7269:7278   */\n      mload\n        /* \"#utility.yul\":7259:7278   */\n      swap1\n      pop\n        /* \"#utility.yul\":7317:7321   */\n      dup2\n        /* \"#utility.yul\":7309:7315   */\n      dup2\n        /* \"#utility.yul\":7305:7322   */\n      add\n        /* \"#utility.yul\":7424:7430   */\n      dup2\n        /* \"#utility.yul\":7412:7422   */\n      dup2\n        /* \"#utility.yul\":7409:7431   */\n      lt\n        /* \"#utility.yul\":7388:7406   */\n      0xffffffffffffffff\n        /* \"#utility.yul\":7376:7386   */\n      dup3\n        /* \"#utility.yul\":7373:7407   */\n      gt\n        /* \"#utility.yul\":7370:7432   */\n      or\n        /* \"#utility.yul\":7367:7369   */\n      iszero\n      tag_139\n      jumpi\n        /* \"#utility.yul\":7435:7453   */\n      tag_140\n      tag_141\n      jump\t// in\n    tag_140:\n        /* \"#utility.yul\":7367:7369   */\n    tag_139:\n        /* \"#utility.yul\":7475:7485   */\n      dup1\n        /* \"#utility.yul\":7471:7473   */\n      0x40\n        /* \"#utility.yul\":7464:7486   */\n      mstore\n        /* \"#utility.yul\":7249:7492   */\n      pop\n      swap2\n      swap1\n      pop\n      jump\t// out\n        /* \"#utility.yul\":7498:7819   */\n    tag_37:\n      0x00\n        /* \"#utility.yul\":7675:7693   */\n      0xffffffffffffffff\n        /* \"#utility.yul\":7667:7673   */\n      dup3\n        /* \"#utility.yul\":7664:7694   */\n      gt\n        /* \"#utility.yul\":7661:7663   */\n      iszero\n      tag_143\n      jumpi\n        /* \"#utility.yul\":7697:7715   */\n      tag_144\n      tag_141\n      jump\t// in\n    tag_144:\n        /* \"#utility.yul\":7661:7663   */\n    tag_143:\n        /* \"#utility.yul\":7747:7751   */\n      0x20\n        /* \"#utility.yul\":7739:7745   */\n      dup3\n        /* \"#utility.yul\":7735:7752   */\n      mul\n        /* \"#utility.yul\":7727:7752   */\n      swap1\n      pop\n        /* \"#utility.yul\":7807:7811   */\n      0x20\n        /* \"#utility.yul\":7801:7805   */\n      dup2\n        /* \"#utility.yul\":7797:7812   */\n      add\n        /* \"#utility.yul\":7789:7812   */\n      swap1\n      pop\n        /* \"#utility.yul\":7590:7819   */\n      swap2\n      swap1\n      pop\n      jump\t// out\n        /* \"#utility.yul\":7825:8157   */\n    tag_48:\n      0x00\n        /* \"#utility.yul\":7977:7995   */\n      0xffffffffffffffff\n        /* \"#utility.yul\":7969:7975   */\n      dup3\n        /* \"#utility.yul\":7966:7996   */\n      gt\n        /* \"#utility.yul\":7963:7965   */\n      iszero\n      tag_146\n      jumpi\n        /* \"#utility.yul\":7999:8017   */\n      tag_147\n      tag_141\n      jump\t// in\n    tag_147:\n        /* \"#utility.yul\":7963:7965   */\n    tag_146:\n        /* \"#utility.yul\":8084:8088   */\n      0x1f\n        /* \"#utility.yul\":8080:8089   */\n      not\n        /* \"#utility.yul\":8073:8077   */\n      0x1f\n        /* \"#utility.yul\":8065:8071   */\n      dup4\n        /* \"#utility.yul\":8061:8078   */\n      add\n        /* \"#utility.yul\":8057:8090   */\n      and\n        /* \"#utility.yul\":8049:8090   */\n      swap1\n      pop\n        /* \"#utility.yul\":8145:8149   */\n      0x20\n        /* \"#utility.yul\":8139:8143   */\n      dup2\n        /* \"#utility.yul\":8135:8150   */\n      add\n        /* \"#utility.yul\":8127:8150   */\n      swap1\n      pop\n        /* \"#utility.yul\":7892:8157   */\n      swap2\n      swap1\n      pop\n      jump\t// out\n        /* \"#utility.yul\":8163:8295   */\n    tag_93:\n      0x00\n        /* \"#utility.yul\":8253:8256   */\n      dup2\n        /* \"#utility.yul\":8245:8256   */\n      swap1\n      pop\n        /* \"#utility.yul\":8283:8287   */\n      0x20\n        /* \"#utility.yul\":8278:8281   */\n      dup3\n        /* \"#utility.yul\":8274:8288   */\n      add\n        /* \"#utility.yul\":8266:8288   */\n      swap1\n      pop\n        /* \"#utility.yul\":8235:8295   */\n      swap2\n      swap1\n      pop\n      jump\t// out\n        /* \"#utility.yul\":8301:8443   */\n    tag_107:\n      0x00\n        /* \"#utility.yul\":8401:8404   */\n      dup2\n        /* \"#utility.yul\":8393:8404   */\n      swap1\n      pop\n        /* \"#utility.yul\":8431:8435   */\n      0x20\n        /* \"#utility.yul\":8426:8429   */\n      dup3\n        /* \"#utility.yul\":8422:8436   */\n      add\n        /* \"#utility.yul\":8414:8436   */\n      swap1\n      pop\n        /* \"#utility.yul\":8383:8443   */\n      swap2\n      swap1\n      pop\n      jump\t// out\n        /* \"#utility.yul\":8449:8563   */\n    tag_89:\n      0x00\n        /* \"#utility.yul\":8550:8555   */\n      dup2\n        /* \"#utility.yul\":8544:8556   */\n      mload\n        /* \"#utility.yul\":8534:8556   */\n      swap1\n      pop\n        /* \"#utility.yul\":8523:8563   */\n      swap2\n      swap1\n      pop\n      jump\t// out\n        /* \"#utility.yul\":8569:8693   */\n    tag_103:\n      0x00\n        /* \"#utility.yul\":8680:8685   */\n      dup2\n        /* \"#utility.yul\":8674:8686   */\n      mload\n        /* \"#utility.yul\":8664:8686   */\n      swap1\n      pop\n        /* \"#utility.yul\":8653:8693   */\n      swap2\n      swap1\n      pop\n      jump\t// out\n        /* \"#utility.yul\":8699:8798   */\n    tag_116:\n      0x00\n        /* \"#utility.yul\":8785:8790   */\n      dup2\n        /* \"#utility.yul\":8779:8791   */\n      mload\n        /* \"#utility.yul\":8769:8791   */\n      swap1\n      pop\n        /* \"#utility.yul\":8758:8798   */\n      swap2\n      swap1\n      pop\n      jump\t// out\n        /* \"#utility.yul\":8804:8917   */\n    tag_99:\n      0x00\n        /* \"#utility.yul\":8906:8910   */\n      0x20\n        /* \"#utility.yul\":8901:8904   */\n      dup3\n        /* \"#utility.yul\":8897:8911   */\n      add\n        /* \"#utility.yul\":8889:8911   */\n      swap1\n      pop\n        /* \"#utility.yul\":8879:8917   */\n      swap2\n      swap1\n      pop\n      jump\t// out\n        /* \"#utility.yul\":8923:9046   */\n    tag_113:\n      0x00\n        /* \"#utility.yul\":9035:9039   */\n      0x20\n        /* \"#utility.yul\":9030:9033   */\n      dup3\n        /* \"#utility.yul\":9026:9040   */\n      add\n        /* \"#utility.yul\":9018:9040   */\n      swap1\n      pop\n        /* \"#utility.yul\":9008:9046   */\n      swap2\n      swap1\n      pop\n      jump\t// out\n        /* \"#utility.yul\":9052:9236   */\n    tag_91:\n      0x00\n        /* \"#utility.yul\":9185:9191   */\n      dup3\n        /* \"#utility.yul\":9180:9183   */\n      dup3\n        /* \"#utility.yul\":9173:9192   */\n      mstore\n        /* \"#utility.yul\":9225:9229   */\n      0x20\n        /* \"#utility.yul\":9220:9223   */\n      dup3\n        /* \"#utility.yul\":9216:9230   */\n      add\n        /* \"#utility.yul\":9201:9230   */\n      swap1\n      pop\n        /* \"#utility.yul\":9163:9236   */\n      swap3\n      swap2\n      pop\n      pop\n      jump\t// out\n        /* \"#utility.yul\":9242:9436   */\n    tag_105:\n      0x00\n        /* \"#utility.yul\":9385:9391   */\n      dup3\n        /* \"#utility.yul\":9380:9383   */\n      dup3\n        /* \"#utility.yul\":9373:9392   */\n      mstore\n        /* \"#utility.yul\":9425:9429   */\n      0x20\n        /* \"#utility.yul\":9420:9423   */\n      dup3\n        /* \"#utility.yul\":9416:9430   */\n      add\n        /* \"#utility.yul\":9401:9430   */\n      swap1\n      pop\n        /* \"#utility.yul\":9363:9436   */\n      swap3\n      swap2\n      pop\n      pop\n      jump\t// out\n        /* \"#utility.yul\":9442:9601   */\n    tag_118:\n      0x00\n        /* \"#utility.yul\":9550:9556   */\n      dup3\n        /* \"#utility.yul\":9545:9548   */\n      dup3\n        /* \"#utility.yul\":9538:9557   */\n      mstore\n        /* \"#utility.yul\":9590:9594   */\n      0x20\n        /* \"#utility.yul\":9585:9588   */\n      dup3\n        /* \"#utility.yul\":9581:9595   */\n      add\n        /* \"#utility.yul\":9566:9595   */\n      swap1\n      pop\n        /* \"#utility.yul\":9528:9601   */\n      swap3\n      swap2\n      pop\n      pop\n      jump\t// out\n        /* \"#utility.yul\":9607:9776   */\n    tag_127:\n      0x00\n        /* \"#utility.yul\":9725:9731   */\n      dup3\n        /* \"#utility.yul\":9720:9723   */\n      dup3\n        /* \"#utility.yul\":9713:9732   */\n      mstore\n        /* \"#utility.yul\":9765:9769   */\n      0x20\n        /* \"#utility.yul\":9760:9763   */\n      dup3\n        /* \"#utility.yul\":9756:9770   */\n      add\n        /* \"#utility.yul\":9741:9770   */\n      swap1\n      pop\n        /* \"#utility.yul\":9703:9776   */\n      swap3\n      swap2\n      pop\n      pop\n      jump\t// out\n        /* \"#utility.yul\":9782:9878   */\n    tag_82:\n      0x00\n        /* \"#utility.yul\":9848:9872   */\n      tag_160\n        /* \"#utility.yul\":9866:9871   */\n      dup3\n        /* \"#utility.yul\":9848:9872   */\n      tag_161\n      jump\t// in\n    tag_160:\n        /* \"#utility.yul\":9837:9872   */\n      swap1\n      pop\n        /* \"#utility.yul\":9827:9878   */\n      swap2\n      swap1\n      pop\n      jump\t// out\n        /* \"#utility.yul\":9884:10010   */\n    tag_161:\n      0x00\n        /* \"#utility.yul\":9961:10003   */\n      0xffffffffffffffffffffffffffffffffffffffff\n        /* \"#utility.yul\":9954:9959   */\n      dup3\n        /* \"#utility.yul\":9950:10004   */\n      and\n        /* \"#utility.yul\":9939:10004   */\n      swap1\n      pop\n        /* \"#utility.yul\":9929:10010   */\n      swap2\n      swap1\n      pop\n      jump\t// out\n        /* \"#utility.yul\":10016:10093   */\n    tag_163:\n      0x00\n        /* \"#utility.yul\":10082:10087   */\n      dup2\n        /* \"#utility.yul\":10071:10087   */\n      swap1\n      pop\n        /* \"#utility.yul\":10061:10093   */\n      swap2\n      swap1\n      pop\n      jump\t// out\n        /* \"#utility.yul\":10099:10253   */\n    tag_51:\n        /* \"#utility.yul\":10183:10189   */\n      dup3\n        /* \"#utility.yul\":10178:10181   */\n      dup2\n        /* \"#utility.yul\":10173:10176   */\n      dup4\n        /* \"#utility.yul\":10160:10190   */\n      calldatacopy\n        /* \"#utility.yul\":10245:10246   */\n      0x00\n        /* \"#utility.yul\":10236:10242   */\n      dup4\n        /* \"#utility.yul\":10231:10234   */\n      dup4\n        /* \"#utility.yul\":10227:10243   */\n      add\n        /* \"#utility.yul\":10220:10247   */\n      mstore\n        /* \"#utility.yul\":10150:10253   */\n      pop\n      pop\n      pop\n      jump\t// out\n        /* \"#utility.yul\":10259:10566   */\n    tag_120:\n        /* \"#utility.yul\":10327:10328   */\n      0x00\n        /* \"#utility.yul\":10337:10450   */\n    tag_167:\n        /* \"#utility.yul\":10351:10357   */\n      dup4\n        /* \"#utility.yul\":10348:10349   */\n      dup2\n        /* \"#utility.yul\":10345:10358   */\n      lt\n        /* \"#utility.yul\":10337:10450   */\n      iszero\n      tag_169\n      jumpi\n        /* \"#utility.yul\":10436:10437   */\n      dup1\n        /* \"#utility.yul\":10431:10434   */\n      dup3\n        /* \"#utility.yul\":10427:10438   */\n      add\n        /* \"#utility.yul\":10421:10439   */\n      mload\n        /* \"#utility.yul\":10417:10418   */\n      dup2\n        /* \"#utility.yul\":10412:10415   */\n      dup5\n        /* \"#utility.yul\":10408:10419   */\n      add\n        /* \"#utility.yul\":10401:10440   */\n      mstore\n        /* \"#utility.yul\":10373:10375   */\n      0x20\n        /* \"#utility.yul\":10370:10371   */\n      dup2\n        /* \"#utility.yul\":10366:10376   */\n      add\n        /* \"#utility.yul\":10361:10376   */\n      swap1\n      pop\n        /* \"#utility.yul\":10337:10450   */\n      jump(tag_167)\n    tag_169:\n        /* \"#utility.yul\":10468:10474   */\n      dup4\n        /* \"#utility.yul\":10465:10466   */\n      dup2\n        /* \"#utility.yul\":10462:10475   */\n      gt\n        /* \"#utility.yul\":10459:10461   */\n      iszero\n      tag_170\n      jumpi\n        /* \"#utility.yul\":10548:10549   */\n      0x00\n        /* \"#utility.yul\":10539:10545   */\n      dup5\n        /* \"#utility.yul\":10534:10537   */\n      dup5\n        /* \"#utility.yul\":10530:10546   */\n      add\n        /* \"#utility.yul\":10523:10550   */\n      mstore\n        /* \"#utility.yul\":10459:10461   */\n    tag_170:\n        /* \"#utility.yul\":10308:10566   */\n      pop\n      pop\n      pop\n      pop\n      jump\t// out\n        /* \"#utility.yul\":10572:10752   */\n    tag_141:\n        /* \"#utility.yul\":10620:10697   */\n      0x4e487b7100000000000000000000000000000000000000000000000000000000\n        /* \"#utility.yul\":10617:10618   */\n      0x00\n        /* \"#utility.yul\":10610:10698   */\n      mstore\n        /* \"#utility.yul\":10717:10721   */\n      0x41\n        /* \"#utility.yul\":10714:10715   */\n      0x04\n        /* \"#utility.yul\":10707:10722   */\n      mstore\n        /* \"#utility.yul\":10741:10745   */\n      0x24\n        /* \"#utility.yul\":10738:10739   */\n      0x00\n        /* \"#utility.yul\":10731:10746   */\n      revert\n        /* \"#utility.yul\":10758:10860   */\n    tag_122:\n      0x00\n        /* \"#utility.yul\":10850:10852   */\n      0x1f\n        /* \"#utility.yul\":10846:10853   */\n      not\n        /* \"#utility.yul\":10841:10843   */\n      0x1f\n        /* \"#utility.yul\":10834:10839   */\n      dup4\n        /* \"#utility.yul\":10830:10844   */\n      add\n        /* \"#utility.yul\":10826:10854   */\n      and\n        /* \"#utility.yul\":10816:10854   */\n      swap1\n      pop\n        /* \"#utility.yul\":10806:10860   */\n      swap2\n      swap1\n      pop\n      jump\t// out\n        /* \"#utility.yul\":10866:10988   */\n    tag_62:\n        /* \"#utility.yul\":10939:10963   */\n      tag_174\n        /* \"#utility.yul\":10957:10962   */\n      dup2\n        /* \"#utility.yul\":10939:10963   */\n      tag_163\n      jump\t// in\n    tag_174:\n        /* \"#utility.yul\":10932:10937   */\n      dup2\n        /* \"#utility.yul\":10929:10964   */\n      eq\n        /* \"#utility.yul\":10919:10921   */\n      tag_175\n      jumpi\n        /* \"#utility.yul\":10978:10979   */\n      0x00\n        /* \"#utility.yul\":10975:10976   */\n      dup1\n        /* \"#utility.yul\":10968:10980   */\n      revert\n        /* \"#utility.yul\":10919:10921   */\n    tag_175:\n        /* \"#utility.yul\":10909:10988   */\n      pop\n      jump\t// out\n    stop\n\n    sub_0: assembly {\n            /* \"fileName\":461:2062  contract Election {... */\n          mstore(0x40, 0x80)\n            /* \"fileName\":640:645  false */\n          0x00\n            /* \"fileName\":620:645  bool votingStatus = false */\n          0x04\n          exp(0x0100, 0x00)\n          dup2\n          sload\n          dup2\n          0xff\n          mul\n          not\n          and\n          swap1\n          dup4\n          iszero\n          iszero\n          mul\n          or\n          swap1\n          sstore\n          pop\n            /* \"fileName\":695:1032  constructor(address _org, string[] memory initList, string memory _description) {... */\n          callvalue\n          dup1\n          iszero\n          tag_1\n          jumpi\n          0x00\n          dup1\n          revert\n        tag_1:\n          pop\n          mload(0x40)\n          sub(codesize, bytecodeSize)\n          dup1\n          bytecodeSize\n          dup4\n          codecopy\n          dup2\n          dup2\n          add\n          0x40\n          mstore\n          dup2\n          add\n          swap1\n          tag_2\n          swap2\n          swap1\n          tag_3\n          jump\t// in\n        tag_2:\n            /* \"fileName\":811:812  0 */\n          0x00\n            /* \"fileName\":793:801  initList */\n          dup3\n            /* \"fileName\":793:808  initList.length */\n          mload\n            /* \"fileName\":793:812  initList.length > 0 */\n          gt\n            /* \"fileName\":785:813  require(initList.length > 0) */\n          tag_6\n          jumpi\n          0x00\n          dup1\n          revert\n        tag_6:\n            /* \"fileName\":837:849  _description */\n          dup1\n            /* \"fileName\":823:834  description */\n          0x06\n            /* \"fileName\":823:849  description = _description */\n          swap1\n          dup1\n          mload\n          swap1\n          0x20\n          add\n          swap1\n          tag_7\n          swap3\n          swap2\n          swap1\n          tag_8\n          jump\t// in\n        tag_7:\n          pop\n            /* \"fileName\":871:875  _org */\n          dup3\n            /* \"fileName\":859:868  ORGANIZER */\n          0x00\n          dup1\n            /* \"fileName\":859:875  ORGANIZER = _org */\n          0x0100\n          exp\n          dup2\n          sload\n          dup2\n          0xffffffffffffffffffffffffffffffffffffffff\n          mul\n          not\n          and\n          swap1\n          dup4\n          0xffffffffffffffffffffffffffffffffffffffff\n          and\n          mul\n          or\n          swap1\n          sstore\n          pop\n            /* \"fileName\":896:904  initList */\n          dup2\n            /* \"fileName\":885:893  candList */\n          0x01\n            /* \"fileName\":885:904  candList = initList */\n          swap1\n          dup1\n          mload\n          swap1\n          0x20\n          add\n          swap1\n          tag_9\n          swap3\n          swap2\n          swap1\n          tag_10\n          jump\t// in\n        tag_9:\n          pop\n            /* \"fileName\":918:924  uint i */\n          0x00\n            /* \"fileName\":914:1005  for(uint i = 0; i<initList.length; i++){... */\n        tag_11:\n            /* \"fileName\":932:940  initList */\n          dup3\n            /* \"fileName\":932:947  initList.length */\n          mload\n            /* \"fileName\":930:931  i */\n          dup2\n            /* \"fileName\":930:947  i<initList.length */\n          lt\n            /* \"fileName\":914:1005  for(uint i = 0; i<initList.length; i++){... */\n          iszero\n          tag_12\n          jumpi\n            /* \"fileName\":993:994  0 */\n          0x00\n            /* \"fileName\":967:977  totalVotes */\n          0x02\n            /* \"fileName\":978:986  initList */\n          dup5\n            /* \"fileName\":987:988  i */\n          dup4\n            /* \"fileName\":978:989  initList[i] */\n          dup2\n          mload\n          dup2\n          lt\n          tag_14\n          jumpi\n          mstore(0x00, 0x4e487b7100000000000000000000000000000000000000000000000000000000)\n          mstore(0x04, 0x32)\n          revert(0x00, 0x24)\n        tag_14:\n          0x20\n          mul\n          0x20\n          add\n          add\n          mload\n            /* \"fileName\":967:990  totalVotes[initList[i]] */\n          mload(0x40)\n          tag_15\n          swap2\n          swap1\n          tag_16\n          jump\t// in\n        tag_15:\n          swap1\n          dup2\n          mstore\n          0x20\n          add\n          mload(0x40)\n          dup1\n          swap2\n          sub\n          swap1\n          keccak256\n            /* \"fileName\":967:994  totalVotes[initList[i]] = 0 */\n          dup2\n          swap1\n          sstore\n          pop\n            /* \"fileName\":949:952  i++ */\n          dup1\n          dup1\n          tag_17\n          swap1\n          tag_18\n          jump\t// in\n        tag_17:\n          swap2\n          pop\n          pop\n            /* \"fileName\":914:1005  for(uint i = 0; i<initList.length; i++){... */\n          jump(tag_11)\n        tag_12:\n          pop\n            /* \"fileName\":1014:1025  winner = \"\" */\n          mload(0x40)\n          dup1\n          0x20\n          add\n          0x40\n          mstore\n          dup1\n          0x00\n          dup2\n          mstore\n          pop\n            /* \"fileName\":1014:1020  winner */\n          0x05\n            /* \"fileName\":1014:1025  winner = \"\" */\n          swap1\n          dup1\n          mload\n          swap1\n          0x20\n          add\n          swap1\n          tag_19\n          swap3\n          swap2\n          swap1\n          tag_8\n          jump\t// in\n        tag_19:\n          pop\n            /* \"fileName\":695:1032  constructor(address _org, string[] memory initList, string memory _description) {... */\n          pop\n          pop\n          pop\n            /* \"fileName\":461:2062  contract Election {... */\n          jump(tag_20)\n        tag_8:\n          dup3\n          dup1\n          sload\n          tag_21\n          swap1\n          tag_22\n          jump\t// in\n        tag_21:\n          swap1\n          0x00\n          mstore\n          keccak256(0x00, 0x20)\n          swap1\n          0x1f\n          add\n          0x20\n          swap1\n          div\n          dup2\n          add\n          swap3\n          dup3\n          tag_24\n          jumpi\n          0x00\n          dup6\n          sstore\n          jump(tag_23)\n        tag_24:\n          dup3\n          0x1f\n          lt\n          tag_25\n          jumpi\n          dup1\n          mload\n          not(0xff)\n          and\n          dup4\n          dup1\n          add\n          or\n          dup6\n          sstore\n          jump(tag_23)\n        tag_25:\n          dup3\n          dup1\n          add\n          0x01\n          add\n          dup6\n          sstore\n          dup3\n          iszero\n          tag_23\n          jumpi\n          swap2\n          dup3\n          add\n        tag_26:\n          dup3\n          dup2\n          gt\n          iszero\n          tag_27\n          jumpi\n          dup3\n          mload\n          dup3\n          sstore\n          swap2\n          0x20\n          add\n          swap2\n          swap1\n          0x01\n          add\n          swap1\n          jump(tag_26)\n        tag_27:\n        tag_23:\n          pop\n          swap1\n          pop\n          tag_28\n          swap2\n          swap1\n          tag_29\n          jump\t// in\n        tag_28:\n          pop\n          swap1\n          jump\t// out\n        tag_10:\n          dup3\n          dup1\n          sload\n          dup3\n          dup3\n          sstore\n          swap1\n          0x00\n          mstore\n          keccak256(0x00, 0x20)\n          swap1\n          dup2\n          add\n          swap3\n          dup3\n          iszero\n          tag_30\n          jumpi\n          swap2\n          0x20\n          mul\n          dup3\n          add\n        tag_31:\n          dup3\n          dup2\n          gt\n          iszero\n          tag_32\n          jumpi\n          dup3\n          mload\n          dup3\n          swap1\n          dup1\n          mload\n          swap1\n          0x20\n          add\n          swap1\n          tag_33\n          swap3\n          swap2\n          swap1\n          tag_8\n          jump\t// in\n        tag_33:\n          pop\n          swap2\n          0x20\n          add\n          swap2\n          swap1\n          0x01\n          add\n          swap1\n          jump(tag_31)\n        tag_32:\n        tag_30:\n          pop\n          swap1\n          pop\n          tag_34\n          swap2\n          swap1\n          tag_35\n          jump\t// in\n        tag_34:\n          pop\n          swap1\n          jump\t// out\n        tag_29:\n        tag_36:\n          dup1\n          dup3\n          gt\n          iszero\n          tag_37\n          jumpi\n          0x00\n          dup2\n          0x00\n          swap1\n          sstore\n          pop\n          0x01\n          add\n          jump(tag_36)\n        tag_37:\n          pop\n          swap1\n          jump\t// out\n        tag_35:\n        tag_38:\n          dup1\n          dup3\n          gt\n          iszero\n          tag_39\n          jumpi\n          0x00\n          dup2\n          dup2\n          tag_40\n          swap2\n          swap1\n          tag_41\n          jump\t// in\n        tag_40:\n          pop\n          0x01\n          add\n          jump(tag_38)\n        tag_39:\n          pop\n          swap1\n          jump\t// out\n        tag_41:\n          pop\n          dup1\n          sload\n          tag_42\n          swap1\n          tag_22\n          jump\t// in\n        tag_42:\n          0x00\n          dup3\n          sstore\n          dup1\n          0x1f\n          lt\n          tag_44\n          jumpi\n          pop\n          jump(tag_43)\n        tag_44:\n          0x1f\n          add\n          0x20\n          swap1\n          div\n          swap1\n          0x00\n          mstore\n          keccak256(0x00, 0x20)\n          swap1\n          dup2\n          add\n          swap1\n          tag_45\n          swap2\n          swap1\n          tag_29\n          jump\t// in\n        tag_45:\n        tag_43:\n          pop\n          jump\t// out\n            /* \"#utility.yul\":23:653   */\n        tag_47:\n          0x00\n            /* \"#utility.yul\":165:255   */\n          tag_49\n            /* \"#utility.yul\":180:254   */\n          tag_50\n            /* \"#utility.yul\":247:253   */\n          dup5\n            /* \"#utility.yul\":180:254   */\n          tag_51\n          jump\t// in\n        tag_50:\n            /* \"#utility.yul\":165:255   */\n          tag_52\n          jump\t// in\n        tag_49:\n            /* \"#utility.yul\":156:255   */\n          swap1\n          pop\n            /* \"#utility.yul\":275:280   */\n          dup1\n            /* \"#utility.yul\":303:309   */\n          dup4\n            /* \"#utility.yul\":296:301   */\n          dup3\n            /* \"#utility.yul\":289:310   */\n          mstore\n            /* \"#utility.yul\":329:333   */\n          0x20\n            /* \"#utility.yul\":322:327   */\n          dup3\n            /* \"#utility.yul\":318:334   */\n          add\n            /* \"#utility.yul\":311:334   */\n          swap1\n          pop\n            /* \"#utility.yul\":354:360   */\n          dup3\n            /* \"#utility.yul\":385:386   */\n          0x00\n            /* \"#utility.yul\":370:647   */\n        tag_53:\n            /* \"#utility.yul\":395:401   */\n          dup6\n            /* \"#utility.yul\":392:393   */\n          dup2\n            /* \"#utility.yul\":389:402   */\n          lt\n            /* \"#utility.yul\":370:647   */\n          iszero\n          tag_55\n          jumpi\n            /* \"#utility.yul\":480:483   */\n          dup2\n            /* \"#utility.yul\":474:484   */\n          mload\n            /* \"#utility.yul\":466:472   */\n          dup6\n            /* \"#utility.yul\":462:485   */\n          add\n            /* \"#utility.yul\":510:568   */\n          tag_56\n            /* \"#utility.yul\":564:567   */\n          dup9\n            /* \"#utility.yul\":552:562   */\n          dup3\n            /* \"#utility.yul\":510:568   */\n          tag_57\n          jump\t// in\n        tag_56:\n            /* \"#utility.yul\":505:508   */\n          dup5\n            /* \"#utility.yul\":498:569   */\n          mstore\n            /* \"#utility.yul\":598:602   */\n          0x20\n            /* \"#utility.yul\":593:596   */\n          dup5\n            /* \"#utility.yul\":589:603   */\n          add\n            /* \"#utility.yul\":582:603   */\n          swap4\n          pop\n            /* \"#utility.yul\":632:636   */\n          0x20\n            /* \"#utility.yul\":627:630   */\n          dup4\n            /* \"#utility.yul\":623:637   */\n          add\n            /* \"#utility.yul\":616:637   */\n          swap3\n          pop\n            /* \"#utility.yul\":430:647   */\n          pop\n            /* \"#utility.yul\":417:418   */\n          0x01\n            /* \"#utility.yul\":414:415   */\n          dup2\n            /* \"#utility.yul\":410:419   */\n          add\n            /* \"#utility.yul\":405:419   */\n          swap1\n          pop\n            /* \"#utility.yul\":370:647   */\n          jump(tag_53)\n        tag_55:\n            /* \"#utility.yul\":374:388   */\n          pop\n            /* \"#utility.yul\":146:653   */\n          pop\n          pop\n          swap4\n          swap3\n          pop\n          pop\n          pop\n          jump\t// out\n            /* \"#utility.yul\":659:1012   */\n        tag_58:\n          0x00\n            /* \"#utility.yul\":773:838   */\n          tag_60\n            /* \"#utility.yul\":788:837   */\n          tag_61\n            /* \"#utility.yul\":830:836   */\n          dup5\n            /* \"#utility.yul\":788:837   */\n          tag_62\n          jump\t// in\n        tag_61:\n            /* \"#utility.yul\":773:838   */\n          tag_52\n          jump\t// in\n        tag_60:\n            /* \"#utility.yul\":764:838   */\n          swap1\n          pop\n            /* \"#utility.yul\":861:867   */\n          dup3\n            /* \"#utility.yul\":854:859   */\n          dup2\n            /* \"#utility.yul\":847:868   */\n          mstore\n            /* \"#utility.yul\":899:903   */\n          0x20\n            /* \"#utility.yul\":892:897   */\n          dup2\n            /* \"#utility.yul\":888:904   */\n          add\n            /* \"#utility.yul\":937:940   */\n          dup5\n            /* \"#utility.yul\":928:934   */\n          dup5\n            /* \"#utility.yul\":923:926   */\n          dup5\n            /* \"#utility.yul\":919:935   */\n          add\n            /* \"#utility.yul\":916:941   */\n          gt\n            /* \"#utility.yul\":913:915   */\n          iszero\n          tag_63\n          jumpi\n            /* \"#utility.yul\":954:955   */\n          0x00\n            /* \"#utility.yul\":951:952   */\n          dup1\n            /* \"#utility.yul\":944:956   */\n          revert\n            /* \"#utility.yul\":913:915   */\n        tag_63:\n            /* \"#utility.yul\":967:1006   */\n          tag_64\n            /* \"#utility.yul\":999:1005   */\n          dup5\n            /* \"#utility.yul\":994:997   */\n          dup3\n            /* \"#utility.yul\":989:992   */\n          dup6\n            /* \"#utility.yul\":967:1006   */\n          tag_65\n          jump\t// in\n        tag_64:\n            /* \"#utility.yul\":754:1012   */\n          pop\n          swap4\n          swap3\n          pop\n          pop\n          pop\n          jump\t// out\n            /* \"#utility.yul\":1018:1161   */\n        tag_66:\n          0x00\n            /* \"#utility.yul\":1106:1112   */\n          dup2\n            /* \"#utility.yul\":1100:1113   */\n          mload\n            /* \"#utility.yul\":1091:1113   */\n          swap1\n          pop\n            /* \"#utility.yul\":1122:1155   */\n          tag_68\n            /* \"#utility.yul\":1149:1154   */\n          dup2\n            /* \"#utility.yul\":1122:1155   */\n          tag_69\n          jump\t// in\n        tag_68:\n            /* \"#utility.yul\":1081:1161   */\n          swap3\n          swap2\n          pop\n          pop\n          jump\t// out\n            /* \"#utility.yul\":1183:1521   */\n        tag_70:\n          0x00\n            /* \"#utility.yul\":1324:1327   */\n          dup3\n            /* \"#utility.yul\":1317:1321   */\n          0x1f\n            /* \"#utility.yul\":1309:1315   */\n          dup4\n            /* \"#utility.yul\":1305:1322   */\n          add\n            /* \"#utility.yul\":1301:1328   */\n          slt\n            /* \"#utility.yul\":1291:1293   */\n          tag_72\n          jumpi\n            /* \"#utility.yul\":1342:1343   */\n          0x00\n            /* \"#utility.yul\":1339:1340   */\n          dup1\n            /* \"#utility.yul\":1332:1344   */\n          revert\n            /* \"#utility.yul\":1291:1293   */\n        tag_72:\n            /* \"#utility.yul\":1375:1381   */\n          dup2\n            /* \"#utility.yul\":1369:1382   */\n          mload\n            /* \"#utility.yul\":1400:1515   */\n          tag_73\n            /* \"#utility.yul\":1511:1514   */\n          dup5\n            /* \"#utility.yul\":1503:1509   */\n          dup3\n            /* \"#utility.yul\":1496:1500   */\n          0x20\n            /* \"#utility.yul\":1488:1494   */\n          dup7\n            /* \"#utility.yul\":1484:1501   */\n          add\n            /* \"#utility.yul\":1400:1515   */\n          tag_47\n          jump\t// in\n        tag_73:\n            /* \"#utility.yul\":1391:1515   */\n          swap2\n          pop\n            /* \"#utility.yul\":1281:1521   */\n          pop\n          swap3\n          swap2\n          pop\n          pop\n          jump\t// out\n            /* \"#utility.yul\":1541:1829   */\n        tag_57:\n          0x00\n            /* \"#utility.yul\":1657:1660   */\n          dup3\n            /* \"#utility.yul\":1650:1654   */\n          0x1f\n            /* \"#utility.yul\":1642:1648   */\n          dup4\n            /* \"#utility.yul\":1638:1655   */\n          add\n            /* \"#utility.yul\":1634:1661   */\n          slt\n            /* \"#utility.yul\":1624:1626   */\n          tag_75\n          jumpi\n            /* \"#utility.yul\":1675:1676   */\n          0x00\n            /* \"#utility.yul\":1672:1673   */\n          dup1\n            /* \"#utility.yul\":1665:1677   */\n          revert\n            /* \"#utility.yul\":1624:1626   */\n        tag_75:\n            /* \"#utility.yul\":1708:1714   */\n          dup2\n            /* \"#utility.yul\":1702:1715   */\n          mload\n            /* \"#utility.yul\":1733:1823   */\n          tag_76\n            /* \"#utility.yul\":1819:1822   */\n          dup5\n            /* \"#utility.yul\":1811:1817   */\n          dup3\n            /* \"#utility.yul\":1804:1808   */\n          0x20\n            /* \"#utility.yul\":1796:1802   */\n          dup7\n            /* \"#utility.yul\":1792:1809   */\n          add\n            /* \"#utility.yul\":1733:1823   */\n          tag_58\n          jump\t// in\n        tag_76:\n            /* \"#utility.yul\":1724:1823   */\n          swap2\n          pop\n            /* \"#utility.yul\":1614:1829   */\n          pop\n          swap3\n          swap2\n          pop\n          pop\n          jump\t// out\n            /* \"#utility.yul\":1835:2693   */\n        tag_3:\n          0x00\n          dup1\n          0x00\n            /* \"#utility.yul\":2033:2035   */\n          0x60\n            /* \"#utility.yul\":2021:2030   */\n          dup5\n            /* \"#utility.yul\":2012:2019   */\n          dup7\n            /* \"#utility.yul\":2008:2031   */\n          sub\n            /* \"#utility.yul\":2004:2036   */\n          slt\n            /* \"#utility.yul\":2001:2003   */\n          iszero\n          tag_78\n          jumpi\n            /* \"#utility.yul\":2049:2050   */\n          0x00\n            /* \"#utility.yul\":2046:2047   */\n          dup1\n            /* \"#utility.yul\":2039:2051   */\n          revert\n            /* \"#utility.yul\":2001:2003   */\n        tag_78:\n            /* \"#utility.yul\":2092:2093   */\n          0x00\n            /* \"#utility.yul\":2117:2181   */\n          tag_79\n            /* \"#utility.yul\":2173:2180   */\n          dup7\n            /* \"#utility.yul\":2164:2170   */\n          dup3\n            /* \"#utility.yul\":2153:2162   */\n          dup8\n            /* \"#utility.yul\":2149:2171   */\n          add\n            /* \"#utility.yul\":2117:2181   */\n          tag_66\n          jump\t// in\n        tag_79:\n            /* \"#utility.yul\":2107:2181   */\n          swap4\n          pop\n            /* \"#utility.yul\":2063:2191   */\n          pop\n            /* \"#utility.yul\":2251:2253   */\n          0x20\n            /* \"#utility.yul\":2240:2249   */\n          dup5\n            /* \"#utility.yul\":2236:2254   */\n          add\n            /* \"#utility.yul\":2230:2255   */\n          mload\n            /* \"#utility.yul\":2282:2300   */\n          0xffffffffffffffff\n            /* \"#utility.yul\":2274:2280   */\n          dup2\n            /* \"#utility.yul\":2271:2301   */\n          gt\n            /* \"#utility.yul\":2268:2270   */\n          iszero\n          tag_80\n          jumpi\n            /* \"#utility.yul\":2314:2315   */\n          0x00\n            /* \"#utility.yul\":2311:2312   */\n          dup1\n            /* \"#utility.yul\":2304:2316   */\n          revert\n            /* \"#utility.yul\":2268:2270   */\n        tag_80:\n            /* \"#utility.yul\":2342:2441   */\n          tag_81\n            /* \"#utility.yul\":2433:2440   */\n          dup7\n            /* \"#utility.yul\":2424:2430   */\n          dup3\n            /* \"#utility.yul\":2413:2422   */\n          dup8\n            /* \"#utility.yul\":2409:2431   */\n          add\n            /* \"#utility.yul\":2342:2441   */\n          tag_70\n          jump\t// in\n        tag_81:\n            /* \"#utility.yul\":2332:2441   */\n          swap3\n          pop\n            /* \"#utility.yul\":2201:2451   */\n          pop\n            /* \"#utility.yul\":2511:2513   */\n          0x40\n            /* \"#utility.yul\":2500:2509   */\n          dup5\n            /* \"#utility.yul\":2496:2514   */\n          add\n            /* \"#utility.yul\":2490:2515   */\n          mload\n            /* \"#utility.yul\":2542:2560   */\n          0xffffffffffffffff\n            /* \"#utility.yul\":2534:2540   */\n          dup2\n            /* \"#utility.yul\":2531:2561   */\n          gt\n            /* \"#utility.yul\":2528:2530   */\n          iszero\n          tag_82\n          jumpi\n            /* \"#utility.yul\":2574:2575   */\n          0x00\n            /* \"#utility.yul\":2571:2572   */\n          dup1\n            /* \"#utility.yul\":2564:2576   */\n          revert\n            /* \"#utility.yul\":2528:2530   */\n        tag_82:\n            /* \"#utility.yul\":2602:2676   */\n          tag_83\n            /* \"#utility.yul\":2668:2675   */\n          dup7\n            /* \"#utility.yul\":2659:2665   */\n          dup3\n            /* \"#utility.yul\":2648:2657   */\n          dup8\n            /* \"#utility.yul\":2644:2666   */\n          add\n            /* \"#utility.yul\":2602:2676   */\n          tag_57\n          jump\t// in\n        tag_83:\n            /* \"#utility.yul\":2592:2676   */\n          swap2\n          pop\n            /* \"#utility.yul\":2461:2686   */\n          pop\n            /* \"#utility.yul\":1991:2693   */\n          swap3\n          pop\n          swap3\n          pop\n          swap3\n          jump\t// out\n            /* \"#utility.yul\":2699:3076   */\n        tag_84:\n          0x00\n            /* \"#utility.yul\":2833:2872   */\n          tag_86\n            /* \"#utility.yul\":2866:2871   */\n          dup3\n            /* \"#utility.yul\":2833:2872   */\n          tag_87\n          jump\t// in\n        tag_86:\n            /* \"#utility.yul\":2888:2977   */\n          tag_88\n            /* \"#utility.yul\":2970:2976   */\n          dup2\n            /* \"#utility.yul\":2965:2968   */\n          dup6\n            /* \"#utility.yul\":2888:2977   */\n          tag_89\n          jump\t// in\n        tag_88:\n            /* \"#utility.yul\":2881:2977   */\n          swap4\n          pop\n            /* \"#utility.yul\":2986:3038   */\n          tag_90\n            /* \"#utility.yul\":3031:3037   */\n          dup2\n            /* \"#utility.yul\":3026:3029   */\n          dup6\n            /* \"#utility.yul\":3019:3023   */\n          0x20\n            /* \"#utility.yul\":3012:3017   */\n          dup7\n            /* \"#utility.yul\":3008:3024   */\n          add\n            /* \"#utility.yul\":2986:3038   */\n          tag_65\n          jump\t// in\n        tag_90:\n            /* \"#utility.yul\":3063:3069   */\n          dup1\n            /* \"#utility.yul\":3058:3061   */\n          dup5\n            /* \"#utility.yul\":3054:3070   */\n          add\n            /* \"#utility.yul\":3047:3070   */\n          swap2\n          pop\n            /* \"#utility.yul\":2809:3076   */\n          pop\n          swap3\n          swap2\n          pop\n          pop\n          jump\t// out\n            /* \"#utility.yul\":3082:3357   */\n        tag_16:\n          0x00\n            /* \"#utility.yul\":3236:3331   */\n          tag_92\n            /* \"#utility.yul\":3327:3330   */\n          dup3\n            /* \"#utility.yul\":3318:3324   */\n          dup5\n            /* \"#utility.yul\":3236:3331   */\n          tag_84\n          jump\t// in\n        tag_92:\n            /* \"#utility.yul\":3229:3331   */\n          swap2\n          pop\n            /* \"#utility.yul\":3348:3351   */\n          dup2\n            /* \"#utility.yul\":3341:3351   */\n          swap1\n          pop\n            /* \"#utility.yul\":3218:3357   */\n          swap3\n          swap2\n          pop\n          pop\n          jump\t// out\n            /* \"#utility.yul\":3363:3646   */\n        tag_52:\n          0x00\n            /* \"#utility.yul\":3429:3431   */\n          0x40\n            /* \"#utility.yul\":3423:3432   */\n          mload\n            /* \"#utility.yul\":3413:3432   */\n          swap1\n          pop\n            /* \"#utility.yul\":3471:3475   */\n          dup2\n            /* \"#utility.yul\":3463:3469   */\n          dup2\n            /* \"#utility.yul\":3459:3476   */\n          add\n            /* \"#utility.yul\":3578:3584   */\n          dup2\n            /* \"#utility.yul\":3566:3576   */\n          dup2\n            /* \"#utility.yul\":3563:3585   */\n          lt\n            /* \"#utility.yul\":3542:3560   */\n          0xffffffffffffffff\n            /* \"#utility.yul\":3530:3540   */\n          dup3\n            /* \"#utility.yul\":3527:3561   */\n          gt\n            /* \"#utility.yul\":3524:3586   */\n          or\n            /* \"#utility.yul\":3521:3523   */\n          iszero\n          tag_94\n          jumpi\n            /* \"#utility.yul\":3589:3607   */\n          tag_95\n          tag_96\n          jump\t// in\n        tag_95:\n            /* \"#utility.yul\":3521:3523   */\n        tag_94:\n            /* \"#utility.yul\":3629:3639   */\n          dup1\n            /* \"#utility.yul\":3625:3627   */\n          0x40\n            /* \"#utility.yul\":3618:3640   */\n          mstore\n            /* \"#utility.yul\":3403:3646   */\n          pop\n          swap2\n          swap1\n          pop\n          jump\t// out\n            /* \"#utility.yul\":3652:3973   */\n        tag_51:\n          0x00\n            /* \"#utility.yul\":3829:3847   */\n          0xffffffffffffffff\n            /* \"#utility.yul\":3821:3827   */\n          dup3\n            /* \"#utility.yul\":3818:3848   */\n          gt\n            /* \"#utility.yul\":3815:3817   */\n          iszero\n          tag_98\n          jumpi\n            /* \"#utility.yul\":3851:3869   */\n          tag_99\n          tag_96\n          jump\t// in\n        tag_99:\n            /* \"#utility.yul\":3815:3817   */\n        tag_98:\n            /* \"#utility.yul\":3901:3905   */\n          0x20\n            /* \"#utility.yul\":3893:3899   */\n          dup3\n            /* \"#utility.yul\":3889:3906   */\n          mul\n            /* \"#utility.yul\":3881:3906   */\n          swap1\n          pop\n            /* \"#utility.yul\":3961:3965   */\n          0x20\n            /* \"#utility.yul\":3955:3959   */\n          dup2\n            /* \"#utility.yul\":3951:3966   */\n          add\n            /* \"#utility.yul\":3943:3966   */\n          swap1\n          pop\n            /* \"#utility.yul\":3744:3973   */\n          swap2\n          swap1\n          pop\n          jump\t// out\n            /* \"#utility.yul\":3979:4311   */\n        tag_62:\n          0x00\n            /* \"#utility.yul\":4131:4149   */\n          0xffffffffffffffff\n            /* \"#utility.yul\":4123:4129   */\n          dup3\n            /* \"#utility.yul\":4120:4150   */\n          gt\n            /* \"#utility.yul\":4117:4119   */\n          iszero\n          tag_101\n          jumpi\n            /* \"#utility.yul\":4153:4171   */\n          tag_102\n          tag_96\n          jump\t// in\n        tag_102:\n            /* \"#utility.yul\":4117:4119   */\n        tag_101:\n            /* \"#utility.yul\":4238:4242   */\n          0x1f\n            /* \"#utility.yul\":4234:4243   */\n          not\n            /* \"#utility.yul\":4227:4231   */\n          0x1f\n            /* \"#utility.yul\":4219:4225   */\n          dup4\n            /* \"#utility.yul\":4215:4232   */\n          add\n            /* \"#utility.yul\":4211:4244   */\n          and\n            /* \"#utility.yul\":4203:4244   */\n          swap1\n          pop\n            /* \"#utility.yul\":4299:4303   */\n          0x20\n            /* \"#utility.yul\":4293:4297   */\n          dup2\n            /* \"#utility.yul\":4289:4304   */\n          add\n            /* \"#utility.yul\":4281:4304   */\n          swap1\n          pop\n            /* \"#utility.yul\":4046:4311   */\n          swap2\n          swap1\n          pop\n          jump\t// out\n            /* \"#utility.yul\":4317:4416   */\n        tag_87:\n          0x00\n            /* \"#utility.yul\":4403:4408   */\n          dup2\n            /* \"#utility.yul\":4397:4409   */\n          mload\n            /* \"#utility.yul\":4387:4409   */\n          swap1\n          pop\n            /* \"#utility.yul\":4376:4416   */\n          swap2\n          swap1\n          pop\n          jump\t// out\n            /* \"#utility.yul\":4422:4570   */\n        tag_89:\n          0x00\n            /* \"#utility.yul\":4561:4564   */\n          dup2\n            /* \"#utility.yul\":4546:4564   */\n          swap1\n          pop\n            /* \"#utility.yul\":4536:4570   */\n          swap3\n          swap2\n          pop\n          pop\n          jump\t// out\n            /* \"#utility.yul\":4576:4672   */\n        tag_105:\n          0x00\n            /* \"#utility.yul\":4642:4666   */\n          tag_107\n            /* \"#utility.yul\":4660:4665   */\n          dup3\n            /* \"#utility.yul\":4642:4666   */\n          tag_108\n          jump\t// in\n        tag_107:\n            /* \"#utility.yul\":4631:4666   */\n          swap1\n          pop\n            /* \"#utility.yul\":4621:4672   */\n          swap2\n          swap1\n          pop\n          jump\t// out\n            /* \"#utility.yul\":4678:4804   */\n        tag_108:\n          0x00\n            /* \"#utility.yul\":4755:4797   */\n          0xffffffffffffffffffffffffffffffffffffffff\n            /* \"#utility.yul\":4748:4753   */\n          dup3\n            /* \"#utility.yul\":4744:4798   */\n          and\n            /* \"#utility.yul\":4733:4798   */\n          swap1\n          pop\n            /* \"#utility.yul\":4723:4804   */\n          swap2\n          swap1\n          pop\n          jump\t// out\n            /* \"#utility.yul\":4810:4887   */\n        tag_110:\n          0x00\n            /* \"#utility.yul\":4876:4881   */\n          dup2\n            /* \"#utility.yul\":4865:4881   */\n          swap1\n          pop\n            /* \"#utility.yul\":4855:4887   */\n          swap2\n          swap1\n          pop\n          jump\t// out\n            /* \"#utility.yul\":4893:5200   */\n        tag_65:\n            /* \"#utility.yul\":4961:4962   */\n          0x00\n            /* \"#utility.yul\":4971:5084   */\n        tag_113:\n            /* \"#utility.yul\":4985:4991   */\n          dup4\n            /* \"#utility.yul\":4982:4983   */\n          dup2\n            /* \"#utility.yul\":4979:4992   */\n          lt\n            /* \"#utility.yul\":4971:5084   */\n          iszero\n          tag_115\n          jumpi\n            /* \"#utility.yul\":5070:5071   */\n          dup1\n            /* \"#utility.yul\":5065:5068   */\n          dup3\n            /* \"#utility.yul\":5061:5072   */\n          add\n            /* \"#utility.yul\":5055:5073   */\n          mload\n            /* \"#utility.yul\":5051:5052   */\n          dup2\n            /* \"#utility.yul\":5046:5049   */\n          dup5\n            /* \"#utility.yul\":5042:5053   */\n          add\n            /* \"#utility.yul\":5035:5074   */\n          mstore\n            /* \"#utility.yul\":5007:5009   */\n          0x20\n            /* \"#utility.yul\":5004:5005   */\n          dup2\n            /* \"#utility.yul\":5000:5010   */\n          add\n            /* \"#utility.yul\":4995:5010   */\n          swap1\n          pop\n            /* \"#utility.yul\":4971:5084   */\n          jump(tag_113)\n        tag_115:\n            /* \"#utility.yul\":5102:5108   */\n          dup4\n            /* \"#utility.yul\":5099:5100   */\n          dup2\n            /* \"#utility.yul\":5096:5109   */\n          gt\n            /* \"#utility.yul\":5093:5095   */\n          iszero\n          tag_116\n          jumpi\n            /* \"#utility.yul\":5182:5183   */\n          0x00\n            /* \"#utility.yul\":5173:5179   */\n          dup5\n            /* \"#utility.yul\":5168:5171   */\n          dup5\n            /* \"#utility.yul\":5164:5180   */\n          add\n            /* \"#utility.yul\":5157:5184   */\n          mstore\n            /* \"#utility.yul\":5093:5095   */\n        tag_116:\n            /* \"#utility.yul\":4942:5200   */\n          pop\n          pop\n          pop\n          pop\n          jump\t// out\n            /* \"#utility.yul\":5206:5526   */\n        tag_22:\n          0x00\n            /* \"#utility.yul\":5287:5288   */\n          0x02\n            /* \"#utility.yul\":5281:5285   */\n          dup3\n            /* \"#utility.yul\":5277:5289   */\n          div\n            /* \"#utility.yul\":5267:5289   */\n          swap1\n          pop\n            /* \"#utility.yul\":5334:5335   */\n          0x01\n            /* \"#utility.yul\":5328:5332   */\n          dup3\n            /* \"#utility.yul\":5324:5336   */\n          and\n            /* \"#utility.yul\":5355:5373   */\n          dup1\n            /* \"#utility.yul\":5345:5347   */\n          tag_118\n          jumpi\n            /* \"#utility.yul\":5411:5415   */\n          0x7f\n            /* \"#utility.yul\":5403:5409   */\n          dup3\n            /* \"#utility.yul\":5399:5416   */\n          and\n            /* \"#utility.yul\":5389:5416   */\n          swap2\n          pop\n            /* \"#utility.yul\":5345:5347   */\n        tag_118:\n            /* \"#utility.yul\":5473:5475   */\n          0x20\n            /* \"#utility.yul\":5465:5471   */\n          dup3\n            /* \"#utility.yul\":5462:5476   */\n          lt\n            /* \"#utility.yul\":5442:5460   */\n          dup2\n            /* \"#utility.yul\":5439:5477   */\n          eq\n            /* \"#utility.yul\":5436:5438   */\n          iszero\n          tag_119\n          jumpi\n            /* \"#utility.yul\":5492:5510   */\n          tag_120\n          tag_121\n          jump\t// in\n        tag_120:\n            /* \"#utility.yul\":5436:5438   */\n        tag_119:\n            /* \"#utility.yul\":5257:5526   */\n          pop\n          swap2\n          swap1\n          pop\n          jump\t// out\n            /* \"#utility.yul\":5532:5765   */\n        tag_18:\n          0x00\n            /* \"#utility.yul\":5594:5618   */\n          tag_123\n            /* \"#utility.yul\":5612:5617   */\n          dup3\n            /* \"#utility.yul\":5594:5618   */\n          tag_110\n          jump\t// in\n        tag_123:\n            /* \"#utility.yul\":5585:5618   */\n          swap2\n          pop\n            /* \"#utility.yul\":5640:5706   */\n          0xffffffffffffffffffffffffffffffffffffffffffffffffffffffffffffffff\n            /* \"#utility.yul\":5633:5638   */\n          dup3\n            /* \"#utility.yul\":5630:5707   */\n          eq\n            /* \"#utility.yul\":5627:5629   */\n          iszero\n          tag_124\n          jumpi\n            /* \"#utility.yul\":5710:5728   */\n          tag_125\n          tag_126\n          jump\t// in\n        tag_125:\n            /* \"#utility.yul\":5627:5629   */\n        tag_124:\n            /* \"#utility.yul\":5757:5758   */\n          0x01\n            /* \"#utility.yul\":5750:5755   */\n          dup3\n            /* \"#utility.yul\":5746:5759   */\n          add\n            /* \"#utility.yul\":5739:5759   */\n          swap1\n          pop\n            /* \"#utility.yul\":5575:5765   */\n          swap2\n          swap1\n          pop\n          jump\t// out\n            /* \"#utility.yul\":5771:5951   */\n        tag_126:\n            /* \"#utility.yul\":5819:5896   */\n          0x4e487b7100000000000000000000000000000000000000000000000000000000\n            /* \"#utility.yul\":5816:5817   */\n          0x00\n            /* \"#utility.yul\":5809:5897   */\n          mstore\n            /* \"#utility.yul\":5916:5920   */\n          0x11\n            /* \"#utility.yul\":5913:5914   */\n          0x04\n            /* \"#utility.yul\":5906:5921   */\n          mstore\n            /* \"#utility.yul\":5940:5944   */\n          0x24\n            /* \"#utility.yul\":5937:5938   */\n          0x00\n            /* \"#utility.yul\":5930:5945   */\n          revert\n            /* \"#utility.yul\":5957:6137   */\n        tag_121:\n            /* \"#utility.yul\":6005:6082   */\n          0x4e487b7100000000000000000000000000000000000000000000000000000000\n            /* \"#utility.yul\":6002:6003   */\n          0x00\n            /* \"#utility.yul\":5995:6083   */\n          mstore\n            /* \"#utility.yul\":6102:6106   */\n          0x22\n            /* \"#utility.yul\":6099:6100   */\n          0x04\n            /* \"#utility.yul\":6092:6107   */\n          mstore\n            /* \"#utility.yul\":6126:6130   */\n          0x24\n            /* \"#utility.yul\":6123:6124   */\n          0x00\n            /* \"#utility.yul\":6116:6131   */\n          revert\n            /* \"#utility.yul\":6143:6323   */\n        tag_96:\n            /* \"#utility.yul\":6191:6268   */\n          0x4e487b7100000000000000000000000000000000000000000000000000000000\n            /* \"#utility.yul\":6188:6189   */\n          0x00\n            /* \"#utility.yul\":6181:6269   */\n          mstore\n            /* \"#utility.yul\":6288:6292   */\n          0x41\n            /* \"#utility.yul\":6285:6286   */\n          0x04\n            /* \"#utility.yul\":6278:6293   */\n          mstore\n            /* \"#utility.yul\":6312:6316   */\n          0x24\n            /* \"#utility.yul\":6309:6310   */\n          0x00\n            /* \"#utility.yul\":6302:6317   */\n          revert\n            /* \"#utility.yul\":6329:6451   */\n        tag_69:\n            /* \"#utility.yul\":6402:6426   */\n          tag_131\n            /* \"#utility.yul\":6420:6425   */\n          dup2\n            /* \"#utility.yul\":6402:6426   */\n          tag_105\n          jump\t// in\n        tag_131:\n            /* \"#utility.yul\":6395:6400   */\n          dup2\n            /* \"#utility.yul\":6392:6427   */\n          eq\n            /* \"#utility.yul\":6382:6384   */\n          tag_132\n          jumpi\n            /* \"#utility.yul\":6441:6442   */\n          0x00\n            /* \"#utility.yul\":6438:6439   */\n          dup1\n            /* \"#utility.yul\":6431:6443   */\n          revert\n            /* \"#utility.yul\":6382:6384   */\n        tag_132:\n            /* \"#utility.yul\":6372:6451   */\n          pop\n          jump\t// out\n            /* \"fileName\":461:2062  contract Election {... */\n        tag_20:\n          dataSize(sub_0)\n          dup1\n          dataOffset(sub_0)\n          0x00\n          codecopy\n          0x00\n          return\n        stop\n\n        sub_0: assembly {\n                /* \"fileName\":461:2062  contract Election {... */\n              mstore(0x40, 0x80)\n              callvalue\n              dup1\n              iszero\n              tag_1\n              jumpi\n              0x00\n              dup1\n              revert\n            tag_1:\n              pop\n              jumpi(tag_2, lt(calldatasize, 0x04))\n              shr(0xe0, calldataload(0x00))\n              dup1\n              0x0121b93f\n              eq\n              tag_3\n              jumpi\n              dup1\n              0x596c7d37\n              eq\n              tag_4\n              jumpi\n              dup1\n              0x5fdfbf55\n              eq\n              tag_5\n              jumpi\n              dup1\n              0xb830a3bc\n              eq\n              tag_6\n              jumpi\n              dup1\n              0xc3403ddf\n              eq\n              tag_7\n              jumpi\n              dup1\n              0xf0afd295\n              eq\n              tag_8\n              jumpi\n            tag_2:\n              0x00\n              dup1\n              revert\n                /* \"fileName\":1197:1377  function vote(uint i) public {... */\n            tag_3:\n              tag_9\n              0x04\n              dup1\n              calldatasize\n              sub\n              dup2\n              add\n              swap1\n              tag_10\n              swap2\n              swap1\n              tag_11\n              jump\t// in\n            tag_10:\n              tag_12\n              jump\t// in\n            tag_9:\n              stop\n                /* \"fileName\":1865:1962  function giveDescription() public view returns (string memory){... */\n            tag_4:\n              tag_13\n              tag_14\n              jump\t// in\n            tag_13:\n              mload(0x40)\n              tag_15\n              swap2\n              swap1\n              tag_16\n              jump\t// in\n            tag_15:\n              mload(0x40)\n              dup1\n              swap2\n              sub\n              swap1\n              return\n                /* \"fileName\":1740:1859  function winnerCand() public view returns (string memory){... */\n            tag_5:\n              tag_17\n              tag_18\n              jump\t// in\n            tag_17:\n              mload(0x40)\n              tag_19\n              swap2\n              swap1\n              tag_16\n              jump\t// in\n            tag_19:\n              mload(0x40)\n              dup1\n              swap2\n              sub\n              swap1\n              return\n                /* \"fileName\":1038:1187  function beginVoting() public {... */\n            tag_6:\n              tag_20\n              tag_21\n              jump\t// in\n            tag_20:\n              stop\n                /* \"fileName\":1387:1730  function endVoting() public{... */\n            tag_7:\n              tag_22\n              tag_23\n              jump\t// in\n            tag_22:\n              stop\n                /* \"fileName\":1967:2060  function giveCandList() public view returns (string[] memory){... */\n            tag_8:\n              tag_24\n              tag_25\n              jump\t// in\n            tag_24:\n              mload(0x40)\n              tag_26\n              swap2\n              swap1\n              tag_27\n              jump\t// in\n            tag_26:\n              mload(0x40)\n              dup1\n              swap2\n              sub\n              swap1\n              return\n                /* \"fileName\":1197:1377  function vote(uint i) public {... */\n            tag_12:\n                /* \"fileName\":1244:1256  votingStatus */\n              0x04\n              0x00\n              swap1\n              sload\n              swap1\n              0x0100\n              exp\n              swap1\n              div\n              0xff\n              and\n                /* \"fileName\":1236:1257  require(votingStatus) */\n              tag_29\n              jumpi\n              0x00\n              dup1\n              revert\n            tag_29:\n                /* \"fileName\":1276:1284  hasVoted */\n              0x03\n                /* \"fileName\":1276:1296  hasVoted[msg.sender] */\n              0x00\n                /* \"fileName\":1285:1295  msg.sender */\n              caller\n                /* \"fileName\":1276:1296  hasVoted[msg.sender] */\n              0xffffffffffffffffffffffffffffffffffffffff\n              and\n              0xffffffffffffffffffffffffffffffffffffffff\n              and\n              dup2\n              mstore\n              0x20\n              add\n              swap1\n              dup2\n              mstore\n              0x20\n              add\n              0x00\n              keccak256\n              0x00\n              swap1\n              sload\n              swap1\n              0x0100\n              exp\n              swap1\n              div\n              0xff\n              and\n                /* \"fileName\":1275:1296  !hasVoted[msg.sender] */\n              iszero\n                /* \"fileName\":1267:1297  require(!hasVoted[msg.sender]) */\n              tag_30\n              jumpi\n              0x00\n              dup1\n              revert\n            tag_30:\n                /* \"fileName\":1331:1335  true */\n              0x01\n                /* \"fileName\":1308:1316  hasVoted */\n              0x03\n                /* \"fileName\":1308:1328  hasVoted[msg.sender] */\n              0x00\n                /* \"fileName\":1317:1327  msg.sender */\n              caller\n                /* \"fileName\":1308:1328  hasVoted[msg.sender] */\n              0xffffffffffffffffffffffffffffffffffffffff\n              and\n              0xffffffffffffffffffffffffffffffffffffffff\n              and\n              dup2\n              mstore\n              0x20\n              add\n              swap1\n              dup2\n              mstore\n              0x20\n              add\n              0x00\n              keccak256\n              0x00\n                /* \"fileName\":1308:1335  hasVoted[msg.sender] = true */\n              0x0100\n              exp\n              dup2\n              sload\n              dup2\n              0xff\n              mul\n              not\n              and\n              swap1\n              dup4\n              iszero\n              iszero\n              mul\n              or\n              swap1\n              sstore\n              pop\n                /* \"fileName\":1345:1355  totalVotes */\n              0x02\n                /* \"fileName\":1356:1364  candList */\n              0x01\n                /* \"fileName\":1365:1366  i */\n              dup3\n                /* \"fileName\":1356:1367  candList[i] */\n              dup2\n              sload\n              dup2\n              lt\n              tag_31\n              jumpi\n              mstore(0x00, 0x4e487b7100000000000000000000000000000000000000000000000000000000)\n              mstore(0x04, 0x32)\n              revert(0x00, 0x24)\n            tag_31:\n              swap1\n              0x00\n              mstore\n              keccak256(0x00, 0x20)\n              add\n                /* \"fileName\":1345:1368  totalVotes[candList[i]] */\n              mload(0x40)\n              tag_33\n              swap2\n              swap1\n              tag_34\n              jump\t// in\n            tag_33:\n              swap1\n              dup2\n              mstore\n              0x20\n              add\n              mload(0x40)\n              dup1\n              swap2\n              sub\n              swap1\n              keccak256\n              0x00\n                /* \"fileName\":1345:1370  totalVotes[candList[i]]++ */\n              dup2\n              sload\n              dup1\n              swap3\n              swap2\n              swap1\n              tag_35\n              swap1\n              tag_36\n              jump\t// in\n            tag_35:\n              swap2\n              swap1\n              pop\n              sstore\n              pop\n                /* \"fileName\":1197:1377  function vote(uint i) public {... */\n              pop\n              jump\t// out\n                /* \"fileName\":1865:1962  function giveDescription() public view returns (string memory){... */\n            tag_14:\n                /* \"fileName\":1913:1926  string memory */\n              0x60\n                /* \"fileName\":1944:1955  description */\n              0x06\n                /* \"fileName\":1937:1955  return description */\n              dup1\n              sload\n              tag_38\n              swap1\n              tag_39\n              jump\t// in\n            tag_38:\n              dup1\n              0x1f\n              add\n              0x20\n              dup1\n              swap2\n              div\n              mul\n              0x20\n              add\n              mload(0x40)\n              swap1\n              dup2\n              add\n              0x40\n              mstore\n              dup1\n              swap3\n              swap2\n              swap1\n              dup2\n              dup2\n              mstore\n              0x20\n              add\n              dup3\n              dup1\n              sload\n              tag_40\n              swap1\n              tag_39\n              jump\t// in\n            tag_40:\n              dup1\n              iszero\n              tag_41\n              jumpi\n              dup1\n              0x1f\n              lt\n              tag_42\n              jumpi\n              0x0100\n              dup1\n              dup4\n              sload\n              div\n              mul\n              dup4\n              mstore\n              swap2\n              0x20\n              add\n              swap2\n              jump(tag_41)\n            tag_42:\n              dup3\n              add\n              swap2\n              swap1\n              0x00\n              mstore\n              keccak256(0x00, 0x20)\n              swap1\n            tag_43:\n              dup2\n              sload\n              dup2\n              mstore\n              swap1\n              0x01\n              add\n              swap1\n              0x20\n              add\n              dup1\n              dup4\n              gt\n              tag_43\n              jumpi\n              dup3\n              swap1\n              sub\n              0x1f\n              and\n              dup3\n              add\n              swap2\n            tag_41:\n              pop\n              pop\n              pop\n              pop\n              pop\n              swap1\n              pop\n                /* \"fileName\":1865:1962  function giveDescription() public view returns (string memory){... */\n              swap1\n              jump\t// out\n                /* \"fileName\":1740:1859  function winnerCand() public view returns (string memory){... */\n            tag_18:\n                /* \"fileName\":1783:1796  string memory */\n              0x60\n                /* \"fileName\":1816:1828  votingStatus */\n              0x04\n              0x00\n              swap1\n              sload\n              swap1\n              0x0100\n              exp\n              swap1\n              div\n              0xff\n              and\n                /* \"fileName\":1815:1828  !votingStatus */\n              iszero\n                /* \"fileName\":1807:1829  require(!votingStatus) */\n              tag_45\n              jumpi\n              0x00\n              dup1\n              revert\n            tag_45:\n                /* \"fileName\":1846:1852  winner */\n              0x05\n                /* \"fileName\":1839:1852  return winner */\n              dup1\n              sload\n              tag_46\n              swap1\n              tag_39\n              jump\t// in\n            tag_46:\n              dup1\n              0x1f\n              add\n              0x20\n              dup1\n              swap2\n              div\n              mul\n              0x20\n              add\n              mload(0x40)\n              swap1\n              dup2\n              add\n              0x40\n              mstore\n              dup1\n              swap3\n              swap2\n              swap1\n              dup2\n              dup2\n              mstore\n              0x20\n              add\n              dup3\n              dup1\n              sload\n              tag_47\n              swap1\n              tag_39\n              jump\t// in\n            tag_47:\n              dup1\n              iszero\n              tag_48\n              jumpi\n              dup1\n              0x1f\n              lt\n              tag_49\n              jumpi\n              0x0100\n              dup1\n              dup4\n              sload\n              div\n              mul\n              dup4\n              mstore\n              swap2\n              0x20\n              add\n              swap2\n              jump(tag_48)\n            tag_49:\n              dup3\n              add\n              swap2\n              swap1\n              0x00\n              mstore\n              keccak256(0x00, 0x20)\n              swap1\n            tag_50:\n              dup2\n              sload\n              dup2\n              mstore\n              swap1\n              0x01\n              add\n              swap1\n              0x20\n              add\n              dup1\n              dup4\n              gt\n              tag_50\n              jumpi\n              dup3\n              swap1\n              sub\n              0x1f\n              and\n              dup3\n              add\n              swap2\n            tag_48:\n              pop\n              pop\n              pop\n              pop\n              pop\n              swap1\n              pop\n                /* \"fileName\":1740:1859  function winnerCand() public view returns (string memory){... */\n              swap1\n              jump\t// out\n                /* \"fileName\":1038:1187  function beginVoting() public {... */\n            tag_21:\n                /* \"fileName\":1100:1109  ORGANIZER */\n              0x00\n              dup1\n              sload\n              swap1\n              0x0100\n              exp\n              swap1\n              div\n              0xffffffffffffffffffffffffffffffffffffffff\n              and\n                /* \"fileName\":1086:1109  msg.sender == ORGANIZER */\n              0xffffffffffffffffffffffffffffffffffffffff\n              and\n                /* \"fileName\":1086:1096  msg.sender */\n              caller\n                /* \"fileName\":1086:1109  msg.sender == ORGANIZER */\n              0xffffffffffffffffffffffffffffffffffffffff\n              and\n              eq\n                /* \"fileName\":1078:1110  require(msg.sender == ORGANIZER) */\n              tag_52\n              jumpi\n              0x00\n              dup1\n              revert\n            tag_52:\n                /* \"fileName\":1129:1141  votingStatus */\n              0x04\n              0x00\n              swap1\n              sload\n              swap1\n              0x0100\n              exp\n              swap1\n              div\n              0xff\n              and\n                /* \"fileName\":1128:1141  !votingStatus */\n              iszero\n                /* \"fileName\":1120:1142  require(!votingStatus) */\n              tag_53\n              jumpi\n              0x00\n              dup1\n              revert\n            tag_53:\n                /* \"fileName\":1176:1180  true */\n              0x01\n                /* \"fileName\":1161:1173  votingStatus */\n              0x04\n              0x00\n                /* \"fileName\":1161:1180  votingStatus = true */\n              0x0100\n              exp\n              dup2\n              sload\n              dup2\n              0xff\n              mul\n              not\n              and\n              swap1\n              dup4\n              iszero\n              iszero\n              mul\n              or\n              swap1\n              sstore\n              pop\n                /* \"fileName\":1038:1187  function beginVoting() public {... */\n              jump\t// out\n                /* \"fileName\":1387:1730  function endVoting() public{... */\n            tag_23:\n                /* \"fileName\":1432:1444  votingStatus */\n              0x04\n              0x00\n              swap1\n              sload\n              swap1\n              0x0100\n              exp\n              swap1\n              div\n              0xff\n              and\n                /* \"fileName\":1424:1445  require(votingStatus) */\n              tag_55\n              jumpi\n              0x00\n              dup1\n              revert\n            tag_55:\n                /* \"fileName\":1477:1486  ORGANIZER */\n              0x00\n              dup1\n              sload\n              swap1\n              0x0100\n              exp\n              swap1\n              div\n              0xffffffffffffffffffffffffffffffffffffffff\n              and\n                /* \"fileName\":1463:1486  msg.sender == ORGANIZER */\n              0xffffffffffffffffffffffffffffffffffffffff\n              and\n                /* \"fileName\":1463:1473  msg.sender */\n              caller\n                /* \"fileName\":1463:1486  msg.sender == ORGANIZER */\n              0xffffffffffffffffffffffffffffffffffffffff\n              and\n              eq\n                /* \"fileName\":1455:1487  require(msg.sender == ORGANIZER) */\n              tag_56\n              jumpi\n              0x00\n              dup1\n              revert\n            tag_56:\n                /* \"fileName\":1502:1508  uint i */\n              0x00\n                /* \"fileName\":1498:1662  for(uint i = 0; i<candList.length; i++){... */\n            tag_57:\n                /* \"fileName\":1516:1524  candList */\n              0x01\n                /* \"fileName\":1516:1531  candList.length */\n              dup1\n              sload\n              swap1\n              pop\n                /* \"fileName\":1514:1515  i */\n              dup2\n                /* \"fileName\":1514:1531  i<candList.length */\n              lt\n                /* \"fileName\":1498:1662  for(uint i = 0; i<candList.length; i++){... */\n              iszero\n              tag_58\n              jumpi\n                /* \"fileName\":1580:1590  totalVotes */\n              0x02\n                /* \"fileName\":1591:1597  winner */\n              0x05\n                /* \"fileName\":1580:1598  totalVotes[winner] */\n              mload(0x40)\n              tag_60\n              swap2\n              swap1\n              tag_34\n              jump\t// in\n            tag_60:\n              swap1\n              dup2\n              mstore\n              0x20\n              add\n              mload(0x40)\n              dup1\n              swap2\n              sub\n              swap1\n              keccak256\n              sload\n                /* \"fileName\":1554:1564  totalVotes */\n              0x02\n                /* \"fileName\":1565:1573  candList */\n              0x01\n                /* \"fileName\":1574:1575  i */\n              dup4\n                /* \"fileName\":1565:1576  candList[i] */\n              dup2\n              sload\n              dup2\n              lt\n              tag_61\n              jumpi\n              mstore(0x00, 0x4e487b7100000000000000000000000000000000000000000000000000000000)\n              mstore(0x04, 0x32)\n              revert(0x00, 0x24)\n            tag_61:\n              swap1\n              0x00\n              mstore\n              keccak256(0x00, 0x20)\n              add\n                /* \"fileName\":1554:1577  totalVotes[candList[i]] */\n              mload(0x40)\n              tag_63\n              swap2\n              swap1\n              tag_34\n              jump\t// in\n            tag_63:\n              swap1\n              dup2\n              mstore\n              0x20\n              add\n              mload(0x40)\n              dup1\n              swap2\n              sub\n              swap1\n              keccak256\n              sload\n                /* \"fileName\":1554:1598  totalVotes[candList[i]] > totalVotes[winner] */\n              gt\n                /* \"fileName\":1551:1652  if(totalVotes[candList[i]] > totalVotes[winner]){... */\n              iszero\n              tag_64\n              jumpi\n                /* \"fileName\":1626:1634  candList */\n              0x01\n                /* \"fileName\":1635:1636  i */\n              dup2\n                /* \"fileName\":1626:1637  candList[i] */\n              dup2\n              sload\n              dup2\n              lt\n              tag_65\n              jumpi\n              mstore(0x00, 0x4e487b7100000000000000000000000000000000000000000000000000000000)\n              mstore(0x04, 0x32)\n              revert(0x00, 0x24)\n            tag_65:\n              swap1\n              0x00\n              mstore\n              keccak256(0x00, 0x20)\n              add\n                /* \"fileName\":1617:1623  winner */\n              0x05\n                /* \"fileName\":1617:1637  winner = candList[i] */\n              swap1\n              dup1\n              sload\n              tag_67\n              swap1\n              tag_39\n              jump\t// in\n            tag_67:\n              tag_68\n              swap3\n              swap2\n              swap1\n              tag_69\n              jump\t// in\n            tag_68:\n              pop\n                /* \"fileName\":1551:1652  if(totalVotes[candList[i]] > totalVotes[winner]){... */\n            tag_64:\n                /* \"fileName\":1533:1536  i++ */\n              dup1\n              dup1\n              tag_70\n              swap1\n              tag_36\n              jump\t// in\n            tag_70:\n              swap2\n              pop\n              pop\n                /* \"fileName\":1498:1662  for(uint i = 0; i<candList.length; i++){... */\n              jump(tag_57)\n            tag_58:\n              pop\n                /* \"fileName\":1686:1691  false */\n              0x00\n                /* \"fileName\":1671:1683  votingStatus */\n              0x04\n              0x00\n                /* \"fileName\":1671:1691  votingStatus = false */\n              0x0100\n              exp\n              dup2\n              sload\n              dup2\n              0xff\n              mul\n              not\n              and\n              swap1\n              dup4\n              iszero\n              iszero\n              mul\n              or\n              swap1\n              sstore\n              pop\n                /* \"fileName\":1721:1722  0 */\n              0x00\n                /* \"fileName\":1701:1710  ORGANIZER */\n              dup1\n              0x00\n                /* \"fileName\":1701:1723  ORGANIZER = address(0) */\n              0x0100\n              exp\n              dup2\n              sload\n              dup2\n              0xffffffffffffffffffffffffffffffffffffffff\n              mul\n              not\n              and\n              swap1\n              dup4\n              0xffffffffffffffffffffffffffffffffffffffff\n              and\n              mul\n              or\n              swap1\n              sstore\n              pop\n                /* \"fileName\":1387:1730  function endVoting() public{... */\n              jump\t// out\n                /* \"fileName\":1967:2060  function giveCandList() public view returns (string[] memory){... */\n            tag_25:\n                /* \"fileName\":2012:2027  string[] memory */\n              0x60\n                /* \"fileName\":2045:2053  candList */\n              0x01\n                /* \"fileName\":2038:2053  return candList */\n              dup1\n              sload\n              dup1\n              0x20\n              mul\n              0x20\n              add\n              mload(0x40)\n              swap1\n              dup2\n              add\n              0x40\n              mstore\n              dup1\n              swap3\n              swap2\n              swap1\n              dup2\n              dup2\n              mstore\n              0x20\n              add\n              0x00\n              swap1\n            tag_72:\n              dup3\n              dup3\n              lt\n              iszero\n              tag_73\n              jumpi\n              dup4\n              dup3\n              swap1\n              0x00\n              mstore\n              keccak256(0x00, 0x20)\n              add\n              dup1\n              sload\n              tag_75\n              swap1\n              tag_39\n              jump\t// in\n            tag_75:\n              dup1\n              0x1f\n              add\n              0x20\n              dup1\n              swap2\n              div\n              mul\n              0x20\n              add\n              mload(0x40)\n              swap1\n              dup2\n              add\n              0x40\n              mstore\n              dup1\n              swap3\n              swap2\n              swap1\n              dup2\n              dup2\n              mstore\n              0x20\n              add\n              dup3\n              dup1\n              sload\n              tag_76\n              swap1\n              tag_39\n              jump\t// in\n            tag_76:\n              dup1\n              iszero\n              tag_77\n              jumpi\n              dup1\n              0x1f\n              lt\n              tag_78\n              jumpi\n              0x0100\n              dup1\n              dup4\n              sload\n              div\n              mul\n              dup4\n              mstore\n              swap2\n              0x20\n              add\n              swap2\n              jump(tag_77)\n            tag_78:\n              dup3\n              add\n              swap2\n              swap1\n              0x00\n              mstore\n              keccak256(0x00, 0x20)\n              swap1\n            tag_79:\n              dup2\n              sload\n              dup2\n              mstore\n              swap1\n              0x01\n              add\n              swap1\n              0x20\n              add\n              dup1\n              dup4\n              gt\n              tag_79\n              jumpi\n              dup3\n              swap1\n              sub\n              0x1f\n              and\n              dup3\n              add\n              swap2\n            tag_77:\n              pop\n              pop\n              pop\n              pop\n              pop\n              dup2\n              mstore\n              0x20\n              add\n              swap1\n              0x01\n              add\n              swap1\n              jump(tag_72)\n            tag_73:\n              pop\n              pop\n              pop\n              pop\n              swap1\n              pop\n                /* \"fileName\":1967:2060  function giveCandList() public view returns (string[] memory){... */\n              swap1\n              jump\t// out\n            tag_69:\n              dup3\n              dup1\n              sload\n              tag_80\n              swap1\n              tag_39\n              jump\t// in\n            tag_80:\n              swap1\n              0x00\n              mstore\n              keccak256(0x00, 0x20)\n              swap1\n              0x1f\n              add\n              0x20\n              swap1\n              div\n              dup2\n              add\n              swap3\n              dup3\n              tag_82\n              jumpi\n              0x00\n              dup6\n              sstore\n              jump(tag_81)\n            tag_82:\n              dup3\n              0x1f\n              lt\n              tag_83\n              jumpi\n              dup1\n              sload\n              dup6\n              sstore\n              jump(tag_81)\n            tag_83:\n              dup3\n              dup1\n              add\n              0x01\n              add\n              dup6\n              sstore\n              dup3\n              iszero\n              tag_81\n              jumpi\n              0x00\n              mstore\n              keccak256(0x00, 0x20)\n              swap2\n              0x1f\n              add\n              0x20\n              swap1\n              div\n              dup3\n              add\n            tag_84:\n              dup3\n              dup2\n              gt\n              iszero\n              tag_85\n              jumpi\n              dup3\n              sload\n              dup3\n              sstore\n              swap2\n              0x01\n              add\n              swap2\n              swap1\n              0x01\n              add\n              swap1\n              jump(tag_84)\n            tag_85:\n            tag_81:\n              pop\n              swap1\n              pop\n              tag_86\n              swap2\n              swap1\n              tag_87\n              jump\t// in\n            tag_86:\n              pop\n              swap1\n              jump\t// out\n            tag_87:\n            tag_88:\n              dup1\n              dup3\n              gt\n              iszero\n              tag_89\n              jumpi\n              0x00\n              dup2\n              0x00\n              swap1\n              sstore\n              pop\n              0x01\n              add\n              jump(tag_88)\n            tag_89:\n              pop\n              swap1\n              jump\t// out\n                /* \"#utility.yul\":7:146   */\n            tag_91:\n              0x00\n                /* \"#utility.yul\":91:97   */\n              dup2\n                /* \"#utility.yul\":78:98   */\n              calldataload\n                /* \"#utility.yul\":69:98   */\n              swap1\n              pop\n                /* \"#utility.yul\":107:140   */\n              tag_93\n                /* \"#utility.yul\":134:139   */\n              dup2\n                /* \"#utility.yul\":107:140   */\n              tag_94\n              jump\t// in\n            tag_93:\n                /* \"#utility.yul\":59:146   */\n              swap3\n              swap2\n              pop\n              pop\n              jump\t// out\n                /* \"#utility.yul\":152:414   */\n            tag_11:\n              0x00\n                /* \"#utility.yul\":260:262   */\n              0x20\n                /* \"#utility.yul\":248:257   */\n              dup3\n                /* \"#utility.yul\":239:246   */\n              dup5\n                /* \"#utility.yul\":235:258   */\n              sub\n                /* \"#utility.yul\":231:263   */\n              slt\n                /* \"#utility.yul\":228:230   */\n              iszero\n              tag_96\n              jumpi\n                /* \"#utility.yul\":276:277   */\n              0x00\n                /* \"#utility.yul\":273:274   */\n              dup1\n                /* \"#utility.yul\":266:278   */\n              revert\n                /* \"#utility.yul\":228:230   */\n            tag_96:\n                /* \"#utility.yul\":319:320   */\n              0x00\n                /* \"#utility.yul\":344:397   */\n              tag_97\n                /* \"#utility.yul\":389:396   */\n              dup5\n                /* \"#utility.yul\":380:386   */\n              dup3\n                /* \"#utility.yul\":369:378   */\n              dup6\n                /* \"#utility.yul\":365:387   */\n              add\n                /* \"#utility.yul\":344:397   */\n              tag_91\n              jump\t// in\n            tag_97:\n                /* \"#utility.yul\":334:397   */\n              swap2\n              pop\n                /* \"#utility.yul\":290:407   */\n              pop\n                /* \"#utility.yul\":218:414   */\n              swap3\n              swap2\n              pop\n              pop\n              jump\t// out\n                /* \"#utility.yul\":420:616   */\n            tag_98:\n              0x00\n                /* \"#utility.yul\":544:610   */\n              tag_100\n                /* \"#utility.yul\":606:609   */\n              dup4\n                /* \"#utility.yul\":598:604   */\n              dup4\n                /* \"#utility.yul\":544:610   */\n              tag_101\n              jump\t// in\n            tag_100:\n                /* \"#utility.yul\":530:610   */\n              swap1\n              pop\n                /* \"#utility.yul\":520:616   */\n              swap3\n              swap2\n              pop\n              pop\n              jump\t// out\n                /* \"#utility.yul\":650:1641   */\n            tag_102:\n              0x00\n                /* \"#utility.yul\":818:882   */\n              tag_104\n                /* \"#utility.yul\":876:881   */\n              dup3\n                /* \"#utility.yul\":818:882   */\n              tag_105\n              jump\t// in\n            tag_104:\n                /* \"#utility.yul\":898:994   */\n              tag_106\n                /* \"#utility.yul\":987:993   */\n              dup2\n                /* \"#utility.yul\":982:985   */\n              dup6\n                /* \"#utility.yul\":898:994   */\n              tag_107\n              jump\t// in\n            tag_106:\n                /* \"#utility.yul\":891:994   */\n              swap4\n              pop\n                /* \"#utility.yul\":1020:1023   */\n              dup4\n                /* \"#utility.yul\":1065:1069   */\n              0x20\n                /* \"#utility.yul\":1057:1063   */\n              dup3\n                /* \"#utility.yul\":1053:1070   */\n              mul\n                /* \"#utility.yul\":1048:1051   */\n              dup6\n                /* \"#utility.yul\":1044:1071   */\n              add\n                /* \"#utility.yul\":1095:1161   */\n              tag_108\n                /* \"#utility.yul\":1155:1160   */\n              dup6\n                /* \"#utility.yul\":1095:1161   */\n              tag_109\n              jump\t// in\n            tag_108:\n                /* \"#utility.yul\":1184:1191   */\n              dup1\n                /* \"#utility.yul\":1215:1216   */\n              0x00\n                /* \"#utility.yul\":1200:1596   */\n            tag_110:\n                /* \"#utility.yul\":1225:1231   */\n              dup6\n                /* \"#utility.yul\":1222:1223   */\n              dup2\n                /* \"#utility.yul\":1219:1232   */\n              lt\n                /* \"#utility.yul\":1200:1596   */\n              iszero\n              tag_112\n              jumpi\n                /* \"#utility.yul\":1296:1305   */\n              dup5\n                /* \"#utility.yul\":1290:1294   */\n              dup5\n                /* \"#utility.yul\":1286:1306   */\n              sub\n                /* \"#utility.yul\":1281:1284   */\n              dup10\n                /* \"#utility.yul\":1274:1307   */\n              mstore\n                /* \"#utility.yul\":1347:1353   */\n              dup2\n                /* \"#utility.yul\":1341:1354   */\n              mload\n                /* \"#utility.yul\":1375:1459   */\n              tag_113\n                /* \"#utility.yul\":1454:1458   */\n              dup6\n                /* \"#utility.yul\":1439:1452   */\n              dup3\n                /* \"#utility.yul\":1375:1459   */\n              tag_98\n              jump\t// in\n            tag_113:\n                /* \"#utility.yul\":1367:1459   */\n              swap5\n              pop\n                /* \"#utility.yul\":1482:1552   */\n              tag_114\n                /* \"#utility.yul\":1545:1551   */\n              dup4\n                /* \"#utility.yul\":1482:1552   */\n              tag_115\n              jump\t// in\n            tag_114:\n                /* \"#utility.yul\":1472:1552   */\n              swap3\n              pop\n                /* \"#utility.yul\":1581:1585   */\n              0x20\n                /* \"#utility.yul\":1576:1579   */\n              dup11\n                /* \"#utility.yul\":1572:1586   */\n              add\n                /* \"#utility.yul\":1565:1586   */\n              swap10\n              pop\n                /* \"#utility.yul\":1260:1596   */\n              pop\n                /* \"#utility.yul\":1247:1248   */\n              0x01\n                /* \"#utility.yul\":1244:1245   */\n              dup2\n                /* \"#utility.yul\":1240:1249   */\n              add\n                /* \"#utility.yul\":1235:1249   */\n              swap1\n              pop\n                /* \"#utility.yul\":1200:1596   */\n              jump(tag_110)\n            tag_112:\n                /* \"#utility.yul\":1204:1218   */\n              pop\n                /* \"#utility.yul\":1612:1616   */\n              dup3\n                /* \"#utility.yul\":1605:1616   */\n              swap8\n              pop\n                /* \"#utility.yul\":1632:1635   */\n              dup8\n                /* \"#utility.yul\":1625:1635   */\n              swap6\n              pop\n                /* \"#utility.yul\":794:1641   */\n              pop\n              pop\n              pop\n              pop\n              pop\n              swap3\n              swap2\n              pop\n              pop\n              jump\t// out\n                /* \"#utility.yul\":1647:1991   */\n            tag_101:\n              0x00\n                /* \"#utility.yul\":1753:1792   */\n              tag_117\n                /* \"#utility.yul\":1786:1791   */\n              dup3\n                /* \"#utility.yul\":1753:1792   */\n              tag_118\n              jump\t// in\n            tag_117:\n                /* \"#utility.yul\":1808:1869   */\n              tag_119\n                /* \"#utility.yul\":1862:1868   */\n              dup2\n                /* \"#utility.yul\":1857:1860   */\n              dup6\n                /* \"#utility.yul\":1808:1869   */\n              tag_120\n              jump\t// in\n            tag_119:\n                /* \"#utility.yul\":1801:1869   */\n              swap4\n              pop\n                /* \"#utility.yul\":1878:1930   */\n              tag_121\n                /* \"#utility.yul\":1923:1929   */\n              dup2\n                /* \"#utility.yul\":1918:1921   */\n              dup6\n                /* \"#utility.yul\":1911:1915   */\n              0x20\n                /* \"#utility.yul\":1904:1909   */\n              dup7\n                /* \"#utility.yul\":1900:1916   */\n              add\n                /* \"#utility.yul\":1878:1930   */\n              tag_122\n              jump\t// in\n            tag_121:\n                /* \"#utility.yul\":1955:1984   */\n              tag_123\n                /* \"#utility.yul\":1977:1983   */\n              dup2\n                /* \"#utility.yul\":1955:1984   */\n              tag_124\n              jump\t// in\n            tag_123:\n                /* \"#utility.yul\":1950:1953   */\n              dup5\n                /* \"#utility.yul\":1946:1985   */\n              add\n                /* \"#utility.yul\":1939:1985   */\n              swap2\n              pop\n                /* \"#utility.yul\":1729:1991   */\n              pop\n              swap3\n              swap2\n              pop\n              pop\n              jump\t// out\n                /* \"#utility.yul\":1997:2361   */\n            tag_125:\n              0x00\n                /* \"#utility.yul\":2113:2152   */\n              tag_127\n                /* \"#utility.yul\":2146:2151   */\n              dup3\n                /* \"#utility.yul\":2113:2152   */\n              tag_118\n              jump\t// in\n            tag_127:\n                /* \"#utility.yul\":2168:2239   */\n              tag_128\n                /* \"#utility.yul\":2232:2238   */\n              dup2\n                /* \"#utility.yul\":2227:2230   */\n              dup6\n                /* \"#utility.yul\":2168:2239   */\n              tag_129\n              jump\t// in\n            tag_128:\n                /* \"#utility.yul\":2161:2239   */\n              swap4\n              pop\n                /* \"#utility.yul\":2248:2300   */\n              tag_130\n                /* \"#utility.yul\":2293:2299   */\n              dup2\n                /* \"#utility.yul\":2288:2291   */\n              dup6\n                /* \"#utility.yul\":2281:2285   */\n              0x20\n                /* \"#utility.yul\":2274:2279   */\n              dup7\n                /* \"#utility.yul\":2270:2286   */\n              add\n                /* \"#utility.yul\":2248:2300   */\n              tag_122\n              jump\t// in\n            tag_130:\n                /* \"#utility.yul\":2325:2354   */\n              tag_131\n                /* \"#utility.yul\":2347:2353   */\n              dup2\n                /* \"#utility.yul\":2325:2354   */\n              tag_124\n              jump\t// in\n            tag_131:\n                /* \"#utility.yul\":2320:2323   */\n              dup5\n                /* \"#utility.yul\":2316:2355   */\n              add\n                /* \"#utility.yul\":2309:2355   */\n              swap2\n              pop\n                /* \"#utility.yul\":2089:2361   */\n              pop\n              swap3\n              swap2\n              pop\n              pop\n              jump\t// out\n                /* \"#utility.yul\":2391:3236   */\n            tag_132:\n              0x00\n                /* \"#utility.yul\":2531:2536   */\n              dup2\n                /* \"#utility.yul\":2525:2537   */\n              sload\n                /* \"#utility.yul\":2560:2596   */\n              tag_134\n                /* \"#utility.yul\":2586:2595   */\n              dup2\n                /* \"#utility.yul\":2560:2596   */\n              tag_39\n              jump\t// in\n            tag_134:\n                /* \"#utility.yul\":2612:2701   */\n              tag_135\n                /* \"#utility.yul\":2694:2700   */\n              dup2\n                /* \"#utility.yul\":2689:2692   */\n              dup7\n                /* \"#utility.yul\":2612:2701   */\n              tag_136\n              jump\t// in\n            tag_135:\n                /* \"#utility.yul\":2605:2701   */\n              swap5\n              pop\n                /* \"#utility.yul\":2732:2733   */\n              0x01\n                /* \"#utility.yul\":2721:2730   */\n              dup3\n                /* \"#utility.yul\":2717:2734   */\n              and\n                /* \"#utility.yul\":2748:2749   */\n              0x00\n                /* \"#utility.yul\":2743:2880   */\n              dup2\n              eq\n              tag_138\n              jumpi\n                /* \"#utility.yul\":2894:2895   */\n              0x01\n                /* \"#utility.yul\":2889:3230   */\n              dup2\n              eq\n              tag_139\n              jumpi\n                /* \"#utility.yul\":2710:3230   */\n              jump(tag_137)\n                /* \"#utility.yul\":2743:2880   */\n            tag_138:\n                /* \"#utility.yul\":2827:2831   */\n              0xff\n                /* \"#utility.yul\":2823:2832   */\n              not\n                /* \"#utility.yul\":2812:2821   */\n              dup4\n                /* \"#utility.yul\":2808:2833   */\n              and\n                /* \"#utility.yul\":2803:2806   */\n              dup7\n                /* \"#utility.yul\":2796:2834   */\n              mstore\n                /* \"#utility.yul\":2863:2869   */\n              dup2\n                /* \"#utility.yul\":2858:2861   */\n              dup7\n                /* \"#utility.yul\":2854:2870   */\n              add\n                /* \"#utility.yul\":2847:2870   */\n              swap4\n              pop\n                /* \"#utility.yul\":2743:2880   */\n              jump(tag_137)\n                /* \"#utility.yul\":2889:3230   */\n            tag_139:\n                /* \"#utility.yul\":2956:2994   */\n              tag_140\n                /* \"#utility.yul\":2988:2993   */\n              dup6\n                /* \"#utility.yul\":2956:2994   */\n              tag_141\n              jump\t// in\n            tag_140:\n                /* \"#utility.yul\":3016:3017   */\n              0x00\n                /* \"#utility.yul\":3030:3184   */\n            tag_142:\n                /* \"#utility.yul\":3044:3050   */\n              dup4\n                /* \"#utility.yul\":3041:3042   */\n              dup2\n                /* \"#utility.yul\":3038:3051   */\n              lt\n                /* \"#utility.yul\":3030:3184   */\n              iszero\n              tag_144\n              jumpi\n                /* \"#utility.yul\":3118:3125   */\n              dup2\n                /* \"#utility.yul\":3112:3126   */\n              sload\n                /* \"#utility.yul\":3108:3109   */\n              dup2\n                /* \"#utility.yul\":3103:3106   */\n              dup10\n                /* \"#utility.yul\":3099:3110   */\n              add\n                /* \"#utility.yul\":3092:3127   */\n              mstore\n                /* \"#utility.yul\":3168:3169   */\n              0x01\n                /* \"#utility.yul\":3159:3166   */\n              dup3\n                /* \"#utility.yul\":3155:3170   */\n              add\n                /* \"#utility.yul\":3144:3170   */\n              swap2\n              pop\n                /* \"#utility.yul\":3066:3070   */\n              0x20\n                /* \"#utility.yul\":3063:3064   */\n              dup2\n                /* \"#utility.yul\":3059:3071   */\n              add\n                /* \"#utility.yul\":3054:3071   */\n              swap1\n              pop\n                /* \"#utility.yul\":3030:3184   */\n              jump(tag_142)\n            tag_144:\n                /* \"#utility.yul\":3213:3219   */\n              dup4\n                /* \"#utility.yul\":3208:3211   */\n              dup9\n                /* \"#utility.yul\":3204:3220   */\n              add\n                /* \"#utility.yul\":3197:3220   */\n              swap6\n              pop\n                /* \"#utility.yul\":2896:3230   */\n              pop\n              pop\n                /* \"#utility.yul\":2710:3230   */\n            tag_137:\n              pop\n                /* \"#utility.yul\":2498:3236   */\n              pop\n              pop\n              swap3\n              swap2\n              pop\n              pop\n              jump\t// out\n                /* \"#utility.yul\":3242:3511   */\n            tag_34:\n              0x00\n                /* \"#utility.yul\":3393:3485   */\n              tag_146\n                /* \"#utility.yul\":3481:3484   */\n              dup3\n                /* \"#utility.yul\":3472:3478   */\n              dup5\n                /* \"#utility.yul\":3393:3485   */\n              tag_132\n              jump\t// in\n            tag_146:\n                /* \"#utility.yul\":3386:3485   */\n              swap2\n              pop\n                /* \"#utility.yul\":3502:3505   */\n              dup2\n                /* \"#utility.yul\":3495:3505   */\n              swap1\n              pop\n                /* \"#utility.yul\":3375:3511   */\n              swap3\n              swap2\n              pop\n              pop\n              jump\t// out\n                /* \"#utility.yul\":3517:3930   */\n            tag_27:\n              0x00\n                /* \"#utility.yul\":3718:3720   */\n              0x20\n                /* \"#utility.yul\":3707:3716   */\n              dup3\n                /* \"#utility.yul\":3703:3721   */\n              add\n                /* \"#utility.yul\":3695:3721   */\n              swap1\n              pop\n                /* \"#utility.yul\":3767:3776   */\n              dup2\n                /* \"#utility.yul\":3761:3765   */\n              dup2\n                /* \"#utility.yul\":3757:3777   */\n              sub\n                /* \"#utility.yul\":3753:3754   */\n              0x00\n                /* \"#utility.yul\":3742:3751   */\n              dup4\n                /* \"#utility.yul\":3738:3755   */\n              add\n                /* \"#utility.yul\":3731:3778   */\n              mstore\n                /* \"#utility.yul\":3795:3923   */\n              tag_148\n                /* \"#utility.yul\":3918:3922   */\n              dup2\n                /* \"#utility.yul\":3909:3915   */\n              dup5\n                /* \"#utility.yul\":3795:3923   */\n              tag_102\n              jump\t// in\n            tag_148:\n                /* \"#utility.yul\":3787:3923   */\n              swap1\n              pop\n                /* \"#utility.yul\":3685:3930   */\n              swap3\n              swap2\n              pop\n              pop\n              jump\t// out\n                /* \"#utility.yul\":3936:4249   */\n            tag_16:\n              0x00\n                /* \"#utility.yul\":4087:4089   */\n              0x20\n                /* \"#utility.yul\":4076:4085   */\n              dup3\n                /* \"#utility.yul\":4072:4090   */\n              add\n                /* \"#utility.yul\":4064:4090   */\n              swap1\n              pop\n                /* \"#utility.yul\":4136:4145   */\n              dup2\n                /* \"#utility.yul\":4130:4134   */\n              dup2\n                /* \"#utility.yul\":4126:4146   */\n              sub\n                /* \"#utility.yul\":4122:4123   */\n              0x00\n                /* \"#utility.yul\":4111:4120   */\n              dup4\n                /* \"#utility.yul\":4107:4124   */\n              add\n                /* \"#utility.yul\":4100:4147   */\n              mstore\n                /* \"#utility.yul\":4164:4242   */\n              tag_150\n                /* \"#utility.yul\":4237:4241   */\n              dup2\n                /* \"#utility.yul\":4228:4234   */\n              dup5\n                /* \"#utility.yul\":4164:4242   */\n              tag_125\n              jump\t// in\n            tag_150:\n                /* \"#utility.yul\":4156:4242   */\n              swap1\n              pop\n                /* \"#utility.yul\":4054:4249   */\n              swap3\n              swap2\n              pop\n              pop\n              jump\t// out\n                /* \"#utility.yul\":4255:4397   */\n            tag_109:\n              0x00\n                /* \"#utility.yul\":4355:4358   */\n              dup2\n                /* \"#utility.yul\":4347:4358   */\n              swap1\n              pop\n                /* \"#utility.yul\":4385:4389   */\n              0x20\n                /* \"#utility.yul\":4380:4383   */\n              dup3\n                /* \"#utility.yul\":4376:4390   */\n              add\n                /* \"#utility.yul\":4368:4390   */\n              swap1\n              pop\n                /* \"#utility.yul\":4337:4397   */\n              swap2\n              swap1\n              pop\n              jump\t// out\n                /* \"#utility.yul\":4403:4544   */\n            tag_141:\n              0x00\n                /* \"#utility.yul\":4475:4478   */\n              dup2\n                /* \"#utility.yul\":4467:4478   */\n              swap1\n              pop\n                /* \"#utility.yul\":4498:4501   */\n              dup2\n                /* \"#utility.yul\":4495:4496   */\n              0x00\n                /* \"#utility.yul\":4488:4502   */\n              mstore\n                /* \"#utility.yul\":4532:4536   */\n              0x20\n                /* \"#utility.yul\":4529:4530   */\n              0x00\n                /* \"#utility.yul\":4519:4537   */\n              keccak256\n                /* \"#utility.yul\":4511:4537   */\n              swap1\n              pop\n                /* \"#utility.yul\":4457:4544   */\n              swap2\n              swap1\n              pop\n              jump\t// out\n                /* \"#utility.yul\":4550:4674   */\n            tag_105:\n              0x00\n                /* \"#utility.yul\":4661:4666   */\n              dup2\n                /* \"#utility.yul\":4655:4667   */\n              mload\n                /* \"#utility.yul\":4645:4667   */\n              swap1\n              pop\n                /* \"#utility.yul\":4634:4674   */\n              swap2\n              swap1\n              pop\n              jump\t// out\n                /* \"#utility.yul\":4680:4779   */\n            tag_118:\n              0x00\n                /* \"#utility.yul\":4766:4771   */\n              dup2\n                /* \"#utility.yul\":4760:4772   */\n              mload\n                /* \"#utility.yul\":4750:4772   */\n              swap1\n              pop\n                /* \"#utility.yul\":4739:4779   */\n              swap2\n              swap1\n              pop\n              jump\t// out\n                /* \"#utility.yul\":4785:4908   */\n            tag_115:\n              0x00\n                /* \"#utility.yul\":4897:4901   */\n              0x20\n                /* \"#utility.yul\":4892:4895   */\n              dup3\n                /* \"#utility.yul\":4888:4902   */\n              add\n                /* \"#utility.yul\":4880:4902   */\n              swap1\n              pop\n                /* \"#utility.yul\":4870:4908   */\n              swap2\n              swap1\n              pop\n              jump\t// out\n                /* \"#utility.yul\":4914:5108   */\n            tag_107:\n              0x00\n                /* \"#utility.yul\":5057:5063   */\n              dup3\n                /* \"#utility.yul\":5052:5055   */\n              dup3\n                /* \"#utility.yul\":5045:5064   */\n              mstore\n                /* \"#utility.yul\":5097:5101   */\n              0x20\n                /* \"#utility.yul\":5092:5095   */\n              dup3\n                /* \"#utility.yul\":5088:5102   */\n              add\n                /* \"#utility.yul\":5073:5102   */\n              swap1\n              pop\n                /* \"#utility.yul\":5035:5108   */\n              swap3\n              swap2\n              pop\n              pop\n              jump\t// out\n                /* \"#utility.yul\":5114:5273   */\n            tag_120:\n              0x00\n                /* \"#utility.yul\":5222:5228   */\n              dup3\n                /* \"#utility.yul\":5217:5220   */\n              dup3\n                /* \"#utility.yul\":5210:5229   */\n              mstore\n                /* \"#utility.yul\":5262:5266   */\n              0x20\n                /* \"#utility.yul\":5257:5260   */\n              dup3\n                /* \"#utility.yul\":5253:5267   */\n              add\n                /* \"#utility.yul\":5238:5267   */\n              swap1\n              pop\n                /* \"#utility.yul\":5200:5273   */\n              swap3\n              swap2\n              pop\n              pop\n              jump\t// out\n                /* \"#utility.yul\":5279:5448   */\n            tag_129:\n              0x00\n                /* \"#utility.yul\":5397:5403   */\n              dup3\n                /* \"#utility.yul\":5392:5395   */\n              dup3\n                /* \"#utility.yul\":5385:5404   */\n              mstore\n                /* \"#utility.yul\":5437:5441   */\n              0x20\n                /* \"#utility.yul\":5432:5435   */\n              dup3\n                /* \"#utility.yul\":5428:5442   */\n              add\n                /* \"#utility.yul\":5413:5442   */\n              swap1\n              pop\n                /* \"#utility.yul\":5375:5448   */\n              swap3\n              swap2\n              pop\n              pop\n              jump\t// out\n                /* \"#utility.yul\":5454:5602   */\n            tag_136:\n              0x00\n                /* \"#utility.yul\":5593:5596   */\n              dup2\n                /* \"#utility.yul\":5578:5596   */\n              swap1\n              pop\n                /* \"#utility.yul\":5568:5602   */\n              swap3\n              swap2\n              pop\n              pop\n              jump\t// out\n                /* \"#utility.yul\":5608:5685   */\n            tag_160:\n              0x00\n                /* \"#utility.yul\":5674:5679   */\n              dup2\n                /* \"#utility.yul\":5663:5679   */\n              swap1\n              pop\n                /* \"#utility.yul\":5653:5685   */\n              swap2\n              swap1\n              pop\n              jump\t// out\n                /* \"#utility.yul\":5691:5998   */\n            tag_122:\n                /* \"#utility.yul\":5759:5760   */\n              0x00\n                /* \"#utility.yul\":5769:5882   */\n            tag_163:\n                /* \"#utility.yul\":5783:5789   */\n              dup4\n                /* \"#utility.yul\":5780:5781   */\n              dup2\n                /* \"#utility.yul\":5777:5790   */\n              lt\n                /* \"#utility.yul\":5769:5882   */\n              iszero\n              tag_165\n              jumpi\n                /* \"#utility.yul\":5868:5869   */\n              dup1\n                /* \"#utility.yul\":5863:5866   */\n              dup3\n                /* \"#utility.yul\":5859:5870   */\n              add\n                /* \"#utility.yul\":5853:5871   */\n              mload\n                /* \"#utility.yul\":5849:5850   */\n              dup2\n                /* \"#utility.yul\":5844:5847   */\n              dup5\n                /* \"#utility.yul\":5840:5851   */\n              add\n                /* \"#utility.yul\":5833:5872   */\n              mstore\n                /* \"#utility.yul\":5805:5807   */\n              0x20\n                /* \"#utility.yul\":5802:5803   */\n              dup2\n                /* \"#utility.yul\":5798:5808   */\n              add\n                /* \"#utility.yul\":5793:5808   */\n              swap1\n              pop\n                /* \"#utility.yul\":5769:5882   */\n              jump(tag_163)\n            tag_165:\n                /* \"#utility.yul\":5900:5906   */\n              dup4\n                /* \"#utility.yul\":5897:5898   */\n              dup2\n                /* \"#utility.yul\":5894:5907   */\n              gt\n                /* \"#utility.yul\":5891:5893   */\n              iszero\n              tag_166\n              jumpi\n                /* \"#utility.yul\":5980:5981   */\n              0x00\n                /* \"#utility.yul\":5971:5977   */\n              dup5\n                /* \"#utility.yul\":5966:5969   */\n              dup5\n                /* \"#utility.yul\":5962:5978   */\n              add\n                /* \"#utility.yul\":5955:5982   */\n              mstore\n                /* \"#utility.yul\":5891:5893   */\n            tag_166:\n                /* \"#utility.yul\":5740:5998   */\n              pop\n              pop\n              pop\n              pop\n              jump\t// out\n                /* \"#utility.yul\":6004:6324   */\n            tag_39:\n              0x00\n                /* \"#utility.yul\":6085:6086   */\n              0x02\n                /* \"#utility.yul\":6079:6083   */\n              dup3\n                /* \"#utility.yul\":6075:6087   */\n              div\n                /* \"#utility.yul\":6065:6087   */\n              swap1\n              pop\n                /* \"#utility.yul\":6132:6133   */\n              0x01\n                /* \"#utility.yul\":6126:6130   */\n              dup3\n                /* \"#utility.yul\":6122:6134   */\n              and\n                /* \"#utility.yul\":6153:6171   */\n              dup1\n                /* \"#utility.yul\":6143:6145   */\n              tag_168\n              jumpi\n                /* \"#utility.yul\":6209:6213   */\n              0x7f\n                /* \"#utility.yul\":6201:6207   */\n              dup3\n                /* \"#utility.yul\":6197:6214   */\n              and\n                /* \"#utility.yul\":6187:6214   */\n              swap2\n              pop\n                /* \"#utility.yul\":6143:6145   */\n            tag_168:\n                /* \"#utility.yul\":6271:6273   */\n              0x20\n                /* \"#utility.yul\":6263:6269   */\n              dup3\n                /* \"#utility.yul\":6260:6274   */\n              lt\n                /* \"#utility.yul\":6240:6258   */\n              dup2\n                /* \"#utility.yul\":6237:6275   */\n              eq\n                /* \"#utility.yul\":6234:6236   */\n              iszero\n              tag_169\n              jumpi\n                /* \"#utility.yul\":6290:6308   */\n              tag_170\n              tag_171\n              jump\t// in\n            tag_170:\n                /* \"#utility.yul\":6234:6236   */\n            tag_169:\n                /* \"#utility.yul\":6055:6324   */\n              pop\n              swap2\n              swap1\n              pop\n              jump\t// out\n                /* \"#utility.yul\":6330:6563   */\n            tag_36:\n              0x00\n                /* \"#utility.yul\":6392:6416   */\n              tag_173\n                /* \"#utility.yul\":6410:6415   */\n              dup3\n                /* \"#utility.yul\":6392:6416   */\n              tag_160\n              jump\t// in\n            tag_173:\n                /* \"#utility.yul\":6383:6416   */\n              swap2\n              pop\n                /* \"#utility.yul\":6438:6504   */\n              0xffffffffffffffffffffffffffffffffffffffffffffffffffffffffffffffff\n                /* \"#utility.yul\":6431:6436   */\n              dup3\n                /* \"#utility.yul\":6428:6505   */\n              eq\n                /* \"#utility.yul\":6425:6427   */\n              iszero\n              tag_174\n              jumpi\n                /* \"#utility.yul\":6508:6526   */\n              tag_175\n              tag_176\n              jump\t// in\n            tag_175:\n                /* \"#utility.yul\":6425:6427   */\n            tag_174:\n                /* \"#utility.yul\":6555:6556   */\n              0x01\n                /* \"#utility.yul\":6548:6553   */\n              dup3\n                /* \"#utility.yul\":6544:6557   */\n              add\n                /* \"#utility.yul\":6537:6557   */\n              swap1\n              pop\n                /* \"#utility.yul\":6373:6563   */\n              swap2\n              swap1\n              pop\n              jump\t// out\n                /* \"#utility.yul\":6569:6749   */\n            tag_176:\n                /* \"#utility.yul\":6617:6694   */\n              0x4e487b7100000000000000000000000000000000000000000000000000000000\n                /* \"#utility.yul\":6614:6615   */\n              0x00\n                /* \"#utility.yul\":6607:6695   */\n              mstore\n                /* \"#utility.yul\":6714:6718   */\n              0x11\n                /* \"#utility.yul\":6711:6712   */\n              0x04\n                /* \"#utility.yul\":6704:6719   */\n              mstore\n                /* \"#utility.yul\":6738:6742   */\n              0x24\n                /* \"#utility.yul\":6735:6736   */\n              0x00\n                /* \"#utility.yul\":6728:6743   */\n              revert\n                /* \"#utility.yul\":6755:6935   */\n            tag_171:\n                /* \"#utility.yul\":6803:6880   */\n              0x4e487b7100000000000000000000000000000000000000000000000000000000\n                /* \"#utility.yul\":6800:6801   */\n              0x00\n                /* \"#utility.yul\":6793:6881   */\n              mstore\n                /* \"#utility.yul\":6900:6904   */\n              0x22\n                /* \"#utility.yul\":6897:6898   */\n              0x04\n                /* \"#utility.yul\":6890:6905   */\n              mstore\n                /* \"#utility.yul\":6924:6928   */\n              0x24\n                /* \"#utility.yul\":6921:6922   */\n              0x00\n                /* \"#utility.yul\":6914:6929   */\n              revert\n                /* \"#utility.yul\":6941:7043   */\n            tag_124:\n              0x00\n                /* \"#utility.yul\":7033:7035   */\n              0x1f\n                /* \"#utility.yul\":7029:7036   */\n              not\n                /* \"#utility.yul\":7024:7026   */\n              0x1f\n                /* \"#utility.yul\":7017:7022   */\n              dup4\n                /* \"#utility.yul\":7013:7027   */\n              add\n                /* \"#utility.yul\":7009:7037   */\n              and\n                /* \"#utility.yul\":6999:7037   */\n              swap1\n              pop\n                /* \"#utility.yul\":6989:7043   */\n              swap2\n              swap1\n              pop\n              jump\t// out\n                /* \"#utility.yul\":7049:7171   */\n            tag_94:\n                /* \"#utility.yul\":7122:7146   */\n              tag_181\n                /* \"#utility.yul\":7140:7145   */\n              dup2\n                /* \"#utility.yul\":7122:7146   */\n              tag_160\n              jump\t// in\n            tag_181:\n                /* \"#utility.yul\":7115:7120   */\n              dup2\n                /* \"#utility.yul\":7112:7147   */\n              eq\n                /* \"#utility.yul\":7102:7104   */\n              tag_182\n              jumpi\n                /* \"#utility.yul\":7161:7162   */\n              0x00\n                /* \"#utility.yul\":7158:7159   */\n              dup1\n                /* \"#utility.yul\":7151:7163   */\n              revert\n                /* \"#utility.yul\":7102:7104   */\n            tag_182:\n                /* \"#utility.yul\":7092:7171   */\n              pop\n              jump\t// out\n\n            auxdata: 0xa26469706673582212205d5bd623aa2983b8866949ee17f18e3dc1247b6c540f2281ff8c2b9d1e3ed0f764736f6c63430008000033\n        }\n    }\n\n    auxdata: 0xa264697066735822122067b64b46e5f8b39270ad2534ec7bb075501a1c2c6ef66d470ad4cde46db07eaa64736f6c63430008000033\n}\n","bytecode":{"linkReferences":{},"object":"608060405234801561001057600080fd5b50611b63806100206000396000f3fe60806040523480156200001157600080fd5b5060043610620000465760003560e01c806367dc64c5146200004b5780637fd5f268146200006b578063f18b4f8e146200008d575b600080fd5b62000069600480360381019062000063919062000365565b620000c3565b005b620000756200016c565b6040516200008491906200062b565b60405180910390f35b620000ab6004803603810190620000a59190620003d8565b620001fc565b604051620000ba9190620005c3565b60405180910390f35b6000338383604051620000d6906200023c565b620000e493929190620005e0565b604051809103906000f08015801562000101573d6000803e3d6000fd5b5090506000819080600181540180825580915050600190039060005260206000200160009091909190916101000a81548173ffffffffffffffffffffffffffffffffffffffff021916908373ffffffffffffffffffffffffffffffffffffffff160217905550505050565b60606000805480602002602001604051908101604052809291908181526020018280548015620001f257602002820191906000526020600020905b8160009054906101000a900473ffffffffffffffffffffffffffffffffffffffff1673ffffffffffffffffffffffffffffffffffffffff1681526020019060010190808311620001a7575b5050505050905090565b600081815481106200020d57600080fd5b906000526020600020016000915054906101000a900473ffffffffffffffffffffffffffffffffffffffff1681565b6112cc806200086283390190565b6000620002616200025b8462000683565b6200064f565b9050808382526020820190508260005b85811015620002a557813585016200028a888262000321565b84526020840193506020830192505060018101905062000271565b5050509392505050565b6000620002c6620002c084620006b2565b6200064f565b905082815260208101848484011115620002df57600080fd5b620002ec848285620007c2565b509392505050565b600082601f8301126200030657600080fd5b8135620003188482602086016200024a565b91505092915050565b600082601f8301126200033357600080fd5b813562000345848260208601620002af565b91505092915050565b6000813590506200035f8162000847565b92915050565b600080604083850312156200037957600080fd5b600083013567ffffffffffffffff8111156200039457600080fd5b620003a285828601620002f4565b925050602083013567ffffffffffffffff811115620003c057600080fd5b620003ce8582860162000321565b9150509250929050565b600060208284031215620003eb57600080fd5b6000620003fb848285016200034e565b91505092915050565b600062000412838362000434565b60208301905092915050565b60006200042c838362000541565b905092915050565b6200043f8162000784565b82525050565b620004508162000784565b82525050565b6000620004638262000705565b6200046f818562000740565b93506200047c83620006e5565b8060005b83811015620004b357815162000497888262000404565b9750620004a48362000726565b92505060018101905062000480565b5085935050505092915050565b6000620004cd8262000710565b620004d9818562000751565b935083602082028501620004ed85620006f5565b8060005b858110156200052f57848403895281516200050d85826200041e565b94506200051a8362000733565b925060208a01995050600181019050620004f1565b50829750879550505050505092915050565b60006200054e826200071b565b6200055a818562000762565b93506200056c818560208601620007d1565b620005778162000836565b840191505092915050565b60006200058f826200071b565b6200059b818562000773565b9350620005ad818560208601620007d1565b620005b88162000836565b840191505092915050565b6000602082019050620005da600083018462000445565b92915050565b6000606082019050620005f7600083018662000445565b81810360208301526200060b8185620004c0565b9050818103604083015262000621818462000582565b9050949350505050565b6000602082019050818103600083015262000647818462000456565b905092915050565b6000604051905081810181811067ffffffffffffffff8211171562000679576200067862000807565b5b8060405250919050565b600067ffffffffffffffff821115620006a157620006a062000807565b5b602082029050602081019050919050565b600067ffffffffffffffff821115620006d057620006cf62000807565b5b601f19601f8301169050602081019050919050565b6000819050602082019050919050565b6000819050602082019050919050565b600081519050919050565b600081519050919050565b600081519050919050565b6000602082019050919050565b6000602082019050919050565b600082825260208201905092915050565b600082825260208201905092915050565b600082825260208201905092915050565b600082825260208201905092915050565b6000620007918262000798565b9050919050565b600073ffffffffffffffffffffffffffffffffffffffff82169050919050565b6000819050919050565b82818337600083830152505050565b60005b83811015620007f1578082015181840152602081019050620007d4565b8381111562000801576000848401525b50505050565b7f4e487b7100000000000000000000000000000000000000000000000000000000600052604160045260246000fd5b6000601f19601f8301169050919050565b6200085281620007b8565b81146200085e57600080fd5b5056fe60806040526000600460006101000a81548160ff0219169083151502179055503480156200002c57600080fd5b50604051620012cc380380620012cc83398181016040528101906200005291906200042f565b60008251116200006157600080fd5b8060069080519060200190620000799291906200018f565b50826000806101000a81548173ffffffffffffffffffffffffffffffffffffffff021916908373ffffffffffffffffffffffffffffffffffffffff1602179055508160019080519060200190620000d292919062000220565b5060005b82518110156200015d57600060028483815181106200011e577f4e487b7100000000000000000000000000000000000000000000000000000000600052603260045260246000fd5b6020026020010151604051620001359190620004ee565b908152602001604051809103902081905550808062000154906200065d565b915050620000d6565b506040518060200160405280600081525060059080519060200190620001859291906200018f565b5050505062000752565b8280546200019d9062000627565b90600052602060002090601f016020900481019282620001c157600085556200020d565b82601f10620001dc57805160ff19168380011785556200020d565b828001600101855582156200020d579182015b828111156200020c578251825591602001919060010190620001ef565b5b5090506200021c919062000287565b5090565b82805482825590600052602060002090810192821562000274579160200282015b8281111562000273578251829080519060200190620002629291906200018f565b509160200191906001019062000241565b5b509050620002839190620002a6565b5090565b5b80821115620002a257600081600090555060010162000288565b5090565b5b80821115620002ca5760008181620002c09190620002ce565b50600101620002a7565b5090565b508054620002dc9062000627565b6000825580601f10620002f0575062000311565b601f01602090049060005260206000209081019062000310919062000287565b5b50565b60006200032b62000325846200053b565b62000507565b9050808382526020820190508260005b858110156200036f578151850162000354888262000402565b8452602084019350602083019250506001810190506200033b565b5050509392505050565b6000620003906200038a846200056a565b62000507565b905082815260208101848484011115620003a957600080fd5b620003b6848285620005f1565b509392505050565b600081519050620003cf8162000738565b92915050565b600082601f830112620003e757600080fd5b8151620003f984826020860162000314565b91505092915050565b600082601f8301126200041457600080fd5b81516200042684826020860162000379565b91505092915050565b6000806000606084860312156200044557600080fd5b60006200045586828701620003be565b935050602084015167ffffffffffffffff8111156200047357600080fd5b6200048186828701620003d5565b925050604084015167ffffffffffffffff8111156200049f57600080fd5b620004ad8682870162000402565b9150509250925092565b6000620004c4826200059d565b620004d08185620005a8565b9350620004e2818560208601620005f1565b80840191505092915050565b6000620004fc8284620004b7565b915081905092915050565b6000604051905081810181811067ffffffffffffffff8211171562000531576200053062000709565b5b8060405250919050565b600067ffffffffffffffff82111562000559576200055862000709565b5b602082029050602081019050919050565b600067ffffffffffffffff82111562000588576200058762000709565b5b601f19601f8301169050602081019050919050565b600081519050919050565b600081905092915050565b6000620005c082620005c7565b9050919050565b600073ffffffffffffffffffffffffffffffffffffffff82169050919050565b6000819050919050565b60005b8381101562000611578082015181840152602081019050620005f4565b8381111562000621576000848401525b50505050565b600060028204905060018216806200064057607f821691505b60208210811415620006575762000656620006da565b5b50919050565b60006200066a82620005e7565b91507fffffffffffffffffffffffffffffffffffffffffffffffffffffffffffffffff821415620006a0576200069f620006ab565b5b600182019050919050565b7f4e487b7100000000000000000000000000000000000000000000000000000000600052601160045260246000fd5b7f4e487b7100000000000000000000000000000000000000000000000000000000600052602260045260246000fd5b7f4e487b7100000000000000000000000000000000000000000000000000000000600052604160045260246000fd5b6200074381620005b3565b81146200074f57600080fd5b50565b610b6a80620007626000396000f3fe608060405234801561001057600080fd5b50600436106100625760003560e01c80630121b93f14610067578063596c7d37146100835780635fdfbf55146100a1578063b830a3bc146100bf578063c3403ddf146100c9578063f0afd295146100d3575b600080fd5b610081600480360381019061007c9190610772565b6100f1565b005b61008b610233565b604051610098919061094e565b60405180910390f35b6100a96102c5565b6040516100b6919061094e565b60405180910390f35b6100c7610371565b005b6100d1610400565b005b6100db6105da565b6040516100e8919061092c565b60405180910390f35b600460009054906101000a900460ff1661010a57600080fd5b600360003373ffffffffffffffffffffffffffffffffffffffff1673ffffffffffffffffffffffffffffffffffffffff16815260200190815260200160002060009054906101000a900460ff161561016157600080fd5b6001600360003373ffffffffffffffffffffffffffffffffffffffff1673ffffffffffffffffffffffffffffffffffffffff16815260200190815260200160002060006101000a81548160ff0219169083151502179055506002600182815481106101f5577f4e487b7100000000000000000000000000000000000000000000000000000000600052603260045260246000fd5b9060005260206000200160405161020c9190610915565b9081526020016040518091039020600081548092919061022b90610a65565b919050555050565b60606006805461024290610a33565b80601f016020809104026020016040519081016040528092919081815260200182805461026e90610a33565b80156102bb5780601f10610290576101008083540402835291602001916102bb565b820191906000526020600020905b81548152906001019060200180831161029e57829003601f168201915b5050505050905090565b6060600460009054906101000a900460ff16156102e157600080fd5b600580546102ee90610a33565b80601f016020809104026020016040519081016040528092919081815260200182805461031a90610a33565b80156103675780601f1061033c57610100808354040283529160200191610367565b820191906000526020600020905b81548152906001019060200180831161034a57829003601f168201915b5050505050905090565b60008054906101000a900473ffffffffffffffffffffffffffffffffffffffff1673ffffffffffffffffffffffffffffffffffffffff163373ffffffffffffffffffffffffffffffffffffffff16146103c957600080fd5b600460009054906101000a900460ff16156103e357600080fd5b6001600460006101000a81548160ff021916908315150217905550565b600460009054906101000a900460ff1661041957600080fd5b60008054906101000a900473ffffffffffffffffffffffffffffffffffffffff1673ffffffffffffffffffffffffffffffffffffffff163373ffffffffffffffffffffffffffffffffffffffff161461047157600080fd5b60005b60018054905081101561057b57600260056040516104929190610915565b9081526020016040518091039020546002600183815481106104dd577f4e487b7100000000000000000000000000000000000000000000000000000000600052603260045260246000fd5b906000526020600020016040516104f49190610915565b90815260200160405180910390205411156105685760018181548110610543577f4e487b7100000000000000000000000000000000000000000000000000000000600052603260045260246000fd5b90600052602060002001600590805461055b90610a33565b6105669291906106b3565b505b808061057390610a65565b915050610474565b506000600460006101000a81548160ff02191690831515021790555060008060006101000a81548173ffffffffffffffffffffffffffffffffffffffff021916908373ffffffffffffffffffffffffffffffffffffffff160217905550565b60606001805480602002602001604051908101604052809291908181526020016000905b828210156106aa57838290600052602060002001805461061d90610a33565b80601f016020809104026020016040519081016040528092919081815260200182805461064990610a33565b80156106965780601f1061066b57610100808354040283529160200191610696565b820191906000526020600020905b81548152906001019060200180831161067957829003601f168201915b5050505050815260200190600101906105fe565b50505050905090565b8280546106bf90610a33565b90600052602060002090601f0160209004810192826106e1576000855561072f565b82601f106106f2578054855561072f565b8280016001018555821561072f57600052602060002091601f016020900482015b8281111561072e578254825591600101919060010190610713565b5b50905061073c9190610740565b5090565b5b80821115610759576000816000905550600101610741565b5090565b60008135905061076c81610b1d565b92915050565b60006020828403121561078457600080fd5b60006107928482850161075d565b91505092915050565b60006107a78383610824565b905092915050565b60006107ba82610995565b6107c481856109b8565b9350836020820285016107d685610970565b8060005b8581101561081257848403895281516107f3858261079b565b94506107fe836109ab565b925060208a019950506001810190506107da565b50829750879550505050505092915050565b600061082f826109a0565b61083981856109c9565b9350610849818560208601610a00565b61085281610b0c565b840191505092915050565b6000610868826109a0565b61087281856109da565b9350610882818560208601610a00565b61088b81610b0c565b840191505092915050565b600081546108a381610a33565b6108ad81866109eb565b945060018216600081146108c857600181146108d95761090c565b60ff1983168652818601935061090c565b6108e285610980565b60005b83811015610904578154818901526001820191506020810190506108e5565b838801955050505b50505092915050565b60006109218284610896565b915081905092915050565b6000602082019050818103600083015261094681846107af565b905092915050565b60006020820190508181036000830152610968818461085d565b905092915050565b6000819050602082019050919050565b60008190508160005260206000209050919050565b600081519050919050565b600081519050919050565b6000602082019050919050565b600082825260208201905092915050565b600082825260208201905092915050565b600082825260208201905092915050565b600081905092915050565b6000819050919050565b60005b83811015610a1e578082015181840152602081019050610a03565b83811115610a2d576000848401525b50505050565b60006002820490506001821680610a4b57607f821691505b60208210811415610a5f57610a5e610add565b5b50919050565b6000610a70826109f6565b91507fffffffffffffffffffffffffffffffffffffffffffffffffffffffffffffffff821415610aa357610aa2610aae565b5b600182019050919050565b7f4e487b7100000000000000000000000000000000000000000000000000000000600052601160045260246000fd5b7f4e487b7100000000000000000000000000000000000000000000000000000000600052602260045260246000fd5b6000601f19601f8301169050919050565b610b26816109f6565b8114610b3157600080fd5b5056fea26469706673582212205d5bd623aa2983b8866949ee17f18e3dc1247b6c540f2281ff8c2b9d1e3ed0f764736f6c63430008000033a264697066735822122067b64b46e5f8b39270ad2534ec7bb075501a1c2c6ef66d470ad4cde46db07eaa64736f6c63430008000033","opcodes":"PUSH1 0x80 PUSH1 0x40 MSTORE CALLVALUE DUP1 ISZERO PUSH2 0x10 JUMPI PUSH1 0x0 DUP1 REVERT JUMPDEST POP PUSH2 0x1B63 DUP1 PUSH2 0x20 PUSH1 0x0 CODECOPY PUSH1 0x0 RETURN INVALID PUSH1 0x80 PUSH1 0x40 MSTORE CALLVALUE DUP1 ISZERO PUSH3 0x11 JUMPI PUSH1 0x0 DUP1 REVERT JUMPDEST POP PUSH1 0x4 CALLDATASIZE LT PUSH3 0x46 JUMPI PUSH1 0x0 CALLDATALOAD PUSH1 0xE0 SHR DUP1 PUSH4 0x67DC64C5 EQ PUSH3 0x4B JUMPI DUP1 PUSH4 0x7FD5F268 EQ PUSH3 0x6B JUMPI DUP1 PUSH4 0xF18B4F8E EQ PUSH3 0x8D JUMPI JUMPDEST PUSH1 0x0 DUP1 REVERT JUMPDEST PUSH3 0x69 PUSH1 0x4 DUP1 CALLDATASIZE SUB DUP2 ADD SWAP1 PUSH3 0x63 SWAP2 SWAP1 PUSH3 0x365 JUMP JUMPDEST PUSH3 0xC3 JUMP JUMPDEST STOP JUMPDEST PUSH3 0x75 PUSH3 0x16C JUMP JUMPDEST PUSH1 0x40 MLOAD PUSH3 0x84 SWAP2 SWAP1 PUSH3 0x62B JUMP JUMPDEST PUSH1 0x40 MLOAD DUP1 SWAP2 SUB SWAP1 RETURN JUMPDEST PUSH3 0xAB PUSH1 0x4 DUP1 CALLDATASIZE SUB DUP2 ADD SWAP1 PUSH3 0xA5 SWAP2 SWAP1 PUSH3 0x3D8 JUMP JUMPDEST PUSH3 0x1FC JUMP JUMPDEST PUSH1 0x40 MLOAD PUSH3 0xBA SWAP2 SWAP1 PUSH3 0x5C3 JUMP JUMPDEST PUSH1 0x40 MLOAD DUP1 SWAP2 SUB SWAP1 RETURN JUMPDEST PUSH1 0x0 CALLER DUP4 DUP4 PUSH1 0x40 MLOAD PUSH3 0xD6 SWAP1 PUSH3 0x23C JUMP JUMPDEST PUSH3 0xE4 SWAP4 SWAP3 SWAP2 SWAP1 PUSH3 0x5E0 JUMP JUMPDEST PUSH1 0x40 MLOAD DUP1 SWAP2 SUB SWAP1 PUSH1 0x0 CREATE DUP1 ISZERO DUP1 ISZERO PUSH3 0x101 JUMPI RETURNDATASIZE PUSH1 0x0 DUP1 RETURNDATACOPY RETURNDATASIZE PUSH1 0x0 REVERT JUMPDEST POP SWAP1 POP PUSH1 0x0 DUP2 SWAP1 DUP1 PUSH1 0x1 DUP2 SLOAD ADD DUP1 DUP3 SSTORE DUP1 SWAP2 POP POP PUSH1 0x1 SWAP1 SUB SWAP1 PUSH1 0x0 MSTORE PUSH1 0x20 PUSH1 0x0 KECCAK256 ADD PUSH1 0x0 SWAP1 SWAP2 SWAP1 SWAP2 SWAP1 SWAP2 PUSH2 0x100 EXP DUP2 SLOAD DUP2 PUSH20 0xFFFFFFFFFFFFFFFFFFFFFFFFFFFFFFFFFFFFFFFF MUL NOT AND SWAP1 DUP4 PUSH20 0xFFFFFFFFFFFFFFFFFFFFFFFFFFFFFFFFFFFFFFFF AND MUL OR SWAP1 SSTORE POP POP POP POP JUMP JUMPDEST PUSH1 0x60 PUSH1 0x0 DUP1 SLOAD DUP1 PUSH1 0x20 MUL PUSH1 0x20 ADD PUSH1 0x40 MLOAD SWAP1 DUP2 ADD PUSH1 0x40 MSTORE DUP1 SWAP3 SWAP2 SWAP1 DUP2 DUP2 MSTORE PUSH1 0x20 ADD DUP3 DUP1 SLOAD DUP1 ISZERO PUSH3 0x1F2 JUMPI PUSH1 0x20 MUL DUP3 ADD SWAP2 SWAP1 PUSH1 0x0 MSTORE PUSH1 0x20 PUSH1 0x0 KECCAK256 SWAP1 JUMPDEST DUP2 PUSH1 0x0 SWAP1 SLOAD SWAP1 PUSH2 0x100 EXP SWAP1 DIV PUSH20 0xFFFFFFFFFFFFFFFFFFFFFFFFFFFFFFFFFFFFFFFF AND PUSH20 0xFFFFFFFFFFFFFFFFFFFFFFFFFFFFFFFFFFFFFFFF AND DUP2 MSTORE PUSH1 0x20 ADD SWAP1 PUSH1 0x1 ADD SWAP1 DUP1 DUP4 GT PUSH3 0x1A7 JUMPI JUMPDEST POP POP POP POP POP SWAP1 POP SWAP1 JUMP JUMPDEST PUSH1 0x0 DUP2 DUP2 SLOAD DUP2 LT PUSH3 0x20D JUMPI PUSH1 0x0 DUP1 REVERT JUMPDEST SWAP1 PUSH1 0x0 MSTORE PUSH1 0x20 PUSH1 0x0 KECCAK256 ADD PUSH1 0x0 SWAP2 POP SLOAD SWAP1 PUSH2 0x100 EXP SWAP1 DIV PUSH20 0xFFFFFFFFFFFFFFFFFFFFFFFFFFFFFFFFFFFFFFFF AND DUP2 JUMP JUMPDEST PUSH2 0x12CC DUP1 PUSH3 0x862 DUP4 CODECOPY ADD SWAP1 JUMP JUMPDEST PUSH1 0x0 PUSH3 0x261 PUSH3 0x25B DUP5 PUSH3 0x683 JUMP JUMPDEST PUSH3 0x64F JUMP JUMPDEST SWAP1 POP DUP1 DUP4 DUP3 MSTORE PUSH1 0x20 DUP3 ADD SWAP1 POP DUP3 PUSH1 0x0 JUMPDEST DUP6 DUP2 LT ISZERO PUSH3 0x2A5 JUMPI DUP2 CALLDATALOAD DUP6 ADD PUSH3 0x28A DUP9 DUP3 PUSH3 0x321 JUMP JUMPDEST DUP5 MSTORE PUSH1 0x20 DUP5 ADD SWAP4 POP PUSH1 0x20 DUP4 ADD SWAP3 POP POP PUSH1 0x1 DUP2 ADD SWAP1 POP PUSH3 0x271 JUMP JUMPDEST POP POP POP SWAP4 SWAP3 POP POP POP JUMP JUMPDEST PUSH1 0x0 PUSH3 0x2C6 PUSH3 0x2C0 DUP5 PUSH3 0x6B2 JUMP JUMPDEST PUSH3 0x64F JUMP JUMPDEST SWAP1 POP DUP3 DUP2 MSTORE PUSH1 0x20 DUP2 ADD DUP5 DUP5 DUP5 ADD GT ISZERO PUSH3 0x2DF JUMPI PUSH1 0x0 DUP1 REVERT JUMPDEST PUSH3 0x2EC DUP5 DUP3 DUP6 PUSH3 0x7C2 JUMP JUMPDEST POP SWAP4 SWAP3 POP POP POP JUMP JUMPDEST PUSH1 0x0 DUP3 PUSH1 0x1F DUP4 ADD SLT PUSH3 0x306 JUMPI PUSH1 0x0 DUP1 REVERT JUMPDEST DUP2 CALLDATALOAD PUSH3 0x318 DUP5 DUP3 PUSH1 0x20 DUP7 ADD PUSH3 0x24A JUMP JUMPDEST SWAP2 POP POP SWAP3 SWAP2 POP POP JUMP JUMPDEST PUSH1 0x0 DUP3 PUSH1 0x1F DUP4 ADD SLT PUSH3 0x333 JUMPI PUSH1 0x0 DUP1 REVERT JUMPDEST DUP2 CALLDATALOAD PUSH3 0x345 DUP5 DUP3 PUSH1 0x20 DUP7 ADD PUSH3 0x2AF JUMP JUMPDEST SWAP2 POP POP SWAP3 SWAP2 POP POP JUMP JUMPDEST PUSH1 0x0 DUP2 CALLDATALOAD SWAP1 POP PUSH3 0x35F DUP2 PUSH3 0x847 JUMP JUMPDEST SWAP3 SWAP2 POP POP JUMP JUMPDEST PUSH1 0x0 DUP1 PUSH1 0x40 DUP4 DUP6 SUB SLT ISZERO PUSH3 0x379 JUMPI PUSH1 0x0 DUP1 REVERT JUMPDEST PUSH1 0x0 DUP4 ADD CALLDATALOAD PUSH8 0xFFFFFFFFFFFFFFFF DUP2 GT ISZERO PUSH3 0x394 JUMPI PUSH1 0x0 DUP1 REVERT JUMPDEST PUSH3 0x3A2 DUP6 DUP3 DUP7 ADD PUSH3 0x2F4 JUMP JUMPDEST SWAP3 POP POP PUSH1 0x20 DUP4 ADD CALLDATALOAD PUSH8 0xFFFFFFFFFFFFFFFF DUP2 GT ISZERO PUSH3 0x3C0 JUMPI PUSH1 0x0 DUP1 REVERT JUMPDEST PUSH3 0x3CE DUP6 DUP3 DUP7 ADD PUSH3 0x321 JUMP JUMPDEST SWAP2 POP POP SWAP3 POP SWAP3 SWAP1 POP JUMP JUMPDEST PUSH1 0x0 PUSH1 0x20 DUP3 DUP5 SUB SLT ISZERO PUSH3 0x3EB JUMPI PUSH1 0x0 DUP1 REVERT JUMPDEST PUSH1 0x0 PUSH3 0x3FB DUP5 DUP3 DUP6 ADD PUSH3 0x34E JUMP JUMPDEST SWAP2 POP POP SWAP3 SWAP2 POP POP JUMP JUMPDEST PUSH1 0x0 PUSH3 0x412 DUP4 DUP4 PUSH3 0x434 JUMP JUMPDEST PUSH1 0x20 DUP4 ADD SWAP1 POP SWAP3 SWAP2 POP POP JUMP JUMPDEST PUSH1 0x0 PUSH3 0x42C DUP4 DUP4 PUSH3 0x541 JUMP JUMPDEST SWAP1 POP SWAP3 SWAP2 POP POP JUMP JUMPDEST PUSH3 0x43F DUP2 PUSH3 0x784 JUMP JUMPDEST DUP3 MSTORE POP POP JUMP JUMPDEST PUSH3 0x450 DUP2 PUSH3 0x784 JUMP JUMPDEST DUP3 MSTORE POP POP JUMP JUMPDEST PUSH1 0x0 PUSH3 0x463 DUP3 PUSH3 0x705 JUMP JUMPDEST PUSH3 0x46F DUP2 DUP6 PUSH3 0x740 JUMP JUMPDEST SWAP4 POP PUSH3 0x47C DUP4 PUSH3 0x6E5 JUMP JUMPDEST DUP1 PUSH1 0x0 JUMPDEST DUP4 DUP2 LT ISZERO PUSH3 0x4B3 JUMPI DUP2 MLOAD PUSH3 0x497 DUP9 DUP3 PUSH3 0x404 JUMP JUMPDEST SWAP8 POP PUSH3 0x4A4 DUP4 PUSH3 0x726 JUMP JUMPDEST SWAP3 POP POP PUSH1 0x1 DUP2 ADD SWAP1 POP PUSH3 0x480 JUMP JUMPDEST POP DUP6 SWAP4 POP POP POP POP SWAP3 SWAP2 POP POP JUMP JUMPDEST PUSH1 0x0 PUSH3 0x4CD DUP3 PUSH3 0x710 JUMP JUMPDEST PUSH3 0x4D9 DUP2 DUP6 PUSH3 0x751 JUMP JUMPDEST SWAP4 POP DUP4 PUSH1 0x20 DUP3 MUL DUP6 ADD PUSH3 0x4ED DUP6 PUSH3 0x6F5 JUMP JUMPDEST DUP1 PUSH1 0x0 JUMPDEST DUP6 DUP2 LT ISZERO PUSH3 0x52F JUMPI DUP5 DUP5 SUB DUP10 MSTORE DUP2 MLOAD PUSH3 0x50D DUP6 DUP3 PUSH3 0x41E JUMP JUMPDEST SWAP5 POP PUSH3 0x51A DUP4 PUSH3 0x733 JUMP JUMPDEST SWAP3 POP PUSH1 0x20 DUP11 ADD SWAP10 POP POP PUSH1 0x1 DUP2 ADD SWAP1 POP PUSH3 0x4F1 JUMP JUMPDEST POP DUP3 SWAP8 POP DUP8 SWAP6 POP POP POP POP POP POP SWAP3 SWAP2 POP POP JUMP JUMPDEST PUSH1 0x0 PUSH3 0x54E DUP3 PUSH3 0x71B JUMP JUMPDEST PUSH3 0x55A DUP2 DUP6 PUSH3 0x762 JUMP JUMPDEST SWAP4 POP PUSH3 0x56C DUP2 DUP6 PUSH1 0x20 DUP7 ADD PUSH3 0x7D1 JUMP JUMPDEST PUSH3 0x577 DUP2 PUSH3 0x836 JUMP JUMPDEST DUP5 ADD SWAP2 POP POP SWAP3 SWAP2 POP POP JUMP JUMPDEST PUSH1 0x0 PUSH3 0x58F DUP3 PUSH3 0x71B JUMP JUMPDEST PUSH3 0x59B DUP2 DUP6 PUSH3 0x773 JUMP JUMPDEST SWAP4 POP PUSH3 0x5AD DUP2 DUP6 PUSH1 0x20 DUP7 ADD PUSH3 0x7D1 JUMP JUMPDEST PUSH3 0x5B8 DUP2 PUSH3 0x836 JUMP JUMPDEST DUP5 ADD SWAP2 POP POP SWAP3 SWAP2 POP POP JUMP JUMPDEST PUSH1 0x0 PUSH1 0x20 DUP3 ADD SWAP1 POP PUSH3 0x5DA PUSH1 0x0 DUP4 ADD DUP5 PUSH3 0x445 JUMP JUMPDEST SWAP3 SWAP2 POP POP JUMP JUMPDEST PUSH1 0x0 PUSH1 0x60 DUP3 ADD SWAP1 POP PUSH3 0x5F7 PUSH1 0x0 DUP4 ADD DUP7 PUSH3 0x445 JUMP JUMPDEST DUP2 DUP2 SUB PUSH1 0x20 DUP4 ADD MSTORE PUSH3 0x60B DUP2 DUP6 PUSH3 0x4C0 JUMP JUMPDEST SWAP1 POP DUP2 DUP2 SUB PUSH1 0x40 DUP4 ADD MSTORE PUSH3 0x621 DUP2 DUP5 PUSH3 0x582 JUMP JUMPDEST SWAP1 POP SWAP5 SWAP4 POP POP POP POP JUMP JUMPDEST PUSH1 0x0 PUSH1 0x20 DUP3 ADD SWAP1 POP DUP2 DUP2 SUB PUSH1 0x0 DUP4 ADD MSTORE PUSH3 0x647 DUP2 DUP5 PUSH3 0x456 JUMP JUMPDEST SWAP1 POP SWAP3 SWAP2 POP POP JUMP JUMPDEST PUSH1 0x0 PUSH1 0x40 MLOAD SWAP1 POP DUP2 DUP2 ADD DUP2 DUP2 LT PUSH8 0xFFFFFFFFFFFFFFFF DUP3 GT OR ISZERO PUSH3 0x679 JUMPI PUSH3 0x678 PUSH3 0x807 JUMP JUMPDEST JUMPDEST DUP1 PUSH1 0x40 MSTORE POP SWAP2 SWAP1 POP JUMP JUMPDEST PUSH1 0x0 PUSH8 0xFFFFFFFFFFFFFFFF DUP3 GT ISZERO PUSH3 0x6A1 JUMPI PUSH3 0x6A0 PUSH3 0x807 JUMP JUMPDEST JUMPDEST PUSH1 0x20 DUP3 MUL SWAP1 POP PUSH1 0x20 DUP2 ADD SWAP1 POP SWAP2 SWAP1 POP JUMP JUMPDEST PUSH1 0x0 PUSH8 0xFFFFFFFFFFFFFFFF DUP3 GT ISZERO PUSH3 0x6D0 JUMPI PUSH3 0x6CF PUSH3 0x807 JUMP JUMPDEST JUMPDEST PUSH1 0x1F NOT PUSH1 0x1F DUP4 ADD AND SWAP1 POP PUSH1 0x20 DUP2 ADD SWAP1 POP SWAP2 SWAP1 POP JUMP JUMPDEST PUSH1 0x0 DUP2 SWAP1 POP PUSH1 0x20 DUP3 ADD SWAP1 POP SWAP2 SWAP1 POP JUMP JUMPDEST PUSH1 0x0 DUP2 SWAP1 POP PUSH1 0x20 DUP3 ADD SWAP1 POP SWAP2 SWAP1 POP JUMP JUMPDEST PUSH1 0x0 DUP2 MLOAD SWAP1 POP SWAP2 SWAP1 POP JUMP JUMPDEST PUSH1 0x0 DUP2 MLOAD SWAP1 POP SWAP2 SWAP1 POP JUMP JUMPDEST PUSH1 0x0 DUP2 MLOAD SWAP1 POP SWAP2 SWAP1 POP JUMP JUMPDEST PUSH1 0x0 PUSH1 0x20 DUP3 ADD SWAP1 POP SWAP2 SWAP1 POP JUMP JUMPDEST PUSH1 0x0 PUSH1 0x20 DUP3 ADD SWAP1 POP SWAP2 SWAP1 POP JUMP JUMPDEST PUSH1 0x0 DUP3 DUP3 MSTORE PUSH1 0x20 DUP3 ADD SWAP1 POP SWAP3 SWAP2 POP POP JUMP JUMPDEST PUSH1 0x0 DUP3 DUP3 MSTORE PUSH1 0x20 DUP3 ADD SWAP1 POP SWAP3 SWAP2 POP POP JUMP JUMPDEST PUSH1 0x0 DUP3 DUP3 MSTORE PUSH1 0x20 DUP3 ADD SWAP1 POP SWAP3 SWAP2 POP POP JUMP JUMPDEST PUSH1 0x0 DUP3 DUP3 MSTORE PUSH1 0x20 DUP3 ADD SWAP1 POP SWAP3 SWAP2 POP POP JUMP JUMPDEST PUSH1 0x0 PUSH3 0x791 DUP3 PUSH3 0x798 JUMP JUMPDEST SWAP1 POP SWAP2 SWAP1 POP JUMP JUMPDEST PUSH1 0x0 PUSH20 0xFFFFFFFFFFFFFFFFFFFFFFFFFFFFFFFFFFFFFFFF DUP3 AND SWAP1 POP SWAP2 SWAP1 POP JUMP JUMPDEST PUSH1 0x0 DUP2 SWAP1 POP SWAP2 SWAP1 POP JUMP JUMPDEST DUP3 DUP2 DUP4 CALLDATACOPY PUSH1 0x0 DUP4 DUP4 ADD MSTORE POP POP POP JUMP JUMPDEST PUSH1 0x0 JUMPDEST DUP4 DUP2 LT ISZERO PUSH3 0x7F1 JUMPI DUP1 DUP3 ADD MLOAD DUP2 DUP5 ADD MSTORE PUSH1 0x20 DUP2 ADD SWAP1 POP PUSH3 0x7D4 JUMP JUMPDEST DUP4 DUP2 GT ISZERO PUSH3 0x801 JUMPI PUSH1 0x0 DUP5 DUP5 ADD MSTORE JUMPDEST POP POP POP POP JUMP JUMPDEST PUSH32 0x4E487B7100000000000000000000000000000000000000000000000000000000 PUSH1 0x0 MSTORE PUSH1 0x41 PUSH1 0x4 MSTORE PUSH1 0x24 PUSH1 0x0 REVERT JUMPDEST PUSH1 0x0 PUSH1 0x1F NOT PUSH1 0x1F DUP4 ADD AND SWAP1 POP SWAP2 SWAP1 POP JUMP JUMPDEST PUSH3 0x852 DUP2 PUSH3 0x7B8 JUMP JUMPDEST DUP2 EQ PUSH3 0x85E JUMPI PUSH1 0x0 DUP1 REVERT JUMPDEST POP JUMP INVALID PUSH1 0x80 PUSH1 0x40 MSTORE PUSH1 0x0 PUSH1 0x4 PUSH1 0x0 PUSH2 0x100 EXP DUP2 SLOAD DUP2 PUSH1 0xFF MUL NOT AND SWAP1 DUP4 ISZERO ISZERO MUL OR SWAP1 SSTORE POP CALLVALUE DUP1 ISZERO PUSH3 0x2C JUMPI PUSH1 0x0 DUP1 REVERT JUMPDEST POP PUSH1 0x40 MLOAD PUSH3 0x12CC CODESIZE SUB DUP1 PUSH3 0x12CC DUP4 CODECOPY DUP2 DUP2 ADD PUSH1 0x40 MSTORE DUP2 ADD SWAP1 PUSH3 0x52 SWAP2 SWAP1 PUSH3 0x42F JUMP JUMPDEST PUSH1 0x0 DUP3 MLOAD GT PUSH3 0x61 JUMPI PUSH1 0x0 DUP1 REVERT JUMPDEST DUP1 PUSH1 0x6 SWAP1 DUP1 MLOAD SWAP1 PUSH1 0x20 ADD SWAP1 PUSH3 0x79 SWAP3 SWAP2 SWAP1 PUSH3 0x18F JUMP JUMPDEST POP DUP3 PUSH1 0x0 DUP1 PUSH2 0x100 EXP DUP2 SLOAD DUP2 PUSH20 0xFFFFFFFFFFFFFFFFFFFFFFFFFFFFFFFFFFFFFFFF MUL NOT AND SWAP1 DUP4 PUSH20 0xFFFFFFFFFFFFFFFFFFFFFFFFFFFFFFFFFFFFFFFF AND MUL OR SWAP1 SSTORE POP DUP2 PUSH1 0x1 SWAP1 DUP1 MLOAD SWAP1 PUSH1 0x20 ADD SWAP1 PUSH3 0xD2 SWAP3 SWAP2 SWAP1 PUSH3 0x220 JUMP JUMPDEST POP PUSH1 0x0 JUMPDEST DUP3 MLOAD DUP2 LT ISZERO PUSH3 0x15D JUMPI PUSH1 0x0 PUSH1 0x2 DUP5 DUP4 DUP2 MLOAD DUP2 LT PUSH3 0x11E JUMPI PUSH32 0x4E487B7100000000000000000000000000000000000000000000000000000000 PUSH1 0x0 MSTORE PUSH1 0x32 PUSH1 0x4 MSTORE PUSH1 0x24 PUSH1 0x0 REVERT JUMPDEST PUSH1 0x20 MUL PUSH1 0x20 ADD ADD MLOAD PUSH1 0x40 MLOAD PUSH3 0x135 SWAP2 SWAP1 PUSH3 0x4EE JUMP JUMPDEST SWAP1 DUP2 MSTORE PUSH1 0x20 ADD PUSH1 0x40 MLOAD DUP1 SWAP2 SUB SWAP1 KECCAK256 DUP2 SWAP1 SSTORE POP DUP1 DUP1 PUSH3 0x154 SWAP1 PUSH3 0x65D JUMP JUMPDEST SWAP2 POP POP PUSH3 0xD6 JUMP JUMPDEST POP PUSH1 0x40 MLOAD DUP1 PUSH1 0x20 ADD PUSH1 0x40 MSTORE DUP1 PUSH1 0x0 DUP2 MSTORE POP PUSH1 0x5 SWAP1 DUP1 MLOAD SWAP1 PUSH1 0x20 ADD SWAP1 PUSH3 0x185 SWAP3 SWAP2 SWAP1 PUSH3 0x18F JUMP JUMPDEST POP POP POP POP PUSH3 0x752 JUMP JUMPDEST DUP3 DUP1 SLOAD PUSH3 0x19D SWAP1 PUSH3 0x627 JUMP JUMPDEST SWAP1 PUSH1 0x0 MSTORE PUSH1 0x20 PUSH1 0x0 KECCAK256 SWAP1 PUSH1 0x1F ADD PUSH1 0x20 SWAP1 DIV DUP2 ADD SWAP3 DUP3 PUSH3 0x1C1 JUMPI PUSH1 0x0 DUP6 SSTORE PUSH3 0x20D JUMP JUMPDEST DUP3 PUSH1 0x1F LT PUSH3 0x1DC JUMPI DUP1 MLOAD PUSH1 0xFF NOT AND DUP4 DUP1 ADD OR DUP6 SSTORE PUSH3 0x20D JUMP JUMPDEST DUP3 DUP1 ADD PUSH1 0x1 ADD DUP6 SSTORE DUP3 ISZERO PUSH3 0x20D JUMPI SWAP2 DUP3 ADD JUMPDEST DUP3 DUP2 GT ISZERO PUSH3 0x20C JUMPI DUP3 MLOAD DUP3 SSTORE SWAP2 PUSH1 0x20 ADD SWAP2 SWAP1 PUSH1 0x1 ADD SWAP1 PUSH3 0x1EF JUMP JUMPDEST JUMPDEST POP SWAP1 POP PUSH3 0x21C SWAP2 SWAP1 PUSH3 0x287 JUMP JUMPDEST POP SWAP1 JUMP JUMPDEST DUP3 DUP1 SLOAD DUP3 DUP3 SSTORE SWAP1 PUSH1 0x0 MSTORE PUSH1 0x20 PUSH1 0x0 KECCAK256 SWAP1 DUP2 ADD SWAP3 DUP3 ISZERO PUSH3 0x274 JUMPI SWAP2 PUSH1 0x20 MUL DUP3 ADD JUMPDEST DUP3 DUP2 GT ISZERO PUSH3 0x273 JUMPI DUP3 MLOAD DUP3 SWAP1 DUP1 MLOAD SWAP1 PUSH1 0x20 ADD SWAP1 PUSH3 0x262 SWAP3 SWAP2 SWAP1 PUSH3 0x18F JUMP JUMPDEST POP SWAP2 PUSH1 0x20 ADD SWAP2 SWAP1 PUSH1 0x1 ADD SWAP1 PUSH3 0x241 JUMP JUMPDEST JUMPDEST POP SWAP1 POP PUSH3 0x283 SWAP2 SWAP1 PUSH3 0x2A6 JUMP JUMPDEST POP SWAP1 JUMP JUMPDEST JUMPDEST DUP1 DUP3 GT ISZERO PUSH3 0x2A2 JUMPI PUSH1 0x0 DUP2 PUSH1 0x0 SWAP1 SSTORE POP PUSH1 0x1 ADD PUSH3 0x288 JUMP JUMPDEST POP SWAP1 JUMP JUMPDEST JUMPDEST DUP1 DUP3 GT ISZERO PUSH3 0x2CA JUMPI PUSH1 0x0 DUP2 DUP2 PUSH3 0x2C0 SWAP2 SWAP1 PUSH3 0x2CE JUMP JUMPDEST POP PUSH1 0x1 ADD PUSH3 0x2A7 JUMP JUMPDEST POP SWAP1 JUMP JUMPDEST POP DUP1 SLOAD PUSH3 0x2DC SWAP1 PUSH3 0x627 JUMP JUMPDEST PUSH1 0x0 DUP3 SSTORE DUP1 PUSH1 0x1F LT PUSH3 0x2F0 JUMPI POP PUSH3 0x311 JUMP JUMPDEST PUSH1 0x1F ADD PUSH1 0x20 SWAP1 DIV SWAP1 PUSH1 0x0 MSTORE PUSH1 0x20 PUSH1 0x0 KECCAK256 SWAP1 DUP2 ADD SWAP1 PUSH3 0x310 SWAP2 SWAP1 PUSH3 0x287 JUMP JUMPDEST JUMPDEST POP JUMP JUMPDEST PUSH1 0x0 PUSH3 0x32B PUSH3 0x325 DUP5 PUSH3 0x53B JUMP JUMPDEST PUSH3 0x507 JUMP JUMPDEST SWAP1 POP DUP1 DUP4 DUP3 MSTORE PUSH1 0x20 DUP3 ADD SWAP1 POP DUP3 PUSH1 0x0 JUMPDEST DUP6 DUP2 LT ISZERO PUSH3 0x36F JUMPI DUP2 MLOAD DUP6 ADD PUSH3 0x354 DUP9 DUP3 PUSH3 0x402 JUMP JUMPDEST DUP5 MSTORE PUSH1 0x20 DUP5 ADD SWAP4 POP PUSH1 0x20 DUP4 ADD SWAP3 POP POP PUSH1 0x1 DUP2 ADD SWAP1 POP PUSH3 0x33B JUMP JUMPDEST POP POP POP SWAP4 SWAP3 POP POP POP JUMP JUMPDEST PUSH1 0x0 PUSH3 0x390 PUSH3 0x38A DUP5 PUSH3 0x56A JUMP JUMPDEST PUSH3 0x507 JUMP JUMPDEST SWAP1 POP DUP3 DUP2 MSTORE PUSH1 0x20 DUP2 ADD DUP5 DUP5 DUP5 ADD GT ISZERO PUSH3 0x3A9 JUMPI PUSH1 0x0 DUP1 REVERT JUMPDEST PUSH3 0x3B6 DUP5 DUP3 DUP6 PUSH3 0x5F1 JUMP JUMPDEST POP SWAP4 SWAP3 POP POP POP JUMP JUMPDEST PUSH1 0x0 DUP2 MLOAD SWAP1 POP PUSH3 0x3CF DUP2 PUSH3 0x738 JUMP JUMPDEST SWAP3 SWAP2 POP POP JUMP JUMPDEST PUSH1 0x0 DUP3 PUSH1 0x1F DUP4 ADD SLT PUSH3 0x3E7 JUMPI PUSH1 0x0 DUP1 REVERT JUMPDEST DUP2 MLOAD PUSH3 0x3F9 DUP5 DUP3 PUSH1 0x20 DUP7 ADD PUSH3 0x314 JUMP JUMPDEST SWAP2 POP POP SWAP3 SWAP2 POP POP JUMP JUMPDEST PUSH1 0x0 DUP3 PUSH1 0x1F DUP4 ADD SLT PUSH3 0x414 JUMPI PUSH1 0x0 DUP1 REVERT JUMPDEST DUP2 MLOAD PUSH3 0x426 DUP5 DUP3 PUSH1 0x20 DUP7 ADD PUSH3 0x379 JUMP JUMPDEST SWAP2 POP POP SWAP3 SWAP2 POP POP JUMP JUMPDEST PUSH1 0x0 DUP1 PUSH1 0x0 PUSH1 0x60 DUP5 DUP7 SUB SLT ISZERO PUSH3 0x445 JUMPI PUSH1 0x0 DUP1 REVERT JUMPDEST PUSH1 0x0 PUSH3 0x455 DUP7 DUP3 DUP8 ADD PUSH3 0x3BE JUMP JUMPDEST SWAP4 POP POP PUSH1 0x20 DUP5 ADD MLOAD PUSH8 0xFFFFFFFFFFFFFFFF DUP2 GT ISZERO PUSH3 0x473 JUMPI PUSH1 0x0 DUP1 REVERT JUMPDEST PUSH3 0x481 DUP7 DUP3 DUP8 ADD PUSH3 0x3D5 JUMP JUMPDEST SWAP3 POP POP PUSH1 0x40 DUP5 ADD MLOAD PUSH8 0xFFFFFFFFFFFFFFFF DUP2 GT ISZERO PUSH3 0x49F JUMPI PUSH1 0x0 DUP1 REVERT JUMPDEST PUSH3 0x4AD DUP7 DUP3 DUP8 ADD PUSH3 0x402 JUMP JUMPDEST SWAP2 POP POP SWAP3 POP SWAP3 POP SWAP3 JUMP JUMPDEST PUSH1 0x0 PUSH3 0x4C4 DUP3 PUSH3 0x59D JUMP JUMPDEST PUSH3 0x4D0 DUP2 DUP6 PUSH3 0x5A8 JUMP JUMPDEST SWAP4 POP PUSH3 0x4E2 DUP2 DUP6 PUSH1 0x20 DUP7 ADD PUSH3 0x5F1 JUMP JUMPDEST DUP1 DUP5 ADD SWAP2 POP POP SWAP3 SWAP2 POP POP JUMP JUMPDEST PUSH1 0x0 PUSH3 0x4FC DUP3 DUP5 PUSH3 0x4B7 JUMP JUMPDEST SWAP2 POP DUP2 SWAP1 POP SWAP3 SWAP2 POP POP JUMP JUMPDEST PUSH1 0x0 PUSH1 0x40 MLOAD SWAP1 POP DUP2 DUP2 ADD DUP2 DUP2 LT PUSH8 0xFFFFFFFFFFFFFFFF DUP3 GT OR ISZERO PUSH3 0x531 JUMPI PUSH3 0x530 PUSH3 0x709 JUMP JUMPDEST JUMPDEST DUP1 PUSH1 0x40 MSTORE POP SWAP2 SWAP1 POP JUMP JUMPDEST PUSH1 0x0 PUSH8 0xFFFFFFFFFFFFFFFF DUP3 GT ISZERO PUSH3 0x559 JUMPI PUSH3 0x558 PUSH3 0x709 JUMP JUMPDEST JUMPDEST PUSH1 0x20 DUP3 MUL SWAP1 POP PUSH1 0x20 DUP2 ADD SWAP1 POP SWAP2 SWAP1 POP JUMP JUMPDEST PUSH1 0x0 PUSH8 0xFFFFFFFFFFFFFFFF DUP3 GT ISZERO PUSH3 0x588 JUMPI PUSH3 0x587 PUSH3 0x709 JUMP JUMPDEST JUMPDEST PUSH1 0x1F NOT PUSH1 0x1F DUP4 ADD AND SWAP1 POP PUSH1 0x20 DUP2 ADD SWAP1 POP SWAP2 SWAP1 POP JUMP JUMPDEST PUSH1 0x0 DUP2 MLOAD SWAP1 POP SWAP2 SWAP1 POP JUMP JUMPDEST PUSH1 0x0 DUP2 SWAP1 POP SWAP3 SWAP2 POP POP JUMP JUMPDEST PUSH1 0x0 PUSH3 0x5C0 DUP3 PUSH3 0x5C7 JUMP JUMPDEST SWAP1 POP SWAP2 SWAP1 POP JUMP JUMPDEST PUSH1 0x0 PUSH20 0xFFFFFFFFFFFFFFFFFFFFFFFFFFFFFFFFFFFFFFFF DUP3 AND SWAP1 POP SWAP2 SWAP1 POP JUMP JUMPDEST PUSH1 0x0 DUP2 SWAP1 POP SWAP2 SWAP1 POP JUMP JUMPDEST PUSH1 0x0 JUMPDEST DUP4 DUP2 LT ISZERO PUSH3 0x611 JUMPI DUP1 DUP3 ADD MLOAD DUP2 DUP5 ADD MSTORE PUSH1 0x20 DUP2 ADD SWAP1 POP PUSH3 0x5F4 JUMP JUMPDEST DUP4 DUP2 GT ISZERO PUSH3 0x621 JUMPI PUSH1 0x0 DUP5 DUP5 ADD MSTORE JUMPDEST POP POP POP POP JUMP JUMPDEST PUSH1 0x0 PUSH1 0x2 DUP3 DIV SWAP1 POP PUSH1 0x1 DUP3 AND DUP1 PUSH3 0x640 JUMPI PUSH1 0x7F DUP3 AND SWAP2 POP JUMPDEST PUSH1 0x20 DUP3 LT DUP2 EQ ISZERO PUSH3 0x657 JUMPI PUSH3 0x656 PUSH3 0x6DA JUMP JUMPDEST JUMPDEST POP SWAP2 SWAP1 POP JUMP JUMPDEST PUSH1 0x0 PUSH3 0x66A DUP3 PUSH3 0x5E7 JUMP JUMPDEST SWAP2 POP PUSH32 0xFFFFFFFFFFFFFFFFFFFFFFFFFFFFFFFFFFFFFFFFFFFFFFFFFFFFFFFFFFFFFFFF DUP3 EQ ISZERO PUSH3 0x6A0 JUMPI PUSH3 0x69F PUSH3 0x6AB JUMP JUMPDEST JUMPDEST PUSH1 0x1 DUP3 ADD SWAP1 POP SWAP2 SWAP1 POP JUMP JUMPDEST PUSH32 0x4E487B7100000000000000000000000000000000000000000000000000000000 PUSH1 0x0 MSTORE PUSH1 0x11 PUSH1 0x4 MSTORE PUSH1 0x24 PUSH1 0x0 REVERT JUMPDEST PUSH32 0x4E487B7100000000000000000000000000000000000000000000000000000000 PUSH1 0x0 MSTORE PUSH1 0x22 PUSH1 0x4 MSTORE PUSH1 0x24 PUSH1 0x0 REVERT JUMPDEST PUSH32 0x4E487B7100000000000000000000000000000000000000000000000000000000 PUSH1 0x0 MSTORE PUSH1 0x41 PUSH1 0x4 MSTORE PUSH1 0x24 PUSH1 0x0 REVERT JUMPDEST PUSH3 0x743 DUP2 PUSH3 0x5B3 JUMP JUMPDEST DUP2 EQ PUSH3 0x74F JUMPI PUSH1 0x0 DUP1 REVERT JUMPDEST POP JUMP JUMPDEST PUSH2 0xB6A DUP1 PUSH3 0x762 PUSH1 0x0 CODECOPY PUSH1 0x0 RETURN INVALID PUSH1 0x80 PUSH1 0x40 MSTORE CALLVALUE DUP1 ISZERO PUSH2 0x10 JUMPI PUSH1 0x0 DUP1 REVERT JUMPDEST POP PUSH1 0x4 CALLDATASIZE LT PUSH2 0x62 JUMPI PUSH1 0x0 CALLDATALOAD PUSH1 0xE0 SHR DUP1 PUSH4 0x121B93F EQ PUSH2 0x67 JUMPI DUP1 PUSH4 0x596C7D37 EQ PUSH2 0x83 JUMPI DUP1 PUSH4 0x5FDFBF55 EQ PUSH2 0xA1 JUMPI DUP1 PUSH4 0xB830A3BC EQ PUSH2 0xBF JUMPI DUP1 PUSH4 0xC3403DDF EQ PUSH2 0xC9 JUMPI DUP1 PUSH4 0xF0AFD295 EQ PUSH2 0xD3 JUMPI JUMPDEST PUSH1 0x0 DUP1 REVERT JUMPDEST PUSH2 0x81 PUSH1 0x4 DUP1 CALLDATASIZE SUB DUP2 ADD SWAP1 PUSH2 0x7C SWAP2 SWAP1 PUSH2 0x772 JUMP JUMPDEST PUSH2 0xF1 JUMP JUMPDEST STOP JUMPDEST PUSH2 0x8B PUSH2 0x233 JUMP JUMPDEST PUSH1 0x40 MLOAD PUSH2 0x98 SWAP2 SWAP1 PUSH2 0x94E JUMP JUMPDEST PUSH1 0x40 MLOAD DUP1 SWAP2 SUB SWAP1 RETURN JUMPDEST PUSH2 0xA9 PUSH2 0x2C5 JUMP JUMPDEST PUSH1 0x40 MLOAD PUSH2 0xB6 SWAP2 SWAP1 PUSH2 0x94E JUMP JUMPDEST PUSH1 0x40 MLOAD DUP1 SWAP2 SUB SWAP1 RETURN JUMPDEST PUSH2 0xC7 PUSH2 0x371 JUMP JUMPDEST STOP JUMPDEST PUSH2 0xD1 PUSH2 0x400 JUMP JUMPDEST STOP JUMPDEST PUSH2 0xDB PUSH2 0x5DA JUMP JUMPDEST PUSH1 0x40 MLOAD PUSH2 0xE8 SWAP2 SWAP1 PUSH2 0x92C JUMP JUMPDEST PUSH1 0x40 MLOAD DUP1 SWAP2 SUB SWAP1 RETURN JUMPDEST PUSH1 0x4 PUSH1 0x0 SWAP1 SLOAD SWAP1 PUSH2 0x100 EXP SWAP1 DIV PUSH1 0xFF AND PUSH2 0x10A JUMPI PUSH1 0x0 DUP1 REVERT JUMPDEST PUSH1 0x3 PUSH1 0x0 CALLER PUSH20 0xFFFFFFFFFFFFFFFFFFFFFFFFFFFFFFFFFFFFFFFF AND PUSH20 0xFFFFFFFFFFFFFFFFFFFFFFFFFFFFFFFFFFFFFFFF AND DUP2 MSTORE PUSH1 0x20 ADD SWAP1 DUP2 MSTORE PUSH1 0x20 ADD PUSH1 0x0 KECCAK256 PUSH1 0x0 SWAP1 SLOAD SWAP1 PUSH2 0x100 EXP SWAP1 DIV PUSH1 0xFF AND ISZERO PUSH2 0x161 JUMPI PUSH1 0x0 DUP1 REVERT JUMPDEST PUSH1 0x1 PUSH1 0x3 PUSH1 0x0 CALLER PUSH20 0xFFFFFFFFFFFFFFFFFFFFFFFFFFFFFFFFFFFFFFFF AND PUSH20 0xFFFFFFFFFFFFFFFFFFFFFFFFFFFFFFFFFFFFFFFF AND DUP2 MSTORE PUSH1 0x20 ADD SWAP1 DUP2 MSTORE PUSH1 0x20 ADD PUSH1 0x0 KECCAK256 PUSH1 0x0 PUSH2 0x100 EXP DUP2 SLOAD DUP2 PUSH1 0xFF MUL NOT AND SWAP1 DUP4 ISZERO ISZERO MUL OR SWAP1 SSTORE POP PUSH1 0x2 PUSH1 0x1 DUP3 DUP2 SLOAD DUP2 LT PUSH2 0x1F5 JUMPI PUSH32 0x4E487B7100000000000000000000000000000000000000000000000000000000 PUSH1 0x0 MSTORE PUSH1 0x32 PUSH1 0x4 MSTORE PUSH1 0x24 PUSH1 0x0 REVERT JUMPDEST SWAP1 PUSH1 0x0 MSTORE PUSH1 0x20 PUSH1 0x0 KECCAK256 ADD PUSH1 0x40 MLOAD PUSH2 0x20C SWAP2 SWAP1 PUSH2 0x915 JUMP JUMPDEST SWAP1 DUP2 MSTORE PUSH1 0x20 ADD PUSH1 0x40 MLOAD DUP1 SWAP2 SUB SWAP1 KECCAK256 PUSH1 0x0 DUP2 SLOAD DUP1 SWAP3 SWAP2 SWAP1 PUSH2 0x22B SWAP1 PUSH2 0xA65 JUMP JUMPDEST SWAP2 SWAP1 POP SSTORE POP POP JUMP JUMPDEST PUSH1 0x60 PUSH1 0x6 DUP1 SLOAD PUSH2 0x242 SWAP1 PUSH2 0xA33 JUMP JUMPDEST DUP1 PUSH1 0x1F ADD PUSH1 0x20 DUP1 SWAP2 DIV MUL PUSH1 0x20 ADD PUSH1 0x40 MLOAD SWAP1 DUP2 ADD PUSH1 0x40 MSTORE DUP1 SWAP3 SWAP2 SWAP1 DUP2 DUP2 MSTORE PUSH1 0x20 ADD DUP3 DUP1 SLOAD PUSH2 0x26E SWAP1 PUSH2 0xA33 JUMP JUMPDEST DUP1 ISZERO PUSH2 0x2BB JUMPI DUP1 PUSH1 0x1F LT PUSH2 0x290 JUMPI PUSH2 0x100 DUP1 DUP4 SLOAD DIV MUL DUP4 MSTORE SWAP2 PUSH1 0x20 ADD SWAP2 PUSH2 0x2BB JUMP JUMPDEST DUP3 ADD SWAP2 SWAP1 PUSH1 0x0 MSTORE PUSH1 0x20 PUSH1 0x0 KECCAK256 SWAP1 JUMPDEST DUP2 SLOAD DUP2 MSTORE SWAP1 PUSH1 0x1 ADD SWAP1 PUSH1 0x20 ADD DUP1 DUP4 GT PUSH2 0x29E JUMPI DUP3 SWAP1 SUB PUSH1 0x1F AND DUP3 ADD SWAP2 JUMPDEST POP POP POP POP POP SWAP1 POP SWAP1 JUMP JUMPDEST PUSH1 0x60 PUSH1 0x4 PUSH1 0x0 SWAP1 SLOAD SWAP1 PUSH2 0x100 EXP SWAP1 DIV PUSH1 0xFF AND ISZERO PUSH2 0x2E1 JUMPI PUSH1 0x0 DUP1 REVERT JUMPDEST PUSH1 0x5 DUP1 SLOAD PUSH2 0x2EE SWAP1 PUSH2 0xA33 JUMP JUMPDEST DUP1 PUSH1 0x1F ADD PUSH1 0x20 DUP1 SWAP2 DIV MUL PUSH1 0x20 ADD PUSH1 0x40 MLOAD SWAP1 DUP2 ADD PUSH1 0x40 MSTORE DUP1 SWAP3 SWAP2 SWAP1 DUP2 DUP2 MSTORE PUSH1 0x20 ADD DUP3 DUP1 SLOAD PUSH2 0x31A SWAP1 PUSH2 0xA33 JUMP JUMPDEST DUP1 ISZERO PUSH2 0x367 JUMPI DUP1 PUSH1 0x1F LT PUSH2 0x33C JUMPI PUSH2 0x100 DUP1 DUP4 SLOAD DIV MUL DUP4 MSTORE SWAP2 PUSH1 0x20 ADD SWAP2 PUSH2 0x367 JUMP JUMPDEST DUP3 ADD SWAP2 SWAP1 PUSH1 0x0 MSTORE PUSH1 0x20 PUSH1 0x0 KECCAK256 SWAP1 JUMPDEST DUP2 SLOAD DUP2 MSTORE SWAP1 PUSH1 0x1 ADD SWAP1 PUSH1 0x20 ADD DUP1 DUP4 GT PUSH2 0x34A JUMPI DUP3 SWAP1 SUB PUSH1 0x1F AND DUP3 ADD SWAP2 JUMPDEST POP POP POP POP POP SWAP1 POP SWAP1 JUMP JUMPDEST PUSH1 0x0 DUP1 SLOAD SWAP1 PUSH2 0x100 EXP SWAP1 DIV PUSH20 0xFFFFFFFFFFFFFFFFFFFFFFFFFFFFFFFFFFFFFFFF AND PUSH20 0xFFFFFFFFFFFFFFFFFFFFFFFFFFFFFFFFFFFFFFFF AND CALLER PUSH20 0xFFFFFFFFFFFFFFFFFFFFFFFFFFFFFFFFFFFFFFFF AND EQ PUSH2 0x3C9 JUMPI PUSH1 0x0 DUP1 REVERT JUMPDEST PUSH1 0x4 PUSH1 0x0 SWAP1 SLOAD SWAP1 PUSH2 0x100 EXP SWAP1 DIV PUSH1 0xFF AND ISZERO PUSH2 0x3E3 JUMPI PUSH1 0x0 DUP1 REVERT JUMPDEST PUSH1 0x1 PUSH1 0x4 PUSH1 0x0 PUSH2 0x100 EXP DUP2 SLOAD DUP2 PUSH1 0xFF MUL NOT AND SWAP1 DUP4 ISZERO ISZERO MUL OR SWAP1 SSTORE POP JUMP JUMPDEST PUSH1 0x4 PUSH1 0x0 SWAP1 SLOAD SWAP1 PUSH2 0x100 EXP SWAP1 DIV PUSH1 0xFF AND PUSH2 0x419 JUMPI PUSH1 0x0 DUP1 REVERT JUMPDEST PUSH1 0x0 DUP1 SLOAD SWAP1 PUSH2 0x100 EXP SWAP1 DIV PUSH20 0xFFFFFFFFFFFFFFFFFFFFFFFFFFFFFFFFFFFFFFFF AND PUSH20 0xFFFFFFFFFFFFFFFFFFFFFFFFFFFFFFFFFFFFFFFF AND CALLER PUSH20 0xFFFFFFFFFFFFFFFFFFFFFFFFFFFFFFFFFFFFFFFF AND EQ PUSH2 0x471 JUMPI PUSH1 0x0 DUP1 REVERT JUMPDEST PUSH1 0x0 JUMPDEST PUSH1 0x1 DUP1 SLOAD SWAP1 POP DUP2 LT ISZERO PUSH2 0x57B JUMPI PUSH1 0x2 PUSH1 0x5 PUSH1 0x40 MLOAD PUSH2 0x492 SWAP2 SWAP1 PUSH2 0x915 JUMP JUMPDEST SWAP1 DUP2 MSTORE PUSH1 0x20 ADD PUSH1 0x40 MLOAD DUP1 SWAP2 SUB SWAP1 KECCAK256 SLOAD PUSH1 0x2 PUSH1 0x1 DUP4 DUP2 SLOAD DUP2 LT PUSH2 0x4DD JUMPI PUSH32 0x4E487B7100000000000000000000000000000000000000000000000000000000 PUSH1 0x0 MSTORE PUSH1 0x32 PUSH1 0x4 MSTORE PUSH1 0x24 PUSH1 0x0 REVERT JUMPDEST SWAP1 PUSH1 0x0 MSTORE PUSH1 0x20 PUSH1 0x0 KECCAK256 ADD PUSH1 0x40 MLOAD PUSH2 0x4F4 SWAP2 SWAP1 PUSH2 0x915 JUMP JUMPDEST SWAP1 DUP2 MSTORE PUSH1 0x20 ADD PUSH1 0x40 MLOAD DUP1 SWAP2 SUB SWAP1 KECCAK256 SLOAD GT ISZERO PUSH2 0x568 JUMPI PUSH1 0x1 DUP2 DUP2 SLOAD DUP2 LT PUSH2 0x543 JUMPI PUSH32 0x4E487B7100000000000000000000000000000000000000000000000000000000 PUSH1 0x0 MSTORE PUSH1 0x32 PUSH1 0x4 MSTORE PUSH1 0x24 PUSH1 0x0 REVERT JUMPDEST SWAP1 PUSH1 0x0 MSTORE PUSH1 0x20 PUSH1 0x0 KECCAK256 ADD PUSH1 0x5 SWAP1 DUP1 SLOAD PUSH2 0x55B SWAP1 PUSH2 0xA33 JUMP JUMPDEST PUSH2 0x566 SWAP3 SWAP2 SWAP1 PUSH2 0x6B3 JUMP JUMPDEST POP JUMPDEST DUP1 DUP1 PUSH2 0x573 SWAP1 PUSH2 0xA65 JUMP JUMPDEST SWAP2 POP POP PUSH2 0x474 JUMP JUMPDEST POP PUSH1 0x0 PUSH1 0x4 PUSH1 0x0 PUSH2 0x100 EXP DUP2 SLOAD DUP2 PUSH1 0xFF MUL NOT AND SWAP1 DUP4 ISZERO ISZERO MUL OR SWAP1 SSTORE POP PUSH1 0x0 DUP1 PUSH1 0x0 PUSH2 0x100 EXP DUP2 SLOAD DUP2 PUSH20 0xFFFFFFFFFFFFFFFFFFFFFFFFFFFFFFFFFFFFFFFF MUL NOT AND SWAP1 DUP4 PUSH20 0xFFFFFFFFFFFFFFFFFFFFFFFFFFFFFFFFFFFFFFFF AND MUL OR SWAP1 SSTORE POP JUMP JUMPDEST PUSH1 0x60 PUSH1 0x1 DUP1 SLOAD DUP1 PUSH1 0x20 MUL PUSH1 0x20 ADD PUSH1 0x40 MLOAD SWAP1 DUP2 ADD PUSH1 0x40 MSTORE DUP1 SWAP3 SWAP2 SWAP1 DUP2 DUP2 MSTORE PUSH1 0x20 ADD PUSH1 0x0 SWAP1 JUMPDEST DUP3 DUP3 LT ISZERO PUSH2 0x6AA JUMPI DUP4 DUP3 SWAP1 PUSH1 0x0 MSTORE PUSH1 0x20 PUSH1 0x0 KECCAK256 ADD DUP1 SLOAD PUSH2 0x61D SWAP1 PUSH2 0xA33 JUMP JUMPDEST DUP1 PUSH1 0x1F ADD PUSH1 0x20 DUP1 SWAP2 DIV MUL PUSH1 0x20 ADD PUSH1 0x40 MLOAD SWAP1 DUP2 ADD PUSH1 0x40 MSTORE DUP1 SWAP3 SWAP2 SWAP1 DUP2 DUP2 MSTORE PUSH1 0x20 ADD DUP3 DUP1 SLOAD PUSH2 0x649 SWAP1 PUSH2 0xA33 JUMP JUMPDEST DUP1 ISZERO PUSH2 0x696 JUMPI DUP1 PUSH1 0x1F LT PUSH2 0x66B JUMPI PUSH2 0x100 DUP1 DUP4 SLOAD DIV MUL DUP4 MSTORE SWAP2 PUSH1 0x20 ADD SWAP2 PUSH2 0x696 JUMP JUMPDEST DUP3 ADD SWAP2 SWAP1 PUSH1 0x0 MSTORE PUSH1 0x20 PUSH1 0x0 KECCAK256 SWAP1 JUMPDEST DUP2 SLOAD DUP2 MSTORE SWAP1 PUSH1 0x1 ADD SWAP1 PUSH1 0x20 ADD DUP1 DUP4 GT PUSH2 0x679 JUMPI DUP3 SWAP1 SUB PUSH1 0x1F AND DUP3 ADD SWAP2 JUMPDEST POP POP POP POP POP DUP2 MSTORE PUSH1 0x20 ADD SWAP1 PUSH1 0x1 ADD SWAP1 PUSH2 0x5FE JUMP JUMPDEST POP POP POP POP SWAP1 POP SWAP1 JUMP JUMPDEST DUP3 DUP1 SLOAD PUSH2 0x6BF SWAP1 PUSH2 0xA33 JUMP JUMPDEST SWAP1 PUSH1 0x0 MSTORE PUSH1 0x20 PUSH1 0x0 KECCAK256 SWAP1 PUSH1 0x1F ADD PUSH1 0x20 SWAP1 DIV DUP2 ADD SWAP3 DUP3 PUSH2 0x6E1 JUMPI PUSH1 0x0 DUP6 SSTORE PUSH2 0x72F JUMP JUMPDEST DUP3 PUSH1 0x1F LT PUSH2 0x6F2 JUMPI DUP1 SLOAD DUP6 SSTORE PUSH2 0x72F JUMP JUMPDEST DUP3 DUP1 ADD PUSH1 0x1 ADD DUP6 SSTORE DUP3 ISZERO PUSH2 0x72F JUMPI PUSH1 0x0 MSTORE PUSH1 0x20 PUSH1 0x0 KECCAK256 SWAP2 PUSH1 0x1F ADD PUSH1 0x20 SWAP1 DIV DUP3 ADD JUMPDEST DUP3 DUP2 GT ISZERO PUSH2 0x72E JUMPI DUP3 SLOAD DUP3 SSTORE SWAP2 PUSH1 0x1 ADD SWAP2 SWAP1 PUSH1 0x1 ADD SWAP1 PUSH2 0x713 JUMP JUMPDEST JUMPDEST POP SWAP1 POP PUSH2 0x73C SWAP2 SWAP1 PUSH2 0x740 JUMP JUMPDEST POP SWAP1 JUMP JUMPDEST JUMPDEST DUP1 DUP3 GT ISZERO PUSH2 0x759 JUMPI PUSH1 0x0 DUP2 PUSH1 0x0 SWAP1 SSTORE POP PUSH1 0x1 ADD PUSH2 0x741 JUMP JUMPDEST POP SWAP1 JUMP JUMPDEST PUSH1 0x0 DUP2 CALLDATALOAD SWAP1 POP PUSH2 0x76C DUP2 PUSH2 0xB1D JUMP JUMPDEST SWAP3 SWAP2 POP POP JUMP JUMPDEST PUSH1 0x0 PUSH1 0x20 DUP3 DUP5 SUB SLT ISZERO PUSH2 0x784 JUMPI PUSH1 0x0 DUP1 REVERT JUMPDEST PUSH1 0x0 PUSH2 0x792 DUP5 DUP3 DUP6 ADD PUSH2 0x75D JUMP JUMPDEST SWAP2 POP POP SWAP3 SWAP2 POP POP JUMP JUMPDEST PUSH1 0x0 PUSH2 0x7A7 DUP4 DUP4 PUSH2 0x824 JUMP JUMPDEST SWAP1 POP SWAP3 SWAP2 POP POP JUMP JUMPDEST PUSH1 0x0 PUSH2 0x7BA DUP3 PUSH2 0x995 JUMP JUMPDEST PUSH2 0x7C4 DUP2 DUP6 PUSH2 0x9B8 JUMP JUMPDEST SWAP4 POP DUP4 PUSH1 0x20 DUP3 MUL DUP6 ADD PUSH2 0x7D6 DUP6 PUSH2 0x970 JUMP JUMPDEST DUP1 PUSH1 0x0 JUMPDEST DUP6 DUP2 LT ISZERO PUSH2 0x812 JUMPI DUP5 DUP5 SUB DUP10 MSTORE DUP2 MLOAD PUSH2 0x7F3 DUP6 DUP3 PUSH2 0x79B JUMP JUMPDEST SWAP5 POP PUSH2 0x7FE DUP4 PUSH2 0x9AB JUMP JUMPDEST SWAP3 POP PUSH1 0x20 DUP11 ADD SWAP10 POP POP PUSH1 0x1 DUP2 ADD SWAP1 POP PUSH2 0x7DA JUMP JUMPDEST POP DUP3 SWAP8 POP DUP8 SWAP6 POP POP POP POP POP POP SWAP3 SWAP2 POP POP JUMP JUMPDEST PUSH1 0x0 PUSH2 0x82F DUP3 PUSH2 0x9A0 JUMP JUMPDEST PUSH2 0x839 DUP2 DUP6 PUSH2 0x9C9 JUMP JUMPDEST SWAP4 POP PUSH2 0x849 DUP2 DUP6 PUSH1 0x20 DUP7 ADD PUSH2 0xA00 JUMP JUMPDEST PUSH2 0x852 DUP2 PUSH2 0xB0C JUMP JUMPDEST DUP5 ADD SWAP2 POP POP SWAP3 SWAP2 POP POP JUMP JUMPDEST PUSH1 0x0 PUSH2 0x868 DUP3 PUSH2 0x9A0 JUMP JUMPDEST PUSH2 0x872 DUP2 DUP6 PUSH2 0x9DA JUMP JUMPDEST SWAP4 POP PUSH2 0x882 DUP2 DUP6 PUSH1 0x20 DUP7 ADD PUSH2 0xA00 JUMP JUMPDEST PUSH2 0x88B DUP2 PUSH2 0xB0C JUMP JUMPDEST DUP5 ADD SWAP2 POP POP SWAP3 SWAP2 POP POP JUMP JUMPDEST PUSH1 0x0 DUP2 SLOAD PUSH2 0x8A3 DUP2 PUSH2 0xA33 JUMP JUMPDEST PUSH2 0x8AD DUP2 DUP7 PUSH2 0x9EB JUMP JUMPDEST SWAP5 POP PUSH1 0x1 DUP3 AND PUSH1 0x0 DUP2 EQ PUSH2 0x8C8 JUMPI PUSH1 0x1 DUP2 EQ PUSH2 0x8D9 JUMPI PUSH2 0x90C JUMP JUMPDEST PUSH1 0xFF NOT DUP4 AND DUP7 MSTORE DUP2 DUP7 ADD SWAP4 POP PUSH2 0x90C JUMP JUMPDEST PUSH2 0x8E2 DUP6 PUSH2 0x980 JUMP JUMPDEST PUSH1 0x0 JUMPDEST DUP4 DUP2 LT ISZERO PUSH2 0x904 JUMPI DUP2 SLOAD DUP2 DUP10 ADD MSTORE PUSH1 0x1 DUP3 ADD SWAP2 POP PUSH1 0x20 DUP2 ADD SWAP1 POP PUSH2 0x8E5 JUMP JUMPDEST DUP4 DUP9 ADD SWAP6 POP POP POP JUMPDEST POP POP POP SWAP3 SWAP2 POP POP JUMP JUMPDEST PUSH1 0x0 PUSH2 0x921 DUP3 DUP5 PUSH2 0x896 JUMP JUMPDEST SWAP2 POP DUP2 SWAP1 POP SWAP3 SWAP2 POP POP JUMP JUMPDEST PUSH1 0x0 PUSH1 0x20 DUP3 ADD SWAP1 POP DUP2 DUP2 SUB PUSH1 0x0 DUP4 ADD MSTORE PUSH2 0x946 DUP2 DUP5 PUSH2 0x7AF JUMP JUMPDEST SWAP1 POP SWAP3 SWAP2 POP POP JUMP JUMPDEST PUSH1 0x0 PUSH1 0x20 DUP3 ADD SWAP1 POP DUP2 DUP2 SUB PUSH1 0x0 DUP4 ADD MSTORE PUSH2 0x968 DUP2 DUP5 PUSH2 0x85D JUMP JUMPDEST SWAP1 POP SWAP3 SWAP2 POP POP JUMP JUMPDEST PUSH1 0x0 DUP2 SWAP1 POP PUSH1 0x20 DUP3 ADD SWAP1 POP SWAP2 SWAP1 POP JUMP JUMPDEST PUSH1 0x0 DUP2 SWAP1 POP DUP2 PUSH1 0x0 MSTORE PUSH1 0x20 PUSH1 0x0 KECCAK256 SWAP1 POP SWAP2 SWAP1 POP JUMP JUMPDEST PUSH1 0x0 DUP2 MLOAD SWAP1 POP SWAP2 SWAP1 POP JUMP JUMPDEST PUSH1 0x0 DUP2 MLOAD SWAP1 POP SWAP2 SWAP1 POP JUMP JUMPDEST PUSH1 0x0 PUSH1 0x20 DUP3 ADD SWAP1 POP SWAP2 SWAP1 POP JUMP JUMPDEST PUSH1 0x0 DUP3 DUP3 MSTORE PUSH1 0x20 DUP3 ADD SWAP1 POP SWAP3 SWAP2 POP POP JUMP JUMPDEST PUSH1 0x0 DUP3 DUP3 MSTORE PUSH1 0x20 DUP3 ADD SWAP1 POP SWAP3 SWAP2 POP POP JUMP JUMPDEST PUSH1 0x0 DUP3 DUP3 MSTORE PUSH1 0x20 DUP3 ADD SWAP1 POP SWAP3 SWAP2 POP POP JUMP JUMPDEST PUSH1 0x0 DUP2 SWAP1 POP SWAP3 SWAP2 POP POP JUMP JUMPDEST PUSH1 0x0 DUP2 SWAP1 POP SWAP2 SWAP1 POP JUMP JUMPDEST PUSH1 0x0 JUMPDEST DUP4 DUP2 LT ISZERO PUSH2 0xA1E JUMPI DUP1 DUP3 ADD MLOAD DUP2 DUP5 ADD MSTORE PUSH1 0x20 DUP2 ADD SWAP1 POP PUSH2 0xA03 JUMP JUMPDEST DUP4 DUP2 GT ISZERO PUSH2 0xA2D JUMPI PUSH1 0x0 DUP5 DUP5 ADD MSTORE JUMPDEST POP POP POP POP JUMP JUMPDEST PUSH1 0x0 PUSH1 0x2 DUP3 DIV SWAP1 POP PUSH1 0x1 DUP3 AND DUP1 PUSH2 0xA4B JUMPI PUSH1 0x7F DUP3 AND SWAP2 POP JUMPDEST PUSH1 0x20 DUP3 LT DUP2 EQ ISZERO PUSH2 0xA5F JUMPI PUSH2 0xA5E PUSH2 0xADD JUMP JUMPDEST JUMPDEST POP SWAP2 SWAP1 POP JUMP JUMPDEST PUSH1 0x0 PUSH2 0xA70 DUP3 PUSH2 0x9F6 JUMP JUMPDEST SWAP2 POP PUSH32 0xFFFFFFFFFFFFFFFFFFFFFFFFFFFFFFFFFFFFFFFFFFFFFFFFFFFFFFFFFFFFFFFF DUP3 EQ ISZERO PUSH2 0xAA3 JUMPI PUSH2 0xAA2 PUSH2 0xAAE JUMP JUMPDEST JUMPDEST PUSH1 0x1 DUP3 ADD SWAP1 POP SWAP2 SWAP1 POP JUMP JUMPDEST PUSH32 0x4E487B7100000000000000000000000000000000000000000000000000000000 PUSH1 0x0 MSTORE PUSH1 0x11 PUSH1 0x4 MSTORE PUSH1 0x24 PUSH1 0x0 REVERT JUMPDEST PUSH32 0x4E487B7100000000000000000000000000000000000000000000000000000000 PUSH1 0x0 MSTORE PUSH1 0x22 PUSH1 0x4 MSTORE PUSH1 0x24 PUSH1 0x0 REVERT JUMPDEST PUSH1 0x0 PUSH1 0x1F NOT PUSH1 0x1F DUP4 ADD AND SWAP1 POP SWAP2 SWAP1 POP JUMP JUMPDEST PUSH2 0xB26 DUP2 PUSH2 0x9F6 JUMP JUMPDEST DUP2 EQ PUSH2 0xB31 JUMPI PUSH1 0x0 DUP1 REVERT JUMPDEST POP JUMP INVALID LOG2 PUSH5 0x6970667358 0x22 SLT KECCAK256 0x5D JUMPDEST 0xD6 0x23 0xAA 0x29 DUP4 0xB8 DUP7 PUSH10 0x49EE17F18E3DC1247B6C SLOAD 0xF 0x22 DUP2 SELFDESTRUCT DUP13 0x2B SWAP14 0x1E RETURNDATACOPY 0xD0 0xF7 PUSH5 0x736F6C6343 STOP ADDMOD STOP STOP CALLER LOG2 PUSH5 0x6970667358 0x22 SLT KECCAK256 PUSH8 0xB64B46E5F8B39270 0xAD 0x25 CALLVALUE 0xEC PUSH28 0xB075501A1C2C6EF66D470AD4CDE46DB07EAA64736F6C634300080000 CALLER "},"gasEstimates":{"creation":{"codeDepositCost":"1402200","executionCost":"1465","totalCost":"1403665"},"external":{"createElection(string[],string)":"infinite","deployedElections(uint256)":"2378","getAllElections()":"infinite"}},"methodIdentifiers":{"createElection(string[],string)":"67dc64c5","deployedElections(uint256)":"f18b4f8e","getAllElections()":"7fd5f268"}},"storageLayout":{"storage":[{"astId":4,"contract":"fileName:Factory","label":"deployedElections","offset":0,"slot":"0","type":"t_array(t_address)dyn_storage"}],"types":{"t_address":{"encoding":"inplace","label":"address","numberOfBytes":"20"},"t_array(t_address)dyn_storage":{"base":"t_address","encoding":"dynamic_array","label":"address[]","numberOfBytes":"32"}}},"userdoc":{"kind":"user","methods":{},"version":1}}