{"abi":[{"inputs":[{"internalType":"address","name":"_org","type":"address"},{"internalType":"string[]","name":"initList","type":"string[]"},{"internalType":"string","name":"_description","type":"string"}],"stateMutability":"nonpayable","type":"constructor"},{"inputs":[],"name":"ORGANIZER","outputs":[{"internalType":"address","name":"","type":"address"}],"stateMutability":"view","type":"function"},{"inputs":[{"internalType":"uint256","name":"","type":"uint256"}],"name":"candList","outputs":[{"internalType":"string","name":"","type":"string"}],"stateMutability":"view","type":"function"},{"inputs":[],"name":"description","outputs":[{"internalType":"string","name":"","type":"string"}],"stateMutability":"view","type":"function"},{"inputs":[],"name":"endVoting","outputs":[],"stateMutability":"nonpayable","type":"function"},{"inputs":[],"name":"giveCandList","outputs":[{"internalType":"string[]","name":"","type":"string[]"}],"stateMutability":"view","type":"function"},{"inputs":[{"internalType":"uint256","name":"i","type":"uint256"}],"name":"vote","outputs":[],"stateMutability":"nonpayable","type":"function"},{"inputs":[],"name":"votingStatus","outputs":[{"internalType":"bool","name":"","type":"bool"}],"stateMutability":"view","type":"function"},{"inputs":[],"name":"winnerCand","outputs":[{"internalType":"string","name":"","type":"string"}],"stateMutability":"view","type":"function"}],"devdoc":{"kind":"dev","methods":{},"version":1},"evm":{"assembly":"    /* \"fileName\":466:1869  contract Election {... */\n  mstore(0x40, 0x80)\n    /* \"fileName\":666:671  false */\n  0x00\n    /* \"fileName\":639:671  bool public votingStatus = false */\n  0x04\n  exp(0x0100, 0x00)\n  dup2\n  sload\n  dup2\n  0xff\n  mul\n  not\n  and\n  swap1\n  dup4\n  iszero\n  iszero\n  mul\n  or\n  swap1\n  sstore\n  pop\n    /* \"fileName\":729:1095  constructor(address _org, string[] memory initList, string memory _description) {... */\n  callvalue\n  dup1\n  iszero\n  tag_1\n  jumpi\n  0x00\n  dup1\n  revert\ntag_1:\n  pop\n  mload(0x40)\n  sub(codesize, bytecodeSize)\n  dup1\n  bytecodeSize\n  dup4\n  codecopy\n  dup2\n  dup2\n  add\n  0x40\n  mstore\n  dup2\n  add\n  swap1\n  tag_2\n  swap2\n  swap1\n  tag_3\n  jump\t// in\ntag_2:\n    /* \"fileName\":845:846  0 */\n  0x00\n    /* \"fileName\":827:835  initList */\n  dup3\n    /* \"fileName\":827:842  initList.length */\n  mload\n    /* \"fileName\":827:846  initList.length > 0 */\n  gt\n    /* \"fileName\":819:847  require(initList.length > 0) */\n  tag_6\n  jumpi\n  0x00\n  dup1\n  revert\ntag_6:\n    /* \"fileName\":871:883  _description */\n  dup1\n    /* \"fileName\":857:868  description */\n  0x05\n    /* \"fileName\":857:883  description = _description */\n  swap1\n  dup1\n  mload\n  swap1\n  0x20\n  add\n  swap1\n  tag_7\n  swap3\n  swap2\n  swap1\n  tag_8\n  jump\t// in\ntag_7:\n  pop\n    /* \"fileName\":905:909  _org */\n  dup3\n    /* \"fileName\":893:902  ORGANIZER */\n  0x00\n  dup1\n    /* \"fileName\":893:909  ORGANIZER = _org */\n  0x0100\n  exp\n  dup2\n  sload\n  dup2\n  0xffffffffffffffffffffffffffffffffffffffff\n  mul\n  not\n  and\n  swap1\n  dup4\n  0xffffffffffffffffffffffffffffffffffffffff\n  and\n  mul\n  or\n  swap1\n  sstore\n  pop\n    /* \"fileName\":930:938  initList */\n  dup2\n    /* \"fileName\":919:927  candList */\n  0x01\n    /* \"fileName\":919:938  candList = initList */\n  swap1\n  dup1\n  mload\n  swap1\n  0x20\n  add\n  swap1\n  tag_9\n  swap3\n  swap2\n  swap1\n  tag_10\n  jump\t// in\ntag_9:\n  pop\n    /* \"fileName\":952:958  uint i */\n  0x00\n    /* \"fileName\":948:1039  for(uint i = 0; i<initList.length; i++){... */\ntag_11:\n    /* \"fileName\":966:974  initList */\n  dup3\n    /* \"fileName\":966:981  initList.length */\n  mload\n    /* \"fileName\":964:965  i */\n  dup2\n    /* \"fileName\":964:981  i<initList.length */\n  lt\n    /* \"fileName\":948:1039  for(uint i = 0; i<initList.length; i++){... */\n  iszero\n  tag_12\n  jumpi\n    /* \"fileName\":1027:1028  0 */\n  0x00\n    /* \"fileName\":1001:1011  totalVotes */\n  0x02\n    /* \"fileName\":1012:1020  initList */\n  dup5\n    /* \"fileName\":1021:1022  i */\n  dup4\n    /* \"fileName\":1012:1023  initList[i] */\n  dup2\n  mload\n  dup2\n  lt\n  tag_14\n  jumpi\n  mstore(0x00, 0x4e487b7100000000000000000000000000000000000000000000000000000000)\n  mstore(0x04, 0x32)\n  revert(0x00, 0x24)\ntag_14:\n  0x20\n  mul\n  0x20\n  add\n  add\n  mload\n    /* \"fileName\":1001:1024  totalVotes[initList[i]] */\n  mload(0x40)\n  tag_15\n  swap2\n  swap1\n  tag_16\n  jump\t// in\ntag_15:\n  swap1\n  dup2\n  mstore\n  0x20\n  add\n  mload(0x40)\n  dup1\n  swap2\n  sub\n  swap1\n  keccak256\n    /* \"fileName\":1001:1028  totalVotes[initList[i]] = 0 */\n  dup2\n  swap1\n  sstore\n  pop\n    /* \"fileName\":983:986  i++ */\n  dup1\n  dup1\n  tag_17\n  swap1\n  tag_18\n  jump\t// in\ntag_17:\n  swap2\n  pop\n  pop\n    /* \"fileName\":948:1039  for(uint i = 0; i<initList.length; i++){... */\n  jump(tag_11)\ntag_12:\n  pop\n    /* \"fileName\":1048:1059  winner = \"\" */\n  mload(0x40)\n  dup1\n  0x20\n  add\n  0x40\n  mstore\n  dup1\n  0x00\n  dup2\n  mstore\n  pop\n    /* \"fileName\":1048:1054  winner */\n  0x06\n    /* \"fileName\":1048:1059  winner = \"\" */\n  swap1\n  dup1\n  mload\n  swap1\n  0x20\n  add\n  swap1\n  tag_19\n  swap3\n  swap2\n  swap1\n  tag_8\n  jump\t// in\ntag_19:\n  pop\n    /* \"fileName\":1084:1088  true */\n  0x01\n    /* \"fileName\":1069:1081  votingStatus */\n  0x04\n  0x00\n    /* \"fileName\":1069:1088  votingStatus = true */\n  0x0100\n  exp\n  dup2\n  sload\n  dup2\n  0xff\n  mul\n  not\n  and\n  swap1\n  dup4\n  iszero\n  iszero\n  mul\n  or\n  swap1\n  sstore\n  pop\n    /* \"fileName\":729:1095  constructor(address _org, string[] memory initList, string memory _description) {... */\n  pop\n  pop\n  pop\n    /* \"fileName\":466:1869  contract Election {... */\n  jump(tag_20)\ntag_8:\n  dup3\n  dup1\n  sload\n  tag_21\n  swap1\n  tag_22\n  jump\t// in\ntag_21:\n  swap1\n  0x00\n  mstore\n  keccak256(0x00, 0x20)\n  swap1\n  0x1f\n  add\n  0x20\n  swap1\n  div\n  dup2\n  add\n  swap3\n  dup3\n  tag_24\n  jumpi\n  0x00\n  dup6\n  sstore\n  jump(tag_23)\ntag_24:\n  dup3\n  0x1f\n  lt\n  tag_25\n  jumpi\n  dup1\n  mload\n  not(0xff)\n  and\n  dup4\n  dup1\n  add\n  or\n  dup6\n  sstore\n  jump(tag_23)\ntag_25:\n  dup3\n  dup1\n  add\n  0x01\n  add\n  dup6\n  sstore\n  dup3\n  iszero\n  tag_23\n  jumpi\n  swap2\n  dup3\n  add\ntag_26:\n  dup3\n  dup2\n  gt\n  iszero\n  tag_27\n  jumpi\n  dup3\n  mload\n  dup3\n  sstore\n  swap2\n  0x20\n  add\n  swap2\n  swap1\n  0x01\n  add\n  swap1\n  jump(tag_26)\ntag_27:\ntag_23:\n  pop\n  swap1\n  pop\n  tag_28\n  swap2\n  swap1\n  tag_29\n  jump\t// in\ntag_28:\n  pop\n  swap1\n  jump\t// out\ntag_10:\n  dup3\n  dup1\n  sload\n  dup3\n  dup3\n  sstore\n  swap1\n  0x00\n  mstore\n  keccak256(0x00, 0x20)\n  swap1\n  dup2\n  add\n  swap3\n  dup3\n  iszero\n  tag_30\n  jumpi\n  swap2\n  0x20\n  mul\n  dup3\n  add\ntag_31:\n  dup3\n  dup2\n  gt\n  iszero\n  tag_32\n  jumpi\n  dup3\n  mload\n  dup3\n  swap1\n  dup1\n  mload\n  swap1\n  0x20\n  add\n  swap1\n  tag_33\n  swap3\n  swap2\n  swap1\n  tag_8\n  jump\t// in\ntag_33:\n  pop\n  swap2\n  0x20\n  add\n  swap2\n  swap1\n  0x01\n  add\n  swap1\n  jump(tag_31)\ntag_32:\ntag_30:\n  pop\n  swap1\n  pop\n  tag_34\n  swap2\n  swap1\n  tag_35\n  jump\t// in\ntag_34:\n  pop\n  swap1\n  jump\t// out\ntag_29:\ntag_36:\n  dup1\n  dup3\n  gt\n  iszero\n  tag_37\n  jumpi\n  0x00\n  dup2\n  0x00\n  swap1\n  sstore\n  pop\n  0x01\n  add\n  jump(tag_36)\ntag_37:\n  pop\n  swap1\n  jump\t// out\ntag_35:\ntag_38:\n  dup1\n  dup3\n  gt\n  iszero\n  tag_39\n  jumpi\n  0x00\n  dup2\n  dup2\n  tag_40\n  swap2\n  swap1\n  tag_41\n  jump\t// in\ntag_40:\n  pop\n  0x01\n  add\n  jump(tag_38)\ntag_39:\n  pop\n  swap1\n  jump\t// out\ntag_41:\n  pop\n  dup1\n  sload\n  tag_42\n  swap1\n  tag_22\n  jump\t// in\ntag_42:\n  0x00\n  dup3\n  sstore\n  dup1\n  0x1f\n  lt\n  tag_44\n  jumpi\n  pop\n  jump(tag_43)\ntag_44:\n  0x1f\n  add\n  0x20\n  swap1\n  div\n  swap1\n  0x00\n  mstore\n  keccak256(0x00, 0x20)\n  swap1\n  dup2\n  add\n  swap1\n  tag_45\n  swap2\n  swap1\n  tag_29\n  jump\t// in\ntag_45:\ntag_43:\n  pop\n  jump\t// out\n    /* \"#utility.yul\":23:653   */\ntag_47:\n  0x00\n    /* \"#utility.yul\":165:255   */\n  tag_49\n    /* \"#utility.yul\":180:254   */\n  tag_50\n    /* \"#utility.yul\":247:253   */\n  dup5\n    /* \"#utility.yul\":180:254   */\n  tag_51\n  jump\t// in\ntag_50:\n    /* \"#utility.yul\":165:255   */\n  tag_52\n  jump\t// in\ntag_49:\n    /* \"#utility.yul\":156:255   */\n  swap1\n  pop\n    /* \"#utility.yul\":275:280   */\n  dup1\n    /* \"#utility.yul\":303:309   */\n  dup4\n    /* \"#utility.yul\":296:301   */\n  dup3\n    /* \"#utility.yul\":289:310   */\n  mstore\n    /* \"#utility.yul\":329:333   */\n  0x20\n    /* \"#utility.yul\":322:327   */\n  dup3\n    /* \"#utility.yul\":318:334   */\n  add\n    /* \"#utility.yul\":311:334   */\n  swap1\n  pop\n    /* \"#utility.yul\":354:360   */\n  dup3\n    /* \"#utility.yul\":385:386   */\n  0x00\n    /* \"#utility.yul\":370:647   */\ntag_53:\n    /* \"#utility.yul\":395:401   */\n  dup6\n    /* \"#utility.yul\":392:393   */\n  dup2\n    /* \"#utility.yul\":389:402   */\n  lt\n    /* \"#utility.yul\":370:647   */\n  iszero\n  tag_55\n  jumpi\n    /* \"#utility.yul\":480:483   */\n  dup2\n    /* \"#utility.yul\":474:484   */\n  mload\n    /* \"#utility.yul\":466:472   */\n  dup6\n    /* \"#utility.yul\":462:485   */\n  add\n    /* \"#utility.yul\":510:568   */\n  tag_56\n    /* \"#utility.yul\":564:567   */\n  dup9\n    /* \"#utility.yul\":552:562   */\n  dup3\n    /* \"#utility.yul\":510:568   */\n  tag_57\n  jump\t// in\ntag_56:\n    /* \"#utility.yul\":505:508   */\n  dup5\n    /* \"#utility.yul\":498:569   */\n  mstore\n    /* \"#utility.yul\":598:602   */\n  0x20\n    /* \"#utility.yul\":593:596   */\n  dup5\n    /* \"#utility.yul\":589:603   */\n  add\n    /* \"#utility.yul\":582:603   */\n  swap4\n  pop\n    /* \"#utility.yul\":632:636   */\n  0x20\n    /* \"#utility.yul\":627:630   */\n  dup4\n    /* \"#utility.yul\":623:637   */\n  add\n    /* \"#utility.yul\":616:637   */\n  swap3\n  pop\n    /* \"#utility.yul\":430:647   */\n  pop\n    /* \"#utility.yul\":417:418   */\n  0x01\n    /* \"#utility.yul\":414:415   */\n  dup2\n    /* \"#utility.yul\":410:419   */\n  add\n    /* \"#utility.yul\":405:419   */\n  swap1\n  pop\n    /* \"#utility.yul\":370:647   */\n  jump(tag_53)\ntag_55:\n    /* \"#utility.yul\":374:388   */\n  pop\n    /* \"#utility.yul\":146:653   */\n  pop\n  pop\n  swap4\n  swap3\n  pop\n  pop\n  pop\n  jump\t// out\n    /* \"#utility.yul\":659:1012   */\ntag_58:\n  0x00\n    /* \"#utility.yul\":773:838   */\n  tag_60\n    /* \"#utility.yul\":788:837   */\n  tag_61\n    /* \"#utility.yul\":830:836   */\n  dup5\n    /* \"#utility.yul\":788:837   */\n  tag_62\n  jump\t// in\ntag_61:\n    /* \"#utility.yul\":773:838   */\n  tag_52\n  jump\t// in\ntag_60:\n    /* \"#utility.yul\":764:838   */\n  swap1\n  pop\n    /* \"#utility.yul\":861:867   */\n  dup3\n    /* \"#utility.yul\":854:859   */\n  dup2\n    /* \"#utility.yul\":847:868   */\n  mstore\n    /* \"#utility.yul\":899:903   */\n  0x20\n    /* \"#utility.yul\":892:897   */\n  dup2\n    /* \"#utility.yul\":888:904   */\n  add\n    /* \"#utility.yul\":937:940   */\n  dup5\n    /* \"#utility.yul\":928:934   */\n  dup5\n    /* \"#utility.yul\":923:926   */\n  dup5\n    /* \"#utility.yul\":919:935   */\n  add\n    /* \"#utility.yul\":916:941   */\n  gt\n    /* \"#utility.yul\":913:915   */\n  iszero\n  tag_63\n  jumpi\n    /* \"#utility.yul\":954:955   */\n  0x00\n    /* \"#utility.yul\":951:952   */\n  dup1\n    /* \"#utility.yul\":944:956   */\n  revert\n    /* \"#utility.yul\":913:915   */\ntag_63:\n    /* \"#utility.yul\":967:1006   */\n  tag_64\n    /* \"#utility.yul\":999:1005   */\n  dup5\n    /* \"#utility.yul\":994:997   */\n  dup3\n    /* \"#utility.yul\":989:992   */\n  dup6\n    /* \"#utility.yul\":967:1006   */\n  tag_65\n  jump\t// in\ntag_64:\n    /* \"#utility.yul\":754:1012   */\n  pop\n  swap4\n  swap3\n  pop\n  pop\n  pop\n  jump\t// out\n    /* \"#utility.yul\":1018:1161   */\ntag_66:\n  0x00\n    /* \"#utility.yul\":1106:1112   */\n  dup2\n    /* \"#utility.yul\":1100:1113   */\n  mload\n    /* \"#utility.yul\":1091:1113   */\n  swap1\n  pop\n    /* \"#utility.yul\":1122:1155   */\n  tag_68\n    /* \"#utility.yul\":1149:1154   */\n  dup2\n    /* \"#utility.yul\":1122:1155   */\n  tag_69\n  jump\t// in\ntag_68:\n    /* \"#utility.yul\":1081:1161   */\n  swap3\n  swap2\n  pop\n  pop\n  jump\t// out\n    /* \"#utility.yul\":1183:1521   */\ntag_70:\n  0x00\n    /* \"#utility.yul\":1324:1327   */\n  dup3\n    /* \"#utility.yul\":1317:1321   */\n  0x1f\n    /* \"#utility.yul\":1309:1315   */\n  dup4\n    /* \"#utility.yul\":1305:1322   */\n  add\n    /* \"#utility.yul\":1301:1328   */\n  slt\n    /* \"#utility.yul\":1291:1293   */\n  tag_72\n  jumpi\n    /* \"#utility.yul\":1342:1343   */\n  0x00\n    /* \"#utility.yul\":1339:1340   */\n  dup1\n    /* \"#utility.yul\":1332:1344   */\n  revert\n    /* \"#utility.yul\":1291:1293   */\ntag_72:\n    /* \"#utility.yul\":1375:1381   */\n  dup2\n    /* \"#utility.yul\":1369:1382   */\n  mload\n    /* \"#utility.yul\":1400:1515   */\n  tag_73\n    /* \"#utility.yul\":1511:1514   */\n  dup5\n    /* \"#utility.yul\":1503:1509   */\n  dup3\n    /* \"#utility.yul\":1496:1500   */\n  0x20\n    /* \"#utility.yul\":1488:1494   */\n  dup7\n    /* \"#utility.yul\":1484:1501   */\n  add\n    /* \"#utility.yul\":1400:1515   */\n  tag_47\n  jump\t// in\ntag_73:\n    /* \"#utility.yul\":1391:1515   */\n  swap2\n  pop\n    /* \"#utility.yul\":1281:1521   */\n  pop\n  swap3\n  swap2\n  pop\n  pop\n  jump\t// out\n    /* \"#utility.yul\":1541:1829   */\ntag_57:\n  0x00\n    /* \"#utility.yul\":1657:1660   */\n  dup3\n    /* \"#utility.yul\":1650:1654   */\n  0x1f\n    /* \"#utility.yul\":1642:1648   */\n  dup4\n    /* \"#utility.yul\":1638:1655   */\n  add\n    /* \"#utility.yul\":1634:1661   */\n  slt\n    /* \"#utility.yul\":1624:1626   */\n  tag_75\n  jumpi\n    /* \"#utility.yul\":1675:1676   */\n  0x00\n    /* \"#utility.yul\":1672:1673   */\n  dup1\n    /* \"#utility.yul\":1665:1677   */\n  revert\n    /* \"#utility.yul\":1624:1626   */\ntag_75:\n    /* \"#utility.yul\":1708:1714   */\n  dup2\n    /* \"#utility.yul\":1702:1715   */\n  mload\n    /* \"#utility.yul\":1733:1823   */\n  tag_76\n    /* \"#utility.yul\":1819:1822   */\n  dup5\n    /* \"#utility.yul\":1811:1817   */\n  dup3\n    /* \"#utility.yul\":1804:1808   */\n  0x20\n    /* \"#utility.yul\":1796:1802   */\n  dup7\n    /* \"#utility.yul\":1792:1809   */\n  add\n    /* \"#utility.yul\":1733:1823   */\n  tag_58\n  jump\t// in\ntag_76:\n    /* \"#utility.yul\":1724:1823   */\n  swap2\n  pop\n    /* \"#utility.yul\":1614:1829   */\n  pop\n  swap3\n  swap2\n  pop\n  pop\n  jump\t// out\n    /* \"#utility.yul\":1835:2693   */\ntag_3:\n  0x00\n  dup1\n  0x00\n    /* \"#utility.yul\":2033:2035   */\n  0x60\n    /* \"#utility.yul\":2021:2030   */\n  dup5\n    /* \"#utility.yul\":2012:2019   */\n  dup7\n    /* \"#utility.yul\":2008:2031   */\n  sub\n    /* \"#utility.yul\":2004:2036   */\n  slt\n    /* \"#utility.yul\":2001:2003   */\n  iszero\n  tag_78\n  jumpi\n    /* \"#utility.yul\":2049:2050   */\n  0x00\n    /* \"#utility.yul\":2046:2047   */\n  dup1\n    /* \"#utility.yul\":2039:2051   */\n  revert\n    /* \"#utility.yul\":2001:2003   */\ntag_78:\n    /* \"#utility.yul\":2092:2093   */\n  0x00\n    /* \"#utility.yul\":2117:2181   */\n  tag_79\n    /* \"#utility.yul\":2173:2180   */\n  dup7\n    /* \"#utility.yul\":2164:2170   */\n  dup3\n    /* \"#utility.yul\":2153:2162   */\n  dup8\n    /* \"#utility.yul\":2149:2171   */\n  add\n    /* \"#utility.yul\":2117:2181   */\n  tag_66\n  jump\t// in\ntag_79:\n    /* \"#utility.yul\":2107:2181   */\n  swap4\n  pop\n    /* \"#utility.yul\":2063:2191   */\n  pop\n    /* \"#utility.yul\":2251:2253   */\n  0x20\n    /* \"#utility.yul\":2240:2249   */\n  dup5\n    /* \"#utility.yul\":2236:2254   */\n  add\n    /* \"#utility.yul\":2230:2255   */\n  mload\n    /* \"#utility.yul\":2282:2300   */\n  0xffffffffffffffff\n    /* \"#utility.yul\":2274:2280   */\n  dup2\n    /* \"#utility.yul\":2271:2301   */\n  gt\n    /* \"#utility.yul\":2268:2270   */\n  iszero\n  tag_80\n  jumpi\n    /* \"#utility.yul\":2314:2315   */\n  0x00\n    /* \"#utility.yul\":2311:2312   */\n  dup1\n    /* \"#utility.yul\":2304:2316   */\n  revert\n    /* \"#utility.yul\":2268:2270   */\ntag_80:\n    /* \"#utility.yul\":2342:2441   */\n  tag_81\n    /* \"#utility.yul\":2433:2440   */\n  dup7\n    /* \"#utility.yul\":2424:2430   */\n  dup3\n    /* \"#utility.yul\":2413:2422   */\n  dup8\n    /* \"#utility.yul\":2409:2431   */\n  add\n    /* \"#utility.yul\":2342:2441   */\n  tag_70\n  jump\t// in\ntag_81:\n    /* \"#utility.yul\":2332:2441   */\n  swap3\n  pop\n    /* \"#utility.yul\":2201:2451   */\n  pop\n    /* \"#utility.yul\":2511:2513   */\n  0x40\n    /* \"#utility.yul\":2500:2509   */\n  dup5\n    /* \"#utility.yul\":2496:2514   */\n  add\n    /* \"#utility.yul\":2490:2515   */\n  mload\n    /* \"#utility.yul\":2542:2560   */\n  0xffffffffffffffff\n    /* \"#utility.yul\":2534:2540   */\n  dup2\n    /* \"#utility.yul\":2531:2561   */\n  gt\n    /* \"#utility.yul\":2528:2530   */\n  iszero\n  tag_82\n  jumpi\n    /* \"#utility.yul\":2574:2575   */\n  0x00\n    /* \"#utility.yul\":2571:2572   */\n  dup1\n    /* \"#utility.yul\":2564:2576   */\n  revert\n    /* \"#utility.yul\":2528:2530   */\ntag_82:\n    /* \"#utility.yul\":2602:2676   */\n  tag_83\n    /* \"#utility.yul\":2668:2675   */\n  dup7\n    /* \"#utility.yul\":2659:2665   */\n  dup3\n    /* \"#utility.yul\":2648:2657   */\n  dup8\n    /* \"#utility.yul\":2644:2666   */\n  add\n    /* \"#utility.yul\":2602:2676   */\n  tag_57\n  jump\t// in\ntag_83:\n    /* \"#utility.yul\":2592:2676   */\n  swap2\n  pop\n    /* \"#utility.yul\":2461:2686   */\n  pop\n    /* \"#utility.yul\":1991:2693   */\n  swap3\n  pop\n  swap3\n  pop\n  swap3\n  jump\t// out\n    /* \"#utility.yul\":2699:3076   */\ntag_84:\n  0x00\n    /* \"#utility.yul\":2833:2872   */\n  tag_86\n    /* \"#utility.yul\":2866:2871   */\n  dup3\n    /* \"#utility.yul\":2833:2872   */\n  tag_87\n  jump\t// in\ntag_86:\n    /* \"#utility.yul\":2888:2977   */\n  tag_88\n    /* \"#utility.yul\":2970:2976   */\n  dup2\n    /* \"#utility.yul\":2965:2968   */\n  dup6\n    /* \"#utility.yul\":2888:2977   */\n  tag_89\n  jump\t// in\ntag_88:\n    /* \"#utility.yul\":2881:2977   */\n  swap4\n  pop\n    /* \"#utility.yul\":2986:3038   */\n  tag_90\n    /* \"#utility.yul\":3031:3037   */\n  dup2\n    /* \"#utility.yul\":3026:3029   */\n  dup6\n    /* \"#utility.yul\":3019:3023   */\n  0x20\n    /* \"#utility.yul\":3012:3017   */\n  dup7\n    /* \"#utility.yul\":3008:3024   */\n  add\n    /* \"#utility.yul\":2986:3038   */\n  tag_65\n  jump\t// in\ntag_90:\n    /* \"#utility.yul\":3063:3069   */\n  dup1\n    /* \"#utility.yul\":3058:3061   */\n  dup5\n    /* \"#utility.yul\":3054:3070   */\n  add\n    /* \"#utility.yul\":3047:3070   */\n  swap2\n  pop\n    /* \"#utility.yul\":2809:3076   */\n  pop\n  swap3\n  swap2\n  pop\n  pop\n  jump\t// out\n    /* \"#utility.yul\":3082:3357   */\ntag_16:\n  0x00\n    /* \"#utility.yul\":3236:3331   */\n  tag_92\n    /* \"#utility.yul\":3327:3330   */\n  dup3\n    /* \"#utility.yul\":3318:3324   */\n  dup5\n    /* \"#utility.yul\":3236:3331   */\n  tag_84\n  jump\t// in\ntag_92:\n    /* \"#utility.yul\":3229:3331   */\n  swap2\n  pop\n    /* \"#utility.yul\":3348:3351   */\n  dup2\n    /* \"#utility.yul\":3341:3351   */\n  swap1\n  pop\n    /* \"#utility.yul\":3218:3357   */\n  swap3\n  swap2\n  pop\n  pop\n  jump\t// out\n    /* \"#utility.yul\":3363:3646   */\ntag_52:\n  0x00\n    /* \"#utility.yul\":3429:3431   */\n  0x40\n    /* \"#utility.yul\":3423:3432   */\n  mload\n    /* \"#utility.yul\":3413:3432   */\n  swap1\n  pop\n    /* \"#utility.yul\":3471:3475   */\n  dup2\n    /* \"#utility.yul\":3463:3469   */\n  dup2\n    /* \"#utility.yul\":3459:3476   */\n  add\n    /* \"#utility.yul\":3578:3584   */\n  dup2\n    /* \"#utility.yul\":3566:3576   */\n  dup2\n    /* \"#utility.yul\":3563:3585   */\n  lt\n    /* \"#utility.yul\":3542:3560   */\n  0xffffffffffffffff\n    /* \"#utility.yul\":3530:3540   */\n  dup3\n    /* \"#utility.yul\":3527:3561   */\n  gt\n    /* \"#utility.yul\":3524:3586   */\n  or\n    /* \"#utility.yul\":3521:3523   */\n  iszero\n  tag_94\n  jumpi\n    /* \"#utility.yul\":3589:3607   */\n  tag_95\n  tag_96\n  jump\t// in\ntag_95:\n    /* \"#utility.yul\":3521:3523   */\ntag_94:\n    /* \"#utility.yul\":3629:3639   */\n  dup1\n    /* \"#utility.yul\":3625:3627   */\n  0x40\n    /* \"#utility.yul\":3618:3640   */\n  mstore\n    /* \"#utility.yul\":3403:3646   */\n  pop\n  swap2\n  swap1\n  pop\n  jump\t// out\n    /* \"#utility.yul\":3652:3973   */\ntag_51:\n  0x00\n    /* \"#utility.yul\":3829:3847   */\n  0xffffffffffffffff\n    /* \"#utility.yul\":3821:3827   */\n  dup3\n    /* \"#utility.yul\":3818:3848   */\n  gt\n    /* \"#utility.yul\":3815:3817   */\n  iszero\n  tag_98\n  jumpi\n    /* \"#utility.yul\":3851:3869   */\n  tag_99\n  tag_96\n  jump\t// in\ntag_99:\n    /* \"#utility.yul\":3815:3817   */\ntag_98:\n    /* \"#utility.yul\":3901:3905   */\n  0x20\n    /* \"#utility.yul\":3893:3899   */\n  dup3\n    /* \"#utility.yul\":3889:3906   */\n  mul\n    /* \"#utility.yul\":3881:3906   */\n  swap1\n  pop\n    /* \"#utility.yul\":3961:3965   */\n  0x20\n    /* \"#utility.yul\":3955:3959   */\n  dup2\n    /* \"#utility.yul\":3951:3966   */\n  add\n    /* \"#utility.yul\":3943:3966   */\n  swap1\n  pop\n    /* \"#utility.yul\":3744:3973   */\n  swap2\n  swap1\n  pop\n  jump\t// out\n    /* \"#utility.yul\":3979:4311   */\ntag_62:\n  0x00\n    /* \"#utility.yul\":4131:4149   */\n  0xffffffffffffffff\n    /* \"#utility.yul\":4123:4129   */\n  dup3\n    /* \"#utility.yul\":4120:4150   */\n  gt\n    /* \"#utility.yul\":4117:4119   */\n  iszero\n  tag_101\n  jumpi\n    /* \"#utility.yul\":4153:4171   */\n  tag_102\n  tag_96\n  jump\t// in\ntag_102:\n    /* \"#utility.yul\":4117:4119   */\ntag_101:\n    /* \"#utility.yul\":4238:4242   */\n  0x1f\n    /* \"#utility.yul\":4234:4243   */\n  not\n    /* \"#utility.yul\":4227:4231   */\n  0x1f\n    /* \"#utility.yul\":4219:4225   */\n  dup4\n    /* \"#utility.yul\":4215:4232   */\n  add\n    /* \"#utility.yul\":4211:4244   */\n  and\n    /* \"#utility.yul\":4203:4244   */\n  swap1\n  pop\n    /* \"#utility.yul\":4299:4303   */\n  0x20\n    /* \"#utility.yul\":4293:4297   */\n  dup2\n    /* \"#utility.yul\":4289:4304   */\n  add\n    /* \"#utility.yul\":4281:4304   */\n  swap1\n  pop\n    /* \"#utility.yul\":4046:4311   */\n  swap2\n  swap1\n  pop\n  jump\t// out\n    /* \"#utility.yul\":4317:4416   */\ntag_87:\n  0x00\n    /* \"#utility.yul\":4403:4408   */\n  dup2\n    /* \"#utility.yul\":4397:4409   */\n  mload\n    /* \"#utility.yul\":4387:4409   */\n  swap1\n  pop\n    /* \"#utility.yul\":4376:4416   */\n  swap2\n  swap1\n  pop\n  jump\t// out\n    /* \"#utility.yul\":4422:4570   */\ntag_89:\n  0x00\n    /* \"#utility.yul\":4561:4564   */\n  dup2\n    /* \"#utility.yul\":4546:4564   */\n  swap1\n  pop\n    /* \"#utility.yul\":4536:4570   */\n  swap3\n  swap2\n  pop\n  pop\n  jump\t// out\n    /* \"#utility.yul\":4576:4672   */\ntag_105:\n  0x00\n    /* \"#utility.yul\":4642:4666   */\n  tag_107\n    /* \"#utility.yul\":4660:4665   */\n  dup3\n    /* \"#utility.yul\":4642:4666   */\n  tag_108\n  jump\t// in\ntag_107:\n    /* \"#utility.yul\":4631:4666   */\n  swap1\n  pop\n    /* \"#utility.yul\":4621:4672   */\n  swap2\n  swap1\n  pop\n  jump\t// out\n    /* \"#utility.yul\":4678:4804   */\ntag_108:\n  0x00\n    /* \"#utility.yul\":4755:4797   */\n  0xffffffffffffffffffffffffffffffffffffffff\n    /* \"#utility.yul\":4748:4753   */\n  dup3\n    /* \"#utility.yul\":4744:4798   */\n  and\n    /* \"#utility.yul\":4733:4798   */\n  swap1\n  pop\n    /* \"#utility.yul\":4723:4804   */\n  swap2\n  swap1\n  pop\n  jump\t// out\n    /* \"#utility.yul\":4810:4887   */\ntag_110:\n  0x00\n    /* \"#utility.yul\":4876:4881   */\n  dup2\n    /* \"#utility.yul\":4865:4881   */\n  swap1\n  pop\n    /* \"#utility.yul\":4855:4887   */\n  swap2\n  swap1\n  pop\n  jump\t// out\n    /* \"#utility.yul\":4893:5200   */\ntag_65:\n    /* \"#utility.yul\":4961:4962   */\n  0x00\n    /* \"#utility.yul\":4971:5084   */\ntag_113:\n    /* \"#utility.yul\":4985:4991   */\n  dup4\n    /* \"#utility.yul\":4982:4983   */\n  dup2\n    /* \"#utility.yul\":4979:4992   */\n  lt\n    /* \"#utility.yul\":4971:5084   */\n  iszero\n  tag_115\n  jumpi\n    /* \"#utility.yul\":5070:5071   */\n  dup1\n    /* \"#utility.yul\":5065:5068   */\n  dup3\n    /* \"#utility.yul\":5061:5072   */\n  add\n    /* \"#utility.yul\":5055:5073   */\n  mload\n    /* \"#utility.yul\":5051:5052   */\n  dup2\n    /* \"#utility.yul\":5046:5049   */\n  dup5\n    /* \"#utility.yul\":5042:5053   */\n  add\n    /* \"#utility.yul\":5035:5074   */\n  mstore\n    /* \"#utility.yul\":5007:5009   */\n  0x20\n    /* \"#utility.yul\":5004:5005   */\n  dup2\n    /* \"#utility.yul\":5000:5010   */\n  add\n    /* \"#utility.yul\":4995:5010   */\n  swap1\n  pop\n    /* \"#utility.yul\":4971:5084   */\n  jump(tag_113)\ntag_115:\n    /* \"#utility.yul\":5102:5108   */\n  dup4\n    /* \"#utility.yul\":5099:5100   */\n  dup2\n    /* \"#utility.yul\":5096:5109   */\n  gt\n    /* \"#utility.yul\":5093:5095   */\n  iszero\n  tag_116\n  jumpi\n    /* \"#utility.yul\":5182:5183   */\n  0x00\n    /* \"#utility.yul\":5173:5179   */\n  dup5\n    /* \"#utility.yul\":5168:5171   */\n  dup5\n    /* \"#utility.yul\":5164:5180   */\n  add\n    /* \"#utility.yul\":5157:5184   */\n  mstore\n    /* \"#utility.yul\":5093:5095   */\ntag_116:\n    /* \"#utility.yul\":4942:5200   */\n  pop\n  pop\n  pop\n  pop\n  jump\t// out\n    /* \"#utility.yul\":5206:5526   */\ntag_22:\n  0x00\n    /* \"#utility.yul\":5287:5288   */\n  0x02\n    /* \"#utility.yul\":5281:5285   */\n  dup3\n    /* \"#utility.yul\":5277:5289   */\n  div\n    /* \"#utility.yul\":5267:5289   */\n  swap1\n  pop\n    /* \"#utility.yul\":5334:5335   */\n  0x01\n    /* \"#utility.yul\":5328:5332   */\n  dup3\n    /* \"#utility.yul\":5324:5336   */\n  and\n    /* \"#utility.yul\":5355:5373   */\n  dup1\n    /* \"#utility.yul\":5345:5347   */\n  tag_118\n  jumpi\n    /* \"#utility.yul\":5411:5415   */\n  0x7f\n    /* \"#utility.yul\":5403:5409   */\n  dup3\n    /* \"#utility.yul\":5399:5416   */\n  and\n    /* \"#utility.yul\":5389:5416   */\n  swap2\n  pop\n    /* \"#utility.yul\":5345:5347   */\ntag_118:\n    /* \"#utility.yul\":5473:5475   */\n  0x20\n    /* \"#utility.yul\":5465:5471   */\n  dup3\n    /* \"#utility.yul\":5462:5476   */\n  lt\n    /* \"#utility.yul\":5442:5460   */\n  dup2\n    /* \"#utility.yul\":5439:5477   */\n  eq\n    /* \"#utility.yul\":5436:5438   */\n  iszero\n  tag_119\n  jumpi\n    /* \"#utility.yul\":5492:5510   */\n  tag_120\n  tag_121\n  jump\t// in\ntag_120:\n    /* \"#utility.yul\":5436:5438   */\ntag_119:\n    /* \"#utility.yul\":5257:5526   */\n  pop\n  swap2\n  swap1\n  pop\n  jump\t// out\n    /* \"#utility.yul\":5532:5765   */\ntag_18:\n  0x00\n    /* \"#utility.yul\":5594:5618   */\n  tag_123\n    /* \"#utility.yul\":5612:5617   */\n  dup3\n    /* \"#utility.yul\":5594:5618   */\n  tag_110\n  jump\t// in\ntag_123:\n    /* \"#utility.yul\":5585:5618   */\n  swap2\n  pop\n    /* \"#utility.yul\":5640:5706   */\n  0xffffffffffffffffffffffffffffffffffffffffffffffffffffffffffffffff\n    /* \"#utility.yul\":5633:5638   */\n  dup3\n    /* \"#utility.yul\":5630:5707   */\n  eq\n    /* \"#utility.yul\":5627:5629   */\n  iszero\n  tag_124\n  jumpi\n    /* \"#utility.yul\":5710:5728   */\n  tag_125\n  tag_126\n  jump\t// in\ntag_125:\n    /* \"#utility.yul\":5627:5629   */\ntag_124:\n    /* \"#utility.yul\":5757:5758   */\n  0x01\n    /* \"#utility.yul\":5750:5755   */\n  dup3\n    /* \"#utility.yul\":5746:5759   */\n  add\n    /* \"#utility.yul\":5739:5759   */\n  swap1\n  pop\n    /* \"#utility.yul\":5575:5765   */\n  swap2\n  swap1\n  pop\n  jump\t// out\n    /* \"#utility.yul\":5771:5951   */\ntag_126:\n    /* \"#utility.yul\":5819:5896   */\n  0x4e487b7100000000000000000000000000000000000000000000000000000000\n    /* \"#utility.yul\":5816:5817   */\n  0x00\n    /* \"#utility.yul\":5809:5897   */\n  mstore\n    /* \"#utility.yul\":5916:5920   */\n  0x11\n    /* \"#utility.yul\":5913:5914   */\n  0x04\n    /* \"#utility.yul\":5906:5921   */\n  mstore\n    /* \"#utility.yul\":5940:5944   */\n  0x24\n    /* \"#utility.yul\":5937:5938   */\n  0x00\n    /* \"#utility.yul\":5930:5945   */\n  revert\n    /* \"#utility.yul\":5957:6137   */\ntag_121:\n    /* \"#utility.yul\":6005:6082   */\n  0x4e487b7100000000000000000000000000000000000000000000000000000000\n    /* \"#utility.yul\":6002:6003   */\n  0x00\n    /* \"#utility.yul\":5995:6083   */\n  mstore\n    /* \"#utility.yul\":6102:6106   */\n  0x22\n    /* \"#utility.yul\":6099:6100   */\n  0x04\n    /* \"#utility.yul\":6092:6107   */\n  mstore\n    /* \"#utility.yul\":6126:6130   */\n  0x24\n    /* \"#utility.yul\":6123:6124   */\n  0x00\n    /* \"#utility.yul\":6116:6131   */\n  revert\n    /* \"#utility.yul\":6143:6323   */\ntag_96:\n    /* \"#utility.yul\":6191:6268   */\n  0x4e487b7100000000000000000000000000000000000000000000000000000000\n    /* \"#utility.yul\":6188:6189   */\n  0x00\n    /* \"#utility.yul\":6181:6269   */\n  mstore\n    /* \"#utility.yul\":6288:6292   */\n  0x41\n    /* \"#utility.yul\":6285:6286   */\n  0x04\n    /* \"#utility.yul\":6278:6293   */\n  mstore\n    /* \"#utility.yul\":6312:6316   */\n  0x24\n    /* \"#utility.yul\":6309:6310   */\n  0x00\n    /* \"#utility.yul\":6302:6317   */\n  revert\n    /* \"#utility.yul\":6329:6451   */\ntag_69:\n    /* \"#utility.yul\":6402:6426   */\n  tag_131\n    /* \"#utility.yul\":6420:6425   */\n  dup2\n    /* \"#utility.yul\":6402:6426   */\n  tag_105\n  jump\t// in\ntag_131:\n    /* \"#utility.yul\":6395:6400   */\n  dup2\n    /* \"#utility.yul\":6392:6427   */\n  eq\n    /* \"#utility.yul\":6382:6384   */\n  tag_132\n  jumpi\n    /* \"#utility.yul\":6441:6442   */\n  0x00\n    /* \"#utility.yul\":6438:6439   */\n  dup1\n    /* \"#utility.yul\":6431:6443   */\n  revert\n    /* \"#utility.yul\":6382:6384   */\ntag_132:\n    /* \"#utility.yul\":6372:6451   */\n  pop\n  jump\t// out\n    /* \"fileName\":466:1869  contract Election {... */\ntag_20:\n  dataSize(sub_0)\n  dup1\n  dataOffset(sub_0)\n  0x00\n  codecopy\n  0x00\n  return\nstop\n\nsub_0: assembly {\n        /* \"fileName\":466:1869  contract Election {... */\n      mstore(0x40, 0x80)\n      callvalue\n      dup1\n      iszero\n      tag_1\n      jumpi\n      0x00\n      dup1\n      revert\n    tag_1:\n      pop\n      jumpi(tag_2, lt(calldatasize, 0x04))\n      shr(0xe0, calldataload(0x00))\n      dup1\n      0x5fdfbf55\n      gt\n      tag_11\n      jumpi\n      dup1\n      0x5fdfbf55\n      eq\n      tag_7\n      jumpi\n      dup1\n      0x7284e416\n      eq\n      tag_8\n      jumpi\n      dup1\n      0xc3403ddf\n      eq\n      tag_9\n      jumpi\n      dup1\n      0xf0afd295\n      eq\n      tag_10\n      jumpi\n      jump(tag_2)\n    tag_11:\n      dup1\n      0x0121b93f\n      eq\n      tag_3\n      jumpi\n      dup1\n      0x19f41a40\n      eq\n      tag_4\n      jumpi\n      dup1\n      0x4b19721b\n      eq\n      tag_5\n      jumpi\n      dup1\n      0x4d1e73dd\n      eq\n      tag_6\n      jumpi\n    tag_2:\n      0x00\n      dup1\n      revert\n        /* \"fileName\":1105:1285  function vote(uint i) public {... */\n    tag_3:\n      tag_12\n      0x04\n      dup1\n      calldatasize\n      sub\n      dup2\n      add\n      swap1\n      tag_13\n      swap2\n      swap1\n      tag_14\n      jump\t// in\n    tag_13:\n      tag_15\n      jump\t// in\n    tag_12:\n      stop\n        /* \"fileName\":639:671  bool public votingStatus = false */\n    tag_4:\n      tag_16\n      tag_17\n      jump\t// in\n    tag_16:\n      mload(0x40)\n      tag_18\n      swap2\n      swap1\n      tag_19\n      jump\t// in\n    tag_18:\n      mload(0x40)\n      dup1\n      swap2\n      sub\n      swap1\n      return\n        /* \"fileName\":520:544  string[] public candList */\n    tag_5:\n      tag_20\n      0x04\n      dup1\n      calldatasize\n      sub\n      dup2\n      add\n      swap1\n      tag_21\n      swap2\n      swap1\n      tag_14\n      jump\t// in\n    tag_21:\n      tag_22\n      jump\t// in\n    tag_20:\n      mload(0x40)\n      tag_23\n      swap2\n      swap1\n      tag_24\n      jump\t// in\n    tag_23:\n      mload(0x40)\n      dup1\n      swap2\n      sub\n      swap1\n      return\n        /* \"fileName\":490:514  address public ORGANIZER */\n    tag_6:\n      tag_25\n      tag_26\n      jump\t// in\n    tag_25:\n      mload(0x40)\n      tag_27\n      swap2\n      swap1\n      tag_28\n      jump\t// in\n    tag_27:\n      mload(0x40)\n      dup1\n      swap2\n      sub\n      swap1\n      return\n        /* \"fileName\":1648:1767  function winnerCand() public view returns (string memory){... */\n    tag_7:\n      tag_29\n      tag_30\n      jump\t// in\n    tag_29:\n      mload(0x40)\n      tag_31\n      swap2\n      swap1\n      tag_24\n      jump\t// in\n    tag_31:\n      mload(0x40)\n      dup1\n      swap2\n      sub\n      swap1\n      return\n        /* \"fileName\":677:702  string public description */\n    tag_8:\n      tag_32\n      tag_33\n      jump\t// in\n    tag_32:\n      mload(0x40)\n      tag_34\n      swap2\n      swap1\n      tag_24\n      jump\t// in\n    tag_34:\n      mload(0x40)\n      dup1\n      swap2\n      sub\n      swap1\n      return\n        /* \"fileName\":1295:1638  function endVoting() public{... */\n    tag_9:\n      tag_35\n      tag_36\n      jump\t// in\n    tag_35:\n      stop\n        /* \"fileName\":1773:1867  function giveCandList() public view returns (string[] memory) {... */\n    tag_10:\n      tag_37\n      tag_38\n      jump\t// in\n    tag_37:\n      mload(0x40)\n      tag_39\n      swap2\n      swap1\n      tag_40\n      jump\t// in\n    tag_39:\n      mload(0x40)\n      dup1\n      swap2\n      sub\n      swap1\n      return\n        /* \"fileName\":1105:1285  function vote(uint i) public {... */\n    tag_15:\n        /* \"fileName\":1152:1164  votingStatus */\n      0x04\n      0x00\n      swap1\n      sload\n      swap1\n      0x0100\n      exp\n      swap1\n      div\n      0xff\n      and\n        /* \"fileName\":1144:1165  require(votingStatus) */\n      tag_42\n      jumpi\n      0x00\n      dup1\n      revert\n    tag_42:\n        /* \"fileName\":1184:1192  hasVoted */\n      0x03\n        /* \"fileName\":1184:1204  hasVoted[msg.sender] */\n      0x00\n        /* \"fileName\":1193:1203  msg.sender */\n      caller\n        /* \"fileName\":1184:1204  hasVoted[msg.sender] */\n      0xffffffffffffffffffffffffffffffffffffffff\n      and\n      0xffffffffffffffffffffffffffffffffffffffff\n      and\n      dup2\n      mstore\n      0x20\n      add\n      swap1\n      dup2\n      mstore\n      0x20\n      add\n      0x00\n      keccak256\n      0x00\n      swap1\n      sload\n      swap1\n      0x0100\n      exp\n      swap1\n      div\n      0xff\n      and\n        /* \"fileName\":1183:1204  !hasVoted[msg.sender] */\n      iszero\n        /* \"fileName\":1175:1205  require(!hasVoted[msg.sender]) */\n      tag_43\n      jumpi\n      0x00\n      dup1\n      revert\n    tag_43:\n        /* \"fileName\":1239:1243  true */\n      0x01\n        /* \"fileName\":1216:1224  hasVoted */\n      0x03\n        /* \"fileName\":1216:1236  hasVoted[msg.sender] */\n      0x00\n        /* \"fileName\":1225:1235  msg.sender */\n      caller\n        /* \"fileName\":1216:1236  hasVoted[msg.sender] */\n      0xffffffffffffffffffffffffffffffffffffffff\n      and\n      0xffffffffffffffffffffffffffffffffffffffff\n      and\n      dup2\n      mstore\n      0x20\n      add\n      swap1\n      dup2\n      mstore\n      0x20\n      add\n      0x00\n      keccak256\n      0x00\n        /* \"fileName\":1216:1243  hasVoted[msg.sender] = true */\n      0x0100\n      exp\n      dup2\n      sload\n      dup2\n      0xff\n      mul\n      not\n      and\n      swap1\n      dup4\n      iszero\n      iszero\n      mul\n      or\n      swap1\n      sstore\n      pop\n        /* \"fileName\":1253:1263  totalVotes */\n      0x02\n        /* \"fileName\":1264:1272  candList */\n      0x01\n        /* \"fileName\":1273:1274  i */\n      dup3\n        /* \"fileName\":1264:1275  candList[i] */\n      dup2\n      sload\n      dup2\n      lt\n      tag_44\n      jumpi\n      mstore(0x00, 0x4e487b7100000000000000000000000000000000000000000000000000000000)\n      mstore(0x04, 0x32)\n      revert(0x00, 0x24)\n    tag_44:\n      swap1\n      0x00\n      mstore\n      keccak256(0x00, 0x20)\n      add\n        /* \"fileName\":1253:1276  totalVotes[candList[i]] */\n      mload(0x40)\n      tag_46\n      swap2\n      swap1\n      tag_47\n      jump\t// in\n    tag_46:\n      swap1\n      dup2\n      mstore\n      0x20\n      add\n      mload(0x40)\n      dup1\n      swap2\n      sub\n      swap1\n      keccak256\n      0x00\n        /* \"fileName\":1253:1278  totalVotes[candList[i]]++ */\n      dup2\n      sload\n      dup1\n      swap3\n      swap2\n      swap1\n      tag_48\n      swap1\n      tag_49\n      jump\t// in\n    tag_48:\n      swap2\n      swap1\n      pop\n      sstore\n      pop\n        /* \"fileName\":1105:1285  function vote(uint i) public {... */\n      pop\n      jump\t// out\n        /* \"fileName\":639:671  bool public votingStatus = false */\n    tag_17:\n      0x04\n      0x00\n      swap1\n      sload\n      swap1\n      0x0100\n      exp\n      swap1\n      div\n      0xff\n      and\n      dup2\n      jump\t// out\n        /* \"fileName\":520:544  string[] public candList */\n    tag_22:\n      0x01\n      dup2\n      dup2\n      sload\n      dup2\n      lt\n      tag_50\n      jumpi\n      0x00\n      dup1\n      revert\n    tag_50:\n      swap1\n      0x00\n      mstore\n      keccak256(0x00, 0x20)\n      add\n      0x00\n      swap2\n      pop\n      swap1\n      pop\n      dup1\n      sload\n      tag_52\n      swap1\n      tag_53\n      jump\t// in\n    tag_52:\n      dup1\n      0x1f\n      add\n      0x20\n      dup1\n      swap2\n      div\n      mul\n      0x20\n      add\n      mload(0x40)\n      swap1\n      dup2\n      add\n      0x40\n      mstore\n      dup1\n      swap3\n      swap2\n      swap1\n      dup2\n      dup2\n      mstore\n      0x20\n      add\n      dup3\n      dup1\n      sload\n      tag_54\n      swap1\n      tag_53\n      jump\t// in\n    tag_54:\n      dup1\n      iszero\n      tag_55\n      jumpi\n      dup1\n      0x1f\n      lt\n      tag_56\n      jumpi\n      0x0100\n      dup1\n      dup4\n      sload\n      div\n      mul\n      dup4\n      mstore\n      swap2\n      0x20\n      add\n      swap2\n      jump(tag_55)\n    tag_56:\n      dup3\n      add\n      swap2\n      swap1\n      0x00\n      mstore\n      keccak256(0x00, 0x20)\n      swap1\n    tag_57:\n      dup2\n      sload\n      dup2\n      mstore\n      swap1\n      0x01\n      add\n      swap1\n      0x20\n      add\n      dup1\n      dup4\n      gt\n      tag_57\n      jumpi\n      dup3\n      swap1\n      sub\n      0x1f\n      and\n      dup3\n      add\n      swap2\n    tag_55:\n      pop\n      pop\n      pop\n      pop\n      pop\n      dup2\n      jump\t// out\n        /* \"fileName\":490:514  address public ORGANIZER */\n    tag_26:\n      0x00\n      dup1\n      sload\n      swap1\n      0x0100\n      exp\n      swap1\n      div\n      0xffffffffffffffffffffffffffffffffffffffff\n      and\n      dup2\n      jump\t// out\n        /* \"fileName\":1648:1767  function winnerCand() public view returns (string memory){... */\n    tag_30:\n        /* \"fileName\":1691:1704  string memory */\n      0x60\n        /* \"fileName\":1724:1736  votingStatus */\n      0x04\n      0x00\n      swap1\n      sload\n      swap1\n      0x0100\n      exp\n      swap1\n      div\n      0xff\n      and\n        /* \"fileName\":1723:1736  !votingStatus */\n      iszero\n        /* \"fileName\":1715:1737  require(!votingStatus) */\n      tag_59\n      jumpi\n      0x00\n      dup1\n      revert\n    tag_59:\n        /* \"fileName\":1754:1760  winner */\n      0x06\n        /* \"fileName\":1747:1760  return winner */\n      dup1\n      sload\n      tag_60\n      swap1\n      tag_53\n      jump\t// in\n    tag_60:\n      dup1\n      0x1f\n      add\n      0x20\n      dup1\n      swap2\n      div\n      mul\n      0x20\n      add\n      mload(0x40)\n      swap1\n      dup2\n      add\n      0x40\n      mstore\n      dup1\n      swap3\n      swap2\n      swap1\n      dup2\n      dup2\n      mstore\n      0x20\n      add\n      dup3\n      dup1\n      sload\n      tag_61\n      swap1\n      tag_53\n      jump\t// in\n    tag_61:\n      dup1\n      iszero\n      tag_62\n      jumpi\n      dup1\n      0x1f\n      lt\n      tag_63\n      jumpi\n      0x0100\n      dup1\n      dup4\n      sload\n      div\n      mul\n      dup4\n      mstore\n      swap2\n      0x20\n      add\n      swap2\n      jump(tag_62)\n    tag_63:\n      dup3\n      add\n      swap2\n      swap1\n      0x00\n      mstore\n      keccak256(0x00, 0x20)\n      swap1\n    tag_64:\n      dup2\n      sload\n      dup2\n      mstore\n      swap1\n      0x01\n      add\n      swap1\n      0x20\n      add\n      dup1\n      dup4\n      gt\n      tag_64\n      jumpi\n      dup3\n      swap1\n      sub\n      0x1f\n      and\n      dup3\n      add\n      swap2\n    tag_62:\n      pop\n      pop\n      pop\n      pop\n      pop\n      swap1\n      pop\n        /* \"fileName\":1648:1767  function winnerCand() public view returns (string memory){... */\n      swap1\n      jump\t// out\n        /* \"fileName\":677:702  string public description */\n    tag_33:\n      0x05\n      dup1\n      sload\n      tag_65\n      swap1\n      tag_53\n      jump\t// in\n    tag_65:\n      dup1\n      0x1f\n      add\n      0x20\n      dup1\n      swap2\n      div\n      mul\n      0x20\n      add\n      mload(0x40)\n      swap1\n      dup2\n      add\n      0x40\n      mstore\n      dup1\n      swap3\n      swap2\n      swap1\n      dup2\n      dup2\n      mstore\n      0x20\n      add\n      dup3\n      dup1\n      sload\n      tag_66\n      swap1\n      tag_53\n      jump\t// in\n    tag_66:\n      dup1\n      iszero\n      tag_67\n      jumpi\n      dup1\n      0x1f\n      lt\n      tag_68\n      jumpi\n      0x0100\n      dup1\n      dup4\n      sload\n      div\n      mul\n      dup4\n      mstore\n      swap2\n      0x20\n      add\n      swap2\n      jump(tag_67)\n    tag_68:\n      dup3\n      add\n      swap2\n      swap1\n      0x00\n      mstore\n      keccak256(0x00, 0x20)\n      swap1\n    tag_69:\n      dup2\n      sload\n      dup2\n      mstore\n      swap1\n      0x01\n      add\n      swap1\n      0x20\n      add\n      dup1\n      dup4\n      gt\n      tag_69\n      jumpi\n      dup3\n      swap1\n      sub\n      0x1f\n      and\n      dup3\n      add\n      swap2\n    tag_67:\n      pop\n      pop\n      pop\n      pop\n      pop\n      dup2\n      jump\t// out\n        /* \"fileName\":1295:1638  function endVoting() public{... */\n    tag_36:\n        /* \"fileName\":1340:1352  votingStatus */\n      0x04\n      0x00\n      swap1\n      sload\n      swap1\n      0x0100\n      exp\n      swap1\n      div\n      0xff\n      and\n        /* \"fileName\":1332:1353  require(votingStatus) */\n      tag_71\n      jumpi\n      0x00\n      dup1\n      revert\n    tag_71:\n        /* \"fileName\":1385:1394  ORGANIZER */\n      0x00\n      dup1\n      sload\n      swap1\n      0x0100\n      exp\n      swap1\n      div\n      0xffffffffffffffffffffffffffffffffffffffff\n      and\n        /* \"fileName\":1371:1394  msg.sender == ORGANIZER */\n      0xffffffffffffffffffffffffffffffffffffffff\n      and\n        /* \"fileName\":1371:1381  msg.sender */\n      caller\n        /* \"fileName\":1371:1394  msg.sender == ORGANIZER */\n      0xffffffffffffffffffffffffffffffffffffffff\n      and\n      eq\n        /* \"fileName\":1363:1395  require(msg.sender == ORGANIZER) */\n      tag_72\n      jumpi\n      0x00\n      dup1\n      revert\n    tag_72:\n        /* \"fileName\":1410:1416  uint i */\n      0x00\n        /* \"fileName\":1406:1570  for(uint i = 0; i<candList.length; i++){... */\n    tag_73:\n        /* \"fileName\":1424:1432  candList */\n      0x01\n        /* \"fileName\":1424:1439  candList.length */\n      dup1\n      sload\n      swap1\n      pop\n        /* \"fileName\":1422:1423  i */\n      dup2\n        /* \"fileName\":1422:1439  i<candList.length */\n      lt\n        /* \"fileName\":1406:1570  for(uint i = 0; i<candList.length; i++){... */\n      iszero\n      tag_74\n      jumpi\n        /* \"fileName\":1488:1498  totalVotes */\n      0x02\n        /* \"fileName\":1499:1505  winner */\n      0x06\n        /* \"fileName\":1488:1506  totalVotes[winner] */\n      mload(0x40)\n      tag_76\n      swap2\n      swap1\n      tag_47\n      jump\t// in\n    tag_76:\n      swap1\n      dup2\n      mstore\n      0x20\n      add\n      mload(0x40)\n      dup1\n      swap2\n      sub\n      swap1\n      keccak256\n      sload\n        /* \"fileName\":1462:1472  totalVotes */\n      0x02\n        /* \"fileName\":1473:1481  candList */\n      0x01\n        /* \"fileName\":1482:1483  i */\n      dup4\n        /* \"fileName\":1473:1484  candList[i] */\n      dup2\n      sload\n      dup2\n      lt\n      tag_77\n      jumpi\n      mstore(0x00, 0x4e487b7100000000000000000000000000000000000000000000000000000000)\n      mstore(0x04, 0x32)\n      revert(0x00, 0x24)\n    tag_77:\n      swap1\n      0x00\n      mstore\n      keccak256(0x00, 0x20)\n      add\n        /* \"fileName\":1462:1485  totalVotes[candList[i]] */\n      mload(0x40)\n      tag_79\n      swap2\n      swap1\n      tag_47\n      jump\t// in\n    tag_79:\n      swap1\n      dup2\n      mstore\n      0x20\n      add\n      mload(0x40)\n      dup1\n      swap2\n      sub\n      swap1\n      keccak256\n      sload\n        /* \"fileName\":1462:1506  totalVotes[candList[i]] > totalVotes[winner] */\n      gt\n        /* \"fileName\":1459:1560  if(totalVotes[candList[i]] > totalVotes[winner]){... */\n      iszero\n      tag_80\n      jumpi\n        /* \"fileName\":1534:1542  candList */\n      0x01\n        /* \"fileName\":1543:1544  i */\n      dup2\n        /* \"fileName\":1534:1545  candList[i] */\n      dup2\n      sload\n      dup2\n      lt\n      tag_81\n      jumpi\n      mstore(0x00, 0x4e487b7100000000000000000000000000000000000000000000000000000000)\n      mstore(0x04, 0x32)\n      revert(0x00, 0x24)\n    tag_81:\n      swap1\n      0x00\n      mstore\n      keccak256(0x00, 0x20)\n      add\n        /* \"fileName\":1525:1531  winner */\n      0x06\n        /* \"fileName\":1525:1545  winner = candList[i] */\n      swap1\n      dup1\n      sload\n      tag_83\n      swap1\n      tag_53\n      jump\t// in\n    tag_83:\n      tag_84\n      swap3\n      swap2\n      swap1\n      tag_85\n      jump\t// in\n    tag_84:\n      pop\n        /* \"fileName\":1459:1560  if(totalVotes[candList[i]] > totalVotes[winner]){... */\n    tag_80:\n        /* \"fileName\":1441:1444  i++ */\n      dup1\n      dup1\n      tag_86\n      swap1\n      tag_49\n      jump\t// in\n    tag_86:\n      swap2\n      pop\n      pop\n        /* \"fileName\":1406:1570  for(uint i = 0; i<candList.length; i++){... */\n      jump(tag_73)\n    tag_74:\n      pop\n        /* \"fileName\":1594:1599  false */\n      0x00\n        /* \"fileName\":1579:1591  votingStatus */\n      0x04\n      0x00\n        /* \"fileName\":1579:1599  votingStatus = false */\n      0x0100\n      exp\n      dup2\n      sload\n      dup2\n      0xff\n      mul\n      not\n      and\n      swap1\n      dup4\n      iszero\n      iszero\n      mul\n      or\n      swap1\n      sstore\n      pop\n        /* \"fileName\":1629:1630  0 */\n      0x00\n        /* \"fileName\":1609:1618  ORGANIZER */\n      dup1\n      0x00\n        /* \"fileName\":1609:1631  ORGANIZER = address(0) */\n      0x0100\n      exp\n      dup2\n      sload\n      dup2\n      0xffffffffffffffffffffffffffffffffffffffff\n      mul\n      not\n      and\n      swap1\n      dup4\n      0xffffffffffffffffffffffffffffffffffffffff\n      and\n      mul\n      or\n      swap1\n      sstore\n      pop\n        /* \"fileName\":1295:1638  function endVoting() public{... */\n      jump\t// out\n        /* \"fileName\":1773:1867  function giveCandList() public view returns (string[] memory) {... */\n    tag_38:\n        /* \"fileName\":1818:1833  string[] memory */\n      0x60\n        /* \"fileName\":1852:1860  candList */\n      0x01\n        /* \"fileName\":1845:1860  return candList */\n      dup1\n      sload\n      dup1\n      0x20\n      mul\n      0x20\n      add\n      mload(0x40)\n      swap1\n      dup2\n      add\n      0x40\n      mstore\n      dup1\n      swap3\n      swap2\n      swap1\n      dup2\n      dup2\n      mstore\n      0x20\n      add\n      0x00\n      swap1\n    tag_88:\n      dup3\n      dup3\n      lt\n      iszero\n      tag_89\n      jumpi\n      dup4\n      dup3\n      swap1\n      0x00\n      mstore\n      keccak256(0x00, 0x20)\n      add\n      dup1\n      sload\n      tag_91\n      swap1\n      tag_53\n      jump\t// in\n    tag_91:\n      dup1\n      0x1f\n      add\n      0x20\n      dup1\n      swap2\n      div\n      mul\n      0x20\n      add\n      mload(0x40)\n      swap1\n      dup2\n      add\n      0x40\n      mstore\n      dup1\n      swap3\n      swap2\n      swap1\n      dup2\n      dup2\n      mstore\n      0x20\n      add\n      dup3\n      dup1\n      sload\n      tag_92\n      swap1\n      tag_53\n      jump\t// in\n    tag_92:\n      dup1\n      iszero\n      tag_93\n      jumpi\n      dup1\n      0x1f\n      lt\n      tag_94\n      jumpi\n      0x0100\n      dup1\n      dup4\n      sload\n      div\n      mul\n      dup4\n      mstore\n      swap2\n      0x20\n      add\n      swap2\n      jump(tag_93)\n    tag_94:\n      dup3\n      add\n      swap2\n      swap1\n      0x00\n      mstore\n      keccak256(0x00, 0x20)\n      swap1\n    tag_95:\n      dup2\n      sload\n      dup2\n      mstore\n      swap1\n      0x01\n      add\n      swap1\n      0x20\n      add\n      dup1\n      dup4\n      gt\n      tag_95\n      jumpi\n      dup3\n      swap1\n      sub\n      0x1f\n      and\n      dup3\n      add\n      swap2\n    tag_93:\n      pop\n      pop\n      pop\n      pop\n      pop\n      dup2\n      mstore\n      0x20\n      add\n      swap1\n      0x01\n      add\n      swap1\n      jump(tag_88)\n    tag_89:\n      pop\n      pop\n      pop\n      pop\n      swap1\n      pop\n        /* \"fileName\":1773:1867  function giveCandList() public view returns (string[] memory) {... */\n      swap1\n      jump\t// out\n    tag_85:\n      dup3\n      dup1\n      sload\n      tag_96\n      swap1\n      tag_53\n      jump\t// in\n    tag_96:\n      swap1\n      0x00\n      mstore\n      keccak256(0x00, 0x20)\n      swap1\n      0x1f\n      add\n      0x20\n      swap1\n      div\n      dup2\n      add\n      swap3\n      dup3\n      tag_98\n      jumpi\n      0x00\n      dup6\n      sstore\n      jump(tag_97)\n    tag_98:\n      dup3\n      0x1f\n      lt\n      tag_99\n      jumpi\n      dup1\n      sload\n      dup6\n      sstore\n      jump(tag_97)\n    tag_99:\n      dup3\n      dup1\n      add\n      0x01\n      add\n      dup6\n      sstore\n      dup3\n      iszero\n      tag_97\n      jumpi\n      0x00\n      mstore\n      keccak256(0x00, 0x20)\n      swap2\n      0x1f\n      add\n      0x20\n      swap1\n      div\n      dup3\n      add\n    tag_100:\n      dup3\n      dup2\n      gt\n      iszero\n      tag_101\n      jumpi\n      dup3\n      sload\n      dup3\n      sstore\n      swap2\n      0x01\n      add\n      swap2\n      swap1\n      0x01\n      add\n      swap1\n      jump(tag_100)\n    tag_101:\n    tag_97:\n      pop\n      swap1\n      pop\n      tag_102\n      swap2\n      swap1\n      tag_103\n      jump\t// in\n    tag_102:\n      pop\n      swap1\n      jump\t// out\n    tag_103:\n    tag_104:\n      dup1\n      dup3\n      gt\n      iszero\n      tag_105\n      jumpi\n      0x00\n      dup2\n      0x00\n      swap1\n      sstore\n      pop\n      0x01\n      add\n      jump(tag_104)\n    tag_105:\n      pop\n      swap1\n      jump\t// out\n        /* \"#utility.yul\":7:146   */\n    tag_107:\n      0x00\n        /* \"#utility.yul\":91:97   */\n      dup2\n        /* \"#utility.yul\":78:98   */\n      calldataload\n        /* \"#utility.yul\":69:98   */\n      swap1\n      pop\n        /* \"#utility.yul\":107:140   */\n      tag_109\n        /* \"#utility.yul\":134:139   */\n      dup2\n        /* \"#utility.yul\":107:140   */\n      tag_110\n      jump\t// in\n    tag_109:\n        /* \"#utility.yul\":59:146   */\n      swap3\n      swap2\n      pop\n      pop\n      jump\t// out\n        /* \"#utility.yul\":152:414   */\n    tag_14:\n      0x00\n        /* \"#utility.yul\":260:262   */\n      0x20\n        /* \"#utility.yul\":248:257   */\n      dup3\n        /* \"#utility.yul\":239:246   */\n      dup5\n        /* \"#utility.yul\":235:258   */\n      sub\n        /* \"#utility.yul\":231:263   */\n      slt\n        /* \"#utility.yul\":228:230   */\n      iszero\n      tag_112\n      jumpi\n        /* \"#utility.yul\":276:277   */\n      0x00\n        /* \"#utility.yul\":273:274   */\n      dup1\n        /* \"#utility.yul\":266:278   */\n      revert\n        /* \"#utility.yul\":228:230   */\n    tag_112:\n        /* \"#utility.yul\":319:320   */\n      0x00\n        /* \"#utility.yul\":344:397   */\n      tag_113\n        /* \"#utility.yul\":389:396   */\n      dup5\n        /* \"#utility.yul\":380:386   */\n      dup3\n        /* \"#utility.yul\":369:378   */\n      dup6\n        /* \"#utility.yul\":365:387   */\n      add\n        /* \"#utility.yul\":344:397   */\n      tag_107\n      jump\t// in\n    tag_113:\n        /* \"#utility.yul\":334:397   */\n      swap2\n      pop\n        /* \"#utility.yul\":290:407   */\n      pop\n        /* \"#utility.yul\":218:414   */\n      swap3\n      swap2\n      pop\n      pop\n      jump\t// out\n        /* \"#utility.yul\":420:616   */\n    tag_114:\n      0x00\n        /* \"#utility.yul\":544:610   */\n      tag_116\n        /* \"#utility.yul\":606:609   */\n      dup4\n        /* \"#utility.yul\":598:604   */\n      dup4\n        /* \"#utility.yul\":544:610   */\n      tag_117\n      jump\t// in\n    tag_116:\n        /* \"#utility.yul\":530:610   */\n      swap1\n      pop\n        /* \"#utility.yul\":520:616   */\n      swap3\n      swap2\n      pop\n      pop\n      jump\t// out\n        /* \"#utility.yul\":622:740   */\n    tag_118:\n        /* \"#utility.yul\":709:733   */\n      tag_120\n        /* \"#utility.yul\":727:732   */\n      dup2\n        /* \"#utility.yul\":709:733   */\n      tag_121\n      jump\t// in\n    tag_120:\n        /* \"#utility.yul\":704:707   */\n      dup3\n        /* \"#utility.yul\":697:734   */\n      mstore\n        /* \"#utility.yul\":687:740   */\n      pop\n      pop\n      jump\t// out\n        /* \"#utility.yul\":774:1765   */\n    tag_122:\n      0x00\n        /* \"#utility.yul\":942:1006   */\n      tag_124\n        /* \"#utility.yul\":1000:1005   */\n      dup3\n        /* \"#utility.yul\":942:1006   */\n      tag_125\n      jump\t// in\n    tag_124:\n        /* \"#utility.yul\":1022:1118   */\n      tag_126\n        /* \"#utility.yul\":1111:1117   */\n      dup2\n        /* \"#utility.yul\":1106:1109   */\n      dup6\n        /* \"#utility.yul\":1022:1118   */\n      tag_127\n      jump\t// in\n    tag_126:\n        /* \"#utility.yul\":1015:1118   */\n      swap4\n      pop\n        /* \"#utility.yul\":1144:1147   */\n      dup4\n        /* \"#utility.yul\":1189:1193   */\n      0x20\n        /* \"#utility.yul\":1181:1187   */\n      dup3\n        /* \"#utility.yul\":1177:1194   */\n      mul\n        /* \"#utility.yul\":1172:1175   */\n      dup6\n        /* \"#utility.yul\":1168:1195   */\n      add\n        /* \"#utility.yul\":1219:1285   */\n      tag_128\n        /* \"#utility.yul\":1279:1284   */\n      dup6\n        /* \"#utility.yul\":1219:1285   */\n      tag_129\n      jump\t// in\n    tag_128:\n        /* \"#utility.yul\":1308:1315   */\n      dup1\n        /* \"#utility.yul\":1339:1340   */\n      0x00\n        /* \"#utility.yul\":1324:1720   */\n    tag_130:\n        /* \"#utility.yul\":1349:1355   */\n      dup6\n        /* \"#utility.yul\":1346:1347   */\n      dup2\n        /* \"#utility.yul\":1343:1356   */\n      lt\n        /* \"#utility.yul\":1324:1720   */\n      iszero\n      tag_132\n      jumpi\n        /* \"#utility.yul\":1420:1429   */\n      dup5\n        /* \"#utility.yul\":1414:1418   */\n      dup5\n        /* \"#utility.yul\":1410:1430   */\n      sub\n        /* \"#utility.yul\":1405:1408   */\n      dup10\n        /* \"#utility.yul\":1398:1431   */\n      mstore\n        /* \"#utility.yul\":1471:1477   */\n      dup2\n        /* \"#utility.yul\":1465:1478   */\n      mload\n        /* \"#utility.yul\":1499:1583   */\n      tag_133\n        /* \"#utility.yul\":1578:1582   */\n      dup6\n        /* \"#utility.yul\":1563:1576   */\n      dup3\n        /* \"#utility.yul\":1499:1583   */\n      tag_114\n      jump\t// in\n    tag_133:\n        /* \"#utility.yul\":1491:1583   */\n      swap5\n      pop\n        /* \"#utility.yul\":1606:1676   */\n      tag_134\n        /* \"#utility.yul\":1669:1675   */\n      dup4\n        /* \"#utility.yul\":1606:1676   */\n      tag_135\n      jump\t// in\n    tag_134:\n        /* \"#utility.yul\":1596:1676   */\n      swap3\n      pop\n        /* \"#utility.yul\":1705:1709   */\n      0x20\n        /* \"#utility.yul\":1700:1703   */\n      dup11\n        /* \"#utility.yul\":1696:1710   */\n      add\n        /* \"#utility.yul\":1689:1710   */\n      swap10\n      pop\n        /* \"#utility.yul\":1384:1720   */\n      pop\n        /* \"#utility.yul\":1371:1372   */\n      0x01\n        /* \"#utility.yul\":1368:1369   */\n      dup2\n        /* \"#utility.yul\":1364:1373   */\n      add\n        /* \"#utility.yul\":1359:1373   */\n      swap1\n      pop\n        /* \"#utility.yul\":1324:1720   */\n      jump(tag_130)\n    tag_132:\n        /* \"#utility.yul\":1328:1342   */\n      pop\n        /* \"#utility.yul\":1736:1740   */\n      dup3\n        /* \"#utility.yul\":1729:1740   */\n      swap8\n      pop\n        /* \"#utility.yul\":1756:1759   */\n      dup8\n        /* \"#utility.yul\":1749:1759   */\n      swap6\n      pop\n        /* \"#utility.yul\":918:1765   */\n      pop\n      pop\n      pop\n      pop\n      pop\n      swap3\n      swap2\n      pop\n      pop\n      jump\t// out\n        /* \"#utility.yul\":1771:1880   */\n    tag_136:\n        /* \"#utility.yul\":1852:1873   */\n      tag_138\n        /* \"#utility.yul\":1867:1872   */\n      dup2\n        /* \"#utility.yul\":1852:1873   */\n      tag_139\n      jump\t// in\n    tag_138:\n        /* \"#utility.yul\":1847:1850   */\n      dup3\n        /* \"#utility.yul\":1840:1874   */\n      mstore\n        /* \"#utility.yul\":1830:1880   */\n      pop\n      pop\n      jump\t// out\n        /* \"#utility.yul\":1886:2230   */\n    tag_117:\n      0x00\n        /* \"#utility.yul\":1992:2031   */\n      tag_141\n        /* \"#utility.yul\":2025:2030   */\n      dup3\n        /* \"#utility.yul\":1992:2031   */\n      tag_142\n      jump\t// in\n    tag_141:\n        /* \"#utility.yul\":2047:2108   */\n      tag_143\n        /* \"#utility.yul\":2101:2107   */\n      dup2\n        /* \"#utility.yul\":2096:2099   */\n      dup6\n        /* \"#utility.yul\":2047:2108   */\n      tag_144\n      jump\t// in\n    tag_143:\n        /* \"#utility.yul\":2040:2108   */\n      swap4\n      pop\n        /* \"#utility.yul\":2117:2169   */\n      tag_145\n        /* \"#utility.yul\":2162:2168   */\n      dup2\n        /* \"#utility.yul\":2157:2160   */\n      dup6\n        /* \"#utility.yul\":2150:2154   */\n      0x20\n        /* \"#utility.yul\":2143:2148   */\n      dup7\n        /* \"#utility.yul\":2139:2155   */\n      add\n        /* \"#utility.yul\":2117:2169   */\n      tag_146\n      jump\t// in\n    tag_145:\n        /* \"#utility.yul\":2194:2223   */\n      tag_147\n        /* \"#utility.yul\":2216:2222   */\n      dup2\n        /* \"#utility.yul\":2194:2223   */\n      tag_148\n      jump\t// in\n    tag_147:\n        /* \"#utility.yul\":2189:2192   */\n      dup5\n        /* \"#utility.yul\":2185:2224   */\n      add\n        /* \"#utility.yul\":2178:2224   */\n      swap2\n      pop\n        /* \"#utility.yul\":1968:2230   */\n      pop\n      swap3\n      swap2\n      pop\n      pop\n      jump\t// out\n        /* \"#utility.yul\":2236:2600   */\n    tag_149:\n      0x00\n        /* \"#utility.yul\":2352:2391   */\n      tag_151\n        /* \"#utility.yul\":2385:2390   */\n      dup3\n        /* \"#utility.yul\":2352:2391   */\n      tag_142\n      jump\t// in\n    tag_151:\n        /* \"#utility.yul\":2407:2478   */\n      tag_152\n        /* \"#utility.yul\":2471:2477   */\n      dup2\n        /* \"#utility.yul\":2466:2469   */\n      dup6\n        /* \"#utility.yul\":2407:2478   */\n      tag_153\n      jump\t// in\n    tag_152:\n        /* \"#utility.yul\":2400:2478   */\n      swap4\n      pop\n        /* \"#utility.yul\":2487:2539   */\n      tag_154\n        /* \"#utility.yul\":2532:2538   */\n      dup2\n        /* \"#utility.yul\":2527:2530   */\n      dup6\n        /* \"#utility.yul\":2520:2524   */\n      0x20\n        /* \"#utility.yul\":2513:2518   */\n      dup7\n        /* \"#utility.yul\":2509:2525   */\n      add\n        /* \"#utility.yul\":2487:2539   */\n      tag_146\n      jump\t// in\n    tag_154:\n        /* \"#utility.yul\":2564:2593   */\n      tag_155\n        /* \"#utility.yul\":2586:2592   */\n      dup2\n        /* \"#utility.yul\":2564:2593   */\n      tag_148\n      jump\t// in\n    tag_155:\n        /* \"#utility.yul\":2559:2562   */\n      dup5\n        /* \"#utility.yul\":2555:2594   */\n      add\n        /* \"#utility.yul\":2548:2594   */\n      swap2\n      pop\n        /* \"#utility.yul\":2328:2600   */\n      pop\n      swap3\n      swap2\n      pop\n      pop\n      jump\t// out\n        /* \"#utility.yul\":2630:3475   */\n    tag_156:\n      0x00\n        /* \"#utility.yul\":2770:2775   */\n      dup2\n        /* \"#utility.yul\":2764:2776   */\n      sload\n        /* \"#utility.yul\":2799:2835   */\n      tag_158\n        /* \"#utility.yul\":2825:2834   */\n      dup2\n        /* \"#utility.yul\":2799:2835   */\n      tag_53\n      jump\t// in\n    tag_158:\n        /* \"#utility.yul\":2851:2940   */\n      tag_159\n        /* \"#utility.yul\":2933:2939   */\n      dup2\n        /* \"#utility.yul\":2928:2931   */\n      dup7\n        /* \"#utility.yul\":2851:2940   */\n      tag_160\n      jump\t// in\n    tag_159:\n        /* \"#utility.yul\":2844:2940   */\n      swap5\n      pop\n        /* \"#utility.yul\":2971:2972   */\n      0x01\n        /* \"#utility.yul\":2960:2969   */\n      dup3\n        /* \"#utility.yul\":2956:2973   */\n      and\n        /* \"#utility.yul\":2987:2988   */\n      0x00\n        /* \"#utility.yul\":2982:3119   */\n      dup2\n      eq\n      tag_162\n      jumpi\n        /* \"#utility.yul\":3133:3134   */\n      0x01\n        /* \"#utility.yul\":3128:3469   */\n      dup2\n      eq\n      tag_163\n      jumpi\n        /* \"#utility.yul\":2949:3469   */\n      jump(tag_161)\n        /* \"#utility.yul\":2982:3119   */\n    tag_162:\n        /* \"#utility.yul\":3066:3070   */\n      0xff\n        /* \"#utility.yul\":3062:3071   */\n      not\n        /* \"#utility.yul\":3051:3060   */\n      dup4\n        /* \"#utility.yul\":3047:3072   */\n      and\n        /* \"#utility.yul\":3042:3045   */\n      dup7\n        /* \"#utility.yul\":3035:3073   */\n      mstore\n        /* \"#utility.yul\":3102:3108   */\n      dup2\n        /* \"#utility.yul\":3097:3100   */\n      dup7\n        /* \"#utility.yul\":3093:3109   */\n      add\n        /* \"#utility.yul\":3086:3109   */\n      swap4\n      pop\n        /* \"#utility.yul\":2982:3119   */\n      jump(tag_161)\n        /* \"#utility.yul\":3128:3469   */\n    tag_163:\n        /* \"#utility.yul\":3195:3233   */\n      tag_164\n        /* \"#utility.yul\":3227:3232   */\n      dup6\n        /* \"#utility.yul\":3195:3233   */\n      tag_165\n      jump\t// in\n    tag_164:\n        /* \"#utility.yul\":3255:3256   */\n      0x00\n        /* \"#utility.yul\":3269:3423   */\n    tag_166:\n        /* \"#utility.yul\":3283:3289   */\n      dup4\n        /* \"#utility.yul\":3280:3281   */\n      dup2\n        /* \"#utility.yul\":3277:3290   */\n      lt\n        /* \"#utility.yul\":3269:3423   */\n      iszero\n      tag_168\n      jumpi\n        /* \"#utility.yul\":3357:3364   */\n      dup2\n        /* \"#utility.yul\":3351:3365   */\n      sload\n        /* \"#utility.yul\":3347:3348   */\n      dup2\n        /* \"#utility.yul\":3342:3345   */\n      dup10\n        /* \"#utility.yul\":3338:3349   */\n      add\n        /* \"#utility.yul\":3331:3366   */\n      mstore\n        /* \"#utility.yul\":3407:3408   */\n      0x01\n        /* \"#utility.yul\":3398:3405   */\n      dup3\n        /* \"#utility.yul\":3394:3409   */\n      add\n        /* \"#utility.yul\":3383:3409   */\n      swap2\n      pop\n        /* \"#utility.yul\":3305:3309   */\n      0x20\n        /* \"#utility.yul\":3302:3303   */\n      dup2\n        /* \"#utility.yul\":3298:3310   */\n      add\n        /* \"#utility.yul\":3293:3310   */\n      swap1\n      pop\n        /* \"#utility.yul\":3269:3423   */\n      jump(tag_166)\n    tag_168:\n        /* \"#utility.yul\":3452:3458   */\n      dup4\n        /* \"#utility.yul\":3447:3450   */\n      dup9\n        /* \"#utility.yul\":3443:3459   */\n      add\n        /* \"#utility.yul\":3436:3459   */\n      swap6\n      pop\n        /* \"#utility.yul\":3135:3469   */\n      pop\n      pop\n        /* \"#utility.yul\":2949:3469   */\n    tag_161:\n      pop\n        /* \"#utility.yul\":2737:3475   */\n      pop\n      pop\n      swap3\n      swap2\n      pop\n      pop\n      jump\t// out\n        /* \"#utility.yul\":3481:3750   */\n    tag_47:\n      0x00\n        /* \"#utility.yul\":3632:3724   */\n      tag_170\n        /* \"#utility.yul\":3720:3723   */\n      dup3\n        /* \"#utility.yul\":3711:3717   */\n      dup5\n        /* \"#utility.yul\":3632:3724   */\n      tag_156\n      jump\t// in\n    tag_170:\n        /* \"#utility.yul\":3625:3724   */\n      swap2\n      pop\n        /* \"#utility.yul\":3741:3744   */\n      dup2\n        /* \"#utility.yul\":3734:3744   */\n      swap1\n      pop\n        /* \"#utility.yul\":3614:3750   */\n      swap3\n      swap2\n      pop\n      pop\n      jump\t// out\n        /* \"#utility.yul\":3756:3978   */\n    tag_28:\n      0x00\n        /* \"#utility.yul\":3887:3889   */\n      0x20\n        /* \"#utility.yul\":3876:3885   */\n      dup3\n        /* \"#utility.yul\":3872:3890   */\n      add\n        /* \"#utility.yul\":3864:3890   */\n      swap1\n      pop\n        /* \"#utility.yul\":3900:3971   */\n      tag_172\n        /* \"#utility.yul\":3968:3969   */\n      0x00\n        /* \"#utility.yul\":3957:3966   */\n      dup4\n        /* \"#utility.yul\":3953:3970   */\n      add\n        /* \"#utility.yul\":3944:3950   */\n      dup5\n        /* \"#utility.yul\":3900:3971   */\n      tag_118\n      jump\t// in\n    tag_172:\n        /* \"#utility.yul\":3854:3978   */\n      swap3\n      swap2\n      pop\n      pop\n      jump\t// out\n        /* \"#utility.yul\":3984:4397   */\n    tag_40:\n      0x00\n        /* \"#utility.yul\":4185:4187   */\n      0x20\n        /* \"#utility.yul\":4174:4183   */\n      dup3\n        /* \"#utility.yul\":4170:4188   */\n      add\n        /* \"#utility.yul\":4162:4188   */\n      swap1\n      pop\n        /* \"#utility.yul\":4234:4243   */\n      dup2\n        /* \"#utility.yul\":4228:4232   */\n      dup2\n        /* \"#utility.yul\":4224:4244   */\n      sub\n        /* \"#utility.yul\":4220:4221   */\n      0x00\n        /* \"#utility.yul\":4209:4218   */\n      dup4\n        /* \"#utility.yul\":4205:4222   */\n      add\n        /* \"#utility.yul\":4198:4245   */\n      mstore\n        /* \"#utility.yul\":4262:4390   */\n      tag_174\n        /* \"#utility.yul\":4385:4389   */\n      dup2\n        /* \"#utility.yul\":4376:4382   */\n      dup5\n        /* \"#utility.yul\":4262:4390   */\n      tag_122\n      jump\t// in\n    tag_174:\n        /* \"#utility.yul\":4254:4390   */\n      swap1\n      pop\n        /* \"#utility.yul\":4152:4397   */\n      swap3\n      swap2\n      pop\n      pop\n      jump\t// out\n        /* \"#utility.yul\":4403:4613   */\n    tag_19:\n      0x00\n        /* \"#utility.yul\":4528:4530   */\n      0x20\n        /* \"#utility.yul\":4517:4526   */\n      dup3\n        /* \"#utility.yul\":4513:4531   */\n      add\n        /* \"#utility.yul\":4505:4531   */\n      swap1\n      pop\n        /* \"#utility.yul\":4541:4606   */\n      tag_176\n        /* \"#utility.yul\":4603:4604   */\n      0x00\n        /* \"#utility.yul\":4592:4601   */\n      dup4\n        /* \"#utility.yul\":4588:4605   */\n      add\n        /* \"#utility.yul\":4579:4585   */\n      dup5\n        /* \"#utility.yul\":4541:4606   */\n      tag_136\n      jump\t// in\n    tag_176:\n        /* \"#utility.yul\":4495:4613   */\n      swap3\n      swap2\n      pop\n      pop\n      jump\t// out\n        /* \"#utility.yul\":4619:4932   */\n    tag_24:\n      0x00\n        /* \"#utility.yul\":4770:4772   */\n      0x20\n        /* \"#utility.yul\":4759:4768   */\n      dup3\n        /* \"#utility.yul\":4755:4773   */\n      add\n        /* \"#utility.yul\":4747:4773   */\n      swap1\n      pop\n        /* \"#utility.yul\":4819:4828   */\n      dup2\n        /* \"#utility.yul\":4813:4817   */\n      dup2\n        /* \"#utility.yul\":4809:4829   */\n      sub\n        /* \"#utility.yul\":4805:4806   */\n      0x00\n        /* \"#utility.yul\":4794:4803   */\n      dup4\n        /* \"#utility.yul\":4790:4807   */\n      add\n        /* \"#utility.yul\":4783:4830   */\n      mstore\n        /* \"#utility.yul\":4847:4925   */\n      tag_178\n        /* \"#utility.yul\":4920:4924   */\n      dup2\n        /* \"#utility.yul\":4911:4917   */\n      dup5\n        /* \"#utility.yul\":4847:4925   */\n      tag_149\n      jump\t// in\n    tag_178:\n        /* \"#utility.yul\":4839:4925   */\n      swap1\n      pop\n        /* \"#utility.yul\":4737:4932   */\n      swap3\n      swap2\n      pop\n      pop\n      jump\t// out\n        /* \"#utility.yul\":4938:5080   */\n    tag_129:\n      0x00\n        /* \"#utility.yul\":5038:5041   */\n      dup2\n        /* \"#utility.yul\":5030:5041   */\n      swap1\n      pop\n        /* \"#utility.yul\":5068:5072   */\n      0x20\n        /* \"#utility.yul\":5063:5066   */\n      dup3\n        /* \"#utility.yul\":5059:5073   */\n      add\n        /* \"#utility.yul\":5051:5073   */\n      swap1\n      pop\n        /* \"#utility.yul\":5020:5080   */\n      swap2\n      swap1\n      pop\n      jump\t// out\n        /* \"#utility.yul\":5086:5227   */\n    tag_165:\n      0x00\n        /* \"#utility.yul\":5158:5161   */\n      dup2\n        /* \"#utility.yul\":5150:5161   */\n      swap1\n      pop\n        /* \"#utility.yul\":5181:5184   */\n      dup2\n        /* \"#utility.yul\":5178:5179   */\n      0x00\n        /* \"#utility.yul\":5171:5185   */\n      mstore\n        /* \"#utility.yul\":5215:5219   */\n      0x20\n        /* \"#utility.yul\":5212:5213   */\n      0x00\n        /* \"#utility.yul\":5202:5220   */\n      keccak256\n        /* \"#utility.yul\":5194:5220   */\n      swap1\n      pop\n        /* \"#utility.yul\":5140:5227   */\n      swap2\n      swap1\n      pop\n      jump\t// out\n        /* \"#utility.yul\":5233:5357   */\n    tag_125:\n      0x00\n        /* \"#utility.yul\":5344:5349   */\n      dup2\n        /* \"#utility.yul\":5338:5350   */\n      mload\n        /* \"#utility.yul\":5328:5350   */\n      swap1\n      pop\n        /* \"#utility.yul\":5317:5357   */\n      swap2\n      swap1\n      pop\n      jump\t// out\n        /* \"#utility.yul\":5363:5462   */\n    tag_142:\n      0x00\n        /* \"#utility.yul\":5449:5454   */\n      dup2\n        /* \"#utility.yul\":5443:5455   */\n      mload\n        /* \"#utility.yul\":5433:5455   */\n      swap1\n      pop\n        /* \"#utility.yul\":5422:5462   */\n      swap2\n      swap1\n      pop\n      jump\t// out\n        /* \"#utility.yul\":5468:5591   */\n    tag_135:\n      0x00\n        /* \"#utility.yul\":5580:5584   */\n      0x20\n        /* \"#utility.yul\":5575:5578   */\n      dup3\n        /* \"#utility.yul\":5571:5585   */\n      add\n        /* \"#utility.yul\":5563:5585   */\n      swap1\n      pop\n        /* \"#utility.yul\":5553:5591   */\n      swap2\n      swap1\n      pop\n      jump\t// out\n        /* \"#utility.yul\":5597:5791   */\n    tag_127:\n      0x00\n        /* \"#utility.yul\":5740:5746   */\n      dup3\n        /* \"#utility.yul\":5735:5738   */\n      dup3\n        /* \"#utility.yul\":5728:5747   */\n      mstore\n        /* \"#utility.yul\":5780:5784   */\n      0x20\n        /* \"#utility.yul\":5775:5778   */\n      dup3\n        /* \"#utility.yul\":5771:5785   */\n      add\n        /* \"#utility.yul\":5756:5785   */\n      swap1\n      pop\n        /* \"#utility.yul\":5718:5791   */\n      swap3\n      swap2\n      pop\n      pop\n      jump\t// out\n        /* \"#utility.yul\":5797:5956   */\n    tag_144:\n      0x00\n        /* \"#utility.yul\":5905:5911   */\n      dup3\n        /* \"#utility.yul\":5900:5903   */\n      dup3\n        /* \"#utility.yul\":5893:5912   */\n      mstore\n        /* \"#utility.yul\":5945:5949   */\n      0x20\n        /* \"#utility.yul\":5940:5943   */\n      dup3\n        /* \"#utility.yul\":5936:5950   */\n      add\n        /* \"#utility.yul\":5921:5950   */\n      swap1\n      pop\n        /* \"#utility.yul\":5883:5956   */\n      swap3\n      swap2\n      pop\n      pop\n      jump\t// out\n        /* \"#utility.yul\":5962:6131   */\n    tag_153:\n      0x00\n        /* \"#utility.yul\":6080:6086   */\n      dup3\n        /* \"#utility.yul\":6075:6078   */\n      dup3\n        /* \"#utility.yul\":6068:6087   */\n      mstore\n        /* \"#utility.yul\":6120:6124   */\n      0x20\n        /* \"#utility.yul\":6115:6118   */\n      dup3\n        /* \"#utility.yul\":6111:6125   */\n      add\n        /* \"#utility.yul\":6096:6125   */\n      swap1\n      pop\n        /* \"#utility.yul\":6058:6131   */\n      swap3\n      swap2\n      pop\n      pop\n      jump\t// out\n        /* \"#utility.yul\":6137:6285   */\n    tag_160:\n      0x00\n        /* \"#utility.yul\":6276:6279   */\n      dup2\n        /* \"#utility.yul\":6261:6279   */\n      swap1\n      pop\n        /* \"#utility.yul\":6251:6285   */\n      swap3\n      swap2\n      pop\n      pop\n      jump\t// out\n        /* \"#utility.yul\":6291:6387   */\n    tag_121:\n      0x00\n        /* \"#utility.yul\":6357:6381   */\n      tag_189\n        /* \"#utility.yul\":6375:6380   */\n      dup3\n        /* \"#utility.yul\":6357:6381   */\n      tag_190\n      jump\t// in\n    tag_189:\n        /* \"#utility.yul\":6346:6381   */\n      swap1\n      pop\n        /* \"#utility.yul\":6336:6387   */\n      swap2\n      swap1\n      pop\n      jump\t// out\n        /* \"#utility.yul\":6393:6483   */\n    tag_139:\n      0x00\n        /* \"#utility.yul\":6470:6475   */\n      dup2\n        /* \"#utility.yul\":6463:6476   */\n      iszero\n        /* \"#utility.yul\":6456:6477   */\n      iszero\n        /* \"#utility.yul\":6445:6477   */\n      swap1\n      pop\n        /* \"#utility.yul\":6435:6483   */\n      swap2\n      swap1\n      pop\n      jump\t// out\n        /* \"#utility.yul\":6489:6615   */\n    tag_190:\n      0x00\n        /* \"#utility.yul\":6566:6608   */\n      0xffffffffffffffffffffffffffffffffffffffff\n        /* \"#utility.yul\":6559:6564   */\n      dup3\n        /* \"#utility.yul\":6555:6609   */\n      and\n        /* \"#utility.yul\":6544:6609   */\n      swap1\n      pop\n        /* \"#utility.yul\":6534:6615   */\n      swap2\n      swap1\n      pop\n      jump\t// out\n        /* \"#utility.yul\":6621:6698   */\n    tag_193:\n      0x00\n        /* \"#utility.yul\":6687:6692   */\n      dup2\n        /* \"#utility.yul\":6676:6692   */\n      swap1\n      pop\n        /* \"#utility.yul\":6666:6698   */\n      swap2\n      swap1\n      pop\n      jump\t// out\n        /* \"#utility.yul\":6704:7011   */\n    tag_146:\n        /* \"#utility.yul\":6772:6773   */\n      0x00\n        /* \"#utility.yul\":6782:6895   */\n    tag_196:\n        /* \"#utility.yul\":6796:6802   */\n      dup4\n        /* \"#utility.yul\":6793:6794   */\n      dup2\n        /* \"#utility.yul\":6790:6803   */\n      lt\n        /* \"#utility.yul\":6782:6895   */\n      iszero\n      tag_198\n      jumpi\n        /* \"#utility.yul\":6881:6882   */\n      dup1\n        /* \"#utility.yul\":6876:6879   */\n      dup3\n        /* \"#utility.yul\":6872:6883   */\n      add\n        /* \"#utility.yul\":6866:6884   */\n      mload\n        /* \"#utility.yul\":6862:6863   */\n      dup2\n        /* \"#utility.yul\":6857:6860   */\n      dup5\n        /* \"#utility.yul\":6853:6864   */\n      add\n        /* \"#utility.yul\":6846:6885   */\n      mstore\n        /* \"#utility.yul\":6818:6820   */\n      0x20\n        /* \"#utility.yul\":6815:6816   */\n      dup2\n        /* \"#utility.yul\":6811:6821   */\n      add\n        /* \"#utility.yul\":6806:6821   */\n      swap1\n      pop\n        /* \"#utility.yul\":6782:6895   */\n      jump(tag_196)\n    tag_198:\n        /* \"#utility.yul\":6913:6919   */\n      dup4\n        /* \"#utility.yul\":6910:6911   */\n      dup2\n        /* \"#utility.yul\":6907:6920   */\n      gt\n        /* \"#utility.yul\":6904:6906   */\n      iszero\n      tag_199\n      jumpi\n        /* \"#utility.yul\":6993:6994   */\n      0x00\n        /* \"#utility.yul\":6984:6990   */\n      dup5\n        /* \"#utility.yul\":6979:6982   */\n      dup5\n        /* \"#utility.yul\":6975:6991   */\n      add\n        /* \"#utility.yul\":6968:6995   */\n      mstore\n        /* \"#utility.yul\":6904:6906   */\n    tag_199:\n        /* \"#utility.yul\":6753:7011   */\n      pop\n      pop\n      pop\n      pop\n      jump\t// out\n        /* \"#utility.yul\":7017:7337   */\n    tag_53:\n      0x00\n        /* \"#utility.yul\":7098:7099   */\n      0x02\n        /* \"#utility.yul\":7092:7096   */\n      dup3\n        /* \"#utility.yul\":7088:7100   */\n      div\n        /* \"#utility.yul\":7078:7100   */\n      swap1\n      pop\n        /* \"#utility.yul\":7145:7146   */\n      0x01\n        /* \"#utility.yul\":7139:7143   */\n      dup3\n        /* \"#utility.yul\":7135:7147   */\n      and\n        /* \"#utility.yul\":7166:7184   */\n      dup1\n        /* \"#utility.yul\":7156:7158   */\n      tag_201\n      jumpi\n        /* \"#utility.yul\":7222:7226   */\n      0x7f\n        /* \"#utility.yul\":7214:7220   */\n      dup3\n        /* \"#utility.yul\":7210:7227   */\n      and\n        /* \"#utility.yul\":7200:7227   */\n      swap2\n      pop\n        /* \"#utility.yul\":7156:7158   */\n    tag_201:\n        /* \"#utility.yul\":7284:7286   */\n      0x20\n        /* \"#utility.yul\":7276:7282   */\n      dup3\n        /* \"#utility.yul\":7273:7287   */\n      lt\n        /* \"#utility.yul\":7253:7271   */\n      dup2\n        /* \"#utility.yul\":7250:7288   */\n      eq\n        /* \"#utility.yul\":7247:7249   */\n      iszero\n      tag_202\n      jumpi\n        /* \"#utility.yul\":7303:7321   */\n      tag_203\n      tag_204\n      jump\t// in\n    tag_203:\n        /* \"#utility.yul\":7247:7249   */\n    tag_202:\n        /* \"#utility.yul\":7068:7337   */\n      pop\n      swap2\n      swap1\n      pop\n      jump\t// out\n        /* \"#utility.yul\":7343:7576   */\n    tag_49:\n      0x00\n        /* \"#utility.yul\":7405:7429   */\n      tag_206\n        /* \"#utility.yul\":7423:7428   */\n      dup3\n        /* \"#utility.yul\":7405:7429   */\n      tag_193\n      jump\t// in\n    tag_206:\n        /* \"#utility.yul\":7396:7429   */\n      swap2\n      pop\n        /* \"#utility.yul\":7451:7517   */\n      0xffffffffffffffffffffffffffffffffffffffffffffffffffffffffffffffff\n        /* \"#utility.yul\":7444:7449   */\n      dup3\n        /* \"#utility.yul\":7441:7518   */\n      eq\n        /* \"#utility.yul\":7438:7440   */\n      iszero\n      tag_207\n      jumpi\n        /* \"#utility.yul\":7521:7539   */\n      tag_208\n      tag_209\n      jump\t// in\n    tag_208:\n        /* \"#utility.yul\":7438:7440   */\n    tag_207:\n        /* \"#utility.yul\":7568:7569   */\n      0x01\n        /* \"#utility.yul\":7561:7566   */\n      dup3\n        /* \"#utility.yul\":7557:7570   */\n      add\n        /* \"#utility.yul\":7550:7570   */\n      swap1\n      pop\n        /* \"#utility.yul\":7386:7576   */\n      swap2\n      swap1\n      pop\n      jump\t// out\n        /* \"#utility.yul\":7582:7762   */\n    tag_209:\n        /* \"#utility.yul\":7630:7707   */\n      0x4e487b7100000000000000000000000000000000000000000000000000000000\n        /* \"#utility.yul\":7627:7628   */\n      0x00\n        /* \"#utility.yul\":7620:7708   */\n      mstore\n        /* \"#utility.yul\":7727:7731   */\n      0x11\n        /* \"#utility.yul\":7724:7725   */\n      0x04\n        /* \"#utility.yul\":7717:7732   */\n      mstore\n        /* \"#utility.yul\":7751:7755   */\n      0x24\n        /* \"#utility.yul\":7748:7749   */\n      0x00\n        /* \"#utility.yul\":7741:7756   */\n      revert\n        /* \"#utility.yul\":7768:7948   */\n    tag_204:\n        /* \"#utility.yul\":7816:7893   */\n      0x4e487b7100000000000000000000000000000000000000000000000000000000\n        /* \"#utility.yul\":7813:7814   */\n      0x00\n        /* \"#utility.yul\":7806:7894   */\n      mstore\n        /* \"#utility.yul\":7913:7917   */\n      0x22\n        /* \"#utility.yul\":7910:7911   */\n      0x04\n        /* \"#utility.yul\":7903:7918   */\n      mstore\n        /* \"#utility.yul\":7937:7941   */\n      0x24\n        /* \"#utility.yul\":7934:7935   */\n      0x00\n        /* \"#utility.yul\":7927:7942   */\n      revert\n        /* \"#utility.yul\":7954:8056   */\n    tag_148:\n      0x00\n        /* \"#utility.yul\":8046:8048   */\n      0x1f\n        /* \"#utility.yul\":8042:8049   */\n      not\n        /* \"#utility.yul\":8037:8039   */\n      0x1f\n        /* \"#utility.yul\":8030:8035   */\n      dup4\n        /* \"#utility.yul\":8026:8040   */\n      add\n        /* \"#utility.yul\":8022:8050   */\n      and\n        /* \"#utility.yul\":8012:8050   */\n      swap1\n      pop\n        /* \"#utility.yul\":8002:8056   */\n      swap2\n      swap1\n      pop\n      jump\t// out\n        /* \"#utility.yul\":8062:8184   */\n    tag_110:\n        /* \"#utility.yul\":8135:8159   */\n      tag_214\n        /* \"#utility.yul\":8153:8158   */\n      dup2\n        /* \"#utility.yul\":8135:8159   */\n      tag_193\n      jump\t// in\n    tag_214:\n        /* \"#utility.yul\":8128:8133   */\n      dup2\n        /* \"#utility.yul\":8125:8160   */\n      eq\n        /* \"#utility.yul\":8115:8117   */\n      tag_215\n      jumpi\n        /* \"#utility.yul\":8174:8175   */\n      0x00\n        /* \"#utility.yul\":8171:8172   */\n      dup1\n        /* \"#utility.yul\":8164:8176   */\n      revert\n        /* \"#utility.yul\":8115:8117   */\n    tag_215:\n        /* \"#utility.yul\":8105:8184   */\n      pop\n      jump\t// out\n\n    auxdata: 0xa264697066735822122033ea37709f54be38a39548b0a5ba37305106d3f3bc2d037b35d4d1792527efdf64736f6c63430008000033\n}\n","bytecode":{"linkReferences":{},"object":"60806040526000600460006101000a81548160ff0219169083151502179055503480156200002c57600080fd5b50604051620014513803806200145183398181016040528101906200005291906200044a565b60008251116200006157600080fd5b806005908051906020019062000079929190620001aa565b50826000806101000a81548173ffffffffffffffffffffffffffffffffffffffff021916908373ffffffffffffffffffffffffffffffffffffffff1602179055508160019080519060200190620000d29291906200023b565b5060005b82518110156200015d57600060028483815181106200011e577f4e487b7100000000000000000000000000000000000000000000000000000000600052603260045260246000fd5b602002602001015160405162000135919062000509565b9081526020016040518091039020819055508080620001549062000678565b915050620000d6565b50604051806020016040528060008152506006908051906020019062000185929190620001aa565b506001600460006101000a81548160ff0219169083151502179055505050506200076d565b828054620001b89062000642565b90600052602060002090601f016020900481019282620001dc576000855562000228565b82601f10620001f757805160ff191683800117855562000228565b8280016001018555821562000228579182015b82811115620002275782518255916020019190600101906200020a565b5b509050620002379190620002a2565b5090565b8280548282559060005260206000209081019282156200028f579160200282015b828111156200028e5782518290805190602001906200027d929190620001aa565b50916020019190600101906200025c565b5b5090506200029e9190620002c1565b5090565b5b80821115620002bd576000816000905550600101620002a3565b5090565b5b80821115620002e55760008181620002db9190620002e9565b50600101620002c2565b5090565b508054620002f79062000642565b6000825580601f106200030b57506200032c565b601f0160209004906000526020600020908101906200032b9190620002a2565b5b50565b600062000346620003408462000556565b62000522565b9050808382526020820190508260005b858110156200038a57815185016200036f88826200041d565b84526020840193506020830192505060018101905062000356565b5050509392505050565b6000620003ab620003a58462000585565b62000522565b905082815260208101848484011115620003c457600080fd5b620003d18482856200060c565b509392505050565b600081519050620003ea8162000753565b92915050565b600082601f8301126200040257600080fd5b8151620004148482602086016200032f565b91505092915050565b600082601f8301126200042f57600080fd5b81516200044184826020860162000394565b91505092915050565b6000806000606084860312156200046057600080fd5b60006200047086828701620003d9565b935050602084015167ffffffffffffffff8111156200048e57600080fd5b6200049c86828701620003f0565b925050604084015167ffffffffffffffff811115620004ba57600080fd5b620004c8868287016200041d565b9150509250925092565b6000620004df82620005b8565b620004eb8185620005c3565b9350620004fd8185602086016200060c565b80840191505092915050565b6000620005178284620004d2565b915081905092915050565b6000604051905081810181811067ffffffffffffffff821117156200054c576200054b62000724565b5b8060405250919050565b600067ffffffffffffffff82111562000574576200057362000724565b5b602082029050602081019050919050565b600067ffffffffffffffff821115620005a357620005a262000724565b5b601f19601f8301169050602081019050919050565b600081519050919050565b600081905092915050565b6000620005db82620005e2565b9050919050565b600073ffffffffffffffffffffffffffffffffffffffff82169050919050565b6000819050919050565b60005b838110156200062c5780820151818401526020810190506200060f565b838111156200063c576000848401525b50505050565b600060028204905060018216806200065b57607f821691505b60208210811415620006725762000671620006f5565b5b50919050565b6000620006858262000602565b91507fffffffffffffffffffffffffffffffffffffffffffffffffffffffffffffffff821415620006bb57620006ba620006c6565b5b600182019050919050565b7f4e487b7100000000000000000000000000000000000000000000000000000000600052601160045260246000fd5b7f4e487b7100000000000000000000000000000000000000000000000000000000600052602260045260246000fd5b7f4e487b7100000000000000000000000000000000000000000000000000000000600052604160045260246000fd5b6200075e81620005ce565b81146200076a57600080fd5b50565b610cd4806200077d6000396000f3fe608060405234801561001057600080fd5b50600436106100885760003560e01c80635fdfbf551161005b5780635fdfbf55146101155780637284e41614610133578063c3403ddf14610151578063f0afd2951461015b57610088565b80630121b93f1461008d57806319f41a40146100a95780634b19721b146100c75780634d1e73dd146100f7575b600080fd5b6100a760048036038101906100a2919061084a565b610179565b005b6100b16102bb565b6040516100be9190610a5f565b60405180910390f35b6100e160048036038101906100dc919061084a565b6102ce565b6040516100ee9190610a7a565b60405180910390f35b6100ff61037a565b60405161010c9190610a22565b60405180910390f35b61011d61039e565b60405161012a9190610a7a565b60405180910390f35b61013b61044a565b6040516101489190610a7a565b60405180910390f35b6101596104d8565b005b6101636106b2565b6040516101709190610a3d565b60405180910390f35b600460009054906101000a900460ff1661019257600080fd5b600360003373ffffffffffffffffffffffffffffffffffffffff1673ffffffffffffffffffffffffffffffffffffffff16815260200190815260200160002060009054906101000a900460ff16156101e957600080fd5b6001600360003373ffffffffffffffffffffffffffffffffffffffff1673ffffffffffffffffffffffffffffffffffffffff16815260200190815260200160002060006101000a81548160ff02191690831515021790555060026001828154811061027d577f4e487b7100000000000000000000000000000000000000000000000000000000600052603260045260246000fd5b906000526020600020016040516102949190610a0b565b908152602001604051809103902060008154809291906102b390610bcf565b919050555050565b600460009054906101000a900460ff1681565b600181815481106102de57600080fd5b9060005260206000200160009150905080546102f990610b9d565b80601f016020809104026020016040519081016040528092919081815260200182805461032590610b9d565b80156103725780601f1061034757610100808354040283529160200191610372565b820191906000526020600020905b81548152906001019060200180831161035557829003601f168201915b505050505081565b60008054906101000a900473ffffffffffffffffffffffffffffffffffffffff1681565b6060600460009054906101000a900460ff16156103ba57600080fd5b600680546103c790610b9d565b80601f01602080910402602001604051908101604052809291908181526020018280546103f390610b9d565b80156104405780601f1061041557610100808354040283529160200191610440565b820191906000526020600020905b81548152906001019060200180831161042357829003601f168201915b5050505050905090565b6005805461045790610b9d565b80601f016020809104026020016040519081016040528092919081815260200182805461048390610b9d565b80156104d05780601f106104a5576101008083540402835291602001916104d0565b820191906000526020600020905b8154815290600101906020018083116104b357829003601f168201915b505050505081565b600460009054906101000a900460ff166104f157600080fd5b60008054906101000a900473ffffffffffffffffffffffffffffffffffffffff1673ffffffffffffffffffffffffffffffffffffffff163373ffffffffffffffffffffffffffffffffffffffff161461054957600080fd5b60005b600180549050811015610653576002600660405161056a9190610a0b565b9081526020016040518091039020546002600183815481106105b5577f4e487b7100000000000000000000000000000000000000000000000000000000600052603260045260246000fd5b906000526020600020016040516105cc9190610a0b565b9081526020016040518091039020541115610640576001818154811061061b577f4e487b7100000000000000000000000000000000000000000000000000000000600052603260045260246000fd5b90600052602060002001600690805461063390610b9d565b61063e92919061078b565b505b808061064b90610bcf565b91505061054c565b506000600460006101000a81548160ff02191690831515021790555060008060006101000a81548173ffffffffffffffffffffffffffffffffffffffff021916908373ffffffffffffffffffffffffffffffffffffffff160217905550565b60606001805480602002602001604051908101604052809291908181526020016000905b828210156107825783829060005260206000200180546106f590610b9d565b80601f016020809104026020016040519081016040528092919081815260200182805461072190610b9d565b801561076e5780601f106107435761010080835404028352916020019161076e565b820191906000526020600020905b81548152906001019060200180831161075157829003601f168201915b5050505050815260200190600101906106d6565b50505050905090565b82805461079790610b9d565b90600052602060002090601f0160209004810192826107b95760008555610807565b82601f106107ca5780548555610807565b8280016001018555821561080757600052602060002091601f016020900482015b828111156108065782548255916001019190600101906107eb565b5b5090506108149190610818565b5090565b5b80821115610831576000816000905550600101610819565b5090565b60008135905061084481610c87565b92915050565b60006020828403121561085c57600080fd5b600061086a84828501610835565b91505092915050565b600061087f838361091a565b905092915050565b61089081610b22565b82525050565b60006108a182610ac1565b6108ab8185610ae4565b9350836020820285016108bd85610a9c565b8060005b858110156108f957848403895281516108da8582610873565b94506108e583610ad7565b925060208a019950506001810190506108c1565b50829750879550505050505092915050565b61091481610b34565b82525050565b600061092582610acc565b61092f8185610af5565b935061093f818560208601610b6a565b61094881610c76565b840191505092915050565b600061095e82610acc565b6109688185610b06565b9350610978818560208601610b6a565b61098181610c76565b840191505092915050565b6000815461099981610b9d565b6109a38186610b17565b945060018216600081146109be57600181146109cf57610a02565b60ff19831686528186019350610a02565b6109d885610aac565b60005b838110156109fa578154818901526001820191506020810190506109db565b838801955050505b50505092915050565b6000610a17828461098c565b915081905092915050565b6000602082019050610a376000830184610887565b92915050565b60006020820190508181036000830152610a578184610896565b905092915050565b6000602082019050610a74600083018461090b565b92915050565b60006020820190508181036000830152610a948184610953565b905092915050565b6000819050602082019050919050565b60008190508160005260206000209050919050565b600081519050919050565b600081519050919050565b6000602082019050919050565b600082825260208201905092915050565b600082825260208201905092915050565b600082825260208201905092915050565b600081905092915050565b6000610b2d82610b40565b9050919050565b60008115159050919050565b600073ffffffffffffffffffffffffffffffffffffffff82169050919050565b6000819050919050565b60005b83811015610b88578082015181840152602081019050610b6d565b83811115610b97576000848401525b50505050565b60006002820490506001821680610bb557607f821691505b60208210811415610bc957610bc8610c47565b5b50919050565b6000610bda82610b60565b91507fffffffffffffffffffffffffffffffffffffffffffffffffffffffffffffffff821415610c0d57610c0c610c18565b5b600182019050919050565b7f4e487b7100000000000000000000000000000000000000000000000000000000600052601160045260246000fd5b7f4e487b7100000000000000000000000000000000000000000000000000000000600052602260045260246000fd5b6000601f19601f8301169050919050565b610c9081610b60565b8114610c9b57600080fd5b5056fea264697066735822122033ea37709f54be38a39548b0a5ba37305106d3f3bc2d037b35d4d1792527efdf64736f6c63430008000033","opcodes":"PUSH1 0x80 PUSH1 0x40 MSTORE PUSH1 0x0 PUSH1 0x4 PUSH1 0x0 PUSH2 0x100 EXP DUP2 SLOAD DUP2 PUSH1 0xFF MUL NOT AND SWAP1 DUP4 ISZERO ISZERO MUL OR SWAP1 SSTORE POP CALLVALUE DUP1 ISZERO PUSH3 0x2C JUMPI PUSH1 0x0 DUP1 REVERT JUMPDEST POP PUSH1 0x40 MLOAD PUSH3 0x1451 CODESIZE SUB DUP1 PUSH3 0x1451 DUP4 CODECOPY DUP2 DUP2 ADD PUSH1 0x40 MSTORE DUP2 ADD SWAP1 PUSH3 0x52 SWAP2 SWAP1 PUSH3 0x44A JUMP JUMPDEST PUSH1 0x0 DUP3 MLOAD GT PUSH3 0x61 JUMPI PUSH1 0x0 DUP1 REVERT JUMPDEST DUP1 PUSH1 0x5 SWAP1 DUP1 MLOAD SWAP1 PUSH1 0x20 ADD SWAP1 PUSH3 0x79 SWAP3 SWAP2 SWAP1 PUSH3 0x1AA JUMP JUMPDEST POP DUP3 PUSH1 0x0 DUP1 PUSH2 0x100 EXP DUP2 SLOAD DUP2 PUSH20 0xFFFFFFFFFFFFFFFFFFFFFFFFFFFFFFFFFFFFFFFF MUL NOT AND SWAP1 DUP4 PUSH20 0xFFFFFFFFFFFFFFFFFFFFFFFFFFFFFFFFFFFFFFFF AND MUL OR SWAP1 SSTORE POP DUP2 PUSH1 0x1 SWAP1 DUP1 MLOAD SWAP1 PUSH1 0x20 ADD SWAP1 PUSH3 0xD2 SWAP3 SWAP2 SWAP1 PUSH3 0x23B JUMP JUMPDEST POP PUSH1 0x0 JUMPDEST DUP3 MLOAD DUP2 LT ISZERO PUSH3 0x15D JUMPI PUSH1 0x0 PUSH1 0x2 DUP5 DUP4 DUP2 MLOAD DUP2 LT PUSH3 0x11E JUMPI PUSH32 0x4E487B7100000000000000000000000000000000000000000000000000000000 PUSH1 0x0 MSTORE PUSH1 0x32 PUSH1 0x4 MSTORE PUSH1 0x24 PUSH1 0x0 REVERT JUMPDEST PUSH1 0x20 MUL PUSH1 0x20 ADD ADD MLOAD PUSH1 0x40 MLOAD PUSH3 0x135 SWAP2 SWAP1 PUSH3 0x509 JUMP JUMPDEST SWAP1 DUP2 MSTORE PUSH1 0x20 ADD PUSH1 0x40 MLOAD DUP1 SWAP2 SUB SWAP1 KECCAK256 DUP2 SWAP1 SSTORE POP DUP1 DUP1 PUSH3 0x154 SWAP1 PUSH3 0x678 JUMP JUMPDEST SWAP2 POP POP PUSH3 0xD6 JUMP JUMPDEST POP PUSH1 0x40 MLOAD DUP1 PUSH1 0x20 ADD PUSH1 0x40 MSTORE DUP1 PUSH1 0x0 DUP2 MSTORE POP PUSH1 0x6 SWAP1 DUP1 MLOAD SWAP1 PUSH1 0x20 ADD SWAP1 PUSH3 0x185 SWAP3 SWAP2 SWAP1 PUSH3 0x1AA JUMP JUMPDEST POP PUSH1 0x1 PUSH1 0x4 PUSH1 0x0 PUSH2 0x100 EXP DUP2 SLOAD DUP2 PUSH1 0xFF MUL NOT AND SWAP1 DUP4 ISZERO ISZERO MUL OR SWAP1 SSTORE POP POP POP POP PUSH3 0x76D JUMP JUMPDEST DUP3 DUP1 SLOAD PUSH3 0x1B8 SWAP1 PUSH3 0x642 JUMP JUMPDEST SWAP1 PUSH1 0x0 MSTORE PUSH1 0x20 PUSH1 0x0 KECCAK256 SWAP1 PUSH1 0x1F ADD PUSH1 0x20 SWAP1 DIV DUP2 ADD SWAP3 DUP3 PUSH3 0x1DC JUMPI PUSH1 0x0 DUP6 SSTORE PUSH3 0x228 JUMP JUMPDEST DUP3 PUSH1 0x1F LT PUSH3 0x1F7 JUMPI DUP1 MLOAD PUSH1 0xFF NOT AND DUP4 DUP1 ADD OR DUP6 SSTORE PUSH3 0x228 JUMP JUMPDEST DUP3 DUP1 ADD PUSH1 0x1 ADD DUP6 SSTORE DUP3 ISZERO PUSH3 0x228 JUMPI SWAP2 DUP3 ADD JUMPDEST DUP3 DUP2 GT ISZERO PUSH3 0x227 JUMPI DUP3 MLOAD DUP3 SSTORE SWAP2 PUSH1 0x20 ADD SWAP2 SWAP1 PUSH1 0x1 ADD SWAP1 PUSH3 0x20A JUMP JUMPDEST JUMPDEST POP SWAP1 POP PUSH3 0x237 SWAP2 SWAP1 PUSH3 0x2A2 JUMP JUMPDEST POP SWAP1 JUMP JUMPDEST DUP3 DUP1 SLOAD DUP3 DUP3 SSTORE SWAP1 PUSH1 0x0 MSTORE PUSH1 0x20 PUSH1 0x0 KECCAK256 SWAP1 DUP2 ADD SWAP3 DUP3 ISZERO PUSH3 0x28F JUMPI SWAP2 PUSH1 0x20 MUL DUP3 ADD JUMPDEST DUP3 DUP2 GT ISZERO PUSH3 0x28E JUMPI DUP3 MLOAD DUP3 SWAP1 DUP1 MLOAD SWAP1 PUSH1 0x20 ADD SWAP1 PUSH3 0x27D SWAP3 SWAP2 SWAP1 PUSH3 0x1AA JUMP JUMPDEST POP SWAP2 PUSH1 0x20 ADD SWAP2 SWAP1 PUSH1 0x1 ADD SWAP1 PUSH3 0x25C JUMP JUMPDEST JUMPDEST POP SWAP1 POP PUSH3 0x29E SWAP2 SWAP1 PUSH3 0x2C1 JUMP JUMPDEST POP SWAP1 JUMP JUMPDEST JUMPDEST DUP1 DUP3 GT ISZERO PUSH3 0x2BD JUMPI PUSH1 0x0 DUP2 PUSH1 0x0 SWAP1 SSTORE POP PUSH1 0x1 ADD PUSH3 0x2A3 JUMP JUMPDEST POP SWAP1 JUMP JUMPDEST JUMPDEST DUP1 DUP3 GT ISZERO PUSH3 0x2E5 JUMPI PUSH1 0x0 DUP2 DUP2 PUSH3 0x2DB SWAP2 SWAP1 PUSH3 0x2E9 JUMP JUMPDEST POP PUSH1 0x1 ADD PUSH3 0x2C2 JUMP JUMPDEST POP SWAP1 JUMP JUMPDEST POP DUP1 SLOAD PUSH3 0x2F7 SWAP1 PUSH3 0x642 JUMP JUMPDEST PUSH1 0x0 DUP3 SSTORE DUP1 PUSH1 0x1F LT PUSH3 0x30B JUMPI POP PUSH3 0x32C JUMP JUMPDEST PUSH1 0x1F ADD PUSH1 0x20 SWAP1 DIV SWAP1 PUSH1 0x0 MSTORE PUSH1 0x20 PUSH1 0x0 KECCAK256 SWAP1 DUP2 ADD SWAP1 PUSH3 0x32B SWAP2 SWAP1 PUSH3 0x2A2 JUMP JUMPDEST JUMPDEST POP JUMP JUMPDEST PUSH1 0x0 PUSH3 0x346 PUSH3 0x340 DUP5 PUSH3 0x556 JUMP JUMPDEST PUSH3 0x522 JUMP JUMPDEST SWAP1 POP DUP1 DUP4 DUP3 MSTORE PUSH1 0x20 DUP3 ADD SWAP1 POP DUP3 PUSH1 0x0 JUMPDEST DUP6 DUP2 LT ISZERO PUSH3 0x38A JUMPI DUP2 MLOAD DUP6 ADD PUSH3 0x36F DUP9 DUP3 PUSH3 0x41D JUMP JUMPDEST DUP5 MSTORE PUSH1 0x20 DUP5 ADD SWAP4 POP PUSH1 0x20 DUP4 ADD SWAP3 POP POP PUSH1 0x1 DUP2 ADD SWAP1 POP PUSH3 0x356 JUMP JUMPDEST POP POP POP SWAP4 SWAP3 POP POP POP JUMP JUMPDEST PUSH1 0x0 PUSH3 0x3AB PUSH3 0x3A5 DUP5 PUSH3 0x585 JUMP JUMPDEST PUSH3 0x522 JUMP JUMPDEST SWAP1 POP DUP3 DUP2 MSTORE PUSH1 0x20 DUP2 ADD DUP5 DUP5 DUP5 ADD GT ISZERO PUSH3 0x3C4 JUMPI PUSH1 0x0 DUP1 REVERT JUMPDEST PUSH3 0x3D1 DUP5 DUP3 DUP6 PUSH3 0x60C JUMP JUMPDEST POP SWAP4 SWAP3 POP POP POP JUMP JUMPDEST PUSH1 0x0 DUP2 MLOAD SWAP1 POP PUSH3 0x3EA DUP2 PUSH3 0x753 JUMP JUMPDEST SWAP3 SWAP2 POP POP JUMP JUMPDEST PUSH1 0x0 DUP3 PUSH1 0x1F DUP4 ADD SLT PUSH3 0x402 JUMPI PUSH1 0x0 DUP1 REVERT JUMPDEST DUP2 MLOAD PUSH3 0x414 DUP5 DUP3 PUSH1 0x20 DUP7 ADD PUSH3 0x32F JUMP JUMPDEST SWAP2 POP POP SWAP3 SWAP2 POP POP JUMP JUMPDEST PUSH1 0x0 DUP3 PUSH1 0x1F DUP4 ADD SLT PUSH3 0x42F JUMPI PUSH1 0x0 DUP1 REVERT JUMPDEST DUP2 MLOAD PUSH3 0x441 DUP5 DUP3 PUSH1 0x20 DUP7 ADD PUSH3 0x394 JUMP JUMPDEST SWAP2 POP POP SWAP3 SWAP2 POP POP JUMP JUMPDEST PUSH1 0x0 DUP1 PUSH1 0x0 PUSH1 0x60 DUP5 DUP7 SUB SLT ISZERO PUSH3 0x460 JUMPI PUSH1 0x0 DUP1 REVERT JUMPDEST PUSH1 0x0 PUSH3 0x470 DUP7 DUP3 DUP8 ADD PUSH3 0x3D9 JUMP JUMPDEST SWAP4 POP POP PUSH1 0x20 DUP5 ADD MLOAD PUSH8 0xFFFFFFFFFFFFFFFF DUP2 GT ISZERO PUSH3 0x48E JUMPI PUSH1 0x0 DUP1 REVERT JUMPDEST PUSH3 0x49C DUP7 DUP3 DUP8 ADD PUSH3 0x3F0 JUMP JUMPDEST SWAP3 POP POP PUSH1 0x40 DUP5 ADD MLOAD PUSH8 0xFFFFFFFFFFFFFFFF DUP2 GT ISZERO PUSH3 0x4BA JUMPI PUSH1 0x0 DUP1 REVERT JUMPDEST PUSH3 0x4C8 DUP7 DUP3 DUP8 ADD PUSH3 0x41D JUMP JUMPDEST SWAP2 POP POP SWAP3 POP SWAP3 POP SWAP3 JUMP JUMPDEST PUSH1 0x0 PUSH3 0x4DF DUP3 PUSH3 0x5B8 JUMP JUMPDEST PUSH3 0x4EB DUP2 DUP6 PUSH3 0x5C3 JUMP JUMPDEST SWAP4 POP PUSH3 0x4FD DUP2 DUP6 PUSH1 0x20 DUP7 ADD PUSH3 0x60C JUMP JUMPDEST DUP1 DUP5 ADD SWAP2 POP POP SWAP3 SWAP2 POP POP JUMP JUMPDEST PUSH1 0x0 PUSH3 0x517 DUP3 DUP5 PUSH3 0x4D2 JUMP JUMPDEST SWAP2 POP DUP2 SWAP1 POP SWAP3 SWAP2 POP POP JUMP JUMPDEST PUSH1 0x0 PUSH1 0x40 MLOAD SWAP1 POP DUP2 DUP2 ADD DUP2 DUP2 LT PUSH8 0xFFFFFFFFFFFFFFFF DUP3 GT OR ISZERO PUSH3 0x54C JUMPI PUSH3 0x54B PUSH3 0x724 JUMP JUMPDEST JUMPDEST DUP1 PUSH1 0x40 MSTORE POP SWAP2 SWAP1 POP JUMP JUMPDEST PUSH1 0x0 PUSH8 0xFFFFFFFFFFFFFFFF DUP3 GT ISZERO PUSH3 0x574 JUMPI PUSH3 0x573 PUSH3 0x724 JUMP JUMPDEST JUMPDEST PUSH1 0x20 DUP3 MUL SWAP1 POP PUSH1 0x20 DUP2 ADD SWAP1 POP SWAP2 SWAP1 POP JUMP JUMPDEST PUSH1 0x0 PUSH8 0xFFFFFFFFFFFFFFFF DUP3 GT ISZERO PUSH3 0x5A3 JUMPI PUSH3 0x5A2 PUSH3 0x724 JUMP JUMPDEST JUMPDEST PUSH1 0x1F NOT PUSH1 0x1F DUP4 ADD AND SWAP1 POP PUSH1 0x20 DUP2 ADD SWAP1 POP SWAP2 SWAP1 POP JUMP JUMPDEST PUSH1 0x0 DUP2 MLOAD SWAP1 POP SWAP2 SWAP1 POP JUMP JUMPDEST PUSH1 0x0 DUP2 SWAP1 POP SWAP3 SWAP2 POP POP JUMP JUMPDEST PUSH1 0x0 PUSH3 0x5DB DUP3 PUSH3 0x5E2 JUMP JUMPDEST SWAP1 POP SWAP2 SWAP1 POP JUMP JUMPDEST PUSH1 0x0 PUSH20 0xFFFFFFFFFFFFFFFFFFFFFFFFFFFFFFFFFFFFFFFF DUP3 AND SWAP1 POP SWAP2 SWAP1 POP JUMP JUMPDEST PUSH1 0x0 DUP2 SWAP1 POP SWAP2 SWAP1 POP JUMP JUMPDEST PUSH1 0x0 JUMPDEST DUP4 DUP2 LT ISZERO PUSH3 0x62C JUMPI DUP1 DUP3 ADD MLOAD DUP2 DUP5 ADD MSTORE PUSH1 0x20 DUP2 ADD SWAP1 POP PUSH3 0x60F JUMP JUMPDEST DUP4 DUP2 GT ISZERO PUSH3 0x63C JUMPI PUSH1 0x0 DUP5 DUP5 ADD MSTORE JUMPDEST POP POP POP POP JUMP JUMPDEST PUSH1 0x0 PUSH1 0x2 DUP3 DIV SWAP1 POP PUSH1 0x1 DUP3 AND DUP1 PUSH3 0x65B JUMPI PUSH1 0x7F DUP3 AND SWAP2 POP JUMPDEST PUSH1 0x20 DUP3 LT DUP2 EQ ISZERO PUSH3 0x672 JUMPI PUSH3 0x671 PUSH3 0x6F5 JUMP JUMPDEST JUMPDEST POP SWAP2 SWAP1 POP JUMP JUMPDEST PUSH1 0x0 PUSH3 0x685 DUP3 PUSH3 0x602 JUMP JUMPDEST SWAP2 POP PUSH32 0xFFFFFFFFFFFFFFFFFFFFFFFFFFFFFFFFFFFFFFFFFFFFFFFFFFFFFFFFFFFFFFFF DUP3 EQ ISZERO PUSH3 0x6BB JUMPI PUSH3 0x6BA PUSH3 0x6C6 JUMP JUMPDEST JUMPDEST PUSH1 0x1 DUP3 ADD SWAP1 POP SWAP2 SWAP1 POP JUMP JUMPDEST PUSH32 0x4E487B7100000000000000000000000000000000000000000000000000000000 PUSH1 0x0 MSTORE PUSH1 0x11 PUSH1 0x4 MSTORE PUSH1 0x24 PUSH1 0x0 REVERT JUMPDEST PUSH32 0x4E487B7100000000000000000000000000000000000000000000000000000000 PUSH1 0x0 MSTORE PUSH1 0x22 PUSH1 0x4 MSTORE PUSH1 0x24 PUSH1 0x0 REVERT JUMPDEST PUSH32 0x4E487B7100000000000000000000000000000000000000000000000000000000 PUSH1 0x0 MSTORE PUSH1 0x41 PUSH1 0x4 MSTORE PUSH1 0x24 PUSH1 0x0 REVERT JUMPDEST PUSH3 0x75E DUP2 PUSH3 0x5CE JUMP JUMPDEST DUP2 EQ PUSH3 0x76A JUMPI PUSH1 0x0 DUP1 REVERT JUMPDEST POP JUMP JUMPDEST PUSH2 0xCD4 DUP1 PUSH3 0x77D PUSH1 0x0 CODECOPY PUSH1 0x0 RETURN INVALID PUSH1 0x80 PUSH1 0x40 MSTORE CALLVALUE DUP1 ISZERO PUSH2 0x10 JUMPI PUSH1 0x0 DUP1 REVERT JUMPDEST POP PUSH1 0x4 CALLDATASIZE LT PUSH2 0x88 JUMPI PUSH1 0x0 CALLDATALOAD PUSH1 0xE0 SHR DUP1 PUSH4 0x5FDFBF55 GT PUSH2 0x5B JUMPI DUP1 PUSH4 0x5FDFBF55 EQ PUSH2 0x115 JUMPI DUP1 PUSH4 0x7284E416 EQ PUSH2 0x133 JUMPI DUP1 PUSH4 0xC3403DDF EQ PUSH2 0x151 JUMPI DUP1 PUSH4 0xF0AFD295 EQ PUSH2 0x15B JUMPI PUSH2 0x88 JUMP JUMPDEST DUP1 PUSH4 0x121B93F EQ PUSH2 0x8D JUMPI DUP1 PUSH4 0x19F41A40 EQ PUSH2 0xA9 JUMPI DUP1 PUSH4 0x4B19721B EQ PUSH2 0xC7 JUMPI DUP1 PUSH4 0x4D1E73DD EQ PUSH2 0xF7 JUMPI JUMPDEST PUSH1 0x0 DUP1 REVERT JUMPDEST PUSH2 0xA7 PUSH1 0x4 DUP1 CALLDATASIZE SUB DUP2 ADD SWAP1 PUSH2 0xA2 SWAP2 SWAP1 PUSH2 0x84A JUMP JUMPDEST PUSH2 0x179 JUMP JUMPDEST STOP JUMPDEST PUSH2 0xB1 PUSH2 0x2BB JUMP JUMPDEST PUSH1 0x40 MLOAD PUSH2 0xBE SWAP2 SWAP1 PUSH2 0xA5F JUMP JUMPDEST PUSH1 0x40 MLOAD DUP1 SWAP2 SUB SWAP1 RETURN JUMPDEST PUSH2 0xE1 PUSH1 0x4 DUP1 CALLDATASIZE SUB DUP2 ADD SWAP1 PUSH2 0xDC SWAP2 SWAP1 PUSH2 0x84A JUMP JUMPDEST PUSH2 0x2CE JUMP JUMPDEST PUSH1 0x40 MLOAD PUSH2 0xEE SWAP2 SWAP1 PUSH2 0xA7A JUMP JUMPDEST PUSH1 0x40 MLOAD DUP1 SWAP2 SUB SWAP1 RETURN JUMPDEST PUSH2 0xFF PUSH2 0x37A JUMP JUMPDEST PUSH1 0x40 MLOAD PUSH2 0x10C SWAP2 SWAP1 PUSH2 0xA22 JUMP JUMPDEST PUSH1 0x40 MLOAD DUP1 SWAP2 SUB SWAP1 RETURN JUMPDEST PUSH2 0x11D PUSH2 0x39E JUMP JUMPDEST PUSH1 0x40 MLOAD PUSH2 0x12A SWAP2 SWAP1 PUSH2 0xA7A JUMP JUMPDEST PUSH1 0x40 MLOAD DUP1 SWAP2 SUB SWAP1 RETURN JUMPDEST PUSH2 0x13B PUSH2 0x44A JUMP JUMPDEST PUSH1 0x40 MLOAD PUSH2 0x148 SWAP2 SWAP1 PUSH2 0xA7A JUMP JUMPDEST PUSH1 0x40 MLOAD DUP1 SWAP2 SUB SWAP1 RETURN JUMPDEST PUSH2 0x159 PUSH2 0x4D8 JUMP JUMPDEST STOP JUMPDEST PUSH2 0x163 PUSH2 0x6B2 JUMP JUMPDEST PUSH1 0x40 MLOAD PUSH2 0x170 SWAP2 SWAP1 PUSH2 0xA3D JUMP JUMPDEST PUSH1 0x40 MLOAD DUP1 SWAP2 SUB SWAP1 RETURN JUMPDEST PUSH1 0x4 PUSH1 0x0 SWAP1 SLOAD SWAP1 PUSH2 0x100 EXP SWAP1 DIV PUSH1 0xFF AND PUSH2 0x192 JUMPI PUSH1 0x0 DUP1 REVERT JUMPDEST PUSH1 0x3 PUSH1 0x0 CALLER PUSH20 0xFFFFFFFFFFFFFFFFFFFFFFFFFFFFFFFFFFFFFFFF AND PUSH20 0xFFFFFFFFFFFFFFFFFFFFFFFFFFFFFFFFFFFFFFFF AND DUP2 MSTORE PUSH1 0x20 ADD SWAP1 DUP2 MSTORE PUSH1 0x20 ADD PUSH1 0x0 KECCAK256 PUSH1 0x0 SWAP1 SLOAD SWAP1 PUSH2 0x100 EXP SWAP1 DIV PUSH1 0xFF AND ISZERO PUSH2 0x1E9 JUMPI PUSH1 0x0 DUP1 REVERT JUMPDEST PUSH1 0x1 PUSH1 0x3 PUSH1 0x0 CALLER PUSH20 0xFFFFFFFFFFFFFFFFFFFFFFFFFFFFFFFFFFFFFFFF AND PUSH20 0xFFFFFFFFFFFFFFFFFFFFFFFFFFFFFFFFFFFFFFFF AND DUP2 MSTORE PUSH1 0x20 ADD SWAP1 DUP2 MSTORE PUSH1 0x20 ADD PUSH1 0x0 KECCAK256 PUSH1 0x0 PUSH2 0x100 EXP DUP2 SLOAD DUP2 PUSH1 0xFF MUL NOT AND SWAP1 DUP4 ISZERO ISZERO MUL OR SWAP1 SSTORE POP PUSH1 0x2 PUSH1 0x1 DUP3 DUP2 SLOAD DUP2 LT PUSH2 0x27D JUMPI PUSH32 0x4E487B7100000000000000000000000000000000000000000000000000000000 PUSH1 0x0 MSTORE PUSH1 0x32 PUSH1 0x4 MSTORE PUSH1 0x24 PUSH1 0x0 REVERT JUMPDEST SWAP1 PUSH1 0x0 MSTORE PUSH1 0x20 PUSH1 0x0 KECCAK256 ADD PUSH1 0x40 MLOAD PUSH2 0x294 SWAP2 SWAP1 PUSH2 0xA0B JUMP JUMPDEST SWAP1 DUP2 MSTORE PUSH1 0x20 ADD PUSH1 0x40 MLOAD DUP1 SWAP2 SUB SWAP1 KECCAK256 PUSH1 0x0 DUP2 SLOAD DUP1 SWAP3 SWAP2 SWAP1 PUSH2 0x2B3 SWAP1 PUSH2 0xBCF JUMP JUMPDEST SWAP2 SWAP1 POP SSTORE POP POP JUMP JUMPDEST PUSH1 0x4 PUSH1 0x0 SWAP1 SLOAD SWAP1 PUSH2 0x100 EXP SWAP1 DIV PUSH1 0xFF AND DUP2 JUMP JUMPDEST PUSH1 0x1 DUP2 DUP2 SLOAD DUP2 LT PUSH2 0x2DE JUMPI PUSH1 0x0 DUP1 REVERT JUMPDEST SWAP1 PUSH1 0x0 MSTORE PUSH1 0x20 PUSH1 0x0 KECCAK256 ADD PUSH1 0x0 SWAP2 POP SWAP1 POP DUP1 SLOAD PUSH2 0x2F9 SWAP1 PUSH2 0xB9D JUMP JUMPDEST DUP1 PUSH1 0x1F ADD PUSH1 0x20 DUP1 SWAP2 DIV MUL PUSH1 0x20 ADD PUSH1 0x40 MLOAD SWAP1 DUP2 ADD PUSH1 0x40 MSTORE DUP1 SWAP3 SWAP2 SWAP1 DUP2 DUP2 MSTORE PUSH1 0x20 ADD DUP3 DUP1 SLOAD PUSH2 0x325 SWAP1 PUSH2 0xB9D JUMP JUMPDEST DUP1 ISZERO PUSH2 0x372 JUMPI DUP1 PUSH1 0x1F LT PUSH2 0x347 JUMPI PUSH2 0x100 DUP1 DUP4 SLOAD DIV MUL DUP4 MSTORE SWAP2 PUSH1 0x20 ADD SWAP2 PUSH2 0x372 JUMP JUMPDEST DUP3 ADD SWAP2 SWAP1 PUSH1 0x0 MSTORE PUSH1 0x20 PUSH1 0x0 KECCAK256 SWAP1 JUMPDEST DUP2 SLOAD DUP2 MSTORE SWAP1 PUSH1 0x1 ADD SWAP1 PUSH1 0x20 ADD DUP1 DUP4 GT PUSH2 0x355 JUMPI DUP3 SWAP1 SUB PUSH1 0x1F AND DUP3 ADD SWAP2 JUMPDEST POP POP POP POP POP DUP2 JUMP JUMPDEST PUSH1 0x0 DUP1 SLOAD SWAP1 PUSH2 0x100 EXP SWAP1 DIV PUSH20 0xFFFFFFFFFFFFFFFFFFFFFFFFFFFFFFFFFFFFFFFF AND DUP2 JUMP JUMPDEST PUSH1 0x60 PUSH1 0x4 PUSH1 0x0 SWAP1 SLOAD SWAP1 PUSH2 0x100 EXP SWAP1 DIV PUSH1 0xFF AND ISZERO PUSH2 0x3BA JUMPI PUSH1 0x0 DUP1 REVERT JUMPDEST PUSH1 0x6 DUP1 SLOAD PUSH2 0x3C7 SWAP1 PUSH2 0xB9D JUMP JUMPDEST DUP1 PUSH1 0x1F ADD PUSH1 0x20 DUP1 SWAP2 DIV MUL PUSH1 0x20 ADD PUSH1 0x40 MLOAD SWAP1 DUP2 ADD PUSH1 0x40 MSTORE DUP1 SWAP3 SWAP2 SWAP1 DUP2 DUP2 MSTORE PUSH1 0x20 ADD DUP3 DUP1 SLOAD PUSH2 0x3F3 SWAP1 PUSH2 0xB9D JUMP JUMPDEST DUP1 ISZERO PUSH2 0x440 JUMPI DUP1 PUSH1 0x1F LT PUSH2 0x415 JUMPI PUSH2 0x100 DUP1 DUP4 SLOAD DIV MUL DUP4 MSTORE SWAP2 PUSH1 0x20 ADD SWAP2 PUSH2 0x440 JUMP JUMPDEST DUP3 ADD SWAP2 SWAP1 PUSH1 0x0 MSTORE PUSH1 0x20 PUSH1 0x0 KECCAK256 SWAP1 JUMPDEST DUP2 SLOAD DUP2 MSTORE SWAP1 PUSH1 0x1 ADD SWAP1 PUSH1 0x20 ADD DUP1 DUP4 GT PUSH2 0x423 JUMPI DUP3 SWAP1 SUB PUSH1 0x1F AND DUP3 ADD SWAP2 JUMPDEST POP POP POP POP POP SWAP1 POP SWAP1 JUMP JUMPDEST PUSH1 0x5 DUP1 SLOAD PUSH2 0x457 SWAP1 PUSH2 0xB9D JUMP JUMPDEST DUP1 PUSH1 0x1F ADD PUSH1 0x20 DUP1 SWAP2 DIV MUL PUSH1 0x20 ADD PUSH1 0x40 MLOAD SWAP1 DUP2 ADD PUSH1 0x40 MSTORE DUP1 SWAP3 SWAP2 SWAP1 DUP2 DUP2 MSTORE PUSH1 0x20 ADD DUP3 DUP1 SLOAD PUSH2 0x483 SWAP1 PUSH2 0xB9D JUMP JUMPDEST DUP1 ISZERO PUSH2 0x4D0 JUMPI DUP1 PUSH1 0x1F LT PUSH2 0x4A5 JUMPI PUSH2 0x100 DUP1 DUP4 SLOAD DIV MUL DUP4 MSTORE SWAP2 PUSH1 0x20 ADD SWAP2 PUSH2 0x4D0 JUMP JUMPDEST DUP3 ADD SWAP2 SWAP1 PUSH1 0x0 MSTORE PUSH1 0x20 PUSH1 0x0 KECCAK256 SWAP1 JUMPDEST DUP2 SLOAD DUP2 MSTORE SWAP1 PUSH1 0x1 ADD SWAP1 PUSH1 0x20 ADD DUP1 DUP4 GT PUSH2 0x4B3 JUMPI DUP3 SWAP1 SUB PUSH1 0x1F AND DUP3 ADD SWAP2 JUMPDEST POP POP POP POP POP DUP2 JUMP JUMPDEST PUSH1 0x4 PUSH1 0x0 SWAP1 SLOAD SWAP1 PUSH2 0x100 EXP SWAP1 DIV PUSH1 0xFF AND PUSH2 0x4F1 JUMPI PUSH1 0x0 DUP1 REVERT JUMPDEST PUSH1 0x0 DUP1 SLOAD SWAP1 PUSH2 0x100 EXP SWAP1 DIV PUSH20 0xFFFFFFFFFFFFFFFFFFFFFFFFFFFFFFFFFFFFFFFF AND PUSH20 0xFFFFFFFFFFFFFFFFFFFFFFFFFFFFFFFFFFFFFFFF AND CALLER PUSH20 0xFFFFFFFFFFFFFFFFFFFFFFFFFFFFFFFFFFFFFFFF AND EQ PUSH2 0x549 JUMPI PUSH1 0x0 DUP1 REVERT JUMPDEST PUSH1 0x0 JUMPDEST PUSH1 0x1 DUP1 SLOAD SWAP1 POP DUP2 LT ISZERO PUSH2 0x653 JUMPI PUSH1 0x2 PUSH1 0x6 PUSH1 0x40 MLOAD PUSH2 0x56A SWAP2 SWAP1 PUSH2 0xA0B JUMP JUMPDEST SWAP1 DUP2 MSTORE PUSH1 0x20 ADD PUSH1 0x40 MLOAD DUP1 SWAP2 SUB SWAP1 KECCAK256 SLOAD PUSH1 0x2 PUSH1 0x1 DUP4 DUP2 SLOAD DUP2 LT PUSH2 0x5B5 JUMPI PUSH32 0x4E487B7100000000000000000000000000000000000000000000000000000000 PUSH1 0x0 MSTORE PUSH1 0x32 PUSH1 0x4 MSTORE PUSH1 0x24 PUSH1 0x0 REVERT JUMPDEST SWAP1 PUSH1 0x0 MSTORE PUSH1 0x20 PUSH1 0x0 KECCAK256 ADD PUSH1 0x40 MLOAD PUSH2 0x5CC SWAP2 SWAP1 PUSH2 0xA0B JUMP JUMPDEST SWAP1 DUP2 MSTORE PUSH1 0x20 ADD PUSH1 0x40 MLOAD DUP1 SWAP2 SUB SWAP1 KECCAK256 SLOAD GT ISZERO PUSH2 0x640 JUMPI PUSH1 0x1 DUP2 DUP2 SLOAD DUP2 LT PUSH2 0x61B JUMPI PUSH32 0x4E487B7100000000000000000000000000000000000000000000000000000000 PUSH1 0x0 MSTORE PUSH1 0x32 PUSH1 0x4 MSTORE PUSH1 0x24 PUSH1 0x0 REVERT JUMPDEST SWAP1 PUSH1 0x0 MSTORE PUSH1 0x20 PUSH1 0x0 KECCAK256 ADD PUSH1 0x6 SWAP1 DUP1 SLOAD PUSH2 0x633 SWAP1 PUSH2 0xB9D JUMP JUMPDEST PUSH2 0x63E SWAP3 SWAP2 SWAP1 PUSH2 0x78B JUMP JUMPDEST POP JUMPDEST DUP1 DUP1 PUSH2 0x64B SWAP1 PUSH2 0xBCF JUMP JUMPDEST SWAP2 POP POP PUSH2 0x54C JUMP JUMPDEST POP PUSH1 0x0 PUSH1 0x4 PUSH1 0x0 PUSH2 0x100 EXP DUP2 SLOAD DUP2 PUSH1 0xFF MUL NOT AND SWAP1 DUP4 ISZERO ISZERO MUL OR SWAP1 SSTORE POP PUSH1 0x0 DUP1 PUSH1 0x0 PUSH2 0x100 EXP DUP2 SLOAD DUP2 PUSH20 0xFFFFFFFFFFFFFFFFFFFFFFFFFFFFFFFFFFFFFFFF MUL NOT AND SWAP1 DUP4 PUSH20 0xFFFFFFFFFFFFFFFFFFFFFFFFFFFFFFFFFFFFFFFF AND MUL OR SWAP1 SSTORE POP JUMP JUMPDEST PUSH1 0x60 PUSH1 0x1 DUP1 SLOAD DUP1 PUSH1 0x20 MUL PUSH1 0x20 ADD PUSH1 0x40 MLOAD SWAP1 DUP2 ADD PUSH1 0x40 MSTORE DUP1 SWAP3 SWAP2 SWAP1 DUP2 DUP2 MSTORE PUSH1 0x20 ADD PUSH1 0x0 SWAP1 JUMPDEST DUP3 DUP3 LT ISZERO PUSH2 0x782 JUMPI DUP4 DUP3 SWAP1 PUSH1 0x0 MSTORE PUSH1 0x20 PUSH1 0x0 KECCAK256 ADD DUP1 SLOAD PUSH2 0x6F5 SWAP1 PUSH2 0xB9D JUMP JUMPDEST DUP1 PUSH1 0x1F ADD PUSH1 0x20 DUP1 SWAP2 DIV MUL PUSH1 0x20 ADD PUSH1 0x40 MLOAD SWAP1 DUP2 ADD PUSH1 0x40 MSTORE DUP1 SWAP3 SWAP2 SWAP1 DUP2 DUP2 MSTORE PUSH1 0x20 ADD DUP3 DUP1 SLOAD PUSH2 0x721 SWAP1 PUSH2 0xB9D JUMP JUMPDEST DUP1 ISZERO PUSH2 0x76E JUMPI DUP1 PUSH1 0x1F LT PUSH2 0x743 JUMPI PUSH2 0x100 DUP1 DUP4 SLOAD DIV MUL DUP4 MSTORE SWAP2 PUSH1 0x20 ADD SWAP2 PUSH2 0x76E JUMP JUMPDEST DUP3 ADD SWAP2 SWAP1 PUSH1 0x0 MSTORE PUSH1 0x20 PUSH1 0x0 KECCAK256 SWAP1 JUMPDEST DUP2 SLOAD DUP2 MSTORE SWAP1 PUSH1 0x1 ADD SWAP1 PUSH1 0x20 ADD DUP1 DUP4 GT PUSH2 0x751 JUMPI DUP3 SWAP1 SUB PUSH1 0x1F AND DUP3 ADD SWAP2 JUMPDEST POP POP POP POP POP DUP2 MSTORE PUSH1 0x20 ADD SWAP1 PUSH1 0x1 ADD SWAP1 PUSH2 0x6D6 JUMP JUMPDEST POP POP POP POP SWAP1 POP SWAP1 JUMP JUMPDEST DUP3 DUP1 SLOAD PUSH2 0x797 SWAP1 PUSH2 0xB9D JUMP JUMPDEST SWAP1 PUSH1 0x0 MSTORE PUSH1 0x20 PUSH1 0x0 KECCAK256 SWAP1 PUSH1 0x1F ADD PUSH1 0x20 SWAP1 DIV DUP2 ADD SWAP3 DUP3 PUSH2 0x7B9 JUMPI PUSH1 0x0 DUP6 SSTORE PUSH2 0x807 JUMP JUMPDEST DUP3 PUSH1 0x1F LT PUSH2 0x7CA JUMPI DUP1 SLOAD DUP6 SSTORE PUSH2 0x807 JUMP JUMPDEST DUP3 DUP1 ADD PUSH1 0x1 ADD DUP6 SSTORE DUP3 ISZERO PUSH2 0x807 JUMPI PUSH1 0x0 MSTORE PUSH1 0x20 PUSH1 0x0 KECCAK256 SWAP2 PUSH1 0x1F ADD PUSH1 0x20 SWAP1 DIV DUP3 ADD JUMPDEST DUP3 DUP2 GT ISZERO PUSH2 0x806 JUMPI DUP3 SLOAD DUP3 SSTORE SWAP2 PUSH1 0x1 ADD SWAP2 SWAP1 PUSH1 0x1 ADD SWAP1 PUSH2 0x7EB JUMP JUMPDEST JUMPDEST POP SWAP1 POP PUSH2 0x814 SWAP2 SWAP1 PUSH2 0x818 JUMP JUMPDEST POP SWAP1 JUMP JUMPDEST JUMPDEST DUP1 DUP3 GT ISZERO PUSH2 0x831 JUMPI PUSH1 0x0 DUP2 PUSH1 0x0 SWAP1 SSTORE POP PUSH1 0x1 ADD PUSH2 0x819 JUMP JUMPDEST POP SWAP1 JUMP JUMPDEST PUSH1 0x0 DUP2 CALLDATALOAD SWAP1 POP PUSH2 0x844 DUP2 PUSH2 0xC87 JUMP JUMPDEST SWAP3 SWAP2 POP POP JUMP JUMPDEST PUSH1 0x0 PUSH1 0x20 DUP3 DUP5 SUB SLT ISZERO PUSH2 0x85C JUMPI PUSH1 0x0 DUP1 REVERT JUMPDEST PUSH1 0x0 PUSH2 0x86A DUP5 DUP3 DUP6 ADD PUSH2 0x835 JUMP JUMPDEST SWAP2 POP POP SWAP3 SWAP2 POP POP JUMP JUMPDEST PUSH1 0x0 PUSH2 0x87F DUP4 DUP4 PUSH2 0x91A JUMP JUMPDEST SWAP1 POP SWAP3 SWAP2 POP POP JUMP JUMPDEST PUSH2 0x890 DUP2 PUSH2 0xB22 JUMP JUMPDEST DUP3 MSTORE POP POP JUMP JUMPDEST PUSH1 0x0 PUSH2 0x8A1 DUP3 PUSH2 0xAC1 JUMP JUMPDEST PUSH2 0x8AB DUP2 DUP6 PUSH2 0xAE4 JUMP JUMPDEST SWAP4 POP DUP4 PUSH1 0x20 DUP3 MUL DUP6 ADD PUSH2 0x8BD DUP6 PUSH2 0xA9C JUMP JUMPDEST DUP1 PUSH1 0x0 JUMPDEST DUP6 DUP2 LT ISZERO PUSH2 0x8F9 JUMPI DUP5 DUP5 SUB DUP10 MSTORE DUP2 MLOAD PUSH2 0x8DA DUP6 DUP3 PUSH2 0x873 JUMP JUMPDEST SWAP5 POP PUSH2 0x8E5 DUP4 PUSH2 0xAD7 JUMP JUMPDEST SWAP3 POP PUSH1 0x20 DUP11 ADD SWAP10 POP POP PUSH1 0x1 DUP2 ADD SWAP1 POP PUSH2 0x8C1 JUMP JUMPDEST POP DUP3 SWAP8 POP DUP8 SWAP6 POP POP POP POP POP POP SWAP3 SWAP2 POP POP JUMP JUMPDEST PUSH2 0x914 DUP2 PUSH2 0xB34 JUMP JUMPDEST DUP3 MSTORE POP POP JUMP JUMPDEST PUSH1 0x0 PUSH2 0x925 DUP3 PUSH2 0xACC JUMP JUMPDEST PUSH2 0x92F DUP2 DUP6 PUSH2 0xAF5 JUMP JUMPDEST SWAP4 POP PUSH2 0x93F DUP2 DUP6 PUSH1 0x20 DUP7 ADD PUSH2 0xB6A JUMP JUMPDEST PUSH2 0x948 DUP2 PUSH2 0xC76 JUMP JUMPDEST DUP5 ADD SWAP2 POP POP SWAP3 SWAP2 POP POP JUMP JUMPDEST PUSH1 0x0 PUSH2 0x95E DUP3 PUSH2 0xACC JUMP JUMPDEST PUSH2 0x968 DUP2 DUP6 PUSH2 0xB06 JUMP JUMPDEST SWAP4 POP PUSH2 0x978 DUP2 DUP6 PUSH1 0x20 DUP7 ADD PUSH2 0xB6A JUMP JUMPDEST PUSH2 0x981 DUP2 PUSH2 0xC76 JUMP JUMPDEST DUP5 ADD SWAP2 POP POP SWAP3 SWAP2 POP POP JUMP JUMPDEST PUSH1 0x0 DUP2 SLOAD PUSH2 0x999 DUP2 PUSH2 0xB9D JUMP JUMPDEST PUSH2 0x9A3 DUP2 DUP7 PUSH2 0xB17 JUMP JUMPDEST SWAP5 POP PUSH1 0x1 DUP3 AND PUSH1 0x0 DUP2 EQ PUSH2 0x9BE JUMPI PUSH1 0x1 DUP2 EQ PUSH2 0x9CF JUMPI PUSH2 0xA02 JUMP JUMPDEST PUSH1 0xFF NOT DUP4 AND DUP7 MSTORE DUP2 DUP7 ADD SWAP4 POP PUSH2 0xA02 JUMP JUMPDEST PUSH2 0x9D8 DUP6 PUSH2 0xAAC JUMP JUMPDEST PUSH1 0x0 JUMPDEST DUP4 DUP2 LT ISZERO PUSH2 0x9FA JUMPI DUP2 SLOAD DUP2 DUP10 ADD MSTORE PUSH1 0x1 DUP3 ADD SWAP2 POP PUSH1 0x20 DUP2 ADD SWAP1 POP PUSH2 0x9DB JUMP JUMPDEST DUP4 DUP9 ADD SWAP6 POP POP POP JUMPDEST POP POP POP SWAP3 SWAP2 POP POP JUMP JUMPDEST PUSH1 0x0 PUSH2 0xA17 DUP3 DUP5 PUSH2 0x98C JUMP JUMPDEST SWAP2 POP DUP2 SWAP1 POP SWAP3 SWAP2 POP POP JUMP JUMPDEST PUSH1 0x0 PUSH1 0x20 DUP3 ADD SWAP1 POP PUSH2 0xA37 PUSH1 0x0 DUP4 ADD DUP5 PUSH2 0x887 JUMP JUMPDEST SWAP3 SWAP2 POP POP JUMP JUMPDEST PUSH1 0x0 PUSH1 0x20 DUP3 ADD SWAP1 POP DUP2 DUP2 SUB PUSH1 0x0 DUP4 ADD MSTORE PUSH2 0xA57 DUP2 DUP5 PUSH2 0x896 JUMP JUMPDEST SWAP1 POP SWAP3 SWAP2 POP POP JUMP JUMPDEST PUSH1 0x0 PUSH1 0x20 DUP3 ADD SWAP1 POP PUSH2 0xA74 PUSH1 0x0 DUP4 ADD DUP5 PUSH2 0x90B JUMP JUMPDEST SWAP3 SWAP2 POP POP JUMP JUMPDEST PUSH1 0x0 PUSH1 0x20 DUP3 ADD SWAP1 POP DUP2 DUP2 SUB PUSH1 0x0 DUP4 ADD MSTORE PUSH2 0xA94 DUP2 DUP5 PUSH2 0x953 JUMP JUMPDEST SWAP1 POP SWAP3 SWAP2 POP POP JUMP JUMPDEST PUSH1 0x0 DUP2 SWAP1 POP PUSH1 0x20 DUP3 ADD SWAP1 POP SWAP2 SWAP1 POP JUMP JUMPDEST PUSH1 0x0 DUP2 SWAP1 POP DUP2 PUSH1 0x0 MSTORE PUSH1 0x20 PUSH1 0x0 KECCAK256 SWAP1 POP SWAP2 SWAP1 POP JUMP JUMPDEST PUSH1 0x0 DUP2 MLOAD SWAP1 POP SWAP2 SWAP1 POP JUMP JUMPDEST PUSH1 0x0 DUP2 MLOAD SWAP1 POP SWAP2 SWAP1 POP JUMP JUMPDEST PUSH1 0x0 PUSH1 0x20 DUP3 ADD SWAP1 POP SWAP2 SWAP1 POP JUMP JUMPDEST PUSH1 0x0 DUP3 DUP3 MSTORE PUSH1 0x20 DUP3 ADD SWAP1 POP SWAP3 SWAP2 POP POP JUMP JUMPDEST PUSH1 0x0 DUP3 DUP3 MSTORE PUSH1 0x20 DUP3 ADD SWAP1 POP SWAP3 SWAP2 POP POP JUMP JUMPDEST PUSH1 0x0 DUP3 DUP3 MSTORE PUSH1 0x20 DUP3 ADD SWAP1 POP SWAP3 SWAP2 POP POP JUMP JUMPDEST PUSH1 0x0 DUP2 SWAP1 POP SWAP3 SWAP2 POP POP JUMP JUMPDEST PUSH1 0x0 PUSH2 0xB2D DUP3 PUSH2 0xB40 JUMP JUMPDEST SWAP1 POP SWAP2 SWAP1 POP JUMP JUMPDEST PUSH1 0x0 DUP2 ISZERO ISZERO SWAP1 POP SWAP2 SWAP1 POP JUMP JUMPDEST PUSH1 0x0 PUSH20 0xFFFFFFFFFFFFFFFFFFFFFFFFFFFFFFFFFFFFFFFF DUP3 AND SWAP1 POP SWAP2 SWAP1 POP JUMP JUMPDEST PUSH1 0x0 DUP2 SWAP1 POP SWAP2 SWAP1 POP JUMP JUMPDEST PUSH1 0x0 JUMPDEST DUP4 DUP2 LT ISZERO PUSH2 0xB88 JUMPI DUP1 DUP3 ADD MLOAD DUP2 DUP5 ADD MSTORE PUSH1 0x20 DUP2 ADD SWAP1 POP PUSH2 0xB6D JUMP JUMPDEST DUP4 DUP2 GT ISZERO PUSH2 0xB97 JUMPI PUSH1 0x0 DUP5 DUP5 ADD MSTORE JUMPDEST POP POP POP POP JUMP JUMPDEST PUSH1 0x0 PUSH1 0x2 DUP3 DIV SWAP1 POP PUSH1 0x1 DUP3 AND DUP1 PUSH2 0xBB5 JUMPI PUSH1 0x7F DUP3 AND SWAP2 POP JUMPDEST PUSH1 0x20 DUP3 LT DUP2 EQ ISZERO PUSH2 0xBC9 JUMPI PUSH2 0xBC8 PUSH2 0xC47 JUMP JUMPDEST JUMPDEST POP SWAP2 SWAP1 POP JUMP JUMPDEST PUSH1 0x0 PUSH2 0xBDA DUP3 PUSH2 0xB60 JUMP JUMPDEST SWAP2 POP PUSH32 0xFFFFFFFFFFFFFFFFFFFFFFFFFFFFFFFFFFFFFFFFFFFFFFFFFFFFFFFFFFFFFFFF DUP3 EQ ISZERO PUSH2 0xC0D JUMPI PUSH2 0xC0C PUSH2 0xC18 JUMP JUMPDEST JUMPDEST PUSH1 0x1 DUP3 ADD SWAP1 POP SWAP2 SWAP1 POP JUMP JUMPDEST PUSH32 0x4E487B7100000000000000000000000000000000000000000000000000000000 PUSH1 0x0 MSTORE PUSH1 0x11 PUSH1 0x4 MSTORE PUSH1 0x24 PUSH1 0x0 REVERT JUMPDEST PUSH32 0x4E487B7100000000000000000000000000000000000000000000000000000000 PUSH1 0x0 MSTORE PUSH1 0x22 PUSH1 0x4 MSTORE PUSH1 0x24 PUSH1 0x0 REVERT JUMPDEST PUSH1 0x0 PUSH1 0x1F NOT PUSH1 0x1F DUP4 ADD AND SWAP1 POP SWAP2 SWAP1 POP JUMP JUMPDEST PUSH2 0xC90 DUP2 PUSH2 0xB60 JUMP JUMPDEST DUP2 EQ PUSH2 0xC9B JUMPI PUSH1 0x0 DUP1 REVERT JUMPDEST POP JUMP INVALID LOG2 PUSH5 0x6970667358 0x22 SLT KECCAK256 CALLER 0xEA CALLDATACOPY PUSH17 0x9F54BE38A39548B0A5BA37305106D3F3BC 0x2D SUB PUSH28 0x35D4D1792527EFDF64736F6C63430008000033000000000000000000 "},"gasEstimates":{"creation":{"codeDepositCost":"656800","executionCost":"infinite","totalCost":"infinite"},"external":{"ORGANIZER()":"1278","candList(uint256)":"infinite","description()":"infinite","endVoting()":"infinite","giveCandList()":"infinite","vote(uint256)":"infinite","votingStatus()":"1194","winnerCand()":"infinite"}},"methodIdentifiers":{"ORGANIZER()":"4d1e73dd","candList(uint256)":"4b19721b","description()":"7284e416","endVoting()":"c3403ddf","giveCandList()":"f0afd295","vote(uint256)":"0121b93f","votingStatus()":"19f41a40","winnerCand()":"5fdfbf55"}},"storageLayout":{"storage":[{"astId":45,"contract":"fileName:Election","label":"ORGANIZER","offset":0,"slot":"0","type":"t_address"},{"astId":48,"contract":"fileName:Election","label":"candList","offset":0,"slot":"1","type":"t_array(t_string_storage)dyn_storage"},{"astId":52,"contract":"fileName:Election","label":"totalVotes","offset":0,"slot":"2","type":"t_mapping(t_string_memory_ptr,t_uint256)"},{"astId":56,"contract":"fileName:Election","label":"hasVoted","offset":0,"slot":"3","type":"t_mapping(t_address,t_bool)"},{"astId":59,"contract":"fileName:Election","label":"votingStatus","offset":0,"slot":"4","type":"t_bool"},{"astId":61,"contract":"fileName:Election","label":"description","offset":0,"slot":"5","type":"t_string_storage"},{"astId":63,"contract":"fileName:Election","label":"winner","offset":0,"slot":"6","type":"t_string_storage"}],"types":{"t_address":{"encoding":"inplace","label":"address","numberOfBytes":"20"},"t_array(t_string_storage)dyn_storage":{"base":"t_string_storage","encoding":"dynamic_array","label":"string[]","numberOfBytes":"32"},"t_bool":{"encoding":"inplace","label":"bool","numberOfBytes":"1"},"t_mapping(t_address,t_bool)":{"encoding":"mapping","key":"t_address","label":"mapping(address => bool)","numberOfBytes":"32","value":"t_bool"},"t_mapping(t_string_memory_ptr,t_uint256)":{"encoding":"mapping","key":"t_string_memory_ptr","label":"mapping(string => uint256)","numberOfBytes":"32","value":"t_uint256"},"t_string_memory_ptr":{"encoding":"bytes","label":"string","numberOfBytes":"32"},"t_string_storage":{"encoding":"bytes","label":"string","numberOfBytes":"32"},"t_uint256":{"encoding":"inplace","label":"uint256","numberOfBytes":"32"}}},"userdoc":{"kind":"user","methods":{},"version":1}}